{
  "address": "0x3618A08C0f73625140C6C749F91F7f51e769AdBe",
  "abi": [
    {
      "inputs": [
        {
          "internalType": "uint256",
          "name": "_home",
          "type": "uint256"
        },
        {
          "internalType": "address",
          "name": "initialOwner",
          "type": "address"
        },
        {
          "internalType": "address[]",
          "name": "_firstMembers",
          "type": "address[]"
        },
        {
          "internalType": "string",
          "name": "_uri",
          "type": "string"
        },
        {
          "internalType": "string",
          "name": "_name",
          "type": "string"
        },
        {
          "internalType": "string",
          "name": "_symbol",
          "type": "string"
        }
      ],
      "stateMutability": "nonpayable",
      "type": "constructor"
    },
    {
      "inputs": [],
      "name": "CheckpointUnorderedInsertion",
      "type": "error"
    },
    {
      "inputs": [],
      "name": "ECDSAInvalidSignature",
      "type": "error"
    },
    {
      "inputs": [
        {
          "internalType": "uint256",
          "name": "length",
          "type": "uint256"
        }
      ],
      "name": "ECDSAInvalidSignatureLength",
      "type": "error"
    },
    {
      "inputs": [
        {
          "internalType": "bytes32",
          "name": "s",
          "type": "bytes32"
        }
      ],
      "name": "ECDSAInvalidSignatureS",
      "type": "error"
    },
    {
      "inputs": [
        {
          "internalType": "uint256",
          "name": "timepoint",
          "type": "uint256"
        },
        {
          "internalType": "uint48",
          "name": "clock",
          "type": "uint48"
        }
      ],
      "name": "ERC5805FutureLookup",
      "type": "error"
    },
    {
      "inputs": [],
      "name": "ERC6372InconsistentClock",
      "type": "error"
    },
    {
      "inputs": [],
      "name": "ERC721EnumerableForbiddenBatchMint",
      "type": "error"
    },
    {
      "inputs": [
        {
          "internalType": "address",
          "name": "sender",
          "type": "address"
        },
        {
          "internalType": "uint256",
          "name": "tokenId",
          "type": "uint256"
        },
        {
          "internalType": "address",
          "name": "owner",
          "type": "address"
        }
      ],
      "name": "ERC721IncorrectOwner",
      "type": "error"
    },
    {
      "inputs": [
        {
          "internalType": "address",
          "name": "operator",
          "type": "address"
        },
        {
          "internalType": "uint256",
          "name": "tokenId",
          "type": "uint256"
        }
      ],
      "name": "ERC721InsufficientApproval",
      "type": "error"
    },
    {
      "inputs": [
        {
          "internalType": "address",
          "name": "approver",
          "type": "address"
        }
      ],
      "name": "ERC721InvalidApprover",
      "type": "error"
    },
    {
      "inputs": [
        {
          "internalType": "address",
          "name": "operator",
          "type": "address"
        }
      ],
      "name": "ERC721InvalidOperator",
      "type": "error"
    },
    {
      "inputs": [
        {
          "internalType": "address",
          "name": "owner",
          "type": "address"
        }
      ],
      "name": "ERC721InvalidOwner",
      "type": "error"
    },
    {
      "inputs": [
        {
          "internalType": "address",
          "name": "receiver",
          "type": "address"
        }
      ],
      "name": "ERC721InvalidReceiver",
      "type": "error"
    },
    {
      "inputs": [
        {
          "internalType": "address",
          "name": "sender",
          "type": "address"
        }
      ],
      "name": "ERC721InvalidSender",
      "type": "error"
    },
    {
      "inputs": [
        {
          "internalType": "uint256",
          "name": "tokenId",
          "type": "uint256"
        }
      ],
      "name": "ERC721NonexistentToken",
      "type": "error"
    },
    {
      "inputs": [
        {
          "internalType": "address",
          "name": "owner",
          "type": "address"
        },
        {
          "internalType": "uint256",
          "name": "index",
          "type": "uint256"
        }
      ],
      "name": "ERC721OutOfBoundsIndex",
      "type": "error"
    },
    {
      "inputs": [
        {
          "internalType": "address",
          "name": "account",
          "type": "address"
        },
        {
          "internalType": "uint256",
          "name": "currentNonce",
          "type": "uint256"
        }
      ],
      "name": "InvalidAccountNonce",
      "type": "error"
    },
    {
      "inputs": [],
      "name": "InvalidShortString",
      "type": "error"
    },
    {
      "inputs": [
        {
          "internalType": "address",
          "name": "owner",
          "type": "address"
        }
      ],
      "name": "OwnableInvalidOwner",
      "type": "error"
    },
    {
      "inputs": [
        {
          "internalType": "address",
          "name": "account",
          "type": "address"
        }
      ],
      "name": "OwnableUnauthorizedAccount",
      "type": "error"
    },
    {
      "inputs": [
        {
          "internalType": "uint8",
          "name": "bits",
          "type": "uint8"
        },
        {
          "internalType": "uint256",
          "name": "value",
          "type": "uint256"
        }
      ],
      "name": "SafeCastOverflowedUintDowncast",
      "type": "error"
    },
    {
      "inputs": [
        {
          "internalType": "string",
          "name": "str",
          "type": "string"
        }
      ],
      "name": "StringTooLong",
      "type": "error"
    },
    {
      "inputs": [
        {
          "internalType": "uint256",
          "name": "expiry",
          "type": "uint256"
        }
      ],
      "name": "VotesExpiredSignature",
      "type": "error"
    },
    {
      "anonymous": false,
      "inputs": [
        {
          "indexed": true,
          "internalType": "address",
          "name": "owner",
          "type": "address"
        },
        {
          "indexed": true,
          "internalType": "address",
          "name": "approved",
          "type": "address"
        },
        {
          "indexed": true,
          "internalType": "uint256",
          "name": "tokenId",
          "type": "uint256"
        }
      ],
      "name": "Approval",
      "type": "event"
    },
    {
      "anonymous": false,
      "inputs": [
        {
          "indexed": true,
          "internalType": "address",
          "name": "owner",
          "type": "address"
        },
        {
          "indexed": true,
          "internalType": "address",
          "name": "operator",
          "type": "address"
        },
        {
          "indexed": false,
          "internalType": "bool",
          "name": "approved",
          "type": "bool"
        }
      ],
      "name": "ApprovalForAll",
      "type": "event"
    },
    {
      "anonymous": false,
      "inputs": [
        {
          "indexed": false,
          "internalType": "uint256",
          "name": "_fromTokenId",
          "type": "uint256"
        },
        {
          "indexed": false,
          "internalType": "uint256",
          "name": "_toTokenId",
          "type": "uint256"
        }
      ],
      "name": "BatchMetadataUpdate",
      "type": "event"
    },
    {
      "anonymous": false,
      "inputs": [
        {
          "indexed": true,
          "internalType": "address",
          "name": "delegator",
          "type": "address"
        },
        {
          "indexed": true,
          "internalType": "address",
          "name": "fromDelegate",
          "type": "address"
        },
        {
          "indexed": true,
          "internalType": "address",
          "name": "toDelegate",
          "type": "address"
        }
      ],
      "name": "DelegateChanged",
      "type": "event"
    },
    {
      "anonymous": false,
      "inputs": [
        {
          "indexed": true,
          "internalType": "address",
          "name": "delegate",
          "type": "address"
        },
        {
          "indexed": false,
          "internalType": "uint256",
          "name": "previousVotes",
          "type": "uint256"
        },
        {
          "indexed": false,
          "internalType": "uint256",
          "name": "newVotes",
          "type": "uint256"
        }
      ],
      "name": "DelegateVotesChanged",
      "type": "event"
    },
    {
      "anonymous": false,
      "inputs": [],
      "name": "EIP712DomainChanged",
      "type": "event"
    },
    {
      "anonymous": false,
      "inputs": [
        {
          "indexed": true,
          "internalType": "uint256",
          "name": "tokenId",
          "type": "uint256"
        },
        {
          "indexed": true,
          "internalType": "address",
          "name": "member",
          "type": "address"
        },
        {
          "indexed": true,
          "internalType": "address",
          "name": "claimer",
          "type": "address"
        }
      ],
      "name": "MembershipClaimed",
      "type": "event"
    },
    {
      "anonymous": false,
      "inputs": [
        {
          "indexed": true,
          "internalType": "uint256",
          "name": "tokenId",
          "type": "uint256"
        },
        {
          "indexed": true,
          "internalType": "address",
          "name": "member",
          "type": "address"
        }
      ],
      "name": "MembershipRevoked",
      "type": "event"
    },
    {
      "anonymous": false,
      "inputs": [
        {
          "indexed": false,
          "internalType": "uint256",
          "name": "_tokenId",
          "type": "uint256"
        }
      ],
      "name": "MetadataUpdate",
      "type": "event"
    },
    {
      "anonymous": false,
      "inputs": [
        {
          "indexed": true,
          "internalType": "uint256",
          "name": "tokenId",
          "type": "uint256"
        },
        {
          "indexed": false,
          "internalType": "string",
          "name": "newUri",
          "type": "string"
        }
      ],
      "name": "MetadataUpdated",
      "type": "event"
    },
    {
      "anonymous": false,
      "inputs": [
        {
          "indexed": true,
          "internalType": "address",
          "name": "previousOwner",
          "type": "address"
        },
        {
          "indexed": true,
          "internalType": "address",
          "name": "newOwner",
          "type": "address"
        }
      ],
      "name": "OwnershipTransferred",
      "type": "event"
    },
    {
      "anonymous": false,
      "inputs": [
        {
          "indexed": true,
          "internalType": "address",
          "name": "from",
          "type": "address"
        },
        {
          "indexed": true,
          "internalType": "address",
          "name": "to",
          "type": "address"
        },
        {
          "indexed": true,
          "internalType": "uint256",
          "name": "tokenId",
          "type": "uint256"
        }
      ],
      "name": "Transfer",
      "type": "event"
    },
    {
      "inputs": [],
      "name": "CLOCK_MODE",
      "outputs": [
        {
          "internalType": "string",
          "name": "",
          "type": "string"
        }
      ],
      "stateMutability": "pure",
      "type": "function"
    },
    {
      "inputs": [
        {
          "internalType": "address",
          "name": "to",
          "type": "address"
        },
        {
          "internalType": "uint256",
          "name": "tokenId",
          "type": "uint256"
        }
      ],
      "name": "approve",
      "outputs": [],
      "stateMutability": "nonpayable",
      "type": "function"
    },
    {
      "inputs": [
        {
          "internalType": "address",
          "name": "owner",
          "type": "address"
        }
      ],
      "name": "balanceOf",
      "outputs": [
        {
          "internalType": "uint256",
          "name": "",
          "type": "uint256"
        }
      ],
      "stateMutability": "view",
      "type": "function"
    },
    {
      "inputs": [
        {
          "internalType": "uint256",
          "name": "tokenId",
          "type": "uint256"
        }
      ],
      "name": "burn",
      "outputs": [],
      "stateMutability": "nonpayable",
      "type": "function"
    },
    {
      "inputs": [
        {
          "internalType": "bytes",
          "name": "proof",
          "type": "bytes"
        }
      ],
      "name": "claimBurn",
      "outputs": [],
      "stateMutability": "nonpayable",
      "type": "function"
    },
    {
      "inputs": [
        {
          "internalType": "bytes",
          "name": "proof",
          "type": "bytes"
        }
      ],
      "name": "claimMetadataUpdate",
      "outputs": [],
      "stateMutability": "nonpayable",
      "type": "function"
    },
    {
      "inputs": [
        {
          "internalType": "bytes",
          "name": "proof",
          "type": "bytes"
        }
      ],
      "name": "claimMint",
      "outputs": [],
      "stateMutability": "nonpayable",
      "type": "function"
    },
    {
      "inputs": [],
      "name": "clock",
      "outputs": [
        {
          "internalType": "uint48",
          "name": "",
          "type": "uint48"
        }
      ],
      "stateMutability": "view",
      "type": "function"
    },
    {
      "inputs": [
        {
          "internalType": "address",
          "name": "delegatee",
          "type": "address"
        }
      ],
      "name": "delegate",
      "outputs": [],
      "stateMutability": "nonpayable",
      "type": "function"
    },
    {
      "inputs": [
        {
          "internalType": "address",
          "name": "delegatee",
          "type": "address"
        },
        {
          "internalType": "uint256",
          "name": "nonce",
          "type": "uint256"
        },
        {
          "internalType": "uint256",
          "name": "expiry",
          "type": "uint256"
        },
        {
          "internalType": "uint8",
          "name": "v",
          "type": "uint8"
        },
        {
          "internalType": "bytes32",
          "name": "r",
          "type": "bytes32"
        },
        {
          "internalType": "bytes32",
          "name": "s",
          "type": "bytes32"
        }
      ],
      "name": "delegateBySig",
      "outputs": [],
      "stateMutability": "nonpayable",
      "type": "function"
    },
    {
      "inputs": [
        {
          "internalType": "address",
          "name": "account",
          "type": "address"
        }
      ],
      "name": "delegates",
      "outputs": [
        {
          "internalType": "address",
          "name": "",
          "type": "address"
        }
      ],
      "stateMutability": "view",
      "type": "function"
    },
    {
      "inputs": [],
      "name": "eip712Domain",
      "outputs": [
        {
          "internalType": "bytes1",
          "name": "fields",
          "type": "bytes1"
        },
        {
          "internalType": "string",
          "name": "name",
          "type": "string"
        },
        {
          "internalType": "string",
          "name": "version",
          "type": "string"
        },
        {
          "internalType": "uint256",
          "name": "chainId",
          "type": "uint256"
        },
        {
          "internalType": "address",
          "name": "verifyingContract",
          "type": "address"
        },
        {
          "internalType": "bytes32",
          "name": "salt",
          "type": "bytes32"
        },
        {
          "internalType": "uint256[]",
          "name": "extensions",
          "type": "uint256[]"
        }
      ],
      "stateMutability": "view",
      "type": "function"
    },
    {
      "inputs": [
        {
          "internalType": "uint256",
          "name": "",
          "type": "uint256"
        }
      ],
      "name": "existsOnChain",
      "outputs": [
        {
          "internalType": "bool",
          "name": "",
          "type": "bool"
        }
      ],
      "stateMutability": "view",
      "type": "function"
    },
    {
      "inputs": [
        {
          "internalType": "uint256",
          "name": "tokenId",
          "type": "uint256"
        }
      ],
      "name": "generateBurnProof",
      "outputs": [
        {
          "internalType": "bytes",
          "name": "",
          "type": "bytes"
        }
      ],
      "stateMutability": "view",
      "type": "function"
    },
    {
      "inputs": [
        {
          "internalType": "uint256",
          "name": "tokenId",
          "type": "uint256"
        },
        {
          "internalType": "string",
          "name": "uri",
          "type": "string"
        }
      ],
      "name": "generateMetadataProof",
      "outputs": [
        {
          "internalType": "bytes",
          "name": "",
          "type": "bytes"
        }
      ],
      "stateMutability": "view",
      "type": "function"
    },
    {
      "inputs": [
        {
          "internalType": "uint256",
          "name": "tokenId",
          "type": "uint256"
        }
      ],
      "name": "generateMintProof",
      "outputs": [
        {
          "internalType": "bytes",
          "name": "",
          "type": "bytes"
        }
      ],
      "stateMutability": "view",
      "type": "function"
    },
    {
      "inputs": [
        {
          "internalType": "uint256",
          "name": "tokenId",
          "type": "uint256"
        }
      ],
      "name": "getApproved",
      "outputs": [
        {
          "internalType": "address",
          "name": "",
          "type": "address"
        }
      ],
      "stateMutability": "view",
      "type": "function"
    },
    {
      "inputs": [
        {
          "internalType": "uint256",
          "name": "timepoint",
          "type": "uint256"
        }
      ],
      "name": "getPastTotalSupply",
      "outputs": [
        {
          "internalType": "uint256",
          "name": "",
          "type": "uint256"
        }
      ],
      "stateMutability": "view",
      "type": "function"
    },
    {
      "inputs": [
        {
          "internalType": "address",
          "name": "account",
          "type": "address"
        },
        {
          "internalType": "uint256",
          "name": "timepoint",
          "type": "uint256"
        }
      ],
      "name": "getPastVotes",
      "outputs": [
        {
          "internalType": "uint256",
          "name": "",
          "type": "uint256"
        }
      ],
      "stateMutability": "view",
      "type": "function"
    },
    {
      "inputs": [
        {
          "internalType": "address",
          "name": "account",
          "type": "address"
        }
      ],
      "name": "getVotes",
      "outputs": [
        {
          "internalType": "uint256",
          "name": "",
          "type": "uint256"
        }
      ],
      "stateMutability": "view",
      "type": "function"
    },
    {
      "inputs": [
        {
          "internalType": "uint256",
          "name": "tokenId",
          "type": "uint256"
        }
      ],
      "name": "govBurn",
      "outputs": [],
      "stateMutability": "nonpayable",
      "type": "function"
    },
    {
      "inputs": [],
      "name": "home",
      "outputs": [
        {
          "internalType": "uint256",
          "name": "",
          "type": "uint256"
        }
      ],
      "stateMutability": "view",
      "type": "function"
    },
    {
      "inputs": [
        {
          "internalType": "address",
          "name": "owner",
          "type": "address"
        },
        {
          "internalType": "address",
          "name": "operator",
          "type": "address"
        }
      ],
      "name": "isApprovedForAll",
      "outputs": [
        {
          "internalType": "bool",
          "name": "",
          "type": "bool"
        }
      ],
      "stateMutability": "view",
      "type": "function"
    },
    {
      "inputs": [],
      "name": "name",
      "outputs": [
        {
          "internalType": "string",
          "name": "",
          "type": "string"
        }
      ],
      "stateMutability": "view",
      "type": "function"
    },
    {
      "inputs": [
        {
          "internalType": "address",
          "name": "owner",
          "type": "address"
        }
      ],
      "name": "nonces",
      "outputs": [
        {
          "internalType": "uint256",
          "name": "",
          "type": "uint256"
        }
      ],
      "stateMutability": "view",
      "type": "function"
    },
    {
      "inputs": [],
      "name": "owner",
      "outputs": [
        {
          "internalType": "address",
          "name": "",
          "type": "address"
        }
      ],
      "stateMutability": "view",
      "type": "function"
    },
    {
      "inputs": [
        {
          "internalType": "uint256",
          "name": "tokenId",
          "type": "uint256"
        }
      ],
      "name": "ownerOf",
      "outputs": [
        {
          "internalType": "address",
          "name": "",
          "type": "address"
        }
      ],
      "stateMutability": "view",
      "type": "function"
    },
    {
      "inputs": [],
      "name": "renounceOwnership",
      "outputs": [],
      "stateMutability": "nonpayable",
      "type": "function"
    },
    {
      "inputs": [
        {
          "internalType": "address",
          "name": "to",
          "type": "address"
        },
        {
          "internalType": "string",
          "name": "uri",
          "type": "string"
        }
      ],
      "name": "safeMint",
      "outputs": [],
      "stateMutability": "nonpayable",
      "type": "function"
    },
    {
      "inputs": [
        {
          "internalType": "address",
          "name": "from",
          "type": "address"
        },
        {
          "internalType": "address",
          "name": "to",
          "type": "address"
        },
        {
          "internalType": "uint256",
          "name": "tokenId",
          "type": "uint256"
        }
      ],
      "name": "safeTransferFrom",
      "outputs": [],
      "stateMutability": "nonpayable",
      "type": "function"
    },
    {
      "inputs": [
        {
          "internalType": "address",
          "name": "from",
          "type": "address"
        },
        {
          "internalType": "address",
          "name": "to",
          "type": "address"
        },
        {
          "internalType": "uint256",
          "name": "tokenId",
          "type": "uint256"
        },
        {
          "internalType": "bytes",
          "name": "data",
          "type": "bytes"
        }
      ],
      "name": "safeTransferFrom",
      "outputs": [],
      "stateMutability": "nonpayable",
      "type": "function"
    },
    {
      "inputs": [
        {
          "internalType": "address",
          "name": "operator",
          "type": "address"
        },
        {
          "internalType": "bool",
          "name": "approved",
          "type": "bool"
        }
      ],
      "name": "setApprovalForAll",
      "outputs": [],
      "stateMutability": "nonpayable",
      "type": "function"
    },
    {
      "inputs": [
        {
          "internalType": "uint256",
          "name": "tokenId",
          "type": "uint256"
        },
        {
          "internalType": "string",
          "name": "uri",
          "type": "string"
        }
      ],
      "name": "setMetadata",
      "outputs": [],
      "stateMutability": "nonpayable",
      "type": "function"
    },
    {
      "inputs": [
        {
          "internalType": "bytes4",
          "name": "interfaceId",
          "type": "bytes4"
        }
      ],
      "name": "supportsInterface",
      "outputs": [
        {
          "internalType": "bool",
          "name": "",
          "type": "bool"
        }
      ],
      "stateMutability": "view",
      "type": "function"
    },
    {
      "inputs": [],
      "name": "symbol",
      "outputs": [
        {
          "internalType": "string",
          "name": "",
          "type": "string"
        }
      ],
      "stateMutability": "view",
      "type": "function"
    },
    {
      "inputs": [
        {
          "internalType": "uint256",
          "name": "index",
          "type": "uint256"
        }
      ],
      "name": "tokenByIndex",
      "outputs": [
        {
          "internalType": "uint256",
          "name": "",
          "type": "uint256"
        }
      ],
      "stateMutability": "view",
      "type": "function"
    },
    {
      "inputs": [
        {
          "internalType": "address",
          "name": "owner",
          "type": "address"
        },
        {
          "internalType": "uint256",
          "name": "index",
          "type": "uint256"
        }
      ],
      "name": "tokenOfOwnerByIndex",
      "outputs": [
        {
          "internalType": "uint256",
          "name": "",
          "type": "uint256"
        }
      ],
      "stateMutability": "view",
      "type": "function"
    },
    {
      "inputs": [
        {
          "internalType": "uint256",
          "name": "tokenId",
          "type": "uint256"
        }
      ],
      "name": "tokenURI",
      "outputs": [
        {
          "internalType": "string",
          "name": "",
          "type": "string"
        }
      ],
      "stateMutability": "view",
      "type": "function"
    },
    {
      "inputs": [],
      "name": "totalSupply",
      "outputs": [
        {
          "internalType": "uint256",
          "name": "",
          "type": "uint256"
        }
      ],
      "stateMutability": "view",
      "type": "function"
    },
    {
      "inputs": [
        {
          "internalType": "address",
          "name": "from",
          "type": "address"
        },
        {
          "internalType": "address",
          "name": "to",
          "type": "address"
        },
        {
          "internalType": "uint256",
          "name": "tokenId",
          "type": "uint256"
        }
      ],
      "name": "transferFrom",
      "outputs": [],
      "stateMutability": "nonpayable",
      "type": "function"
    },
    {
      "inputs": [
        {
          "internalType": "address",
          "name": "newOwner",
          "type": "address"
        }
      ],
      "name": "transferOwnership",
      "outputs": [],
      "stateMutability": "nonpayable",
      "type": "function"
    }
  ],
  "transactionHash": "0x867a9718b8bf087e0239c1f4c368d09128d74199f8103cd916f8039d0aaa1b6a",
  "args": [
    11155111,
    "0x27292E1a901E3E0bE7d144aDba4CAD07da2d8a42",
    [
      "0xD8a394e7d7894bDF2C57139fF17e5CBAa29Dd977",
      "0xe61A1a5278290B6520f0CEf3F2c71Ba70CF5cf4C"
    ],
    "https://bafkreicj62l5xu6pk2xx7x7n6b7rpunxb4ehlh7fevyjapid3556smuz4y.ipfs.w3s.link/",
    "Membership NFT",
    "MEMBER"
  ],
  "numDeployments": 1,
  "solcInputHash": "ffcec93422cebc60fc36d6e5813d4310",
  "bytecode": "0x6101806040523480156200001257600080fd5b5060405162004d4338038062004d438339810160408190526200003591620011b1565b6040805180820190915260018152603160f81b6020820152829086828460006200006083826200130c565b5060016200006f82826200130c565b5050506001600160a01b038116620000a257604051631e4fbdf760e01b8152600060048201526024015b60405180910390fd5b620000ad81620001c6565b50620000bb82600c62000218565b61012052620000cc81600d62000218565b61014052815160208084019190912060e052815190820120610100524660a0526200015a60e05161010051604080517f8b73c3c69bb8fe3d512ecc4cf759cc79239f7b179b0ffacaa9a75d522b39400f60208201529081019290925260608201524660808201523060a082015260009060c00160405160208183030381529060405280519060200120905090565b60805250503060c05261016086905260005b8451811015620001b957620001a48582815181106200018f576200018f620013d8565b6020026020010151856200025160201b60201c565b80620001b08162001404565b9150506200016c565b505050505050506200156c565b600b80546001600160a01b038381166001600160a01b0319831681179093556040519116919082907f8be0079c531659141344cd1fd0a4f28419497f9722a3daafe3b4186f6b6457e090600090a35050565b6000602083511015620002385762000230836200029f565b90506200024b565b816200024584826200130c565b5060ff90505b92915050565b6012805460009182620002648362001404565b909155509050620002768382620002e2565b62000282818362000308565b6000908152601360205260409020805460ff191660011790555050565b600080829050601f81511115620002cd578260405163305a27a960e01b81526004016200009991906200144e565b8051620002da8262001463565b179392505050565b620003048282604051806020016040528060008152506200035a60201b60201c565b5050565b6000828152600a602052604090206200032282826200130c565b506040518281527ff8e1a15aba9398e019f0b49df1a4fde98ee17ae345cb5f6b5e2c27f5033e8ce79060200160405180910390a15050565b6200036683836200037b565b62000376336000858585620003e5565b505050565b6001600160a01b038216620003a757604051633250574960e11b81526000600482015260240162000099565b6000620003b68383836200051d565b90506001600160a01b0381161562000376576040516339e3563760e11b81526000600482015260240162000099565b6001600160a01b0383163b156200051657604051630a85bd0160e11b81526001600160a01b0384169063150b7a02906200042a90889088908790879060040162001488565b6020604051808303816000875af192505050801562000468575060408051601f3d908101601f191682019092526200046591810190620014c7565b60015b620004d6573d80801562000499576040519150601f19603f3d011682016040523d82523d6000602084013e6200049e565b606091505b508051600003620004ce57604051633250574960e11b81526001600160a01b038516600482015260240162000099565b805181602001fd5b6001600160e01b03198116630a85bd0160e11b146200051457604051633250574960e11b81526001600160a01b038516600482015260240162000099565b505b5050505050565b60006001600160a01b03821615806200053d57506001600160a01b038416155b6200058b5760405162461bcd60e51b815260206004820152601760248201527f4e4654206973206e6f74207472616e7366657261626c65000000000000000000604482015260640162000099565b62000598848484620005a0565b949350505050565b600080620005b0858585620005c0565b905062000598818660016200069c565b600080620005d085858562000734565b90506001600160a01b03811662000630576200062a84600880546000838152600960205260408120829055600182018355919091527ff3f7a9fe364faab93b216da50a3214154f22a0a2b415b23a84c8169e8b636ee30155565b62000656565b846001600160a01b0316816001600160a01b031614620006565762000656818562000833565b6001600160a01b03851662000676576200067084620008b7565b62000598565b846001600160a01b0316816001600160a01b031614620005985762000598858562000971565b6001600160a01b038316620006d157620006ce6011620012c2620009c560201b17620006c884620009da565b62000a14565b50505b6001600160a01b0382166200070057620006fd6011620012d562000a4860201b17620006c884620009da565b50505b6001600160a01b038381166000908152600f6020526040808220548584168352912054620003769291821691168362000a56565b6000828152600260205260408120546001600160a01b039081169083161562000764576200076481848662000bbd565b6001600160a01b03811615620007a45762000783600085818062000c27565b6001600160a01b038116600090815260036020526040902080546000190190555b6001600160a01b03851615620007d4576001600160a01b0385166000908152600360205260409020805460010190555b60008481526002602052604080822080546001600160a01b0319166001600160a01b0389811691821790925591518793918516917fddf252ad1be2c89b69c2b068fc378daa952ba7f163c4a11628f55a4df523b3ef91a4949350505050565b6000620008408362000d55565b6000838152600760209081526040808320546001600160a01b03881684526006909252909120919250908183146200089857600083815260208281526040808320548584528184208190558352600790915290208290555b6000938452600760209081526040808620869055938552525081205550565b600854600090620008cb90600190620014f3565b60008381526009602052604081205460088054939450909284908110620008f657620008f6620013d8565b9060005260206000200154905080600883815481106200091a576200091a620013d8565b600091825260208083209091019290925582815260099091526040808220849055858252812055600880548062000955576200095562001509565b6001900381819060005260206000200160009055905550505050565b60006001620009808462000d55565b6200098c9190620014f3565b6001600160a01b039093166000908152600660209081526040808320868452825280832085905593825260079052919091209190915550565b6000620009d382846200151f565b9392505050565b60006001600160d01b0382111562000a10576040516306dfcc6560e41b815260d060048201526024810183905260440162000099565b5090565b60008062000a3b4262000a3262000a2b8862000d9f565b868860201c565b87919062000dee565b915091505b935093915050565b6000620009d3828462001549565b816001600160a01b0316836001600160a01b03161415801562000a795750600081115b1562000376576001600160a01b0383161562000b1c576001600160a01b03831660009081526010602090815260408220829162000ac7919062000a48901b620012d517620006c886620009da565b6001600160d01b031691506001600160d01b03169150846001600160a01b031660008051602062004d23833981519152838360405162000b11929190918252602082015260400190565b60405180910390a250505b6001600160a01b0382161562000376576001600160a01b03821660009081526010602090815260408220829162000b649190620009c5901b620012c217620006c886620009da565b6001600160d01b031691506001600160d01b03169150836001600160a01b031660008051602062004d23833981519152838360405162000bae929190918252602082015260400190565b60405180910390a25050505050565b62000bca83838362000dfe565b62000376576001600160a01b03831662000bfb57604051637e27328960e01b81526004810182905260240162000099565b60405163177e802f60e01b81526001600160a01b03831660048201526024810182905260440162000099565b808062000c3c57506001600160a01b03821615155b1562000d2557600062000c4f8462000e84565b90506001600160a01b0383161580159062000c7c5750826001600160a01b0316816001600160a01b031614155b801562000caf57506001600160a01b0380821660009081526005602090815260408083209387168352929052205460ff16155b1562000cda5760405163a9fbf51f60e01b81526001600160a01b038416600482015260240162000099565b811562000d235783856001600160a01b0316826001600160a01b03167f8c5be1e5ebec7d5bd14f71427d1e84f3dd0314c0f7b2291e5b200ac8c7c3b92560405160405180910390a45b505b5050600090815260046020526040902080546001600160a01b0319166001600160a01b0392909216919091179055565b60006001600160a01b03821662000d83576040516322718ad960e21b81526000600482015260240162000099565b506001600160a01b031660009081526003602052604090205490565b8054600090801562000de55762000dcb8362000dbd600184620014f3565b600091825260209091200190565b54660100000000000090046001600160d01b0316620009d3565b60009392505050565b60008062000a3b85858562000ebf565b60006001600160a01b03831615801590620005985750826001600160a01b0316846001600160a01b0316148062000e5a57506001600160a01b0380851660009081526005602090815260408083209387168352929052205460ff165b80620005985750506000908152600460205260409020546001600160a01b03908116911614919050565b6000818152600260205260408120546001600160a01b0316806200024b57604051637e27328960e01b81526004810184905260240162000099565b82546000908190801562000fc957600062000ee18762000dbd600185620014f3565b805490915065ffffffffffff80821691660100000000000090046001600160d01b031690881682111562000f2857604051632520601d60e01b815260040160405180910390fd5b8765ffffffffffff168265ffffffffffff160362000f6657825465ffffffffffff1666010000000000006001600160d01b0389160217835562000fba565b6040805180820190915265ffffffffffff808a1682526001600160d01b03808a1660208085019182528d54600181018f5560008f815291909120945191519092166601000000000000029216919091179101555b945085935062000a4092505050565b50506040805180820190915265ffffffffffff80851682526001600160d01b0380851660208085019182528854600181018a5560008a815291822095519251909316660100000000000002919093161792019190915590508162000a40565b80516001600160a01b03811681146200104057600080fd5b919050565b634e487b7160e01b600052604160045260246000fd5b604051601f8201601f191681016001600160401b038111828210171562001086576200108662001045565b604052919050565b600082601f830112620010a057600080fd5b815160206001600160401b03821115620010be57620010be62001045565b8160051b620010cf8282016200105b565b9283528481018201928281019087851115620010ea57600080fd5b83870192505b848310156200111457620011048362001028565b82529183019190830190620010f0565b979650505050505050565b60005b838110156200113c57818101518382015260200162001122565b50506000910152565b600082601f8301126200115757600080fd5b81516001600160401b0381111562001173576200117362001045565b62001188601f8201601f19166020016200105b565b8181528460208386010111156200119e57600080fd5b620005988260208301602087016200111f565b60008060008060008060c08789031215620011cb57600080fd5b86519550620011dd6020880162001028565b60408801519095506001600160401b0380821115620011fb57600080fd5b620012098a838b016200108e565b955060608901519150808211156200122057600080fd5b6200122e8a838b0162001145565b945060808901519150808211156200124557600080fd5b620012538a838b0162001145565b935060a08901519150808211156200126a57600080fd5b506200127989828a0162001145565b9150509295509295509295565b600181811c908216806200129b57607f821691505b602082108103620012bc57634e487b7160e01b600052602260045260246000fd5b50919050565b601f8211156200037657600081815260208120601f850160051c81016020861015620012eb5750805b601f850160051c820191505b818110156200051457828155600101620012f7565b81516001600160401b0381111562001328576200132862001045565b620013408162001339845462001286565b84620012c2565b602080601f8311600181146200137857600084156200135f5750858301515b600019600386901b1c1916600185901b17855562000514565b600085815260208120601f198616915b82811015620013a95788860151825594840194600190910190840162001388565b5085821015620013c85787850151600019600388901b60f8161c191681555b5050505050600190811b01905550565b634e487b7160e01b600052603260045260246000fd5b634e487b7160e01b600052601160045260246000fd5b600060018201620014195762001419620013ee565b5060010190565b600081518084526200143a8160208601602086016200111f565b601f01601f19169290920160200192915050565b602081526000620009d3602083018462001420565b80516020808301519190811015620012bc5760001960209190910360031b1b16919050565b6001600160a01b0385811682528416602082015260408101839052608060608201819052600090620014bd9083018462001420565b9695505050505050565b600060208284031215620014da57600080fd5b81516001600160e01b031981168114620009d357600080fd5b818103818111156200024b576200024b620013ee565b634e487b7160e01b600052603160045260246000fd5b6001600160d01b03818116838216019080821115620015425762001542620013ee565b5092915050565b6001600160d01b03828116828216039080821115620015425762001542620013ee565b60805160a05160c05160e05161010051610120516101405161016051613727620015fc600039600081816105000152818161088f01528181610a4301528181610d4001528181610f76015281816111220152611212015260006116de015260006116ac0152600061211e015260006120f6015260006120510152600061207b015260006120a501526137276000f3fe608060405234801561001057600080fd5b50600436106102535760003560e01c80637ecebe00116101465780639fa92f9d116100c3578063c87b56dd11610087578063c87b56dd1461056e578063cf09771314610581578063d204c45e14610594578063e985e9c5146105a7578063f2fde38b146105ba578063f2ff0f64146105cd57600080fd5b80639fa92f9d146104fb578063a22cb46514610522578063a39be22814610535578063b88d4fde14610548578063c3cda5201461055b57600080fd5b806391ddadf41161010a57806391ddadf4146104a4578063938cbd25146104ba57806395d89b41146104cd5780639ab24eb0146104d55780639df703ce146104e857600080fd5b80637ecebe001461042957806384b0196e146104525780638da5cb5b1461046d5780638e539e8c1461047e5780638f7868b81461049157600080fd5b806342842e0e116101d4578063593aa28311610198578063593aa283146103d55780635c19a95c146103e85780636352211e146103fb57806370a082311461040e578063715018a61461042157600080fd5b806342842e0e1461034657806342966c68146103595780634bf5d7e91461036c5780634f6ccce714610396578063587cde1e146103a957600080fd5b806318160ddd1161021b57806318160ddd146102e857806323b872dd146102fa57806326926d461461030d5780632f745c59146103205780633a46b1a81461033357600080fd5b806301ffc9a71461025857806306fdde0314610280578063081812fc14610295578063095ea7b3146102c05780630dc32264146102d5575b600080fd5b61026b610266366004612c6e565b6105f0565b60405190151581526020015b60405180910390f35b610288610601565b6040516102779190612cdb565b6102a86102a3366004612cee565b610693565b6040516001600160a01b039091168152602001610277565b6102d36102ce366004612d1c565b6106bc565b005b6102d36102e3366004612e0d565b6106cb565b6008545b604051908152602001610277565b6102d3610308366004612e42565b6107fa565b6102d361031b366004612cee565b610885565b6102ec61032e366004612d1c565b6108d8565b6102ec610341366004612d1c565b61093d565b6102d3610354366004612e42565b6109b4565b6102d3610367366004612cee565b6109d4565b60408051808201909152600e81526d06d6f64653d74696d657374616d760941b6020820152610288565b6102ec6103a4366004612cee565b6109e0565b6102a86103b7366004612e83565b6001600160a01b039081166000908152600f60205260409020541690565b6102d36103e3366004612ea0565b610a39565b6102d36103f6366004612e83565b610a8a565b6102a8610409366004612cee565b610a95565b6102ec61041c366004612e83565b610aa0565b6102d3610ae8565b6102ec610437366004612e83565b6001600160a01b03166000908152600e602052604090205490565b61045a610afc565b6040516102779796959493929190612ee7565b600b546001600160a01b03166102a8565b6102ec61048c366004612cee565b610b42565b6102d361049f366004612e0d565b610ba2565b60405165ffffffffffff42168152602001610277565b6102886104c8366004612cee565b610d3c565b610288610e02565b6102ec6104e3366004612e83565b610e11565b6102d36104f6366004612e0d565b610e41565b6102ec7f000000000000000000000000000000000000000000000000000000000000000081565b6102d3610530366004612f7d565b610f67565b610288610543366004612ea0565b610f72565b6102d3610556366004612fbb565b61103e565b6102d3610569366004613027565b611056565b61028861057c366004612cee565b611113565b61028861058f366004612cee565b61111e565b6102d36105a2366004613089565b611208565b61026b6105b53660046130c3565b611259565b6102d36105c8366004612e83565b611287565b61026b6105db366004612cee565b60136020526000908152604090205460ff1681565b60006105fb826112e1565b92915050565b606060008054610610906130f1565b80601f016020809104026020016040519081016040528092919081815260200182805461063c906130f1565b80156106895780601f1061065e57610100808354040283529160200191610689565b820191906000526020600020905b81548152906001019060200180831161066c57829003601f168201915b5050505050905090565b600061069e82611306565b506000828152600460205260409020546001600160a01b03166105fb565b6106c782823361133f565b5050565b6000806000838060200190518101906106e49190613170565b919450925090506000306002858560405160200161070594939291906131d6565b6040516020818303038152906040528051906020012090506000816040516020016107309190613225565b6040516020818303038152906040528051906020012090508083146107955760405162461bcd60e51b815260206004820152601660248201527524b73b30b634b21036b2ba30b230ba3090383937b7b360511b60448201526064015b60405180910390fd5b61079f858561134c565b60008581526013602052604090819020805460ff191660011790555185907f459157ba24c7ab9878b165ef465fa6ae2ab42bcd8445f576be378768b0c47309906107ea908790612cdb565b60405180910390a2505050505050565b6001600160a01b03821661082457604051633250574960e11b81526000600482015260240161078c565b600061083183833361139c565b9050836001600160a01b0316816001600160a01b03161461087f576040516364283d7b60e01b81526001600160a01b038086166004830152602482018490528216604482015260640161078c565b50505050565b61088d61141a565b7f000000000000000000000000000000000000000000000000000000000000000046146108cc5760405162461bcd60e51b815260040161078c90613256565b6108d581611447565b50565b60006108e383610aa0565b82106109145760405163295f44f760e21b81526001600160a01b03841660048201526024810183905260440161078c565b506001600160a01b03919091166000908152600660209081526040808320938352929052205490565b60004265ffffffffffff8116831061097957604051637669fc0f60e11b81526004810184905265ffffffffffff8216602482015260440161078c565b6109a3610985846114ae565b6001600160a01b0386166000908152601060205260409020906114e5565b6001600160d01b0316949350505050565b6109cf8383836040518060200160405280600081525061103e565b505050565b6106c76000823361139c565b60006109eb60085490565b8210610a145760405163295f44f760e21b8152600060048201526024810183905260440161078c565b60088281548110610a2757610a2761329a565b90600052602060002001549050919050565b610a4161141a565b7f00000000000000000000000000000000000000000000000000000000000000004614610a805760405162461bcd60e51b815260040161078c90613256565b6106c7828261159b565b336106c781836115e1565b60006105fb82611306565b60006001600160a01b038216610acc576040516322718ad960e21b81526000600482015260240161078c565b506001600160a01b031660009081526003602052604090205490565b610af061141a565b610afa6000611653565b565b600060608060008060006060610b106116a5565b610b186116d7565b60408051600080825260208201909252600f60f81b9b939a50919850469750309650945092509050565b60004265ffffffffffff81168310610b7e57604051637669fc0f60e11b81526004810184905265ffffffffffff8216602482015260440161078c565b610b92610b8a846114ae565b6011906114e5565b6001600160d01b03169392505050565b60008060008084806020019051810190610bbc91906132b0565b6000848152601360205260409020549397509195509350915060ff1615610c305760405162461bcd60e51b815260206004820152602260248201527f546f6b656e20616c726561647920657869737473206f6e20746869732063686160448201526134b760f11b606482015260840161078c565b60003081868686604051602001610c4b959493929190613312565b604051602081830303815290604052805190602001209050600081604051602001610c769190613225565b604051602081830303815290604052805190602001209050808314610cd25760405162461bcd60e51b815260206004820152601260248201527124b73b30b634b21036b4b73a10383937b7b360711b604482015260640161078c565b610cdc8587611704565b610ce6868561134c565b600086815260136020526040808220805460ff191660011790555133916001600160a01b0388169189917f8c69750af7bc6e51d7f48a9e072634ce4e8ebacea59bbcb790ef0b9864be541791a450505050505050565b60607f00000000000000000000000000000000000000000000000000000000000000004614610d7d5760405162461bcd60e51b815260040161078c9061336f565b600030600184604051602001610d95939291906133b9565b604051602081830303815290604052805190602001209050600081604051602001610dc09190613225565b60408051601f19818403018152828252805160209182012090830187905290820181905291506060015b60405160208183030381529060405292505050919050565b606060018054610610906130f1565b6001600160a01b0381166000908152601060205260408120610e329061171e565b6001600160d01b031692915050565b60008082806020019051810190610e5891906133f0565b9092509050600030600184604051602001610e75939291906133b9565b604051602081830303815290604052805190602001209050600081604051602001610ea09190613225565b604051602081830303815290604052805190602001209050808314610efc5760405162461bcd60e51b815260206004820152601260248201527124b73b30b634b210313ab93710383937b7b360711b604482015260640161078c565b6000610f0785610a95565b9050610f156000868361139c565b50600085815260136020526040808220805460ff19169055516001600160a01b0383169187917fe0fd1a23de299d57e22d2f21e65b192237ef36c4c8a96af320596376ee4e46339190a3505050505050565b6106c7338383611757565b60607f00000000000000000000000000000000000000000000000000000000000000004614610fb35760405162461bcd60e51b815260040161078c9061336f565b60003060028585604051602001610fcd94939291906131d6565b604051602081830303815290604052805190602001209050600081604051602001610ff89190613225565b60405160208183030381529060405280519060200120905084848260405160200161102593929190613414565b6040516020818303038152906040529250505092915050565b6110498484846107fa565b61087f33858585856117f6565b8342111561107a57604051632341d78760e11b81526004810185905260240161078c565b604080517fe48329057bfd03d55e49b547132e39cffd9c1820ad7b9d4c5307691425d15adf60208201526001600160a01b0388169181019190915260608101869052608081018590526000906110f4906110ec9060a00160405160208183030381529060405280519060200120611921565b85858561194e565b9050611100818761197c565b61110a81886115e1565b50505050505050565b60606105fb826119cf565b60607f0000000000000000000000000000000000000000000000000000000000000000461461115f5760405162461bcd60e51b815260040161078c9061336f565b600061116a83610a95565b9050600061117784611113565b905060003081868585604051602001611194959493929190613312565b6040516020818303038152906040528051906020012090506000816040516020016111bf9190613225565b604051602081830303815290604052805190602001209050858484836040516020016111ee949392919061343d565b604051602081830303815290604052945050505050919050565b61121061141a565b7f0000000000000000000000000000000000000000000000000000000000000000461461124f5760405162461bcd60e51b815260040161078c90613256565b6106c78282611ac0565b6001600160a01b03918216600090815260056020908152604080832093909416825291909152205460ff1690565b61128f61141a565b6001600160a01b0381166112b957604051631e4fbdf760e01b81526000600482015260240161078c565b6108d581611653565b60006112ce828461348e565b9392505050565b60006112ce82846134b5565b60006001600160e01b03198216632483248360e11b14806105fb57506105fb82611b08565b6000818152600260205260408120546001600160a01b0316806105fb57604051637e27328960e01b81526004810184905260240161078c565b6109cf8383836001611b2d565b6000828152600a60205260409020611364828261351b565b506040518281527ff8e1a15aba9398e019f0b49df1a4fde98ee17ae345cb5f6b5e2c27f5033e8ce79060200160405180910390a15050565b60006001600160a01b03821615806113bb57506001600160a01b038416155b6114075760405162461bcd60e51b815260206004820152601760248201527f4e4654206973206e6f74207472616e7366657261626c65000000000000000000604482015260640161078c565b611412848484611c33565b949350505050565b600b546001600160a01b03163314610afa5760405163118cdaa760e01b815233600482015260240161078c565b600061145282610a95565b90506114606000838361139c565b50600082815260136020526040808220805460ff19169055516001600160a01b0383169184917fe0fd1a23de299d57e22d2f21e65b192237ef36c4c8a96af320596376ee4e46339190a35050565b600065ffffffffffff8211156114e1576040516306dfcc6560e41b8152603060048201526024810183905260440161078c565b5090565b81546000908181600581111561154457600061150084611c4f565b61150a90856135db565b60008881526020902090915081015465ffffffffffff908116908716101561153457809150611542565b61153f8160016135ee565b92505b505b600061155287878585611da8565b9050801561158d57611577876115696001846135db565b600091825260209091200190565b54600160301b90046001600160d01b0316611590565b60005b979650505050505050565b6115a5828261134c565b817f459157ba24c7ab9878b165ef465fa6ae2ab42bcd8445f576be378768b0c47309826040516115d59190612cdb565b60405180910390a25050565b6001600160a01b038281166000818152600f602052604080822080548686166001600160a01b0319821681179092559151919094169392849290917f3134e8a2e6d97e929a7e54011ea5485d7d196dd5f0ba4d4ef95803e8e3fc257f9190a46109cf818361164e86611e0a565b611e15565b600b80546001600160a01b038381166001600160a01b0319831681179093556040519116919082907f8be0079c531659141344cd1fd0a4f28419497f9722a3daafe3b4186f6b6457e090600090a35050565b60606116d27f0000000000000000000000000000000000000000000000000000000000000000600c611f81565b905090565b60606116d27f0000000000000000000000000000000000000000000000000000000000000000600d611f81565b6106c782826040518060200160405280600081525061202c565b8054600090801561174e57611738836115696001846135db565b54600160301b90046001600160d01b03166112ce565b60009392505050565b6001600160a01b03821661178957604051630b61174360e31b81526001600160a01b038316600482015260240161078c565b6001600160a01b03838116600081815260056020908152604080832094871680845294825291829020805460ff191686151590811790915591519182527f17307eab39ab6107e8899845ad3d59bd9653f200f220920489ca2b5937696c31910160405180910390a3505050565b6001600160a01b0383163b1561191a57604051630a85bd0160e11b81526001600160a01b0384169063150b7a0290611838908890889087908790600401613601565b6020604051808303816000875af1925050508015611873575060408051601f3d908101601f191682019092526118709181019061363e565b60015b6118dc573d8080156118a1576040519150601f19603f3d011682016040523d82523d6000602084013e6118a6565b606091505b5080516000036118d457604051633250574960e11b81526001600160a01b038516600482015260240161078c565b805181602001fd5b6001600160e01b03198116630a85bd0160e11b1461191857604051633250574960e11b81526001600160a01b038516600482015260240161078c565b505b5050505050565b60006105fb61192e612044565b8360405161190160f01b8152600281019290925260228201526042902090565b6000806000806119608888888861216f565b925092509250611970828261223e565b50909695505050505050565b6001600160a01b0382166000908152600e602052604090208054600181019091558181146109cf576040516301d4b62360e61b81526001600160a01b03841660048201526024810182905260440161078c565b60606119da82611306565b506000828152600a6020526040812080546119f4906130f1565b80601f0160208091040260200160405190810160405280929190818152602001828054611a20906130f1565b8015611a6d5780601f10611a4257610100808354040283529160200191611a6d565b820191906000526020600020905b815481529060010190602001808311611a5057829003601f168201915b505050505090506000611a8b60408051602081019091526000815290565b90508051600003611a9d575092915050565b815115611ab7578082604051602001610dea92919061365b565b611412846122f7565b6012805460009182611ad18361368a565b919050559050611ae18382611704565b611aeb818361134c565b6000908152601360205260409020805460ff191660011790555050565b60006001600160e01b0319821663780e9d6360e01b14806105fb57506105fb8261236b565b8080611b4157506001600160a01b03821615155b15611c03576000611b5184611306565b90506001600160a01b03831615801590611b7d5750826001600160a01b0316816001600160a01b031614155b8015611b905750611b8e8184611259565b155b15611bb95760405163a9fbf51f60e01b81526001600160a01b038416600482015260240161078c565b8115611c015783856001600160a01b0316826001600160a01b03167f8c5be1e5ebec7d5bd14f71427d1e84f3dd0314c0f7b2291e5b200ac8c7c3b92560405160405180910390a45b505b5050600090815260046020526040902080546001600160a01b0319166001600160a01b0392909216919091179055565b600080611c418585856123bb565b905061141281866001612488565b600060018211611c5d575090565b816001600160801b8210611c765760809190911c9060401b5b680100000000000000008210611c915760409190911c9060201b5b6401000000008210611ca85760209190911c9060101b5b620100008210611cbd5760109190911c9060081b5b6101008210611cd15760089190911c9060041b5b60108210611ce45760049190911c9060021b5b60048210611cf05760011b5b600302600190811c90818581611d0857611d086136a3565b048201901c90506001818581611d2057611d206136a3565b048201901c90506001818581611d3857611d386136a3565b048201901c90506001818581611d5057611d506136a3565b048201901c90506001818581611d6857611d686136a3565b048201901c90506001818581611d8057611d806136a3565b048201901c9050611d9f818581611d9957611d996136a3565b04821190565b90039392505050565b60005b81831015611e02576000611dbf84846124fe565b60008781526020902090915065ffffffffffff86169082015465ffffffffffff161115611dee57809250611dfc565b611df98160016135ee565b93505b50611dab565b509392505050565b60006105fb82610aa0565b816001600160a01b0316836001600160a01b031614158015611e375750600081115b156109cf576001600160a01b03831615611edf576001600160a01b03831660009081526010602052604081208190611e7a906112d5611e7586612519565b61254d565b6001600160d01b031691506001600160d01b03169150846001600160a01b03167fdec2bacdd2f05b59de34da9b523dff8be42e5e38e818c82fdb0bae774387a7248383604051611ed4929190918252602082015260400190565b60405180910390a250505b6001600160a01b038216156109cf576001600160a01b03821660009081526010602052604081208190611f18906112c2611e7586612519565b6001600160d01b031691506001600160d01b03169150836001600160a01b03167fdec2bacdd2f05b59de34da9b523dff8be42e5e38e818c82fdb0bae774387a7248383604051611f72929190918252602082015260400190565b60405180910390a25050505050565b606060ff8314611f9b57611f948361257f565b90506105fb565b818054611fa7906130f1565b80601f0160208091040260200160405190810160405280929190818152602001828054611fd3906130f1565b80156120205780601f10611ff557610100808354040283529160200191612020565b820191906000526020600020905b81548152906001019060200180831161200357829003601f168201915b505050505090506105fb565b61203683836125be565b6109cf3360008585856117f6565b6000306001600160a01b037f00000000000000000000000000000000000000000000000000000000000000001614801561209d57507f000000000000000000000000000000000000000000000000000000000000000046145b156120c757507f000000000000000000000000000000000000000000000000000000000000000090565b6116d2604080517f8b73c3c69bb8fe3d512ecc4cf759cc79239f7b179b0ffacaa9a75d522b39400f60208201527f0000000000000000000000000000000000000000000000000000000000000000918101919091527f000000000000000000000000000000000000000000000000000000000000000060608201524660808201523060a082015260009060c00160405160208183030381529060405280519060200120905090565b600080807f7fffffffffffffffffffffffffffffff5d576e7357a4501ddfe92f46681b20a08411156121aa5750600091506003905082612234565b604080516000808252602082018084528a905260ff891692820192909252606081018790526080810186905260019060a0016020604051602081039080840390855afa1580156121fe573d6000803e3d6000fd5b5050604051601f1901519150506001600160a01b03811661222a57506000925060019150829050612234565b9250600091508190505b9450945094915050565b6000826003811115612252576122526131c0565b0361225b575050565b600182600381111561226f5761226f6131c0565b0361228d5760405163f645eedf60e01b815260040160405180910390fd5b60028260038111156122a1576122a16131c0565b036122c25760405163fce698f760e01b81526004810182905260240161078c565b60038260038111156122d6576122d66131c0565b036106c7576040516335e2f38360e21b81526004810182905260240161078c565b606061230282611306565b50600061231a60408051602081019091526000815290565b9050600081511161233a57604051806020016040528060008152506112ce565b8061234484612623565b60405160200161235592919061365b565b6040516020818303038152906040529392505050565b60006001600160e01b031982166380ac58cd60e01b148061239c57506001600160e01b03198216635b5e139f60e01b145b806105fb57506301ffc9a760e01b6001600160e01b03198316146105fb565b6000806123c98585856126b6565b90506001600160a01b0381166124265761242184600880546000838152600960205260408120829055600182018355919091527ff3f7a9fe364faab93b216da50a3214154f22a0a2b415b23a84c8169e8b636ee30155565b612449565b846001600160a01b0316816001600160a01b0316146124495761244981856127af565b6001600160a01b0385166124655761246084612830565b611412565b846001600160a01b0316816001600160a01b0316146114125761141285856128df565b6001600160a01b0383166124aa576124a760116112c2611e7584612519565b50505b6001600160a01b0382166124cc576124c960116112d5611e7584612519565b50505b6001600160a01b038381166000908152600f60205260408082205485841683529120546109cf92918216911683611e15565b600061250d60028484186136b9565b6112ce908484166135ee565b60006001600160d01b038211156114e1576040516306dfcc6560e41b815260d060048201526024810183905260440161078c565b6000806125724261256a6125608861171e565b868863ffffffff16565b87919061292f565b915091505b935093915050565b6060600061258c8361293d565b604080516020808252818301909252919250600091906020820181803683375050509182525060208101929092525090565b6001600160a01b0382166125e857604051633250574960e11b81526000600482015260240161078c565b60006125f68383600061139c565b90506001600160a01b038116156109cf576040516339e3563760e11b81526000600482015260240161078c565b6060600061263083612965565b600101905060008167ffffffffffffffff81111561265057612650612d48565b6040519080825280601f01601f19166020018201604052801561267a576020820181803683370190505b5090508181016020015b600019016f181899199a1a9b1b9c1cb0b131b232b360811b600a86061a8153600a850494508461268457509392505050565b6000828152600260205260408120546001600160a01b03908116908316156126e3576126e3818486612a3d565b6001600160a01b0381161561272157612700600085600080611b2d565b6001600160a01b038116600090815260036020526040902080546000190190555b6001600160a01b03851615612750576001600160a01b0385166000908152600360205260409020805460010190555b60008481526002602052604080822080546001600160a01b0319166001600160a01b0389811691821790925591518793918516917fddf252ad1be2c89b69c2b068fc378daa952ba7f163c4a11628f55a4df523b3ef91a4949350505050565b60006127ba83610aa0565b6000838152600760209081526040808320546001600160a01b038816845260069092529091209192509081831461281157600083815260208281526040808320548584528184208190558352600790915290208290555b6000938452600760209081526040808620869055938552525081205550565b600854600090612842906001906135db565b6000838152600960205260408120546008805493945090928490811061286a5761286a61329a565b90600052602060002001549050806008838154811061288b5761288b61329a565b60009182526020808320909101929092558281526009909152604080822084905585825281205560088054806128c3576128c36136db565b6001900381819060005260206000200160009055905550505050565b600060016128ec84610aa0565b6128f691906135db565b6001600160a01b039093166000908152600660209081526040808320868452825280832085905593825260079052919091209190915550565b600080612572858585612aa1565b600060ff8216601f8111156105fb57604051632cd44ac360e21b815260040160405180910390fd5b60008072184f03e93ff9f4daa797ed6e38ed64bf6a1f0160401b83106129a45772184f03e93ff9f4daa797ed6e38ed64bf6a1f0160401b830492506040015b6d04ee2d6d415b85acef810000000083106129d0576d04ee2d6d415b85acef8100000000830492506020015b662386f26fc1000083106129ee57662386f26fc10000830492506010015b6305f5e1008310612a06576305f5e100830492506008015b6127108310612a1a57612710830492506004015b60648310612a2c576064830492506002015b600a83106105fb5760010192915050565b612a48838383612bf5565b6109cf576001600160a01b038316612a7657604051637e27328960e01b81526004810182905260240161078c565b60405163177e802f60e01b81526001600160a01b03831660048201526024810182905260440161078c565b825460009081908015612b9a576000612abf876115696001856135db565b805490915065ffffffffffff80821691600160301b90046001600160d01b0316908816821115612b0257604051632520601d60e01b815260040160405180910390fd5b8765ffffffffffff168265ffffffffffff1603612b3b57825465ffffffffffff16600160301b6001600160d01b03891602178355612b8c565b6040805180820190915265ffffffffffff808a1682526001600160d01b03808a1660208085019182528d54600181018f5560008f81529190912094519151909216600160301b029216919091179101555b945085935061257792505050565b50506040805180820190915265ffffffffffff80851682526001600160d01b0380851660208085019182528854600181018a5560008a815291822095519251909316600160301b029190931617920191909155905081612577565b60006001600160a01b038316158015906114125750826001600160a01b0316846001600160a01b03161480612c2f5750612c2f8484611259565b806114125750506000908152600460205260409020546001600160a01b03908116911614919050565b6001600160e01b0319811681146108d557600080fd5b600060208284031215612c8057600080fd5b81356112ce81612c58565b60005b83811015612ca6578181015183820152602001612c8e565b50506000910152565b60008151808452612cc7816020860160208601612c8b565b601f01601f19169290920160200192915050565b6020815260006112ce6020830184612caf565b600060208284031215612d0057600080fd5b5035919050565b6001600160a01b03811681146108d557600080fd5b60008060408385031215612d2f57600080fd5b8235612d3a81612d07565b946020939093013593505050565b634e487b7160e01b600052604160045260246000fd5b604051601f8201601f1916810167ffffffffffffffff81118282101715612d8757612d87612d48565b604052919050565b600067ffffffffffffffff821115612da957612da9612d48565b50601f01601f191660200190565b600082601f830112612dc857600080fd5b8135612ddb612dd682612d8f565b612d5e565b818152846020838601011115612df057600080fd5b816020850160208301376000918101602001919091529392505050565b600060208284031215612e1f57600080fd5b813567ffffffffffffffff811115612e3657600080fd5b61141284828501612db7565b600080600060608486031215612e5757600080fd5b8335612e6281612d07565b92506020840135612e7281612d07565b929592945050506040919091013590565b600060208284031215612e9557600080fd5b81356112ce81612d07565b60008060408385031215612eb357600080fd5b82359150602083013567ffffffffffffffff811115612ed157600080fd5b612edd85828601612db7565b9150509250929050565b60ff60f81b881681526000602060e081840152612f0760e084018a612caf565b8381036040850152612f19818a612caf565b606085018990526001600160a01b038816608086015260a0850187905284810360c0860152855180825283870192509083019060005b81811015612f6b57835183529284019291840191600101612f4f565b50909c9b505050505050505050505050565b60008060408385031215612f9057600080fd5b8235612f9b81612d07565b915060208301358015158114612fb057600080fd5b809150509250929050565b60008060008060808587031215612fd157600080fd5b8435612fdc81612d07565b93506020850135612fec81612d07565b925060408501359150606085013567ffffffffffffffff81111561300f57600080fd5b61301b87828801612db7565b91505092959194509250565b60008060008060008060c0878903121561304057600080fd5b863561304b81612d07565b95506020870135945060408701359350606087013560ff8116811461306f57600080fd5b9598949750929560808101359460a0909101359350915050565b6000806040838503121561309c57600080fd5b82356130a781612d07565b9150602083013567ffffffffffffffff811115612ed157600080fd5b600080604083850312156130d657600080fd5b82356130e181612d07565b91506020830135612fb081612d07565b600181811c9082168061310557607f821691505b60208210810361312557634e487b7160e01b600052602260045260246000fd5b50919050565b600082601f83011261313c57600080fd5b815161314a612dd682612d8f565b81815284602083860101111561315f57600080fd5b611412826020830160208701612c8b565b60008060006060848603121561318557600080fd5b83519250602084015167ffffffffffffffff8111156131a357600080fd5b6131af8682870161312b565b925050604084015190509250925092565b634e487b7160e01b600052602160045260246000fd5b6bffffffffffffffffffffffff198560601b16815260ff60f81b8460f81b16601482015282601582015260008251613215816035850160208701612c8b565b9190910160350195945050505050565b7f19457468657265756d205369676e6564204d6573736167653a0a3332000000008152601c810191909152603c0190565b60208082526024908201527f4f7065726174696f6e206f6e6c7920616c6c6f776564206f6e20686f6d6520636040820152633430b4b760e11b606082015260800190565b634e487b7160e01b600052603260045260246000fd5b600080600080608085870312156132c657600080fd5b8451935060208501516132d881612d07565b604086015190935067ffffffffffffffff8111156132f557600080fd5b6133018782880161312b565b606096909601519497939650505050565b60006bffffffffffffffffffffffff19808860601b16835260ff60f81b8760f81b166014840152856015840152808560601b16603584015250825161335e816049850160208701612c8b565b919091016049019695505050505050565b6020808252602a908201527f50726f6f66732063616e206f6e6c792062652067656e657261746564206f6e206040820152693437b6b29031b430b4b760b11b606082015260800190565b60609390931b6bffffffffffffffffffffffff1916835260f89190911b6001600160f81b0319166014830152601582015260350190565b6000806040838503121561340357600080fd5b505080516020909101519092909150565b83815260606020820152600061342d6060830185612caf565b9050826040830152949350505050565b8481526001600160a01b038416602082015260806040820181905260009061346790830185612caf565b905082606083015295945050505050565b634e487b7160e01b600052601160045260246000fd5b6001600160d01b038181168382160190808211156134ae576134ae613478565b5092915050565b6001600160d01b038281168282160390808211156134ae576134ae613478565b601f8211156109cf57600081815260208120601f850160051c810160208610156134fc5750805b601f850160051c820191505b8181101561191857828155600101613508565b815167ffffffffffffffff81111561353557613535612d48565b6135498161354384546130f1565b846134d5565b602080601f83116001811461357e57600084156135665750858301515b600019600386901b1c1916600185901b178555611918565b600085815260208120601f198616915b828110156135ad5788860151825594840194600190910190840161358e565b50858210156135cb5787850151600019600388901b60f8161c191681555b5050505050600190811b01905550565b818103818111156105fb576105fb613478565b808201808211156105fb576105fb613478565b6001600160a01b038581168252841660208201526040810183905260806060820181905260009061363490830184612caf565b9695505050505050565b60006020828403121561365057600080fd5b81516112ce81612c58565b6000835161366d818460208801612c8b565b835190830190613681818360208801612c8b565b01949350505050565b60006001820161369c5761369c613478565b5060010190565b634e487b7160e01b600052601260045260246000fd5b6000826136d657634e487b7160e01b600052601260045260246000fd5b500490565b634e487b7160e01b600052603160045260246000fdfea2646970667358221220c6bd5d8ef08f16b7cb224dae622ce86e4307a5840e8ea15149eddfca0873893864736f6c63430008140033dec2bacdd2f05b59de34da9b523dff8be42e5e38e818c82fdb0bae774387a724",
  "devdoc": {
    "author": "Web3 Hackers Collective",
    "custom:security-contact": "julien@strat.cc",
    "details": "Extends OpenZeppelin's NFT standards with cross-chain operation support",
    "errors": {
      "CheckpointUnorderedInsertion()": [
        {
          "details": "A value was attempted to be inserted on a past checkpoint."
        }
      ],
      "ECDSAInvalidSignature()": [
        {
          "details": "The signature derives the `address(0)`."
        }
      ],
      "ECDSAInvalidSignatureLength(uint256)": [
        {
          "details": "The signature has an invalid length."
        }
      ],
      "ECDSAInvalidSignatureS(bytes32)": [
        {
          "details": "The signature has an S value that is in the upper half order."
        }
      ],
      "ERC5805FutureLookup(uint256,uint48)": [
        {
          "details": "Lookup to future votes is not available."
        }
      ],
      "ERC6372InconsistentClock()": [
        {
          "details": "The clock was incorrectly modified."
        }
      ],
      "ERC721EnumerableForbiddenBatchMint()": [
        {
          "details": "Batch mint is not allowed."
        }
      ],
      "ERC721IncorrectOwner(address,uint256,address)": [
        {
          "details": "Indicates an error related to the ownership over a particular token. Used in transfers.",
          "params": {
            "owner": "Address of the current owner of a token.",
            "sender": "Address whose tokens are being transferred.",
            "tokenId": "Identifier number of a token."
          }
        }
      ],
      "ERC721InsufficientApproval(address,uint256)": [
        {
          "details": "Indicates a failure with the `operator`s approval. Used in transfers.",
          "params": {
            "operator": "Address that may be allowed to operate on tokens without being their owner.",
            "tokenId": "Identifier number of a token."
          }
        }
      ],
      "ERC721InvalidApprover(address)": [
        {
          "details": "Indicates a failure with the `approver` of a token to be approved. Used in approvals.",
          "params": {
            "approver": "Address initiating an approval operation."
          }
        }
      ],
      "ERC721InvalidOperator(address)": [
        {
          "details": "Indicates a failure with the `operator` to be approved. Used in approvals.",
          "params": {
            "operator": "Address that may be allowed to operate on tokens without being their owner."
          }
        }
      ],
      "ERC721InvalidOwner(address)": [
        {
          "details": "Indicates that an address can't be an owner. For example, `address(0)` is a forbidden owner in ERC-20. Used in balance queries.",
          "params": {
            "owner": "Address of the current owner of a token."
          }
        }
      ],
      "ERC721InvalidReceiver(address)": [
        {
          "details": "Indicates a failure with the token `receiver`. Used in transfers.",
          "params": {
            "receiver": "Address to which tokens are being transferred."
          }
        }
      ],
      "ERC721InvalidSender(address)": [
        {
          "details": "Indicates a failure with the token `sender`. Used in transfers.",
          "params": {
            "sender": "Address whose tokens are being transferred."
          }
        }
      ],
      "ERC721NonexistentToken(uint256)": [
        {
          "details": "Indicates a `tokenId` whose `owner` is the zero address.",
          "params": {
            "tokenId": "Identifier number of a token."
          }
        }
      ],
      "ERC721OutOfBoundsIndex(address,uint256)": [
        {
          "details": "An `owner`'s token query was out of bounds for `index`. NOTE: The owner being `address(0)` indicates a global out of bounds index."
        }
      ],
      "InvalidAccountNonce(address,uint256)": [
        {
          "details": "The nonce used for an `account` is not the expected current nonce."
        }
      ],
      "OwnableInvalidOwner(address)": [
        {
          "details": "The owner is not a valid owner account. (eg. `address(0)`)"
        }
      ],
      "OwnableUnauthorizedAccount(address)": [
        {
          "details": "The caller account is not authorized to perform an operation."
        }
      ],
      "SafeCastOverflowedUintDowncast(uint8,uint256)": [
        {
          "details": "Value doesn't fit in an uint of `bits` size."
        }
      ],
      "VotesExpiredSignature(uint256)": [
        {
          "details": "The signature used has expired."
        }
      ]
    },
    "events": {
      "Approval(address,address,uint256)": {
        "details": "Emitted when `owner` enables `approved` to manage the `tokenId` token."
      },
      "ApprovalForAll(address,address,bool)": {
        "details": "Emitted when `owner` enables or disables (`approved`) `operator` to manage all of its assets."
      },
      "BatchMetadataUpdate(uint256,uint256)": {
        "details": "This event emits when the metadata of a range of tokens is changed. So that the third-party platforms such as NFT market could timely update the images and related attributes of the NFTs."
      },
      "DelegateChanged(address,address,address)": {
        "details": "Emitted when an account changes their delegate."
      },
      "DelegateVotesChanged(address,uint256,uint256)": {
        "details": "Emitted when a token transfer or delegate change results in changes to a delegate's number of voting units."
      },
      "EIP712DomainChanged()": {
        "details": "MAY be emitted to signal that the domain could have changed."
      },
      "MembershipClaimed(uint256,address,address)": {
        "params": {
          "claimer": "The address executing the claim",
          "member": "The address receiving the membership",
          "tokenId": "The ID of the claimed token"
        }
      },
      "MembershipRevoked(uint256,address)": {
        "params": {
          "member": "The address losing membership",
          "tokenId": "The ID of the revoked token"
        }
      },
      "MetadataUpdate(uint256)": {
        "details": "This event emits when the metadata of a token is changed. So that the third-party platforms such as NFT market could timely update the images and related attributes of the NFT."
      },
      "MetadataUpdated(uint256,string)": {
        "params": {
          "newUri": "The new metadata URI",
          "tokenId": "The ID of the updated token"
        }
      },
      "Transfer(address,address,uint256)": {
        "details": "Emitted when `tokenId` token is transferred from `from` to `to`."
      }
    },
    "kind": "dev",
    "methods": {
      "CLOCK_MODE()": {
        "details": "Machine-readable description of the clock as specified in ERC-6372."
      },
      "approve(address,uint256)": {
        "details": "See {IERC721-approve}."
      },
      "balanceOf(address)": {
        "details": "See {IERC721-balanceOf}."
      },
      "burn(uint256)": {
        "details": "Burns `tokenId`. See {ERC721-_burn}. Requirements: - The caller must own `tokenId` or be an approved operator."
      },
      "claimBurn(bytes)": {
        "params": {
          "proof": "Proof generated on home chain"
        }
      },
      "claimMetadataUpdate(bytes)": {
        "params": {
          "proof": "Proof generated on home chain"
        }
      },
      "claimMint(bytes)": {
        "params": {
          "proof": "Proof generated on home chain"
        }
      },
      "clock()": {
        "details": "Clock used for flagging checkpoints. Can be overridden to implement timestamp based checkpoints (and voting), in which case {CLOCK_MODE} should be overridden as well to match."
      },
      "constructor": {
        "details": "Sets up ERC721 parameters and mints initial tokens",
        "params": {
          "_firstMembers": "Array of initial member addresses",
          "_home": "The chain ID where this contract is considered home",
          "_name": "Token collection name",
          "_symbol": "Token collection symbol",
          "_uri": "Initial token URI",
          "initialOwner": "The initial contract owner (typically governance)"
        }
      },
      "delegate(address)": {
        "details": "Delegates votes from the sender to `delegatee`."
      },
      "delegateBySig(address,uint256,uint256,uint8,bytes32,bytes32)": {
        "details": "Delegates votes from signer to `delegatee`."
      },
      "delegates(address)": {
        "details": "Returns the delegate that `account` has chosen."
      },
      "eip712Domain()": {
        "details": "See {IERC-5267}."
      },
      "generateBurnProof(uint256)": {
        "params": {
          "tokenId": "ID of token to burn"
        },
        "returns": {
          "_0": "Encoded proof data"
        }
      },
      "generateMetadataProof(uint256,string)": {
        "params": {
          "tokenId": "Token ID to update",
          "uri": "New metadata URI"
        },
        "returns": {
          "_0": "Encoded proof data"
        }
      },
      "generateMintProof(uint256)": {
        "params": {
          "tokenId": "ID of token"
        },
        "returns": {
          "_0": "Encoded proof data"
        }
      },
      "getApproved(uint256)": {
        "details": "See {IERC721-getApproved}."
      },
      "getPastTotalSupply(uint256)": {
        "details": "Returns the total supply of votes available at a specific moment in the past. If the `clock()` is configured to use block numbers, this will return the value at the end of the corresponding block. NOTE: This value is the sum of all available votes, which is not necessarily the sum of all delegated votes. Votes that have not been delegated are still part of total supply, even though they would not participate in a vote. Requirements: - `timepoint` must be in the past. If operating using block numbers, the block must be already mined."
      },
      "getPastVotes(address,uint256)": {
        "details": "Returns the amount of votes that `account` had at a specific moment in the past. If the `clock()` is configured to use block numbers, this will return the value at the end of the corresponding block. Requirements: - `timepoint` must be in the past. If operating using block numbers, the block must be already mined."
      },
      "getVotes(address)": {
        "details": "Returns the current amount of votes that `account` has."
      },
      "govBurn(uint256)": {
        "details": "Only callable by owner on home chain",
        "params": {
          "tokenId": "ID of token to burn"
        }
      },
      "isApprovedForAll(address,address)": {
        "details": "See {IERC721-isApprovedForAll}."
      },
      "name()": {
        "details": "See {IERC721Metadata-name}."
      },
      "nonces(address)": {
        "details": "Returns the next unused nonce for an address."
      },
      "owner()": {
        "details": "Returns the address of the current owner."
      },
      "ownerOf(uint256)": {
        "details": "See {IERC721-ownerOf}."
      },
      "renounceOwnership()": {
        "details": "Leaves the contract without owner. It will not be possible to call `onlyOwner` functions. Can only be called by the current owner. NOTE: Renouncing ownership will leave the contract without an owner, thereby disabling any functionality that is only available to the owner."
      },
      "safeMint(address,string)": {
        "details": "Only callable by owner on home chain",
        "params": {
          "to": "Recipient address",
          "uri": "Token metadata URI"
        }
      },
      "safeTransferFrom(address,address,uint256)": {
        "details": "See {IERC721-safeTransferFrom}."
      },
      "safeTransferFrom(address,address,uint256,bytes)": {
        "details": "See {IERC721-safeTransferFrom}."
      },
      "setApprovalForAll(address,bool)": {
        "details": "See {IERC721-setApprovalForAll}."
      },
      "setMetadata(uint256,string)": {
        "details": "Only callable by owner on home chain",
        "params": {
          "tokenId": "ID of token to update",
          "uri": "New metadata URI"
        }
      },
      "symbol()": {
        "details": "See {IERC721Metadata-symbol}."
      },
      "tokenByIndex(uint256)": {
        "details": "See {IERC721Enumerable-tokenByIndex}."
      },
      "tokenOfOwnerByIndex(address,uint256)": {
        "details": "See {IERC721Enumerable-tokenOfOwnerByIndex}."
      },
      "tokenURI(uint256)": {
        "params": {
          "tokenId": "ID of the token"
        },
        "returns": {
          "_0": "URI string for the token metadata"
        }
      },
      "totalSupply()": {
        "details": "See {IERC721Enumerable-totalSupply}."
      },
      "transferFrom(address,address,uint256)": {
        "details": "See {IERC721-transferFrom}."
      },
      "transferOwnership(address)": {
        "details": "Transfers ownership of the contract to a new account (`newOwner`). Can only be called by the current owner."
      }
    },
    "title": "Cross-chain Membership NFT Contract",
    "version": 1
  },
  "userdoc": {
    "events": {
      "MembershipClaimed(uint256,address,address)": {
        "notice": "Emitted when a membership is claimed on a new chain"
      },
      "MembershipRevoked(uint256,address)": {
        "notice": "Emitted when a membership is revoked"
      },
      "MetadataUpdated(uint256,string)": {
        "notice": "Emitted when a token's metadata is updated"
      }
    },
    "kind": "user",
    "methods": {
      "claimBurn(bytes)": {
        "notice": "Claims a burn operation on a foreign chain"
      },
      "claimMetadataUpdate(bytes)": {
        "notice": "Claims a metadata update on a foreign chain"
      },
      "claimMint(bytes)": {
        "notice": "Claims a membership on a foreign chain"
      },
      "constructor": {
        "notice": "Initializes the NFT contract with initial members"
      },
      "existsOnChain(uint256)": {
        "notice": "Tracks token existence on each chain"
      },
      "generateBurnProof(uint256)": {
        "notice": "Generates proof for cross-chain burning"
      },
      "generateMetadataProof(uint256,string)": {
        "notice": "Generates proof for cross-chain metadata updates"
      },
      "generateMintProof(uint256)": {
        "notice": "Generates proof for cross-chain minting"
      },
      "govBurn(uint256)": {
        "notice": "Revokes a membership"
      },
      "home()": {
        "notice": "The chain ID where the contract was originally deployed"
      },
      "safeMint(address,string)": {
        "notice": "Mints a new membership token"
      },
      "setMetadata(uint256,string)": {
        "notice": "Updates a token's metadata"
      },
      "tokenURI(uint256)": {
        "notice": "Gets the token URI"
      }
    },
    "notice": "A non-transferable NFT implementation for DAO membership with cross-chain capabilities",
    "version": 1
  },
  "storageLayout": {
    "storage": [
      {
        "astId": 1030,
        "contract": "contracts/variants/crosschain/NFT.sol:NFT",
        "label": "_name",
        "offset": 0,
        "slot": "0",
        "type": "t_string_storage"
      },
      {
        "astId": 1032,
        "contract": "contracts/variants/crosschain/NFT.sol:NFT",
        "label": "_symbol",
        "offset": 0,
        "slot": "1",
        "type": "t_string_storage"
      },
      {
        "astId": 1036,
        "contract": "contracts/variants/crosschain/NFT.sol:NFT",
        "label": "_owners",
        "offset": 0,
        "slot": "2",
        "type": "t_mapping(t_uint256,t_address)"
      },
      {
        "astId": 1040,
        "contract": "contracts/variants/crosschain/NFT.sol:NFT",
        "label": "_balances",
        "offset": 0,
        "slot": "3",
        "type": "t_mapping(t_address,t_uint256)"
      },
      {
        "astId": 1044,
        "contract": "contracts/variants/crosschain/NFT.sol:NFT",
        "label": "_tokenApprovals",
        "offset": 0,
        "slot": "4",
        "type": "t_mapping(t_uint256,t_address)"
      },
      {
        "astId": 1050,
        "contract": "contracts/variants/crosschain/NFT.sol:NFT",
        "label": "_operatorApprovals",
        "offset": 0,
        "slot": "5",
        "type": "t_mapping(t_address,t_mapping(t_address,t_bool))"
      },
      {
        "astId": 2137,
        "contract": "contracts/variants/crosschain/NFT.sol:NFT",
        "label": "_ownedTokens",
        "offset": 0,
        "slot": "6",
        "type": "t_mapping(t_address,t_mapping(t_uint256,t_uint256))"
      },
      {
        "astId": 2141,
        "contract": "contracts/variants/crosschain/NFT.sol:NFT",
        "label": "_ownedTokensIndex",
        "offset": 0,
        "slot": "7",
        "type": "t_mapping(t_uint256,t_uint256)"
      },
      {
        "astId": 2144,
        "contract": "contracts/variants/crosschain/NFT.sol:NFT",
        "label": "_allTokens",
        "offset": 0,
        "slot": "8",
        "type": "t_array(t_uint256)dyn_storage"
      },
      {
        "astId": 2148,
        "contract": "contracts/variants/crosschain/NFT.sol:NFT",
        "label": "_allTokensIndex",
        "offset": 0,
        "slot": "9",
        "type": "t_mapping(t_uint256,t_uint256)"
      },
      {
        "astId": 2532,
        "contract": "contracts/variants/crosschain/NFT.sol:NFT",
        "label": "_tokenURIs",
        "offset": 0,
        "slot": "10",
        "type": "t_mapping(t_uint256,t_string_storage)"
      },
      {
        "astId": 8,
        "contract": "contracts/variants/crosschain/NFT.sol:NFT",
        "label": "_owner",
        "offset": 0,
        "slot": "11",
        "type": "t_address"
      },
      {
        "astId": 4046,
        "contract": "contracts/variants/crosschain/NFT.sol:NFT",
        "label": "_nameFallback",
        "offset": 0,
        "slot": "12",
        "type": "t_string_storage"
      },
      {
        "astId": 4048,
        "contract": "contracts/variants/crosschain/NFT.sol:NFT",
        "label": "_versionFallback",
        "offset": 0,
        "slot": "13",
        "type": "t_string_storage"
      },
      {
        "astId": 2894,
        "contract": "contracts/variants/crosschain/NFT.sol:NFT",
        "label": "_nonces",
        "offset": 0,
        "slot": "14",
        "type": "t_mapping(t_address,t_uint256)"
      },
      {
        "astId": 270,
        "contract": "contracts/variants/crosschain/NFT.sol:NFT",
        "label": "_delegatee",
        "offset": 0,
        "slot": "15",
        "type": "t_mapping(t_address,t_address)"
      },
      {
        "astId": 275,
        "contract": "contracts/variants/crosschain/NFT.sol:NFT",
        "label": "_delegateCheckpoints",
        "offset": 0,
        "slot": "16",
        "type": "t_mapping(t_address,t_struct(Trace208)8398_storage)"
      },
      {
        "astId": 278,
        "contract": "contracts/variants/crosschain/NFT.sol:NFT",
        "label": "_totalCheckpoints",
        "offset": 0,
        "slot": "17",
        "type": "t_struct(Trace208)8398_storage"
      },
      {
        "astId": 9746,
        "contract": "contracts/variants/crosschain/NFT.sol:NFT",
        "label": "_nextTokenId",
        "offset": 0,
        "slot": "18",
        "type": "t_uint256"
      },
      {
        "astId": 9751,
        "contract": "contracts/variants/crosschain/NFT.sol:NFT",
        "label": "existsOnChain",
        "offset": 0,
        "slot": "19",
        "type": "t_mapping(t_uint256,t_bool)"
      }
    ],
    "types": {
      "t_address": {
        "encoding": "inplace",
        "label": "address",
        "numberOfBytes": "20"
      },
      "t_array(t_struct(Checkpoint208)8403_storage)dyn_storage": {
        "base": "t_struct(Checkpoint208)8403_storage",
        "encoding": "dynamic_array",
        "label": "struct Checkpoints.Checkpoint208[]",
        "numberOfBytes": "32"
      },
      "t_array(t_uint256)dyn_storage": {
        "base": "t_uint256",
        "encoding": "dynamic_array",
        "label": "uint256[]",
        "numberOfBytes": "32"
      },
      "t_bool": {
        "encoding": "inplace",
        "label": "bool",
        "numberOfBytes": "1"
      },
      "t_mapping(t_address,t_address)": {
        "encoding": "mapping",
        "key": "t_address",
        "label": "mapping(address => address)",
        "numberOfBytes": "32",
        "value": "t_address"
      },
      "t_mapping(t_address,t_bool)": {
        "encoding": "mapping",
        "key": "t_address",
        "label": "mapping(address => bool)",
        "numberOfBytes": "32",
        "value": "t_bool"
      },
      "t_mapping(t_address,t_mapping(t_address,t_bool))": {
        "encoding": "mapping",
        "key": "t_address",
        "label": "mapping(address => mapping(address => bool))",
        "numberOfBytes": "32",
        "value": "t_mapping(t_address,t_bool)"
      },
      "t_mapping(t_address,t_mapping(t_uint256,t_uint256))": {
        "encoding": "mapping",
        "key": "t_address",
        "label": "mapping(address => mapping(uint256 => uint256))",
        "numberOfBytes": "32",
        "value": "t_mapping(t_uint256,t_uint256)"
      },
      "t_mapping(t_address,t_struct(Trace208)8398_storage)": {
        "encoding": "mapping",
        "key": "t_address",
        "label": "mapping(address => struct Checkpoints.Trace208)",
        "numberOfBytes": "32",
        "value": "t_struct(Trace208)8398_storage"
      },
      "t_mapping(t_address,t_uint256)": {
        "encoding": "mapping",
        "key": "t_address",
        "label": "mapping(address => uint256)",
        "numberOfBytes": "32",
        "value": "t_uint256"
      },
      "t_mapping(t_uint256,t_address)": {
        "encoding": "mapping",
        "key": "t_uint256",
        "label": "mapping(uint256 => address)",
        "numberOfBytes": "32",
        "value": "t_address"
      },
      "t_mapping(t_uint256,t_bool)": {
        "encoding": "mapping",
        "key": "t_uint256",
        "label": "mapping(uint256 => bool)",
        "numberOfBytes": "32",
        "value": "t_bool"
      },
      "t_mapping(t_uint256,t_string_storage)": {
        "encoding": "mapping",
        "key": "t_uint256",
        "label": "mapping(uint256 => string)",
        "numberOfBytes": "32",
        "value": "t_string_storage"
      },
      "t_mapping(t_uint256,t_uint256)": {
        "encoding": "mapping",
        "key": "t_uint256",
        "label": "mapping(uint256 => uint256)",
        "numberOfBytes": "32",
        "value": "t_uint256"
      },
      "t_string_storage": {
        "encoding": "bytes",
        "label": "string",
        "numberOfBytes": "32"
      },
      "t_struct(Checkpoint208)8403_storage": {
        "encoding": "inplace",
        "label": "struct Checkpoints.Checkpoint208",
        "members": [
          {
            "astId": 8400,
            "contract": "contracts/variants/crosschain/NFT.sol:NFT",
            "label": "_key",
            "offset": 0,
            "slot": "0",
            "type": "t_uint48"
          },
          {
            "astId": 8402,
            "contract": "contracts/variants/crosschain/NFT.sol:NFT",
            "label": "_value",
            "offset": 6,
            "slot": "0",
            "type": "t_uint208"
          }
        ],
        "numberOfBytes": "32"
      },
      "t_struct(Trace208)8398_storage": {
        "encoding": "inplace",
        "label": "struct Checkpoints.Trace208",
        "members": [
          {
            "astId": 8397,
            "contract": "contracts/variants/crosschain/NFT.sol:NFT",
            "label": "_checkpoints",
            "offset": 0,
            "slot": "0",
            "type": "t_array(t_struct(Checkpoint208)8403_storage)dyn_storage"
          }
        ],
        "numberOfBytes": "32"
      },
      "t_uint208": {
        "encoding": "inplace",
        "label": "uint208",
        "numberOfBytes": "26"
      },
      "t_uint256": {
        "encoding": "inplace",
        "label": "uint256",
        "numberOfBytes": "32"
      },
      "t_uint48": {
        "encoding": "inplace",
        "label": "uint48",
        "numberOfBytes": "6"
      }
    }
  }
}