{
  "address": "0x88AcEa5425b93d069258E8Db1c4310f35d4AbE60",
  "abi": [
    {
      "inputs": [
        {
          "internalType": "uint256",
          "name": "_home",
          "type": "uint256"
        },
        {
          "internalType": "contract IVotes",
          "name": "_token",
          "type": "address"
        },
        {
          "internalType": "string",
          "name": "_manifestoCid",
          "type": "string"
        },
        {
          "internalType": "string",
          "name": "_name",
          "type": "string"
        },
        {
          "internalType": "uint48",
          "name": "_votingDelay",
          "type": "uint48"
        },
        {
          "internalType": "uint32",
          "name": "_votingPeriod",
          "type": "uint32"
        },
        {
          "internalType": "uint256",
          "name": "_proposalThreshold",
          "type": "uint256"
        },
        {
          "internalType": "uint256",
          "name": "_quorum",
          "type": "uint256"
        }
      ],
      "stateMutability": "nonpayable",
      "type": "constructor"
    },
    {
      "inputs": [],
      "name": "CheckpointUnorderedInsertion",
      "type": "error"
    },
    {
      "inputs": [],
      "name": "FailedCall",
      "type": "error"
    },
    {
      "inputs": [
        {
          "internalType": "address",
          "name": "voter",
          "type": "address"
        }
      ],
      "name": "GovernorAlreadyCastVote",
      "type": "error"
    },
    {
      "inputs": [
        {
          "internalType": "uint256",
          "name": "proposalId",
          "type": "uint256"
        }
      ],
      "name": "GovernorAlreadyQueuedProposal",
      "type": "error"
    },
    {
      "inputs": [],
      "name": "GovernorDisabledDeposit",
      "type": "error"
    },
    {
      "inputs": [
        {
          "internalType": "address",
          "name": "proposer",
          "type": "address"
        },
        {
          "internalType": "uint256",
          "name": "votes",
          "type": "uint256"
        },
        {
          "internalType": "uint256",
          "name": "threshold",
          "type": "uint256"
        }
      ],
      "name": "GovernorInsufficientProposerVotes",
      "type": "error"
    },
    {
      "inputs": [
        {
          "internalType": "uint256",
          "name": "targets",
          "type": "uint256"
        },
        {
          "internalType": "uint256",
          "name": "calldatas",
          "type": "uint256"
        },
        {
          "internalType": "uint256",
          "name": "values",
          "type": "uint256"
        }
      ],
      "name": "GovernorInvalidProposalLength",
      "type": "error"
    },
    {
      "inputs": [
        {
          "internalType": "uint256",
          "name": "quorumNumerator",
          "type": "uint256"
        },
        {
          "internalType": "uint256",
          "name": "quorumDenominator",
          "type": "uint256"
        }
      ],
      "name": "GovernorInvalidQuorumFraction",
      "type": "error"
    },
    {
      "inputs": [
        {
          "internalType": "address",
          "name": "voter",
          "type": "address"
        }
      ],
      "name": "GovernorInvalidSignature",
      "type": "error"
    },
    {
      "inputs": [],
      "name": "GovernorInvalidVoteParams",
      "type": "error"
    },
    {
      "inputs": [],
      "name": "GovernorInvalidVoteType",
      "type": "error"
    },
    {
      "inputs": [
        {
          "internalType": "uint256",
          "name": "votingPeriod",
          "type": "uint256"
        }
      ],
      "name": "GovernorInvalidVotingPeriod",
      "type": "error"
    },
    {
      "inputs": [
        {
          "internalType": "uint256",
          "name": "proposalId",
          "type": "uint256"
        }
      ],
      "name": "GovernorNonexistentProposal",
      "type": "error"
    },
    {
      "inputs": [
        {
          "internalType": "uint256",
          "name": "proposalId",
          "type": "uint256"
        }
      ],
      "name": "GovernorNotQueuedProposal",
      "type": "error"
    },
    {
      "inputs": [
        {
          "internalType": "address",
          "name": "account",
          "type": "address"
        }
      ],
      "name": "GovernorOnlyExecutor",
      "type": "error"
    },
    {
      "inputs": [
        {
          "internalType": "address",
          "name": "account",
          "type": "address"
        }
      ],
      "name": "GovernorOnlyProposer",
      "type": "error"
    },
    {
      "inputs": [],
      "name": "GovernorQueueNotImplemented",
      "type": "error"
    },
    {
      "inputs": [
        {
          "internalType": "address",
          "name": "proposer",
          "type": "address"
        }
      ],
      "name": "GovernorRestrictedProposer",
      "type": "error"
    },
    {
      "inputs": [
        {
          "internalType": "uint256",
          "name": "proposalId",
          "type": "uint256"
        },
        {
          "internalType": "enum IGovernor.ProposalState",
          "name": "current",
          "type": "uint8"
        },
        {
          "internalType": "bytes32",
          "name": "expectedStates",
          "type": "bytes32"
        }
      ],
      "name": "GovernorUnexpectedProposalState",
      "type": "error"
    },
    {
      "inputs": [
        {
          "internalType": "address",
          "name": "account",
          "type": "address"
        },
        {
          "internalType": "uint256",
          "name": "currentNonce",
          "type": "uint256"
        }
      ],
      "name": "InvalidAccountNonce",
      "type": "error"
    },
    {
      "inputs": [],
      "name": "InvalidShortString",
      "type": "error"
    },
    {
      "inputs": [
        {
          "internalType": "uint8",
          "name": "bits",
          "type": "uint8"
        },
        {
          "internalType": "uint256",
          "name": "value",
          "type": "uint256"
        }
      ],
      "name": "SafeCastOverflowedUintDowncast",
      "type": "error"
    },
    {
      "inputs": [
        {
          "internalType": "string",
          "name": "str",
          "type": "string"
        }
      ],
      "name": "StringTooLong",
      "type": "error"
    },
    {
      "anonymous": false,
      "inputs": [],
      "name": "EIP712DomainChanged",
      "type": "event"
    },
    {
      "anonymous": false,
      "inputs": [
        {
          "indexed": true,
          "internalType": "enum Gov.OperationType",
          "name": "operationType",
          "type": "uint8"
        },
        {
          "indexed": false,
          "internalType": "uint256",
          "name": "oldValue",
          "type": "uint256"
        },
        {
          "indexed": false,
          "internalType": "uint256",
          "name": "newValue",
          "type": "uint256"
        }
      ],
      "name": "GovernanceParameterUpdated",
      "type": "event"
    },
    {
      "anonymous": false,
      "inputs": [
        {
          "indexed": false,
          "internalType": "string",
          "name": "oldManifesto",
          "type": "string"
        },
        {
          "indexed": false,
          "internalType": "string",
          "name": "newManifesto",
          "type": "string"
        }
      ],
      "name": "ManifestoUpdated",
      "type": "event"
    },
    {
      "anonymous": false,
      "inputs": [
        {
          "indexed": false,
          "internalType": "uint256",
          "name": "proposalId",
          "type": "uint256"
        }
      ],
      "name": "ProposalCanceled",
      "type": "event"
    },
    {
      "anonymous": false,
      "inputs": [
        {
          "indexed": false,
          "internalType": "uint256",
          "name": "proposalId",
          "type": "uint256"
        },
        {
          "indexed": false,
          "internalType": "address",
          "name": "proposer",
          "type": "address"
        },
        {
          "indexed": false,
          "internalType": "address[]",
          "name": "targets",
          "type": "address[]"
        },
        {
          "indexed": false,
          "internalType": "uint256[]",
          "name": "values",
          "type": "uint256[]"
        },
        {
          "indexed": false,
          "internalType": "string[]",
          "name": "signatures",
          "type": "string[]"
        },
        {
          "indexed": false,
          "internalType": "bytes[]",
          "name": "calldatas",
          "type": "bytes[]"
        },
        {
          "indexed": false,
          "internalType": "uint256",
          "name": "voteStart",
          "type": "uint256"
        },
        {
          "indexed": false,
          "internalType": "uint256",
          "name": "voteEnd",
          "type": "uint256"
        },
        {
          "indexed": false,
          "internalType": "string",
          "name": "description",
          "type": "string"
        }
      ],
      "name": "ProposalCreated",
      "type": "event"
    },
    {
      "anonymous": false,
      "inputs": [
        {
          "indexed": false,
          "internalType": "uint256",
          "name": "proposalId",
          "type": "uint256"
        }
      ],
      "name": "ProposalExecuted",
      "type": "event"
    },
    {
      "anonymous": false,
      "inputs": [
        {
          "indexed": false,
          "internalType": "uint256",
          "name": "proposalId",
          "type": "uint256"
        },
        {
          "indexed": false,
          "internalType": "uint256",
          "name": "etaSeconds",
          "type": "uint256"
        }
      ],
      "name": "ProposalQueued",
      "type": "event"
    },
    {
      "anonymous": false,
      "inputs": [
        {
          "indexed": false,
          "internalType": "uint256",
          "name": "oldProposalThreshold",
          "type": "uint256"
        },
        {
          "indexed": false,
          "internalType": "uint256",
          "name": "newProposalThreshold",
          "type": "uint256"
        }
      ],
      "name": "ProposalThresholdSet",
      "type": "event"
    },
    {
      "anonymous": false,
      "inputs": [
        {
          "indexed": false,
          "internalType": "uint256",
          "name": "oldQuorumNumerator",
          "type": "uint256"
        },
        {
          "indexed": false,
          "internalType": "uint256",
          "name": "newQuorumNumerator",
          "type": "uint256"
        }
      ],
      "name": "QuorumNumeratorUpdated",
      "type": "event"
    },
    {
      "anonymous": false,
      "inputs": [
        {
          "indexed": true,
          "internalType": "address",
          "name": "voter",
          "type": "address"
        },
        {
          "indexed": false,
          "internalType": "uint256",
          "name": "proposalId",
          "type": "uint256"
        },
        {
          "indexed": false,
          "internalType": "uint8",
          "name": "support",
          "type": "uint8"
        },
        {
          "indexed": false,
          "internalType": "uint256",
          "name": "weight",
          "type": "uint256"
        },
        {
          "indexed": false,
          "internalType": "string",
          "name": "reason",
          "type": "string"
        }
      ],
      "name": "VoteCast",
      "type": "event"
    },
    {
      "anonymous": false,
      "inputs": [
        {
          "indexed": true,
          "internalType": "address",
          "name": "voter",
          "type": "address"
        },
        {
          "indexed": false,
          "internalType": "uint256",
          "name": "proposalId",
          "type": "uint256"
        },
        {
          "indexed": false,
          "internalType": "uint8",
          "name": "support",
          "type": "uint8"
        },
        {
          "indexed": false,
          "internalType": "uint256",
          "name": "weight",
          "type": "uint256"
        },
        {
          "indexed": false,
          "internalType": "string",
          "name": "reason",
          "type": "string"
        },
        {
          "indexed": false,
          "internalType": "bytes",
          "name": "params",
          "type": "bytes"
        }
      ],
      "name": "VoteCastWithParams",
      "type": "event"
    },
    {
      "anonymous": false,
      "inputs": [
        {
          "indexed": false,
          "internalType": "uint256",
          "name": "oldVotingDelay",
          "type": "uint256"
        },
        {
          "indexed": false,
          "internalType": "uint256",
          "name": "newVotingDelay",
          "type": "uint256"
        }
      ],
      "name": "VotingDelaySet",
      "type": "event"
    },
    {
      "anonymous": false,
      "inputs": [
        {
          "indexed": false,
          "internalType": "uint256",
          "name": "oldVotingPeriod",
          "type": "uint256"
        },
        {
          "indexed": false,
          "internalType": "uint256",
          "name": "newVotingPeriod",
          "type": "uint256"
        }
      ],
      "name": "VotingPeriodSet",
      "type": "event"
    },
    {
      "inputs": [],
      "name": "BALLOT_TYPEHASH",
      "outputs": [
        {
          "internalType": "bytes32",
          "name": "",
          "type": "bytes32"
        }
      ],
      "stateMutability": "view",
      "type": "function"
    },
    {
      "inputs": [],
      "name": "CLOCK_MODE",
      "outputs": [
        {
          "internalType": "string",
          "name": "",
          "type": "string"
        }
      ],
      "stateMutability": "view",
      "type": "function"
    },
    {
      "inputs": [],
      "name": "COUNTING_MODE",
      "outputs": [
        {
          "internalType": "string",
          "name": "",
          "type": "string"
        }
      ],
      "stateMutability": "pure",
      "type": "function"
    },
    {
      "inputs": [],
      "name": "EXTENDED_BALLOT_TYPEHASH",
      "outputs": [
        {
          "internalType": "bytes32",
          "name": "",
          "type": "bytes32"
        }
      ],
      "stateMutability": "view",
      "type": "function"
    },
    {
      "inputs": [
        {
          "internalType": "address[]",
          "name": "targets",
          "type": "address[]"
        },
        {
          "internalType": "uint256[]",
          "name": "values",
          "type": "uint256[]"
        },
        {
          "internalType": "bytes[]",
          "name": "calldatas",
          "type": "bytes[]"
        },
        {
          "internalType": "bytes32",
          "name": "descriptionHash",
          "type": "bytes32"
        }
      ],
      "name": "cancel",
      "outputs": [
        {
          "internalType": "uint256",
          "name": "",
          "type": "uint256"
        }
      ],
      "stateMutability": "nonpayable",
      "type": "function"
    },
    {
      "inputs": [
        {
          "internalType": "uint256",
          "name": "proposalId",
          "type": "uint256"
        },
        {
          "internalType": "uint8",
          "name": "support",
          "type": "uint8"
        }
      ],
      "name": "castVote",
      "outputs": [
        {
          "internalType": "uint256",
          "name": "",
          "type": "uint256"
        }
      ],
      "stateMutability": "nonpayable",
      "type": "function"
    },
    {
      "inputs": [
        {
          "internalType": "uint256",
          "name": "proposalId",
          "type": "uint256"
        },
        {
          "internalType": "uint8",
          "name": "support",
          "type": "uint8"
        },
        {
          "internalType": "address",
          "name": "voter",
          "type": "address"
        },
        {
          "internalType": "bytes",
          "name": "signature",
          "type": "bytes"
        }
      ],
      "name": "castVoteBySig",
      "outputs": [
        {
          "internalType": "uint256",
          "name": "",
          "type": "uint256"
        }
      ],
      "stateMutability": "nonpayable",
      "type": "function"
    },
    {
      "inputs": [
        {
          "internalType": "uint256",
          "name": "proposalId",
          "type": "uint256"
        },
        {
          "internalType": "uint8",
          "name": "support",
          "type": "uint8"
        },
        {
          "internalType": "string",
          "name": "reason",
          "type": "string"
        }
      ],
      "name": "castVoteWithReason",
      "outputs": [
        {
          "internalType": "uint256",
          "name": "",
          "type": "uint256"
        }
      ],
      "stateMutability": "nonpayable",
      "type": "function"
    },
    {
      "inputs": [
        {
          "internalType": "uint256",
          "name": "proposalId",
          "type": "uint256"
        },
        {
          "internalType": "uint8",
          "name": "support",
          "type": "uint8"
        },
        {
          "internalType": "string",
          "name": "reason",
          "type": "string"
        },
        {
          "internalType": "bytes",
          "name": "params",
          "type": "bytes"
        }
      ],
      "name": "castVoteWithReasonAndParams",
      "outputs": [
        {
          "internalType": "uint256",
          "name": "",
          "type": "uint256"
        }
      ],
      "stateMutability": "nonpayable",
      "type": "function"
    },
    {
      "inputs": [
        {
          "internalType": "uint256",
          "name": "proposalId",
          "type": "uint256"
        },
        {
          "internalType": "uint8",
          "name": "support",
          "type": "uint8"
        },
        {
          "internalType": "address",
          "name": "voter",
          "type": "address"
        },
        {
          "internalType": "string",
          "name": "reason",
          "type": "string"
        },
        {
          "internalType": "bytes",
          "name": "params",
          "type": "bytes"
        },
        {
          "internalType": "bytes",
          "name": "signature",
          "type": "bytes"
        }
      ],
      "name": "castVoteWithReasonAndParamsBySig",
      "outputs": [
        {
          "internalType": "uint256",
          "name": "",
          "type": "uint256"
        }
      ],
      "stateMutability": "nonpayable",
      "type": "function"
    },
    {
      "inputs": [
        {
          "internalType": "bytes",
          "name": "proof",
          "type": "bytes"
        }
      ],
      "name": "claimManifestoUpdate",
      "outputs": [],
      "stateMutability": "nonpayable",
      "type": "function"
    },
    {
      "inputs": [
        {
          "internalType": "bytes",
          "name": "proof",
          "type": "bytes"
        }
      ],
      "name": "claimParameterUpdate",
      "outputs": [],
      "stateMutability": "nonpayable",
      "type": "function"
    },
    {
      "inputs": [],
      "name": "clock",
      "outputs": [
        {
          "internalType": "uint48",
          "name": "",
          "type": "uint48"
        }
      ],
      "stateMutability": "view",
      "type": "function"
    },
    {
      "inputs": [],
      "name": "eip712Domain",
      "outputs": [
        {
          "internalType": "bytes1",
          "name": "fields",
          "type": "bytes1"
        },
        {
          "internalType": "string",
          "name": "name",
          "type": "string"
        },
        {
          "internalType": "string",
          "name": "version",
          "type": "string"
        },
        {
          "internalType": "uint256",
          "name": "chainId",
          "type": "uint256"
        },
        {
          "internalType": "address",
          "name": "verifyingContract",
          "type": "address"
        },
        {
          "internalType": "bytes32",
          "name": "salt",
          "type": "bytes32"
        },
        {
          "internalType": "uint256[]",
          "name": "extensions",
          "type": "uint256[]"
        }
      ],
      "stateMutability": "view",
      "type": "function"
    },
    {
      "inputs": [
        {
          "internalType": "address[]",
          "name": "targets",
          "type": "address[]"
        },
        {
          "internalType": "uint256[]",
          "name": "values",
          "type": "uint256[]"
        },
        {
          "internalType": "bytes[]",
          "name": "calldatas",
          "type": "bytes[]"
        },
        {
          "internalType": "bytes32",
          "name": "descriptionHash",
          "type": "bytes32"
        }
      ],
      "name": "execute",
      "outputs": [
        {
          "internalType": "uint256",
          "name": "",
          "type": "uint256"
        }
      ],
      "stateMutability": "payable",
      "type": "function"
    },
    {
      "inputs": [
        {
          "internalType": "string",
          "name": "newManifesto",
          "type": "string"
        }
      ],
      "name": "generateManifestoProof",
      "outputs": [
        {
          "internalType": "bytes",
          "name": "",
          "type": "bytes"
        }
      ],
      "stateMutability": "view",
      "type": "function"
    },
    {
      "inputs": [
        {
          "internalType": "enum Gov.OperationType",
          "name": "operationType",
          "type": "uint8"
        },
        {
          "internalType": "bytes",
          "name": "value",
          "type": "bytes"
        }
      ],
      "name": "generateParameterProof",
      "outputs": [
        {
          "internalType": "bytes",
          "name": "",
          "type": "bytes"
        }
      ],
      "stateMutability": "view",
      "type": "function"
    },
    {
      "inputs": [
        {
          "internalType": "address",
          "name": "account",
          "type": "address"
        },
        {
          "internalType": "uint256",
          "name": "timepoint",
          "type": "uint256"
        }
      ],
      "name": "getVotes",
      "outputs": [
        {
          "internalType": "uint256",
          "name": "",
          "type": "uint256"
        }
      ],
      "stateMutability": "view",
      "type": "function"
    },
    {
      "inputs": [
        {
          "internalType": "address",
          "name": "account",
          "type": "address"
        },
        {
          "internalType": "uint256",
          "name": "timepoint",
          "type": "uint256"
        },
        {
          "internalType": "bytes",
          "name": "params",
          "type": "bytes"
        }
      ],
      "name": "getVotesWithParams",
      "outputs": [
        {
          "internalType": "uint256",
          "name": "",
          "type": "uint256"
        }
      ],
      "stateMutability": "view",
      "type": "function"
    },
    {
      "inputs": [
        {
          "internalType": "uint256",
          "name": "proposalId",
          "type": "uint256"
        },
        {
          "internalType": "address",
          "name": "account",
          "type": "address"
        }
      ],
      "name": "hasVoted",
      "outputs": [
        {
          "internalType": "bool",
          "name": "",
          "type": "bool"
        }
      ],
      "stateMutability": "view",
      "type": "function"
    },
    {
      "inputs": [
        {
          "internalType": "address[]",
          "name": "targets",
          "type": "address[]"
        },
        {
          "internalType": "uint256[]",
          "name": "values",
          "type": "uint256[]"
        },
        {
          "internalType": "bytes[]",
          "name": "calldatas",
          "type": "bytes[]"
        },
        {
          "internalType": "bytes32",
          "name": "descriptionHash",
          "type": "bytes32"
        }
      ],
      "name": "hashProposal",
      "outputs": [
        {
          "internalType": "uint256",
          "name": "",
          "type": "uint256"
        }
      ],
      "stateMutability": "pure",
      "type": "function"
    },
    {
      "inputs": [],
      "name": "home",
      "outputs": [
        {
          "internalType": "uint256",
          "name": "",
          "type": "uint256"
        }
      ],
      "stateMutability": "view",
      "type": "function"
    },
    {
      "inputs": [],
      "name": "manifesto",
      "outputs": [
        {
          "internalType": "string",
          "name": "",
          "type": "string"
        }
      ],
      "stateMutability": "view",
      "type": "function"
    },
    {
      "inputs": [],
      "name": "name",
      "outputs": [
        {
          "internalType": "string",
          "name": "",
          "type": "string"
        }
      ],
      "stateMutability": "view",
      "type": "function"
    },
    {
      "inputs": [
        {
          "internalType": "address",
          "name": "owner",
          "type": "address"
        }
      ],
      "name": "nonces",
      "outputs": [
        {
          "internalType": "uint256",
          "name": "",
          "type": "uint256"
        }
      ],
      "stateMutability": "view",
      "type": "function"
    },
    {
      "inputs": [
        {
          "internalType": "address",
          "name": "",
          "type": "address"
        },
        {
          "internalType": "address",
          "name": "",
          "type": "address"
        },
        {
          "internalType": "uint256[]",
          "name": "",
          "type": "uint256[]"
        },
        {
          "internalType": "uint256[]",
          "name": "",
          "type": "uint256[]"
        },
        {
          "internalType": "bytes",
          "name": "",
          "type": "bytes"
        }
      ],
      "name": "onERC1155BatchReceived",
      "outputs": [
        {
          "internalType": "bytes4",
          "name": "",
          "type": "bytes4"
        }
      ],
      "stateMutability": "nonpayable",
      "type": "function"
    },
    {
      "inputs": [
        {
          "internalType": "address",
          "name": "",
          "type": "address"
        },
        {
          "internalType": "address",
          "name": "",
          "type": "address"
        },
        {
          "internalType": "uint256",
          "name": "",
          "type": "uint256"
        },
        {
          "internalType": "uint256",
          "name": "",
          "type": "uint256"
        },
        {
          "internalType": "bytes",
          "name": "",
          "type": "bytes"
        }
      ],
      "name": "onERC1155Received",
      "outputs": [
        {
          "internalType": "bytes4",
          "name": "",
          "type": "bytes4"
        }
      ],
      "stateMutability": "nonpayable",
      "type": "function"
    },
    {
      "inputs": [
        {
          "internalType": "address",
          "name": "",
          "type": "address"
        },
        {
          "internalType": "address",
          "name": "",
          "type": "address"
        },
        {
          "internalType": "uint256",
          "name": "",
          "type": "uint256"
        },
        {
          "internalType": "bytes",
          "name": "",
          "type": "bytes"
        }
      ],
      "name": "onERC721Received",
      "outputs": [
        {
          "internalType": "bytes4",
          "name": "",
          "type": "bytes4"
        }
      ],
      "stateMutability": "nonpayable",
      "type": "function"
    },
    {
      "inputs": [
        {
          "internalType": "uint256",
          "name": "proposalId",
          "type": "uint256"
        }
      ],
      "name": "proposalDeadline",
      "outputs": [
        {
          "internalType": "uint256",
          "name": "",
          "type": "uint256"
        }
      ],
      "stateMutability": "view",
      "type": "function"
    },
    {
      "inputs": [
        {
          "internalType": "uint256",
          "name": "proposalId",
          "type": "uint256"
        }
      ],
      "name": "proposalEta",
      "outputs": [
        {
          "internalType": "uint256",
          "name": "",
          "type": "uint256"
        }
      ],
      "stateMutability": "view",
      "type": "function"
    },
    {
      "inputs": [
        {
          "internalType": "uint256",
          "name": "",
          "type": "uint256"
        }
      ],
      "name": "proposalNeedsQueuing",
      "outputs": [
        {
          "internalType": "bool",
          "name": "",
          "type": "bool"
        }
      ],
      "stateMutability": "view",
      "type": "function"
    },
    {
      "inputs": [
        {
          "internalType": "uint256",
          "name": "proposalId",
          "type": "uint256"
        }
      ],
      "name": "proposalProposer",
      "outputs": [
        {
          "internalType": "address",
          "name": "",
          "type": "address"
        }
      ],
      "stateMutability": "view",
      "type": "function"
    },
    {
      "inputs": [
        {
          "internalType": "uint256",
          "name": "proposalId",
          "type": "uint256"
        }
      ],
      "name": "proposalSnapshot",
      "outputs": [
        {
          "internalType": "uint256",
          "name": "",
          "type": "uint256"
        }
      ],
      "stateMutability": "view",
      "type": "function"
    },
    {
      "inputs": [],
      "name": "proposalThreshold",
      "outputs": [
        {
          "internalType": "uint256",
          "name": "",
          "type": "uint256"
        }
      ],
      "stateMutability": "view",
      "type": "function"
    },
    {
      "inputs": [
        {
          "internalType": "uint256",
          "name": "proposalId",
          "type": "uint256"
        }
      ],
      "name": "proposalVotes",
      "outputs": [
        {
          "internalType": "uint256",
          "name": "againstVotes",
          "type": "uint256"
        },
        {
          "internalType": "uint256",
          "name": "forVotes",
          "type": "uint256"
        },
        {
          "internalType": "uint256",
          "name": "abstainVotes",
          "type": "uint256"
        }
      ],
      "stateMutability": "view",
      "type": "function"
    },
    {
      "inputs": [
        {
          "internalType": "address[]",
          "name": "targets",
          "type": "address[]"
        },
        {
          "internalType": "uint256[]",
          "name": "values",
          "type": "uint256[]"
        },
        {
          "internalType": "bytes[]",
          "name": "calldatas",
          "type": "bytes[]"
        },
        {
          "internalType": "string",
          "name": "description",
          "type": "string"
        }
      ],
      "name": "propose",
      "outputs": [
        {
          "internalType": "uint256",
          "name": "",
          "type": "uint256"
        }
      ],
      "stateMutability": "nonpayable",
      "type": "function"
    },
    {
      "inputs": [
        {
          "internalType": "address[]",
          "name": "targets",
          "type": "address[]"
        },
        {
          "internalType": "uint256[]",
          "name": "values",
          "type": "uint256[]"
        },
        {
          "internalType": "bytes[]",
          "name": "calldatas",
          "type": "bytes[]"
        },
        {
          "internalType": "bytes32",
          "name": "descriptionHash",
          "type": "bytes32"
        }
      ],
      "name": "queue",
      "outputs": [
        {
          "internalType": "uint256",
          "name": "",
          "type": "uint256"
        }
      ],
      "stateMutability": "nonpayable",
      "type": "function"
    },
    {
      "inputs": [
        {
          "internalType": "uint256",
          "name": "blockNumber",
          "type": "uint256"
        }
      ],
      "name": "quorum",
      "outputs": [
        {
          "internalType": "uint256",
          "name": "",
          "type": "uint256"
        }
      ],
      "stateMutability": "view",
      "type": "function"
    },
    {
      "inputs": [],
      "name": "quorumDenominator",
      "outputs": [
        {
          "internalType": "uint256",
          "name": "",
          "type": "uint256"
        }
      ],
      "stateMutability": "view",
      "type": "function"
    },
    {
      "inputs": [
        {
          "internalType": "uint256",
          "name": "timepoint",
          "type": "uint256"
        }
      ],
      "name": "quorumNumerator",
      "outputs": [
        {
          "internalType": "uint256",
          "name": "",
          "type": "uint256"
        }
      ],
      "stateMutability": "view",
      "type": "function"
    },
    {
      "inputs": [],
      "name": "quorumNumerator",
      "outputs": [
        {
          "internalType": "uint256",
          "name": "",
          "type": "uint256"
        }
      ],
      "stateMutability": "view",
      "type": "function"
    },
    {
      "inputs": [
        {
          "internalType": "address",
          "name": "target",
          "type": "address"
        },
        {
          "internalType": "uint256",
          "name": "value",
          "type": "uint256"
        },
        {
          "internalType": "bytes",
          "name": "data",
          "type": "bytes"
        }
      ],
      "name": "relay",
      "outputs": [],
      "stateMutability": "payable",
      "type": "function"
    },
    {
      "inputs": [
        {
          "internalType": "string",
          "name": "newManifesto",
          "type": "string"
        }
      ],
      "name": "setManifesto",
      "outputs": [],
      "stateMutability": "nonpayable",
      "type": "function"
    },
    {
      "inputs": [
        {
          "internalType": "uint256",
          "name": "newProposalThreshold",
          "type": "uint256"
        }
      ],
      "name": "setProposalThreshold",
      "outputs": [],
      "stateMutability": "nonpayable",
      "type": "function"
    },
    {
      "inputs": [
        {
          "internalType": "uint48",
          "name": "newVotingDelay",
          "type": "uint48"
        }
      ],
      "name": "setVotingDelay",
      "outputs": [],
      "stateMutability": "nonpayable",
      "type": "function"
    },
    {
      "inputs": [
        {
          "internalType": "uint32",
          "name": "newVotingPeriod",
          "type": "uint32"
        }
      ],
      "name": "setVotingPeriod",
      "outputs": [],
      "stateMutability": "nonpayable",
      "type": "function"
    },
    {
      "inputs": [
        {
          "internalType": "uint256",
          "name": "proposalId",
          "type": "uint256"
        }
      ],
      "name": "state",
      "outputs": [
        {
          "internalType": "enum IGovernor.ProposalState",
          "name": "",
          "type": "uint8"
        }
      ],
      "stateMutability": "view",
      "type": "function"
    },
    {
      "inputs": [
        {
          "internalType": "bytes4",
          "name": "interfaceId",
          "type": "bytes4"
        }
      ],
      "name": "supportsInterface",
      "outputs": [
        {
          "internalType": "bool",
          "name": "",
          "type": "bool"
        }
      ],
      "stateMutability": "view",
      "type": "function"
    },
    {
      "inputs": [],
      "name": "token",
      "outputs": [
        {
          "internalType": "contract IERC5805",
          "name": "",
          "type": "address"
        }
      ],
      "stateMutability": "view",
      "type": "function"
    },
    {
      "inputs": [
        {
          "internalType": "uint256",
          "name": "newQuorumNumerator",
          "type": "uint256"
        }
      ],
      "name": "updateQuorumNumerator",
      "outputs": [],
      "stateMutability": "nonpayable",
      "type": "function"
    },
    {
      "inputs": [],
      "name": "version",
      "outputs": [
        {
          "internalType": "string",
          "name": "",
          "type": "string"
        }
      ],
      "stateMutability": "view",
      "type": "function"
    },
    {
      "inputs": [],
      "name": "votingDelay",
      "outputs": [
        {
          "internalType": "uint256",
          "name": "",
          "type": "uint256"
        }
      ],
      "stateMutability": "view",
      "type": "function"
    },
    {
      "inputs": [],
      "name": "votingPeriod",
      "outputs": [
        {
          "internalType": "uint256",
          "name": "",
          "type": "uint256"
        }
      ],
      "stateMutability": "view",
      "type": "function"
    },
    {
      "stateMutability": "payable",
      "type": "receive"
    }
  ],
  "transactionHash": "0x6c937c0bfe1089dfe7870db406252d69dd19207d0fde050ba27f1a3d1c929404",
  "args": [
    11155420,
    "0x71C3BcA4Efc456737Ec4827164Dce38B7DFb4987",
    "https://bafkreifnnreoxxgkhty7v2w3qwiie6cfxpv3vcco2xldekfvbiem3nm6dm.ipfs.w3s.link/",
    "Test DAO",
    0,
    60,
    1,
    5
  ],
  "numDeployments": 1,
  "solcInputHash": "9de3fc32bd19eed5165a20fc43e3e489",
  "bytecode": "0x6101a06040523480156200001257600080fd5b5060405162005644380380620056448339810160408190526200003591620007d4565b808785858589806200005b6040805180820190915260018152603160f81b602082015290565b6200006882600062000181565b610120526200007981600162000181565b61014052815160208084019190912060e052815190820120610100524660a0526200010760e05161010051604080517f8b73c3c69bb8fe3d512ecc4cf759cc79239f7b179b0ffacaa9a75d522b39400f60208201529081019290925260608201524660808201523060a082015260009060c00160405160208183030381529060405280519060200120905090565b60805250503060c05260036200011e828262000932565b506200012c905083620001ba565b620001378262000220565b6200014281620002c7565b5050506001600160a01b0316610160526200015d8162000308565b50610180889052600b62000172878262000932565b50505050505050505062000a98565b6000602083511015620001a1576200019983620003a8565b9050620001b4565b81620001ae848262000932565b5060ff90505b92915050565b6008546040805165ffffffffffff928316815291831660208301527fc565b045403dc03c2eea82b81a0465edad9e2e7fc4d97e11421c209da93d7a93910160405180910390a16008805465ffffffffffff191665ffffffffffff92909216919091179055565b8063ffffffff16600003620002505760405163f1cfbf0560e01b8152600060048201526024015b60405180910390fd5b6008546040805163ffffffff66010000000000009093048316815291831660208301527f7e3f7f0708a84de9203036abaa450dccc85ad5ff52f78c170f3edb55cf5e8828910160405180910390a16008805463ffffffff90921666010000000000000263ffffffff60301b19909216919091179055565b60075460408051918252602082018390527fccb45da8d5717e6c4544694297c4ba5cf151d455c9bb0ed4fc7a38411bc05461910160405180910390a1600755565b606480821115620003375760405163243e544560e01b8152600481018390526024810182905260440162000247565b600062000343620003eb565b9050620003686200035362000407565b6200035e8562000489565b600a9190620004c3565b505060408051828152602081018590527f0553476bf02ef2726e8ce5ced78d63e26e602e4a2257b1f559418e24b4633997910160405180910390a1505050565b600080829050601f81511115620003d6578260405163305a27a960e01b8152600401620002479190620009fe565b8051620003e38262000a33565b179392505050565b6000620003f9600a620004e0565b6001600160d01b0316905090565b6000620004146101605190565b6001600160a01b03166391ddadf46040518163ffffffff1660e01b8152600401602060405180830381865afa92505050801562000470575060408051601f3d908101601f191682019092526200046d9181019062000a58565b60015b62000484576200047f62000530565b905090565b919050565b60006001600160d01b03821115620004bf576040516306dfcc6560e41b815260d060048201526024810183905260440162000247565b5090565b600080620004d38585856200053d565b915091505b935093915050565b8054600090801562000526576200050c83620004fe60018462000a76565b600091825260209091200190565b54660100000000000090046001600160d01b031662000529565b60005b9392505050565b60006200047f43620006a6565b825460009081908015620006475760006200055f87620004fe60018562000a76565b805490915065ffffffffffff80821691660100000000000090046001600160d01b0316908816821115620005a657604051632520601d60e01b815260040160405180910390fd5b8765ffffffffffff168265ffffffffffff1603620005e457825465ffffffffffff1666010000000000006001600160d01b0389160217835562000638565b6040805180820190915265ffffffffffff808a1682526001600160d01b03808a1660208085019182528d54600181018f5560008f815291909120945191519092166601000000000000029216919091179101555b9450859350620004d892505050565b50506040805180820190915265ffffffffffff80851682526001600160d01b0380851660208085019182528854600181018a5560008a8152918220955192519093166601000000000000029190931617920191909155905081620004d8565b600065ffffffffffff821115620004bf576040516306dfcc6560e41b8152603060048201526024810183905260440162000247565b634e487b7160e01b600052604160045260246000fd5b60005b838110156200070e578181015183820152602001620006f4565b50506000910152565b600082601f8301126200072957600080fd5b81516001600160401b0380821115620007465762000746620006db565b604051601f8301601f19908116603f01168101908282118183101715620007715762000771620006db565b816040528381528660208588010111156200078b57600080fd5b6200079e846020830160208901620006f1565b9695505050505050565b805165ffffffffffff811681146200048457600080fd5b805163ffffffff811681146200048457600080fd5b600080600080600080600080610100898b031215620007f257600080fd5b885160208a01519098506001600160a01b03811681146200081257600080fd5b60408a01519097506001600160401b03808211156200083057600080fd5b6200083e8c838d0162000717565b975060608b01519150808211156200085557600080fd5b50620008648b828c0162000717565b9550506200087560808a01620007a8565b93506200088560a08a01620007bf565b60c08a015160e0909a0151989b979a5095989497939692505050565b600181811c90821680620008b657607f821691505b602082108103620008d757634e487b7160e01b600052602260045260246000fd5b50919050565b601f8211156200092d576000816000526020600020601f850160051c81016020861015620009085750805b601f850160051c820191505b81811015620009295782815560010162000914565b5050505b505050565b81516001600160401b038111156200094e576200094e620006db565b62000966816200095f8454620008a1565b84620008dd565b602080601f8311600181146200099e5760008415620009855750858301515b600019600386901b1c1916600185901b17855562000929565b600085815260208120601f198616915b82811015620009cf57888601518255948401946001909101908401620009ae565b5085821015620009ee5787850151600019600388901b60f8161c191681555b5050505050600190811b01905550565b602081526000825180602084015262000a1f816040850160208701620006f1565b601f01601f19169190910160400192915050565b80516020808301519190811015620008d75760001960209190910360031b1b16919050565b60006020828403121562000a6b57600080fd5b6200052982620007a8565b81810381811115620001b457634e487b7160e01b600052601160045260246000fd5b60805160a05160c05160e0516101005161012051610140516101605161018051614aee62000b566000396000818161085801528181610b8b01528181610cf10152818161124c015281816116b401528181611dfe01528181611f6c0152612018015260008181610b06015281816113810152818161195001528181612a3d0152612c2e01526000612a08015260006129db01526000612e5701526000612e2f01526000612d8a01526000612db401526000612dde0152614aee6000f3fe60806040526004361061031e5760003560e01c80637d5e81e2116101ab578063bc197c81116100f7578063e2f3dce011610095578063ece40cc11161006f578063ece40cc114610a8b578063f23a6e6114610aab578063f8ce560a14610ad7578063fc0c546a14610af757600080fd5b8063e2f3dce014610a36578063e540d01d14610a4b578063eb9019d414610a6b57600080fd5b8063c59057e4116100d1578063c59057e41461097c578063cc31491c1461099c578063dd4e2ba5146109bc578063deaaa7cc14610a0257600080fd5b8063bc197c811461091d578063c01f9e3714610949578063c28bc2fa1461096957600080fd5b80639a802a6d11610164578063a9a952941161013e578063a9a952941461088f578063ab58fb8e146108b0578063b47a3218146108e8578063b58131b01461090857600080fd5b80639a802a6d146108265780639fa92f9d14610846578063a7713a701461087a57600080fd5b80637d5e81e2146107485780637ecebe001461076857806384b0196e1461079e5780638ff262e3146107c657806391ddadf4146107e657806397c3d3341461081257600080fd5b80633e4f49e61161026a57806354fd4d50116102235780635f398a14116101fd5780635f398a14146106c857806360c4247f146106e857806379051887146107085780637b3c71d31461072857600080fd5b806354fd4d501461065e57806356781388146106885780635b8d0e0d146106a857600080fd5b80633e4f49e61461053d578063404fe7df1461056a578063438596321461058a578063452115d6146105d45780634bf5d7e9146105f4578063544ffc9c1461060957600080fd5b8063160cbed7116102d75780632d63f693116102b15780632d63f693146104b45780632fe3e261146104d45780633932abb1146105085780633cd8aa5f1461051d57600080fd5b8063160cbed7146104615780631985ba76146104815780632656227d146104a157600080fd5b806301ffc9a71461032c57806302a251a31461036157806306f3f9e61461038d57806306fdde03146103ad578063143489d0146103cf578063150b7a021461041d57600080fd5b3661032757005b005b600080fd5b34801561033857600080fd5b5061034c6103473660046136ca565b610b2a565b60405190151581526020015b60405180910390f35b34801561036d57600080fd5b50600854600160301b900463ffffffff165b604051908152602001610358565b34801561039957600080fd5b506103256103a83660046136f4565b610b81565b3480156103b957600080fd5b506103c2610c15565b604051610358919061375d565b3480156103db57600080fd5b506104056103ea3660046136f4565b6000908152600460205260409020546001600160a01b031690565b6040516001600160a01b039091168152602001610358565b34801561042957600080fd5b5061044861043836600461384a565b630a85bd0160e11b949350505050565b6040516001600160e01b03199091168152602001610358565b34801561046d57600080fd5b5061037f61047c366004613a23565b610ca7565b34801561048d57600080fd5b5061032561049c366004613ab2565b610ce7565b61037f6104af366004613a23565b610e0a565b3480156104c057600080fd5b5061037f6104cf3660046136f4565b610f35565b3480156104e057600080fd5b5061037f7f3e83946653575f9a39005e1545185629e92736b7528ab20ca3816f315424a81181565b34801561051457600080fd5b5061037f610f56565b34801561052957600080fd5b50610325610538366004613ab2565b610f69565b34801561054957600080fd5b5061055d6105583660046136f4565b61110e565b6040516103589190613b10565b34801561057657600080fd5b506103c2610585366004613ab2565b611248565b34801561059657600080fd5b5061034c6105a5366004613b1e565b60008281526009602090815260408083206001600160a01b038516845260030190915290205460ff1692915050565b3480156105e057600080fd5b5061037f6105ef366004613a23565b61130e565b34801561060057600080fd5b506103c261137d565b34801561061557600080fd5b506106436106243660046136f4565b6000908152600960205260409020805460018201546002909201549092565b60408051938452602084019290925290820152606001610358565b34801561066a57600080fd5b506040805180820190915260018152603160f81b60208201526103c2565b34801561069457600080fd5b5061037f6106a3366004613b5b565b61143f565b3480156106b457600080fd5b5061037f6106c3366004613bc6565b611468565b3480156106d457600080fd5b5061037f6106e3366004613c7e565b6115c7565b3480156106f457600080fd5b5061037f6107033660046136f4565b61161c565b34801561071457600080fd5b50610325610723366004613d15565b6116aa565b34801561073457600080fd5b5061037f610743366004613d32565b611733565b34801561075457600080fd5b5061037f610763366004613d8b565b61177b565b34801561077457600080fd5b5061037f610783366004613e2b565b6001600160a01b031660009081526002602052604090205490565b3480156107aa57600080fd5b506107b3611834565b6040516103589796959493929190613e82565b3480156107d257600080fd5b5061037f6107e1366004613ef2565b61187a565b3480156107f257600080fd5b506107fb61194c565b60405165ffffffffffff9091168152602001610358565b34801561081e57600080fd5b50606461037f565b34801561083257600080fd5b5061037f610841366004613f41565b6119d4565b34801561085257600080fd5b5061037f7f000000000000000000000000000000000000000000000000000000000000000081565b34801561088657600080fd5b5061037f6119eb565b34801561089b57600080fd5b5061034c6108aa3660046136f4565b50600090565b3480156108bc57600080fd5b5061037f6108cb3660046136f4565b60009081526004602052604090206001015465ffffffffffff1690565b3480156108f457600080fd5b50610325610903366004613ab2565b611a05565b34801561091457600080fd5b5061037f611cf2565b34801561092957600080fd5b50610448610938366004613f97565b63bc197c8160e01b95945050505050565b34801561095557600080fd5b5061037f6109643660046136f4565b611cfd565b610325610977366004614026565b611d40565b34801561098857600080fd5b5061037f610997366004613a23565b611dc0565b3480156109a857600080fd5b506103c26109b7366004614074565b611dfa565b3480156109c857600080fd5b506040805180820190915260208082527f737570706f72743d627261766f2671756f72756d3d666f722c6162737461696e908201526103c2565b348015610a0e57600080fd5b5061037f7ff2aad550cf55f045cb27e9c559f9889fdfb6e6cdaa032301d6ea397784ae51d781565b348015610a4257600080fd5b506103c2611ed4565b348015610a5757600080fd5b50610325610a663660046140c3565b611f62565b348015610a7757600080fd5b5061037f610a863660046140e9565b611fed565b348015610a9757600080fd5b50610325610aa63660046136f4565b61200e565b348015610ab757600080fd5b50610448610ac6366004614113565b63f23a6e6160e01b95945050505050565b348015610ae357600080fd5b5061037f610af23660046136f4565b612071565b348015610b0357600080fd5b507f0000000000000000000000000000000000000000000000000000000000000000610405565b60006001600160e01b031982166332a2ad4360e11b1480610b5b57506001600160e01b03198216630271189760e51b145b80610b7657506301ffc9a760e01b6001600160e01b03198316145b92915050565b905090565b610b8961207c565b7f00000000000000000000000000000000000000000000000000000000000000004614610bd15760405162461bcd60e51b8152600401610bc890614177565b60405180910390fd5b6000610bdb6119eb565b9050610be6826120b4565b60045b6040805183815260208101859052600080516020614a9983398151915291015b60405180910390a25050565b606060038054610c24906141bb565b80601f0160208091040260200160405190810160405280929190818152602001828054610c50906141bb565b8015610c9d5780601f10610c7257610100808354040283529160200191610c9d565b820191906000526020600020905b815481529060010190602001808311610c8057829003601f168201915b5050505050905090565b600080610cb686868686611dc0565b9050610ccb81610cc6600461214a565b61216d565b506000604051634844252360e11b815260040160405180910390fd5b610cef61207c565b7f00000000000000000000000000000000000000000000000000000000000000004614610d2e5760405162461bcd60e51b8152600401610bc890614177565b6000600b8054610d3d906141bb565b80601f0160208091040260200160405190810160405280929190818152602001828054610d69906141bb565b8015610db65780601f10610d8b57610100808354040283529160200191610db6565b820191906000526020600020905b815481529060010190602001808311610d9957829003601f168201915b5050505050905081600b9081610dcc9190614242565b507fa8dfc2695fb14159dabe09a19be7fe25dc9ec353ad79a80d728140a1ec8421478183604051610dfe929190614301565b60405180910390a15050565b600080610e1986868686611dc0565b9050610e3981610e29600561214a565b610e33600461214a565b1761216d565b506000818152600460205260409020805460ff60f01b1916600160f01b17905530610e613090565b6001600160a01b031614610eeb5760005b8651811015610ee957306001600160a01b0316878281518110610e9757610e97614326565b60200260200101516001600160a01b031603610ee157610ee1858281518110610ec257610ec2614326565b60200260200101518051906020012060056121ac90919063ffffffff16565b600101610e72565b505b610ef8818787878761220e565b6040518181527f712ae1383f79ac853f8d882153778e0260ef8f03b504e2866e0593e04d2b291f906020015b60405180910390a195945050505050565b600090815260046020526040902054600160a01b900465ffffffffffff1690565b6000610b7c60085465ffffffffffff1690565b60008082806020019051810190610f80919061438c565b90925090506000308184604051602001610f9c939291906143d2565b604051602081830303815290604052805190602001209050600081604051602001610fc7919061441a565b60405160208183030381529060405280519060200120905080831461102e5760405162461bcd60e51b815260206004820152601760248201527f496e76616c6964206d616e69666573746f2070726f6f660000000000000000006044820152606401610bc8565b6000600b805461103d906141bb565b80601f0160208091040260200160405190810160405280929190818152602001828054611069906141bb565b80156110b65780601f1061108b576101008083540402835291602001916110b6565b820191906000526020600020905b81548152906001019060200180831161109957829003601f168201915b5050505050905084600b90816110cc9190614242565b507fa8dfc2695fb14159dabe09a19be7fe25dc9ec353ad79a80d728140a1ec84214781866040516110fe929190614301565b60405180910390a1505050505050565b6000818152600460205260408120805460ff600160f01b8204811691600160f81b900416811561114357506007949350505050565b801561115457506002949350505050565b600061115f86610f35565b90508060000361118557604051636ad0607560e01b815260048101879052602401610bc8565b600061118f61194c565b65ffffffffffff1690508082106111ad575060009695505050505050565b60006111b888611cfd565b90508181106111cf57506001979650505050505050565b6111d8886122e0565b15806111f857506000888152600960205260409020805460019091015411155b1561120b57506003979650505050505050565b60008881526004602052604090206001015465ffffffffffff1660000361123a57506004979650505050505050565b506005979650505050505050565b60607f000000000000000000000000000000000000000000000000000000000000000046146112895760405162461bcd60e51b8152600401610bc89061444b565b60003081846040516020016112a0939291906143d2565b6040516020818303038152906040528051906020012090506000816040516020016112cb919061441a565b60405160208183030381529060405280519060200120905083816040516020016112f6929190614495565b60405160208183030381529060405292505050919050565b60008061131d86868686611dc0565b905061132d81610cc6600061214a565b506000818152600460205260409020546001600160a01b031633146113675760405163233d98e360e01b8152336004820152602401610bc8565b61137386868686612317565b9695505050505050565b60607f00000000000000000000000000000000000000000000000000000000000000006001600160a01b0316634bf5d7e96040518163ffffffff1660e01b8152600401600060405180830381865afa9250505080156113fe57506040513d6000823e601f3d908101601f191682016040526113fb91908101906144b7565b60015b61143a575060408051808201909152601d81527f6d6f64653d626c6f636b6e756d6265722666726f6d3d64656661756c74000000602082015290565b919050565b600080339050611460848285604051806020016040528060008152506123c8565b949350505050565b60008061154b876115457f3e83946653575f9a39005e1545185629e92736b7528ab20ca3816f315424a8118c8c8c6114bd8e6001600160a01b0316600090815260026020526040902080546001810190915590565b8d8d6040516114cd9291906144eb565b60405180910390208c8051906020012060405160200161152a9796959493929190968752602087019590955260ff9390931660408601526001600160a01b03919091166060850152608084015260a083015260c082015260e00190565b604051602081830303815290604052805190602001206123f4565b85612421565b905080611576576040516394ab6c0760e01b81526001600160a01b0388166004820152602401610bc8565b6115ba89888a89898080601f0160208091040260200160405190810160405280939291908181526020018383808284376000920191909152508b9250612495915050565b9998505050505050505050565b60008033905061161187828888888080601f0160208091040260200160405190810160405280939291908181526020018383808284376000920191909152508a9250612495915050565b979650505050505050565b600a80546000918290611630600184614511565b8154811061164057611640614326565b6000918252602090912001805490915065ffffffffffff811690600160301b90046001600160d01b0316858211611683576001600160d01b031695945050505050565b61169761168f87612577565b600a906125ae565b6001600160d01b03169695505050505050565b6116b261207c565b7f000000000000000000000000000000000000000000000000000000000000000046146116f15760405162461bcd60e51b8152600401610bc890614177565b60006116fb610f56565b905061170682612663565b60016040805183815265ffffffffffff85166020820152600080516020614a998339815191529101610c09565b60008033905061137386828787878080601f0160208091040260200160405190810160405280939291908181526020018383808284376000920191909152506123c892505050565b60003361178881846126c9565b6117b05760405163d9b3955760e01b81526001600160a01b0382166004820152602401610bc8565b60006117ba611cf2565b905080156118275760006117e98360016117d261194c565b6117dc9190614524565b65ffffffffffff16611fed565b90508181101561182557604051636121770b60e11b81526001600160a01b03841660048201526024810182905260448101839052606401610bc8565b505b61161187878787866127b4565b6000606080600080600060606118486129d4565b611850612a01565b60408051600080825260208201909252600f60f81b9b939a50919850469750309650945092509050565b600080611906846115457ff2aad550cf55f045cb27e9c559f9889fdfb6e6cdaa032301d6ea397784ae51d78989896118cf8b6001600160a01b0316600090815260026020526040902080546001810190915590565b60408051602081019690965285019390935260ff90911660608401526001600160a01b0316608083015260a082015260c00161152a565b905080611931576040516394ab6c0760e01b81526001600160a01b0385166004820152602401610bc8565b611373868587604051806020016040528060008152506123c8565b60007f00000000000000000000000000000000000000000000000000000000000000006001600160a01b03166391ddadf46040518163ffffffff1660e01b8152600401602060405180830381865afa9250505080156119c8575060408051601f3d908101601f191682019092526119c59181019061454a565b60015b61143a57610b7c612a2e565b60006119e1848484612a39565b90505b9392505050565b60006119f7600a612acf565b6001600160d01b0316905090565b600080600083806020019051810190611a1e9190614567565b925092509250600030846004811115611a3957611a39613ae6565b84604051602001611a4c939291906143d2565b604051602081830303815290604052805190602001209050600081604051602001611a77919061441a565b604051602081830303815290604052805190602001209050808314611ade5760405162461bcd60e51b815260206004820152601e60248201527f496e76616c696420706172616d65746572207570646174652070726f6f6600006044820152606401610bc8565b6001856004811115611af257611af2613ae6565b03611b64576000611b02856145d4565b60d01c90506000611b11610f56565b9050611b1c82612663565b866004811115611b2e57611b2e613ae6565b6040805183815265ffffffffffff85166020820152600080516020614a9983398151915291015b60405180910390a25050611cea565b6002856004811115611b7857611b78613ae6565b03611bec576000611b888561460b565b60e01c90506000611ba660085463ffffffff600160301b9091041690565b9050611bb182612b08565b866004811115611bc357611bc3613ae6565b6040805183815263ffffffff85166020820152600080516020614a998339815191529101611b55565b6003856004811115611c0057611c00613ae6565b03611c6857600084806020019051810190611c1b919061463e565b90506000611c27611cf2565b9050611c3282612ba6565b866004811115611c4457611c44613ae6565b6040805183815260208101859052600080516020614a998339815191529101611b55565b6004856004811115611c7c57611c7c613ae6565b03611cea57600084806020019051810190611c97919061463e565b90506000611ca36119eb565b9050611cae826120b4565b866004811115611cc057611cc0613ae6565b6040805183815260208101859052600080516020614a99833981519152910160405180910390a250505b505050505050565b6000610b7c60075490565b600081815260046020526040812054611d3290600160d01b810463ffffffff1690600160a01b900465ffffffffffff16614657565b65ffffffffffff1692915050565b611d4861207c565b600080856001600160a01b0316858585604051611d669291906144eb565b60006040518083038185875af1925050503d8060008114611da3576040519150601f19603f3d011682016040523d82523d6000602084013e611da8565b606091505b5091509150611db78282612be7565b50505050505050565b600084848484604051602001611dd9949392919061470a565b60408051601f19818403018152919052805160209091012095945050505050565b60607f00000000000000000000000000000000000000000000000000000000000000004614611e3b5760405162461bcd60e51b8152600401610bc89061444b565b600030846004811115611e5057611e50613ae6565b84604051602001611e63939291906143d2565b604051602081830303815290604052805190602001209050600081604051602001611e8e919061441a565b604051602081830303815290604052805190602001209050848482604051602001611ebb93929190614755565b6040516020818303038152906040529250505092915050565b600b8054611ee1906141bb565b80601f0160208091040260200160405190810160405280929190818152602001828054611f0d906141bb565b8015611f5a5780601f10611f2f57610100808354040283529160200191611f5a565b820191906000526020600020905b815481529060010190602001808311611f3d57829003601f168201915b505050505081565b611f6a61207c565b7f00000000000000000000000000000000000000000000000000000000000000004614611fa95760405162461bcd60e51b8152600401610bc890614177565b600854600160301b900463ffffffff16611fc282612b08565b60026040805183815263ffffffff85166020820152600080516020614a998339815191529101610c09565b60006119e4838361200960408051602081019091526000815290565b612a39565b61201661207c565b7f000000000000000000000000000000000000000000000000000000000000000046146120555760405162461bcd60e51b8152600401610bc890614177565b600061205f611cf2565b905061206a82612ba6565b6003610be9565b6000610b7682612c03565b30331461209e576040516347096e4760e01b8152336004820152602401610bc8565b565b806120ab6005612cad565b036120a0575b50565b6064808211156120e15760405163243e544560e01b81526004810183905260248101829052604401610bc8565b60006120eb6119eb565b905061210a6120f861194c565b61210185612d1c565b600a9190612d50565b505060408051828152602081018590527f0553476bf02ef2726e8ce5ced78d63e26e602e4a2257b1f559418e24b4633997910160405180910390a1505050565b600081600781111561215e5761215e613ae6565b600160ff919091161b92915050565b6000806121798461110e565b90506000836121878361214a565b16036119e4578381846040516331b75e4d60e01b8152600401610bc89392919061478e565b81546001600160801b03600160801b8204811691811660018301909116036121d8576121d86041612d6b565b6001600160801b03808216600090815260018086016020526040909120939093558354919092018216600160801b029116179055565b60005b8451811015611cea5760008086838151811061222f5761222f614326565b60200260200101516001600160a01b031686848151811061225257612252614326565b602002602001015186858151811061226c5761226c614326565b602002602001015160405161228191906147b0565b60006040518083038185875af1925050503d80600081146122be576040519150601f19603f3d011682016040523d82523d6000602084013e6122c3565b606091505b50915091506122d28282612be7565b505050806001019050612211565b60008181526009602052604081206002810154600182015461230291906147cc565b61230e610af285610f35565b11159392505050565b60008061232686868686611dc0565b905061237481612336600761214a565b612340600661214a565b61234a600261214a565b60016123576007826147df565b6123629060026148dc565b61236c9190614511565b18181861216d565b506000818152600460205260409081902080546001600160f81b0316600160f81b179055517f789cf55be980739dad1d0699b93b58e806b51c9d96619bfa8fe0a28abaa7b30c90610f249083815260200190565b60006123eb858585856123e660408051602081019091526000815290565b612495565b95945050505050565b6000610b76612401612d7d565b8360405161190160f01b8152600281019290925260228201526042902090565b6000836001600160a01b03163b600003612483576000806124428585612ea8565b509092509050600081600381111561245c5761245c613ae6565b14801561247a5750856001600160a01b0316826001600160a01b0316145b925050506119e4565b61248e848484612ef5565b90506119e4565b60006124a586610cc6600161214a565b5060006124bb866124b589610f35565b85612a39565b905060006124cc8888888588612fd0565b9050835160000361252357866001600160a01b03167fb8e138887d0aa13bab447e82de9d5c1777041ecd21ca36ba824ff1e6c07ddda48988848960405161251694939291906148eb565b60405180910390a2611611565b866001600160a01b03167fe2babfbac5889a709b63bb7f598b324e08bc5a4fb9ec647fb3cbc9ec07eb87128988848989604051612564959493929190614913565b60405180910390a2979650505050505050565b600065ffffffffffff8211156125aa576040516306dfcc6560e41b81526030600482015260248101839052604401610bc8565b5090565b81546000908181600581111561260d5760006125c9846130d3565b6125d39085614511565b60008881526020902090915081015465ffffffffffff90811690871610156125fd5780915061260b565b6126088160016147cc565b92505b505b600061261b8787858561322c565b905080156126565761264087612632600184614511565b600091825260209091200190565b54600160301b90046001600160d01b0316611611565b6000979650505050505050565b6008546040805165ffffffffffff928316815291831660208301527fc565b045403dc03c2eea82b81a0465edad9e2e7fc4d97e11421c209da93d7a93910160405180910390a16008805465ffffffffffff191665ffffffffffff92909216919091179055565b805160009060348110156126e1576001915050610b76565b82810160131901516001600160a01b031981166b046e0e4dee0dee6cae47a60f60a31b1461271457600192505050610b76565b600080612722602885614511565b90505b838110156127935760008061275988848151811061274557612745614326565b01602001516001600160f81b03191661328e565b91509150816127715760019650505050505050610b76565b8060ff166004856001600160a01b0316901b1793505050806001019050612725565b50856001600160a01b0316816001600160a01b031614935050505092915050565b60006127c98686868680519060200120611dc0565b9050845186511415806127de57508351865114155b806127e857508551155b1561281d57855184518651604051630447b05d60e41b8152600481019390935260248301919091526044820152606401610bc8565b600081815260046020526040902054600160a01b900465ffffffffffff1615612868578061284a8261110e565b6040516331b75e4d60e01b8152610bc892919060009060040161478e565b6000612872610f56565b61287a61194c565b65ffffffffffff1661288c91906147cc565b905060006128a760085463ffffffff600160301b9091041690565b600084815260046020526040902080546001600160a01b0319166001600160a01b0387161781559091506128da83612577565b815465ffffffffffff91909116600160a01b0265ffffffffffff60a01b1990911617815561290782613320565b815463ffffffff91909116600160d01b0263ffffffff60d01b1990911617815588517f7d84a6263ae0d98d3329bd7b46bb4e8d6f98cd35a7adb45c274c8b7fd5ebd5e090859087908c908c906001600160401b0381111561296a5761296a613787565b60405190808252806020026020018201604052801561299d57816020015b60608152602001906001900390816129885790505b508c896129aa8a826147cc565b8e6040516129c099989796959493929190614959565b60405180910390a150505095945050505050565b6060610b7c7f00000000000000000000000000000000000000000000000000000000000000006000613351565b6060610b7c7f00000000000000000000000000000000000000000000000000000000000000006001613351565b6000610b7c43612577565b60007f0000000000000000000000000000000000000000000000000000000000000000604051630748d63560e31b81526001600160a01b038681166004830152602482018690529190911690633a46b1a890604401602060405180830381865afa158015612aab573d6000803e3d6000fd5b505050506040513d601f19601f820116820180604052508101906119e1919061463e565b80546000908015612aff57612ae983612632600184614511565b54600160301b90046001600160d01b03166119e4565b60009392505050565b8063ffffffff16600003612b325760405163f1cfbf0560e01b815260006004820152602401610bc8565b6008546040805163ffffffff600160301b9093048316815291831660208301527f7e3f7f0708a84de9203036abaa450dccc85ad5ff52f78c170f3edb55cf5e8828910160405180910390a16008805463ffffffff909216600160301b0269ffffffff00000000000019909216919091179055565b60075460408051918252602082018390527fccb45da8d5717e6c4544694297c4ba5cf151d455c9bb0ed4fc7a38411bc05461910160405180910390a1600755565b606082612bfc57612bf7826133fc565b610b76565b5080610b76565b60006064612c108361161c565b604051632394e7a360e21b8152600481018590526001600160a01b037f00000000000000000000000000000000000000000000000000000000000000001690638e539e8c90602401602060405180830381865afa158015612c75573d6000803e3d6000fd5b505050506040513d601f19601f82011682018060405250810190612c99919061463e565b612ca39190614a30565b610b769190614a5d565b80546000906001600160801b0380821691600160801b9004168103612cd657612cd66031612d6b565b6001600160801b038181166000908152600185810160205260408220805492905585546fffffffffffffffffffffffffffffffff19169301909116919091179092555090565b60006001600160d01b038211156125aa576040516306dfcc6560e41b815260d0600482015260248101839052604401610bc8565b600080612d5e858585613425565b915091505b935093915050565b634e487b71600052806020526024601cfd5b6000306001600160a01b037f000000000000000000000000000000000000000000000000000000000000000016148015612dd657507f000000000000000000000000000000000000000000000000000000000000000046145b15612e0057507f000000000000000000000000000000000000000000000000000000000000000090565b610b7c604080517f8b73c3c69bb8fe3d512ecc4cf759cc79239f7b179b0ffacaa9a75d522b39400f60208201527f0000000000000000000000000000000000000000000000000000000000000000918101919091527f000000000000000000000000000000000000000000000000000000000000000060608201524660808201523060a082015260009060c00160405160208183030381529060405280519060200120905090565b60008060008351604103612ee25760208401516040850151606086015160001a612ed488828585613579565b955095509550505050612eee565b50508151600091506002905b9250925092565b6000806000856001600160a01b03168585604051602401612f17929190614a7f565b60408051601f198184030181529181526020820180516001600160e01b0316630b135d3f60e11b17905251612f4c91906147b0565b600060405180830381855afa9150503d8060008114612f87576040519150601f19603f3d011682016040523d82523d6000602084013e612f8c565b606091505b5091509150818015612fa057506020815110155b801561137357508051630b135d3f60e11b90612fc5908301602090810190840161463e565b149695505050505050565b60008581526009602090815260408083206001600160a01b03881684526003810190925282205460ff1615613023576040516371c6af4960e01b81526001600160a01b0387166004820152602401610bc8565b6001600160a01b03861660009081526003820160205260409020805460ff1916600117905560ff851661306f578381600001600082825461306491906147cc565b909155506130c89050565b60001960ff86160161308f578381600101600082825461306491906147cc565b60011960ff8616016130af578381600201600082825461306491906147cc565b6040516303599be160e11b815260040160405180910390fd5b509195945050505050565b6000600182116130e1575090565b816001600160801b82106130fa5760809190911c9060401b5b6801000000000000000082106131155760409190911c9060201b5b640100000000821061312c5760209190911c9060101b5b6201000082106131415760109190911c9060081b5b61010082106131555760089190911c9060041b5b601082106131685760049190911c9060021b5b600482106131745760011b5b600302600190811c9081858161318c5761318c614a47565b048201901c905060018185816131a4576131a4614a47565b048201901c905060018185816131bc576131bc614a47565b048201901c905060018185816131d4576131d4614a47565b048201901c905060018185816131ec576131ec614a47565b048201901c9050600181858161320457613204614a47565b048201901c905061322381858161321d5761321d614a47565b04821190565b90039392505050565b60005b818310156132865760006132438484613648565b60008781526020902090915065ffffffffffff86169082015465ffffffffffff16111561327257809250613280565b61327d8160016147cc565b93505b5061322f565b509392505050565b60008060f883901c602f811180156132a95750603a8160ff16105b156132be57600194602f199091019350915050565b8060ff1660401080156132d4575060478160ff16105b156132e9576001946036199091019350915050565b8060ff1660601080156132ff575060678160ff16105b15613314576001946056199091019350915050565b50600093849350915050565b600063ffffffff8211156125aa576040516306dfcc6560e41b81526020600482015260248101839052604401610bc8565b606060ff831461336b5761336483613663565b9050610b76565b818054613377906141bb565b80601f01602080910402602001604051908101604052809291908181526020018280546133a3906141bb565b80156133f05780601f106133c5576101008083540402835291602001916133f0565b820191906000526020600020905b8154815290600101906020018083116133d357829003601f168201915b50505050509050610b76565b80511561340c5780518082602001fd5b60405163d6bda27560e01b815260040160405180910390fd5b82546000908190801561351e57600061344387612632600185614511565b805490915065ffffffffffff80821691600160301b90046001600160d01b031690881682111561348657604051632520601d60e01b815260040160405180910390fd5b8765ffffffffffff168265ffffffffffff16036134bf57825465ffffffffffff16600160301b6001600160d01b03891602178355613510565b6040805180820190915265ffffffffffff808a1682526001600160d01b03808a1660208085019182528d54600181018f5560008f81529190912094519151909216600160301b029216919091179101555b9450859350612d6392505050565b50506040805180820190915265ffffffffffff80851682526001600160d01b0380851660208085019182528854600181018a5560008a815291822095519251909316600160301b029190931617920191909155905081612d63565b600080807f7fffffffffffffffffffffffffffffff5d576e7357a4501ddfe92f46681b20a08411156135b4575060009150600390508261363e565b604080516000808252602082018084528a905260ff891692820192909252606081018790526080810186905260019060a0016020604051602081039080840390855afa158015613608573d6000803e3d6000fd5b5050604051601f1901519150506001600160a01b0381166136345750600092506001915082905061363e565b9250600091508190505b9450945094915050565b60006136576002848418614a5d565b6119e4908484166147cc565b60606000613670836136a2565b604080516020808252818301909252919250600091906020820181803683375050509182525060208101929092525090565b600060ff8216601f811115610b7657604051632cd44ac360e21b815260040160405180910390fd5b6000602082840312156136dc57600080fd5b81356001600160e01b0319811681146119e457600080fd5b60006020828403121561370657600080fd5b5035919050565b60005b83811015613728578181015183820152602001613710565b50506000910152565b6000815180845261374981602086016020860161370d565b601f01601f19169290920160200192915050565b6020815260006119e46020830184613731565b80356001600160a01b038116811461143a57600080fd5b634e487b7160e01b600052604160045260246000fd5b604051601f8201601f191681016001600160401b03811182821017156137c5576137c5613787565b604052919050565b60006001600160401b038211156137e6576137e6613787565b50601f01601f191660200190565b600082601f83011261380557600080fd5b8135613818613813826137cd565b61379d565b81815284602083860101111561382d57600080fd5b816020850160208301376000918101602001919091529392505050565b6000806000806080858703121561386057600080fd5b61386985613770565b935061387760208601613770565b92506040850135915060608501356001600160401b0381111561389957600080fd5b6138a5878288016137f4565b91505092959194509250565b60006001600160401b038211156138ca576138ca613787565b5060051b60200190565b600082601f8301126138e557600080fd5b813560206138f5613813836138b1565b8083825260208201915060208460051b87010193508684111561391757600080fd5b602086015b8481101561393a5761392d81613770565b835291830191830161391c565b509695505050505050565b600082601f83011261395657600080fd5b81356020613966613813836138b1565b8083825260208201915060208460051b87010193508684111561398857600080fd5b602086015b8481101561393a578035835291830191830161398d565b600082601f8301126139b557600080fd5b813560206139c5613813836138b1565b82815260059290921b840181019181810190868411156139e457600080fd5b8286015b8481101561393a5780356001600160401b03811115613a075760008081fd5b613a158986838b01016137f4565b8452509183019183016139e8565b60008060008060808587031215613a3957600080fd5b84356001600160401b0380821115613a5057600080fd5b613a5c888389016138d4565b95506020870135915080821115613a7257600080fd5b613a7e88838901613945565b94506040870135915080821115613a9457600080fd5b50613aa1878288016139a4565b949793965093946060013593505050565b600060208284031215613ac457600080fd5b81356001600160401b03811115613ada57600080fd5b611460848285016137f4565b634e487b7160e01b600052602160045260246000fd5b60088110613b0c57613b0c613ae6565b9052565b60208101610b768284613afc565b60008060408385031215613b3157600080fd5b82359150613b4160208401613770565b90509250929050565b803560ff8116811461143a57600080fd5b60008060408385031215613b6e57600080fd5b82359150613b4160208401613b4a565b60008083601f840112613b9057600080fd5b5081356001600160401b03811115613ba757600080fd5b602083019150836020828501011115613bbf57600080fd5b9250929050565b600080600080600080600060c0888a031215613be157600080fd5b87359650613bf160208901613b4a565b9550613bff60408901613770565b945060608801356001600160401b0380821115613c1b57600080fd5b613c278b838c01613b7e565b909650945060808a0135915080821115613c4057600080fd5b613c4c8b838c016137f4565b935060a08a0135915080821115613c6257600080fd5b50613c6f8a828b016137f4565b91505092959891949750929550565b600080600080600060808688031215613c9657600080fd5b85359450613ca660208701613b4a565b935060408601356001600160401b0380821115613cc257600080fd5b613cce89838a01613b7e565b90955093506060880135915080821115613ce757600080fd5b50613cf4888289016137f4565b9150509295509295909350565b65ffffffffffff811681146120b157600080fd5b600060208284031215613d2757600080fd5b81356119e481613d01565b60008060008060608587031215613d4857600080fd5b84359350613d5860208601613b4a565b925060408501356001600160401b03811115613d7357600080fd5b613d7f87828801613b7e565b95989497509550505050565b60008060008060808587031215613da157600080fd5b84356001600160401b0380821115613db857600080fd5b613dc4888389016138d4565b95506020870135915080821115613dda57600080fd5b613de688838901613945565b94506040870135915080821115613dfc57600080fd5b613e08888389016139a4565b93506060870135915080821115613e1e57600080fd5b506138a5878288016137f4565b600060208284031215613e3d57600080fd5b6119e482613770565b60008151808452602080850194506020840160005b83811015613e7757815187529582019590820190600101613e5b565b509495945050505050565b60ff60f81b8816815260e060208201526000613ea160e0830189613731565b8281036040840152613eb38189613731565b606084018890526001600160a01b038716608085015260a0840186905283810360c08501529050613ee48185613e46565b9a9950505050505050505050565b60008060008060808587031215613f0857600080fd5b84359350613f1860208601613b4a565b9250613f2660408601613770565b915060608501356001600160401b0381111561389957600080fd5b600080600060608486031215613f5657600080fd5b613f5f84613770565b92506020840135915060408401356001600160401b03811115613f8157600080fd5b613f8d868287016137f4565b9150509250925092565b600080600080600060a08688031215613faf57600080fd5b613fb886613770565b9450613fc660208701613770565b935060408601356001600160401b0380821115613fe257600080fd5b613fee89838a01613945565b9450606088013591508082111561400457600080fd5b61401089838a01613945565b93506080880135915080821115613ce757600080fd5b6000806000806060858703121561403c57600080fd5b61404585613770565b93506020850135925060408501356001600160401b03811115613d7357600080fd5b600581106120b157600080fd5b6000806040838503121561408757600080fd5b823561409281614067565b915060208301356001600160401b038111156140ad57600080fd5b6140b9858286016137f4565b9150509250929050565b6000602082840312156140d557600080fd5b813563ffffffff811681146119e457600080fd5b600080604083850312156140fc57600080fd5b61410583613770565b946020939093013593505050565b600080600080600060a0868803121561412b57600080fd5b61413486613770565b945061414260208701613770565b9350604086013592506060860135915060808601356001600160401b0381111561416b57600080fd5b613cf4888289016137f4565b60208082526024908201527f4f7065726174696f6e206f6e6c7920616c6c6f776564206f6e20686f6d6520636040820152633430b4b760e11b606082015260800190565b600181811c908216806141cf57607f821691505b6020821081036141ef57634e487b7160e01b600052602260045260246000fd5b50919050565b601f82111561423d576000816000526020600020601f850160051c8101602086101561421e5750805b601f850160051c820191505b81811015611cea5782815560010161422a565b505050565b81516001600160401b0381111561425b5761425b613787565b61426f8161426984546141bb565b846141f5565b602080601f8311600181146142a4576000841561428c5750858301515b600019600386901b1c1916600185901b178555611cea565b600085815260208120601f198616915b828110156142d3578886015182559484019460019091019084016142b4565b50858210156142f15787850151600019600388901b60f8161c191681555b5050505050600190811b01905550565b6040815260006143146040830185613731565b82810360208401526123eb8185613731565b634e487b7160e01b600052603260045260246000fd5b600061434a613813846137cd565b905082815283838301111561435e57600080fd5b6119e483602083018461370d565b600082601f83011261437d57600080fd5b6119e48383516020850161433c565b6000806040838503121561439f57600080fd5b82516001600160401b038111156143b557600080fd5b6143c18582860161436c565b925050602083015190509250929050565b6bffffffffffffffffffffffff198460601b16815260ff60f81b8360f81b1660148201526000825161440b81601585016020870161370d565b91909101601501949350505050565b7f19457468657265756d205369676e6564204d6573736167653a0a3332000000008152601c810191909152603c0190565b6020808252602a908201527f50726f6f66732063616e206f6e6c792062652067656e657261746564206f6e206040820152693437b6b29031b430b4b760b11b606082015260800190565b6040815260006144a86040830185613731565b90508260208301529392505050565b6000602082840312156144c957600080fd5b81516001600160401b038111156144df57600080fd5b6114608482850161436c565b8183823760009101908152919050565b634e487b7160e01b600052601160045260246000fd5b81810381811115610b7657610b766144fb565b65ffffffffffff828116828216039080821115614543576145436144fb565b5092915050565b60006020828403121561455c57600080fd5b81516119e481613d01565b60008060006060848603121561457c57600080fd5b835161458781614067565b60208501519093506001600160401b038111156145a357600080fd5b8401601f810186136145b457600080fd5b6145c38682516020840161433c565b925050604084015190509250925092565b805160208201516001600160d01b031980821692919060068310156146035780818460060360031b1b83161693505b505050919050565b805160208201516001600160e01b031980821692919060048310156146035760049290920360031b82901b161692915050565b60006020828403121561465057600080fd5b5051919050565b65ffffffffffff818116838216019080821115614543576145436144fb565b60008151808452602080850194506020840160005b83811015613e775781516001600160a01b03168752958201959082019060010161468b565b60008282518085526020808601955060208260051b8401016020860160005b848110156146fd57601f198684030189526146eb838351613731565b988401989250908301906001016146cf565b5090979650505050505050565b60808152600061471d6080830187614676565b828103602084015261472f8187613e46565b9050828103604084015261474381866146b0565b91505082606083015295945050505050565b60006005851061476757614767613ae6565b8482526060602083015261477e6060830185613731565b9050826040830152949350505050565b838152606081016147a26020830185613afc565b826040830152949350505050565b600082516147c281846020870161370d565b9190910192915050565b80820180821115610b7657610b766144fb565b60ff8181168382160190811115610b7657610b766144fb565b600181815b80851115614833578160001904821115614819576148196144fb565b8085161561482657918102915b93841c93908002906147fd565b509250929050565b60008261484a57506001610b76565b8161485757506000610b76565b816001811461486d576002811461487757614893565b6001915050610b76565b60ff841115614888576148886144fb565b50506001821b610b76565b5060208310610133831016604e8410600b84101617156148b6575081810a610b76565b6148c083836147f8565b80600019048211156148d4576148d46144fb565b029392505050565b60006119e460ff84168361483b565b84815260ff841660208201528260408201526080606082015260006113736080830184613731565b85815260ff8516602082015283604082015260a06060820152600061493b60a0830185613731565b828103608084015261494d8185613731565b98975050505050505050565b60006101208b8352602060018060a01b038c16818501528160408501526149828285018c614676565b91508382036060850152614996828b613e46565b915083820360808501528189518084528284019150828160051b850101838c0160005b838110156149e757601f198784030185526149d5838351613731565b948601949250908501906001016149b9565b505086810360a08801526149fb818c6146b0565b9450505050508560c08401528460e0840152828103610100840152614a208185613731565b9c9b505050505050505050505050565b8082028115828204841417610b7657610b766144fb565b634e487b7160e01b600052601260045260246000fd5b600082614a7a57634e487b7160e01b600052601260045260246000fd5b500490565b8281526040602082015260006119e1604083018461373156fe600fd04326dab9958c211ef80b2855cc3b991bb1793e123e1ecf1cad96958492a264697066735822122066f572ef16c2a4419805475165e9710bb65323b6ede1c1c191bf88e5c331db1064736f6c63430008160033",
  "devdoc": {
    "author": "Web3 Hackers Collective",
    "custom:security-contact": "julien@strat.cc",
    "details": "Extends OpenZeppelin's Governor contract with cross-chain parameter updates",
    "errors": {
      "CheckpointUnorderedInsertion()": [
        {
          "details": "A value was attempted to be inserted on a past checkpoint."
        }
      ],
      "FailedCall()": [
        {
          "details": "A call to an address target failed. The target may have reverted."
        }
      ],
      "GovernorAlreadyCastVote(address)": [
        {
          "details": "The vote was already cast."
        }
      ],
      "GovernorAlreadyQueuedProposal(uint256)": [
        {
          "details": "The proposal has already been queued."
        }
      ],
      "GovernorDisabledDeposit()": [
        {
          "details": "Token deposits are disabled in this contract."
        }
      ],
      "GovernorInsufficientProposerVotes(address,uint256,uint256)": [
        {
          "details": "The `proposer` does not have the required votes to create a proposal."
        }
      ],
      "GovernorInvalidProposalLength(uint256,uint256,uint256)": [
        {
          "details": "Empty proposal or a mismatch between the parameters length for a proposal call."
        }
      ],
      "GovernorInvalidQuorumFraction(uint256,uint256)": [
        {
          "details": "The quorum set is not a valid fraction."
        }
      ],
      "GovernorInvalidSignature(address)": [
        {
          "details": "The provided signature is not valid for the expected `voter`. If the `voter` is a contract, the signature is not valid using {IERC1271-isValidSignature}."
        }
      ],
      "GovernorInvalidVoteParams()": [
        {
          "details": "The provided params buffer is not supported by the counting module."
        }
      ],
      "GovernorInvalidVoteType()": [
        {
          "details": "The vote type used is not valid for the corresponding counting module."
        }
      ],
      "GovernorInvalidVotingPeriod(uint256)": [
        {
          "details": "The voting period set is not a valid period."
        }
      ],
      "GovernorNonexistentProposal(uint256)": [
        {
          "details": "The `proposalId` doesn't exist."
        }
      ],
      "GovernorNotQueuedProposal(uint256)": [
        {
          "details": "The proposal hasn't been queued yet."
        }
      ],
      "GovernorOnlyExecutor(address)": [
        {
          "details": "The `account` is not the governance executor."
        }
      ],
      "GovernorOnlyProposer(address)": [
        {
          "details": "The `account` is not a proposer."
        }
      ],
      "GovernorQueueNotImplemented()": [
        {
          "details": "Queue operation is not implemented for this governor. Execute should be called directly."
        }
      ],
      "GovernorRestrictedProposer(address)": [
        {
          "details": "The `proposer` is not allowed to create a proposal."
        }
      ],
      "GovernorUnexpectedProposalState(uint256,uint8,bytes32)": [
        {
          "details": "The current state of a proposal is not the required for performing an operation. The `expectedStates` is a bitmap with the bits enabled for each ProposalState enum position counting from right to left. NOTE: If `expectedState` is `bytes32(0)`, the proposal is expected to not be in any state (i.e. not exist). This is the case when a proposal that is expected to be unset is already initiated (the proposal is duplicated). See {Governor-_encodeStateBitmap}."
        }
      ],
      "InvalidAccountNonce(address,uint256)": [
        {
          "details": "The nonce used for an `account` is not the expected current nonce."
        }
      ],
      "SafeCastOverflowedUintDowncast(uint8,uint256)": [
        {
          "details": "Value doesn't fit in an uint of `bits` size."
        }
      ]
    },
    "events": {
      "EIP712DomainChanged()": {
        "details": "MAY be emitted to signal that the domain could have changed."
      },
      "GovernanceParameterUpdated(uint8,uint256,uint256)": {
        "params": {
          "newValue": "New value of the parameter",
          "oldValue": "Previous value of the parameter",
          "operationType": "Type of parameter that was updated"
        }
      },
      "ManifestoUpdated(string,string)": {
        "params": {
          "newManifesto": "New manifesto CID",
          "oldManifesto": "Previous manifesto CID"
        }
      },
      "ProposalCanceled(uint256)": {
        "details": "Emitted when a proposal is canceled."
      },
      "ProposalCreated(uint256,address,address[],uint256[],string[],bytes[],uint256,uint256,string)": {
        "details": "Emitted when a proposal is created."
      },
      "ProposalExecuted(uint256)": {
        "details": "Emitted when a proposal is executed."
      },
      "ProposalQueued(uint256,uint256)": {
        "details": "Emitted when a proposal is queued."
      },
      "VoteCast(address,uint256,uint8,uint256,string)": {
        "details": "Emitted when a vote is cast without params. Note: `support` values should be seen as buckets. Their interpretation depends on the voting module used."
      },
      "VoteCastWithParams(address,uint256,uint8,uint256,string,bytes)": {
        "details": "Emitted when a vote is cast with params. Note: `support` values should be seen as buckets. Their interpretation depends on the voting module used. `params` are additional encoded parameters. Their interpretation  also depends on the voting module used."
      }
    },
    "kind": "dev",
    "methods": {
      "CLOCK_MODE()": {
        "details": "Machine-readable description of the clock as specified in ERC-6372."
      },
      "COUNTING_MODE()": {
        "details": "See {IGovernor-COUNTING_MODE}."
      },
      "cancel(address[],uint256[],bytes[],bytes32)": {
        "details": "See {IGovernor-cancel}."
      },
      "castVote(uint256,uint8)": {
        "details": "See {IGovernor-castVote}."
      },
      "castVoteBySig(uint256,uint8,address,bytes)": {
        "details": "See {IGovernor-castVoteBySig}."
      },
      "castVoteWithReason(uint256,uint8,string)": {
        "details": "See {IGovernor-castVoteWithReason}."
      },
      "castVoteWithReasonAndParams(uint256,uint8,string,bytes)": {
        "details": "See {IGovernor-castVoteWithReasonAndParams}."
      },
      "castVoteWithReasonAndParamsBySig(uint256,uint8,address,string,bytes,bytes)": {
        "details": "See {IGovernor-castVoteWithReasonAndParamsBySig}."
      },
      "claimManifestoUpdate(bytes)": {
        "details": "Verifies and applies manifesto updates from home chain",
        "params": {
          "proof": "Proof generated by home chain"
        }
      },
      "claimParameterUpdate(bytes)": {
        "details": "Verifies and applies parameter updates from home chain",
        "params": {
          "proof": "Proof generated by home chain"
        }
      },
      "clock()": {
        "details": "Clock (as specified in ERC-6372) is set to match the token's clock. Fallback to block numbers if the token does not implement ERC-6372."
      },
      "constructor": {
        "details": "Sets up initial governance parameters and manifesto",
        "params": {
          "_home": "Chain ID where this contract is considered home",
          "_manifestoCid": "Initial manifesto CID",
          "_name": "Name of the governance contract",
          "_proposalThreshold": "Minimum votes needed to create a proposal",
          "_quorum": "Minimum participation percentage required",
          "_token": "The voting token contract address",
          "_votingDelay": "Time before voting begins",
          "_votingPeriod": "Duration of voting period"
        }
      },
      "eip712Domain()": {
        "details": "See {IERC-5267}."
      },
      "execute(address[],uint256[],bytes[],bytes32)": {
        "details": "See {IGovernor-execute}."
      },
      "generateManifestoProof(string)": {
        "details": "Can only be called on home chain",
        "params": {
          "newManifesto": "New manifesto CID to generate proof for"
        },
        "returns": {
          "_0": "Encoded proof data for manifesto update"
        }
      },
      "generateParameterProof(uint8,bytes)": {
        "details": "Can only be called on home chain",
        "params": {
          "operationType": "Type of parameter being updated",
          "value": "Encoded value for the parameter update"
        },
        "returns": {
          "_0": "Encoded proof data for parameter update"
        }
      },
      "getVotes(address,uint256)": {
        "details": "See {IGovernor-getVotes}."
      },
      "getVotesWithParams(address,uint256,bytes)": {
        "details": "See {IGovernor-getVotesWithParams}."
      },
      "hasVoted(uint256,address)": {
        "details": "See {IGovernor-hasVoted}."
      },
      "hashProposal(address[],uint256[],bytes[],bytes32)": {
        "details": "See {IGovernor-hashProposal}. The proposal id is produced by hashing the ABI encoded `targets` array, the `values` array, the `calldatas` array and the descriptionHash (bytes32 which itself is the keccak256 hash of the description string). This proposal id can be produced from the proposal data which is part of the {ProposalCreated} event. It can even be computed in advance, before the proposal is submitted. Note that the chainId and the governor address are not part of the proposal id computation. Consequently, the same proposal (with same operation and same description) will have the same id if submitted on multiple governors across multiple networks. This also means that in order to execute the same operation twice (on the same governor) the proposer will have to change the description in order to avoid proposal id conflicts."
      },
      "name()": {
        "details": "See {IGovernor-name}."
      },
      "nonces(address)": {
        "details": "Returns the next unused nonce for an address."
      },
      "onERC1155BatchReceived(address,address,uint256[],uint256[],bytes)": {
        "details": "See {IERC1155Receiver-onERC1155BatchReceived}. Receiving tokens is disabled if the governance executor is other than the governor itself (eg. when using with a timelock)."
      },
      "onERC1155Received(address,address,uint256,uint256,bytes)": {
        "details": "See {IERC1155Receiver-onERC1155Received}. Receiving tokens is disabled if the governance executor is other than the governor itself (eg. when using with a timelock)."
      },
      "onERC721Received(address,address,uint256,bytes)": {
        "details": "See {IERC721Receiver-onERC721Received}. Receiving tokens is disabled if the governance executor is other than the governor itself (eg. when using with a timelock)."
      },
      "proposalDeadline(uint256)": {
        "details": "See {IGovernor-proposalDeadline}."
      },
      "proposalEta(uint256)": {
        "details": "See {IGovernor-proposalEta}."
      },
      "proposalNeedsQueuing(uint256)": {
        "details": "See {IGovernor-proposalNeedsQueuing}."
      },
      "proposalProposer(uint256)": {
        "details": "See {IGovernor-proposalProposer}."
      },
      "proposalSnapshot(uint256)": {
        "details": "See {IGovernor-proposalSnapshot}."
      },
      "proposalThreshold()": {
        "returns": {
          "_0": "Minimum number of votes required to create a proposal"
        }
      },
      "proposalVotes(uint256)": {
        "details": "Accessor to the internal vote counts."
      },
      "propose(address[],uint256[],bytes[],string)": {
        "details": "See {IGovernor-propose}. This function has opt-in frontrunning protection, described in {_isValidDescriptionForProposer}."
      },
      "queue(address[],uint256[],bytes[],bytes32)": {
        "details": "See {IGovernor-queue}."
      },
      "quorum(uint256)": {
        "params": {
          "blockNumber": "Block number to check quorum for"
        },
        "returns": {
          "_0": "Minimum number of votes required for quorum"
        }
      },
      "quorumDenominator()": {
        "details": "Returns the quorum denominator. Defaults to 100, but may be overridden."
      },
      "quorumNumerator()": {
        "details": "Returns the current quorum numerator. See {quorumDenominator}."
      },
      "quorumNumerator(uint256)": {
        "details": "Returns the quorum numerator at a specific timepoint. See {quorumDenominator}."
      },
      "relay(address,uint256,bytes)": {
        "details": "Relays a transaction or function call to an arbitrary target. In cases where the governance executor is some contract other than the governor itself, like when using a timelock, this function can be invoked in a governance proposal to recover tokens or Ether that was sent to the governor contract by mistake. Note that if the executor is simply the governor itself, use of `relay` is redundant."
      },
      "setManifesto(string)": {
        "details": "Can only be called through governance on home chain",
        "params": {
          "newManifesto": "New manifesto CID"
        }
      },
      "setProposalThreshold(uint256)": {
        "details": "Can only be called through governance on home chain",
        "params": {
          "newProposalThreshold": "New proposal threshold value"
        }
      },
      "setVotingDelay(uint48)": {
        "details": "Can only be called through governance on home chain",
        "params": {
          "newVotingDelay": "New voting delay value (in blocks)"
        }
      },
      "setVotingPeriod(uint32)": {
        "details": "Can only be called through governance on home chain",
        "params": {
          "newVotingPeriod": "New voting period value (in blocks)"
        }
      },
      "state(uint256)": {
        "details": "See {IGovernor-state}."
      },
      "supportsInterface(bytes4)": {
        "details": "See {IERC165-supportsInterface}."
      },
      "token()": {
        "details": "The token that voting power is sourced from."
      },
      "updateQuorumNumerator(uint256)": {
        "details": "Can only be called through governance on home chain",
        "params": {
          "newQuorumNumerator": "New quorum numerator value (percentage * 100)"
        }
      },
      "version()": {
        "details": "See {IGovernor-version}."
      },
      "votingDelay()": {
        "returns": {
          "_0": "Current voting delay in blocks"
        }
      },
      "votingPeriod()": {
        "returns": {
          "_0": "Current voting period in blocks"
        }
      }
    },
    "title": "Cross-chain Governance Contract",
    "version": 1
  },
  "userdoc": {
    "events": {
      "GovernanceParameterUpdated(uint8,uint256,uint256)": {
        "notice": "Emitted when a governance parameter is updated"
      },
      "ManifestoUpdated(string,string)": {
        "notice": "Emitted when the manifesto is updated"
      }
    },
    "kind": "user",
    "methods": {
      "claimManifestoUpdate(bytes)": {
        "notice": "Claims a manifesto update on a foreign chain"
      },
      "claimParameterUpdate(bytes)": {
        "notice": "Claims a parameter update on a foreign chain"
      },
      "constructor": {
        "notice": "Initializes the governance contract"
      },
      "generateManifestoProof(string)": {
        "notice": "Generates proof for cross-chain manifesto update"
      },
      "generateParameterProof(uint8,bytes)": {
        "notice": "Generates proof for cross-chain parameter updates"
      },
      "home()": {
        "notice": "Chain ID where this contract was originally deployed"
      },
      "manifesto()": {
        "notice": "IPFS CID of the DAO's manifesto"
      },
      "proposalThreshold()": {
        "notice": "Gets the current proposal threshold"
      },
      "quorum(uint256)": {
        "notice": "Gets the quorum required for a specific block"
      },
      "setManifesto(string)": {
        "notice": "Updates the DAO's manifesto"
      },
      "setProposalThreshold(uint256)": {
        "notice": "Updates the proposal threshold parameter"
      },
      "setVotingDelay(uint48)": {
        "notice": "Updates the voting delay parameter"
      },
      "setVotingPeriod(uint32)": {
        "notice": "Updates the voting period parameter"
      },
      "updateQuorumNumerator(uint256)": {
        "notice": "Updates the quorum numerator"
      },
      "votingDelay()": {
        "notice": "Gets the current voting delay"
      },
      "votingPeriod()": {
        "notice": "Gets the current voting period"
      }
    },
    "notice": "Implementation of a DAO with cross-chain synchronization capabilities",
    "version": 1
  },
  "storageLayout": {
    "storage": [
      {
        "astId": 7382,
        "contract": "contracts/variants/crosschain/Gov.sol:Gov",
        "label": "_nameFallback",
        "offset": 0,
        "slot": "0",
        "type": "t_string_storage"
      },
      {
        "astId": 7384,
        "contract": "contracts/variants/crosschain/Gov.sol:Gov",
        "label": "_versionFallback",
        "offset": 0,
        "slot": "1",
        "type": "t_string_storage"
      },
      {
        "astId": 6230,
        "contract": "contracts/variants/crosschain/Gov.sol:Gov",
        "label": "_nonces",
        "offset": 0,
        "slot": "2",
        "type": "t_mapping(t_address,t_uint256)"
      },
      {
        "astId": 237,
        "contract": "contracts/variants/crosschain/Gov.sol:Gov",
        "label": "_name",
        "offset": 0,
        "slot": "3",
        "type": "t_string_storage"
      },
      {
        "astId": 242,
        "contract": "contracts/variants/crosschain/Gov.sol:Gov",
        "label": "_proposals",
        "offset": 0,
        "slot": "4",
        "type": "t_mapping(t_uint256,t_struct(ProposalCore)215_storage)"
      },
      {
        "astId": 245,
        "contract": "contracts/variants/crosschain/Gov.sol:Gov",
        "label": "_governanceCall",
        "offset": 0,
        "slot": "5",
        "type": "t_struct(Bytes32Deque)12901_storage"
      },
      {
        "astId": 2663,
        "contract": "contracts/variants/crosschain/Gov.sol:Gov",
        "label": "_proposalThreshold",
        "offset": 0,
        "slot": "7",
        "type": "t_uint256"
      },
      {
        "astId": 2665,
        "contract": "contracts/variants/crosschain/Gov.sol:Gov",
        "label": "_votingDelay",
        "offset": 0,
        "slot": "8",
        "type": "t_uint48"
      },
      {
        "astId": 2667,
        "contract": "contracts/variants/crosschain/Gov.sol:Gov",
        "label": "_votingPeriod",
        "offset": 6,
        "slot": "8",
        "type": "t_uint32"
      },
      {
        "astId": 2450,
        "contract": "contracts/variants/crosschain/Gov.sol:Gov",
        "label": "_proposalVotes",
        "offset": 0,
        "slot": "9",
        "type": "t_mapping(t_uint256,t_struct(ProposalVote)2445_storage)"
      },
      {
        "astId": 2969,
        "contract": "contracts/variants/crosschain/Gov.sol:Gov",
        "label": "_quorumNumeratorHistory",
        "offset": 0,
        "slot": "10",
        "type": "t_struct(Trace208)11842_storage"
      },
      {
        "astId": 13925,
        "contract": "contracts/variants/crosschain/Gov.sol:Gov",
        "label": "manifesto",
        "offset": 0,
        "slot": "11",
        "type": "t_string_storage"
      }
    ],
    "types": {
      "t_address": {
        "encoding": "inplace",
        "label": "address",
        "numberOfBytes": "20"
      },
      "t_array(t_struct(Checkpoint208)11847_storage)dyn_storage": {
        "base": "t_struct(Checkpoint208)11847_storage",
        "encoding": "dynamic_array",
        "label": "struct Checkpoints.Checkpoint208[]",
        "numberOfBytes": "32"
      },
      "t_bool": {
        "encoding": "inplace",
        "label": "bool",
        "numberOfBytes": "1"
      },
      "t_bytes32": {
        "encoding": "inplace",
        "label": "bytes32",
        "numberOfBytes": "32"
      },
      "t_mapping(t_address,t_bool)": {
        "encoding": "mapping",
        "key": "t_address",
        "label": "mapping(address => bool)",
        "numberOfBytes": "32",
        "value": "t_bool"
      },
      "t_mapping(t_address,t_uint256)": {
        "encoding": "mapping",
        "key": "t_address",
        "label": "mapping(address => uint256)",
        "numberOfBytes": "32",
        "value": "t_uint256"
      },
      "t_mapping(t_uint128,t_bytes32)": {
        "encoding": "mapping",
        "key": "t_uint128",
        "label": "mapping(uint128 => bytes32)",
        "numberOfBytes": "32",
        "value": "t_bytes32"
      },
      "t_mapping(t_uint256,t_struct(ProposalCore)215_storage)": {
        "encoding": "mapping",
        "key": "t_uint256",
        "label": "mapping(uint256 => struct Governor.ProposalCore)",
        "numberOfBytes": "32",
        "value": "t_struct(ProposalCore)215_storage"
      },
      "t_mapping(t_uint256,t_struct(ProposalVote)2445_storage)": {
        "encoding": "mapping",
        "key": "t_uint256",
        "label": "mapping(uint256 => struct GovernorCountingSimple.ProposalVote)",
        "numberOfBytes": "32",
        "value": "t_struct(ProposalVote)2445_storage"
      },
      "t_string_storage": {
        "encoding": "bytes",
        "label": "string",
        "numberOfBytes": "32"
      },
      "t_struct(Bytes32Deque)12901_storage": {
        "encoding": "inplace",
        "label": "struct DoubleEndedQueue.Bytes32Deque",
        "members": [
          {
            "astId": 12894,
            "contract": "contracts/variants/crosschain/Gov.sol:Gov",
            "label": "_begin",
            "offset": 0,
            "slot": "0",
            "type": "t_uint128"
          },
          {
            "astId": 12896,
            "contract": "contracts/variants/crosschain/Gov.sol:Gov",
            "label": "_end",
            "offset": 16,
            "slot": "0",
            "type": "t_uint128"
          },
          {
            "astId": 12900,
            "contract": "contracts/variants/crosschain/Gov.sol:Gov",
            "label": "_data",
            "offset": 0,
            "slot": "1",
            "type": "t_mapping(t_uint128,t_bytes32)"
          }
        ],
        "numberOfBytes": "64"
      },
      "t_struct(Checkpoint208)11847_storage": {
        "encoding": "inplace",
        "label": "struct Checkpoints.Checkpoint208",
        "members": [
          {
            "astId": 11844,
            "contract": "contracts/variants/crosschain/Gov.sol:Gov",
            "label": "_key",
            "offset": 0,
            "slot": "0",
            "type": "t_uint48"
          },
          {
            "astId": 11846,
            "contract": "contracts/variants/crosschain/Gov.sol:Gov",
            "label": "_value",
            "offset": 6,
            "slot": "0",
            "type": "t_uint208"
          }
        ],
        "numberOfBytes": "32"
      },
      "t_struct(ProposalCore)215_storage": {
        "encoding": "inplace",
        "label": "struct Governor.ProposalCore",
        "members": [
          {
            "astId": 204,
            "contract": "contracts/variants/crosschain/Gov.sol:Gov",
            "label": "proposer",
            "offset": 0,
            "slot": "0",
            "type": "t_address"
          },
          {
            "astId": 206,
            "contract": "contracts/variants/crosschain/Gov.sol:Gov",
            "label": "voteStart",
            "offset": 20,
            "slot": "0",
            "type": "t_uint48"
          },
          {
            "astId": 208,
            "contract": "contracts/variants/crosschain/Gov.sol:Gov",
            "label": "voteDuration",
            "offset": 26,
            "slot": "0",
            "type": "t_uint32"
          },
          {
            "astId": 210,
            "contract": "contracts/variants/crosschain/Gov.sol:Gov",
            "label": "executed",
            "offset": 30,
            "slot": "0",
            "type": "t_bool"
          },
          {
            "astId": 212,
            "contract": "contracts/variants/crosschain/Gov.sol:Gov",
            "label": "canceled",
            "offset": 31,
            "slot": "0",
            "type": "t_bool"
          },
          {
            "astId": 214,
            "contract": "contracts/variants/crosschain/Gov.sol:Gov",
            "label": "etaSeconds",
            "offset": 0,
            "slot": "1",
            "type": "t_uint48"
          }
        ],
        "numberOfBytes": "64"
      },
      "t_struct(ProposalVote)2445_storage": {
        "encoding": "inplace",
        "label": "struct GovernorCountingSimple.ProposalVote",
        "members": [
          {
            "astId": 2436,
            "contract": "contracts/variants/crosschain/Gov.sol:Gov",
            "label": "againstVotes",
            "offset": 0,
            "slot": "0",
            "type": "t_uint256"
          },
          {
            "astId": 2438,
            "contract": "contracts/variants/crosschain/Gov.sol:Gov",
            "label": "forVotes",
            "offset": 0,
            "slot": "1",
            "type": "t_uint256"
          },
          {
            "astId": 2440,
            "contract": "contracts/variants/crosschain/Gov.sol:Gov",
            "label": "abstainVotes",
            "offset": 0,
            "slot": "2",
            "type": "t_uint256"
          },
          {
            "astId": 2444,
            "contract": "contracts/variants/crosschain/Gov.sol:Gov",
            "label": "hasVoted",
            "offset": 0,
            "slot": "3",
            "type": "t_mapping(t_address,t_bool)"
          }
        ],
        "numberOfBytes": "128"
      },
      "t_struct(Trace208)11842_storage": {
        "encoding": "inplace",
        "label": "struct Checkpoints.Trace208",
        "members": [
          {
            "astId": 11841,
            "contract": "contracts/variants/crosschain/Gov.sol:Gov",
            "label": "_checkpoints",
            "offset": 0,
            "slot": "0",
            "type": "t_array(t_struct(Checkpoint208)11847_storage)dyn_storage"
          }
        ],
        "numberOfBytes": "32"
      },
      "t_uint128": {
        "encoding": "inplace",
        "label": "uint128",
        "numberOfBytes": "16"
      },
      "t_uint208": {
        "encoding": "inplace",
        "label": "uint208",
        "numberOfBytes": "26"
      },
      "t_uint256": {
        "encoding": "inplace",
        "label": "uint256",
        "numberOfBytes": "32"
      },
      "t_uint32": {
        "encoding": "inplace",
        "label": "uint32",
        "numberOfBytes": "4"
      },
      "t_uint48": {
        "encoding": "inplace",
        "label": "uint48",
        "numberOfBytes": "6"
      }
    }
  }
}