{
  "address": "0xf97496c678F19018830CEf981fa48627a253723D",
  "abi": [
    {
      "inputs": [
        {
          "internalType": "contract IVotes",
          "name": "_token",
          "type": "address"
        },
        {
          "internalType": "string",
          "name": "_manifesto",
          "type": "string"
        },
        {
          "internalType": "string",
          "name": "_name",
          "type": "string"
        },
        {
          "internalType": "uint48",
          "name": "_votingDelay",
          "type": "uint48"
        },
        {
          "internalType": "uint32",
          "name": "_votingPeriod",
          "type": "uint32"
        },
        {
          "internalType": "uint256",
          "name": "_votingThreshold",
          "type": "uint256"
        },
        {
          "internalType": "uint256",
          "name": "_quorum",
          "type": "uint256"
        }
      ],
      "stateMutability": "nonpayable",
      "type": "constructor"
    },
    {
      "inputs": [],
      "name": "CheckpointUnorderedInsertion",
      "type": "error"
    },
    {
      "inputs": [],
      "name": "FailedCall",
      "type": "error"
    },
    {
      "inputs": [
        {
          "internalType": "address",
          "name": "voter",
          "type": "address"
        }
      ],
      "name": "GovernorAlreadyCastVote",
      "type": "error"
    },
    {
      "inputs": [
        {
          "internalType": "uint256",
          "name": "proposalId",
          "type": "uint256"
        }
      ],
      "name": "GovernorAlreadyQueuedProposal",
      "type": "error"
    },
    {
      "inputs": [],
      "name": "GovernorDisabledDeposit",
      "type": "error"
    },
    {
      "inputs": [
        {
          "internalType": "address",
          "name": "proposer",
          "type": "address"
        },
        {
          "internalType": "uint256",
          "name": "votes",
          "type": "uint256"
        },
        {
          "internalType": "uint256",
          "name": "threshold",
          "type": "uint256"
        }
      ],
      "name": "GovernorInsufficientProposerVotes",
      "type": "error"
    },
    {
      "inputs": [
        {
          "internalType": "uint256",
          "name": "targets",
          "type": "uint256"
        },
        {
          "internalType": "uint256",
          "name": "calldatas",
          "type": "uint256"
        },
        {
          "internalType": "uint256",
          "name": "values",
          "type": "uint256"
        }
      ],
      "name": "GovernorInvalidProposalLength",
      "type": "error"
    },
    {
      "inputs": [
        {
          "internalType": "uint256",
          "name": "quorumNumerator",
          "type": "uint256"
        },
        {
          "internalType": "uint256",
          "name": "quorumDenominator",
          "type": "uint256"
        }
      ],
      "name": "GovernorInvalidQuorumFraction",
      "type": "error"
    },
    {
      "inputs": [
        {
          "internalType": "address",
          "name": "voter",
          "type": "address"
        }
      ],
      "name": "GovernorInvalidSignature",
      "type": "error"
    },
    {
      "inputs": [],
      "name": "GovernorInvalidVoteParams",
      "type": "error"
    },
    {
      "inputs": [],
      "name": "GovernorInvalidVoteType",
      "type": "error"
    },
    {
      "inputs": [
        {
          "internalType": "uint256",
          "name": "votingPeriod",
          "type": "uint256"
        }
      ],
      "name": "GovernorInvalidVotingPeriod",
      "type": "error"
    },
    {
      "inputs": [
        {
          "internalType": "uint256",
          "name": "proposalId",
          "type": "uint256"
        }
      ],
      "name": "GovernorNonexistentProposal",
      "type": "error"
    },
    {
      "inputs": [
        {
          "internalType": "uint256",
          "name": "proposalId",
          "type": "uint256"
        }
      ],
      "name": "GovernorNotQueuedProposal",
      "type": "error"
    },
    {
      "inputs": [
        {
          "internalType": "address",
          "name": "account",
          "type": "address"
        }
      ],
      "name": "GovernorOnlyExecutor",
      "type": "error"
    },
    {
      "inputs": [
        {
          "internalType": "address",
          "name": "account",
          "type": "address"
        }
      ],
      "name": "GovernorOnlyProposer",
      "type": "error"
    },
    {
      "inputs": [],
      "name": "GovernorQueueNotImplemented",
      "type": "error"
    },
    {
      "inputs": [
        {
          "internalType": "address",
          "name": "proposer",
          "type": "address"
        }
      ],
      "name": "GovernorRestrictedProposer",
      "type": "error"
    },
    {
      "inputs": [
        {
          "internalType": "uint256",
          "name": "proposalId",
          "type": "uint256"
        },
        {
          "internalType": "enum IGovernor.ProposalState",
          "name": "current",
          "type": "uint8"
        },
        {
          "internalType": "bytes32",
          "name": "expectedStates",
          "type": "bytes32"
        }
      ],
      "name": "GovernorUnexpectedProposalState",
      "type": "error"
    },
    {
      "inputs": [
        {
          "internalType": "address",
          "name": "account",
          "type": "address"
        },
        {
          "internalType": "uint256",
          "name": "currentNonce",
          "type": "uint256"
        }
      ],
      "name": "InvalidAccountNonce",
      "type": "error"
    },
    {
      "inputs": [],
      "name": "InvalidShortString",
      "type": "error"
    },
    {
      "inputs": [
        {
          "internalType": "uint8",
          "name": "bits",
          "type": "uint8"
        },
        {
          "internalType": "uint256",
          "name": "value",
          "type": "uint256"
        }
      ],
      "name": "SafeCastOverflowedUintDowncast",
      "type": "error"
    },
    {
      "inputs": [
        {
          "internalType": "string",
          "name": "str",
          "type": "string"
        }
      ],
      "name": "StringTooLong",
      "type": "error"
    },
    {
      "anonymous": false,
      "inputs": [],
      "name": "EIP712DomainChanged",
      "type": "event"
    },
    {
      "anonymous": false,
      "inputs": [
        {
          "indexed": false,
          "internalType": "string",
          "name": "cid",
          "type": "string"
        }
      ],
      "name": "ManifestoUpdated",
      "type": "event"
    },
    {
      "anonymous": false,
      "inputs": [
        {
          "indexed": false,
          "internalType": "uint256",
          "name": "proposalId",
          "type": "uint256"
        }
      ],
      "name": "ProposalCanceled",
      "type": "event"
    },
    {
      "anonymous": false,
      "inputs": [
        {
          "indexed": false,
          "internalType": "uint256",
          "name": "proposalId",
          "type": "uint256"
        },
        {
          "indexed": false,
          "internalType": "address",
          "name": "proposer",
          "type": "address"
        },
        {
          "indexed": false,
          "internalType": "address[]",
          "name": "targets",
          "type": "address[]"
        },
        {
          "indexed": false,
          "internalType": "uint256[]",
          "name": "values",
          "type": "uint256[]"
        },
        {
          "indexed": false,
          "internalType": "string[]",
          "name": "signatures",
          "type": "string[]"
        },
        {
          "indexed": false,
          "internalType": "bytes[]",
          "name": "calldatas",
          "type": "bytes[]"
        },
        {
          "indexed": false,
          "internalType": "uint256",
          "name": "voteStart",
          "type": "uint256"
        },
        {
          "indexed": false,
          "internalType": "uint256",
          "name": "voteEnd",
          "type": "uint256"
        },
        {
          "indexed": false,
          "internalType": "string",
          "name": "description",
          "type": "string"
        }
      ],
      "name": "ProposalCreated",
      "type": "event"
    },
    {
      "anonymous": false,
      "inputs": [
        {
          "indexed": false,
          "internalType": "uint256",
          "name": "proposalId",
          "type": "uint256"
        }
      ],
      "name": "ProposalExecuted",
      "type": "event"
    },
    {
      "anonymous": false,
      "inputs": [
        {
          "indexed": false,
          "internalType": "uint256",
          "name": "proposalId",
          "type": "uint256"
        },
        {
          "indexed": false,
          "internalType": "uint256",
          "name": "etaSeconds",
          "type": "uint256"
        }
      ],
      "name": "ProposalQueued",
      "type": "event"
    },
    {
      "anonymous": false,
      "inputs": [
        {
          "indexed": false,
          "internalType": "uint256",
          "name": "oldProposalThreshold",
          "type": "uint256"
        },
        {
          "indexed": false,
          "internalType": "uint256",
          "name": "newProposalThreshold",
          "type": "uint256"
        }
      ],
      "name": "ProposalThresholdSet",
      "type": "event"
    },
    {
      "anonymous": false,
      "inputs": [
        {
          "indexed": false,
          "internalType": "uint256",
          "name": "oldQuorumNumerator",
          "type": "uint256"
        },
        {
          "indexed": false,
          "internalType": "uint256",
          "name": "newQuorumNumerator",
          "type": "uint256"
        }
      ],
      "name": "QuorumNumeratorUpdated",
      "type": "event"
    },
    {
      "anonymous": false,
      "inputs": [
        {
          "indexed": true,
          "internalType": "address",
          "name": "voter",
          "type": "address"
        },
        {
          "indexed": false,
          "internalType": "uint256",
          "name": "proposalId",
          "type": "uint256"
        },
        {
          "indexed": false,
          "internalType": "uint8",
          "name": "support",
          "type": "uint8"
        },
        {
          "indexed": false,
          "internalType": "uint256",
          "name": "weight",
          "type": "uint256"
        },
        {
          "indexed": false,
          "internalType": "string",
          "name": "reason",
          "type": "string"
        }
      ],
      "name": "VoteCast",
      "type": "event"
    },
    {
      "anonymous": false,
      "inputs": [
        {
          "indexed": true,
          "internalType": "address",
          "name": "voter",
          "type": "address"
        },
        {
          "indexed": false,
          "internalType": "uint256",
          "name": "proposalId",
          "type": "uint256"
        },
        {
          "indexed": false,
          "internalType": "uint8",
          "name": "support",
          "type": "uint8"
        },
        {
          "indexed": false,
          "internalType": "uint256",
          "name": "weight",
          "type": "uint256"
        },
        {
          "indexed": false,
          "internalType": "string",
          "name": "reason",
          "type": "string"
        },
        {
          "indexed": false,
          "internalType": "bytes",
          "name": "params",
          "type": "bytes"
        }
      ],
      "name": "VoteCastWithParams",
      "type": "event"
    },
    {
      "anonymous": false,
      "inputs": [
        {
          "indexed": false,
          "internalType": "uint256",
          "name": "oldVotingDelay",
          "type": "uint256"
        },
        {
          "indexed": false,
          "internalType": "uint256",
          "name": "newVotingDelay",
          "type": "uint256"
        }
      ],
      "name": "VotingDelaySet",
      "type": "event"
    },
    {
      "anonymous": false,
      "inputs": [
        {
          "indexed": false,
          "internalType": "uint256",
          "name": "oldVotingPeriod",
          "type": "uint256"
        },
        {
          "indexed": false,
          "internalType": "uint256",
          "name": "newVotingPeriod",
          "type": "uint256"
        }
      ],
      "name": "VotingPeriodSet",
      "type": "event"
    },
    {
      "inputs": [],
      "name": "BALLOT_TYPEHASH",
      "outputs": [
        {
          "internalType": "bytes32",
          "name": "",
          "type": "bytes32"
        }
      ],
      "stateMutability": "view",
      "type": "function"
    },
    {
      "inputs": [],
      "name": "CLOCK_MODE",
      "outputs": [
        {
          "internalType": "string",
          "name": "",
          "type": "string"
        }
      ],
      "stateMutability": "view",
      "type": "function"
    },
    {
      "inputs": [],
      "name": "COUNTING_MODE",
      "outputs": [
        {
          "internalType": "string",
          "name": "",
          "type": "string"
        }
      ],
      "stateMutability": "pure",
      "type": "function"
    },
    {
      "inputs": [],
      "name": "EXTENDED_BALLOT_TYPEHASH",
      "outputs": [
        {
          "internalType": "bytes32",
          "name": "",
          "type": "bytes32"
        }
      ],
      "stateMutability": "view",
      "type": "function"
    },
    {
      "inputs": [
        {
          "internalType": "address[]",
          "name": "targets",
          "type": "address[]"
        },
        {
          "internalType": "uint256[]",
          "name": "values",
          "type": "uint256[]"
        },
        {
          "internalType": "bytes[]",
          "name": "calldatas",
          "type": "bytes[]"
        },
        {
          "internalType": "bytes32",
          "name": "descriptionHash",
          "type": "bytes32"
        }
      ],
      "name": "cancel",
      "outputs": [
        {
          "internalType": "uint256",
          "name": "",
          "type": "uint256"
        }
      ],
      "stateMutability": "nonpayable",
      "type": "function"
    },
    {
      "inputs": [
        {
          "internalType": "uint256",
          "name": "proposalId",
          "type": "uint256"
        },
        {
          "internalType": "uint8",
          "name": "support",
          "type": "uint8"
        }
      ],
      "name": "castVote",
      "outputs": [
        {
          "internalType": "uint256",
          "name": "",
          "type": "uint256"
        }
      ],
      "stateMutability": "nonpayable",
      "type": "function"
    },
    {
      "inputs": [
        {
          "internalType": "uint256",
          "name": "proposalId",
          "type": "uint256"
        },
        {
          "internalType": "uint8",
          "name": "support",
          "type": "uint8"
        },
        {
          "internalType": "address",
          "name": "voter",
          "type": "address"
        },
        {
          "internalType": "bytes",
          "name": "signature",
          "type": "bytes"
        }
      ],
      "name": "castVoteBySig",
      "outputs": [
        {
          "internalType": "uint256",
          "name": "",
          "type": "uint256"
        }
      ],
      "stateMutability": "nonpayable",
      "type": "function"
    },
    {
      "inputs": [
        {
          "internalType": "uint256",
          "name": "proposalId",
          "type": "uint256"
        },
        {
          "internalType": "uint8",
          "name": "support",
          "type": "uint8"
        },
        {
          "internalType": "string",
          "name": "reason",
          "type": "string"
        }
      ],
      "name": "castVoteWithReason",
      "outputs": [
        {
          "internalType": "uint256",
          "name": "",
          "type": "uint256"
        }
      ],
      "stateMutability": "nonpayable",
      "type": "function"
    },
    {
      "inputs": [
        {
          "internalType": "uint256",
          "name": "proposalId",
          "type": "uint256"
        },
        {
          "internalType": "uint8",
          "name": "support",
          "type": "uint8"
        },
        {
          "internalType": "string",
          "name": "reason",
          "type": "string"
        },
        {
          "internalType": "bytes",
          "name": "params",
          "type": "bytes"
        }
      ],
      "name": "castVoteWithReasonAndParams",
      "outputs": [
        {
          "internalType": "uint256",
          "name": "",
          "type": "uint256"
        }
      ],
      "stateMutability": "nonpayable",
      "type": "function"
    },
    {
      "inputs": [
        {
          "internalType": "uint256",
          "name": "proposalId",
          "type": "uint256"
        },
        {
          "internalType": "uint8",
          "name": "support",
          "type": "uint8"
        },
        {
          "internalType": "address",
          "name": "voter",
          "type": "address"
        },
        {
          "internalType": "string",
          "name": "reason",
          "type": "string"
        },
        {
          "internalType": "bytes",
          "name": "params",
          "type": "bytes"
        },
        {
          "internalType": "bytes",
          "name": "signature",
          "type": "bytes"
        }
      ],
      "name": "castVoteWithReasonAndParamsBySig",
      "outputs": [
        {
          "internalType": "uint256",
          "name": "",
          "type": "uint256"
        }
      ],
      "stateMutability": "nonpayable",
      "type": "function"
    },
    {
      "inputs": [],
      "name": "clock",
      "outputs": [
        {
          "internalType": "uint48",
          "name": "",
          "type": "uint48"
        }
      ],
      "stateMutability": "view",
      "type": "function"
    },
    {
      "inputs": [],
      "name": "eip712Domain",
      "outputs": [
        {
          "internalType": "bytes1",
          "name": "fields",
          "type": "bytes1"
        },
        {
          "internalType": "string",
          "name": "name",
          "type": "string"
        },
        {
          "internalType": "string",
          "name": "version",
          "type": "string"
        },
        {
          "internalType": "uint256",
          "name": "chainId",
          "type": "uint256"
        },
        {
          "internalType": "address",
          "name": "verifyingContract",
          "type": "address"
        },
        {
          "internalType": "bytes32",
          "name": "salt",
          "type": "bytes32"
        },
        {
          "internalType": "uint256[]",
          "name": "extensions",
          "type": "uint256[]"
        }
      ],
      "stateMutability": "view",
      "type": "function"
    },
    {
      "inputs": [
        {
          "internalType": "address[]",
          "name": "targets",
          "type": "address[]"
        },
        {
          "internalType": "uint256[]",
          "name": "values",
          "type": "uint256[]"
        },
        {
          "internalType": "bytes[]",
          "name": "calldatas",
          "type": "bytes[]"
        },
        {
          "internalType": "bytes32",
          "name": "descriptionHash",
          "type": "bytes32"
        }
      ],
      "name": "execute",
      "outputs": [
        {
          "internalType": "uint256",
          "name": "",
          "type": "uint256"
        }
      ],
      "stateMutability": "payable",
      "type": "function"
    },
    {
      "inputs": [
        {
          "internalType": "address",
          "name": "account",
          "type": "address"
        },
        {
          "internalType": "uint256",
          "name": "timepoint",
          "type": "uint256"
        }
      ],
      "name": "getVotes",
      "outputs": [
        {
          "internalType": "uint256",
          "name": "",
          "type": "uint256"
        }
      ],
      "stateMutability": "view",
      "type": "function"
    },
    {
      "inputs": [
        {
          "internalType": "address",
          "name": "account",
          "type": "address"
        },
        {
          "internalType": "uint256",
          "name": "timepoint",
          "type": "uint256"
        },
        {
          "internalType": "bytes",
          "name": "params",
          "type": "bytes"
        }
      ],
      "name": "getVotesWithParams",
      "outputs": [
        {
          "internalType": "uint256",
          "name": "",
          "type": "uint256"
        }
      ],
      "stateMutability": "view",
      "type": "function"
    },
    {
      "inputs": [
        {
          "internalType": "uint256",
          "name": "proposalId",
          "type": "uint256"
        },
        {
          "internalType": "address",
          "name": "account",
          "type": "address"
        }
      ],
      "name": "hasVoted",
      "outputs": [
        {
          "internalType": "bool",
          "name": "",
          "type": "bool"
        }
      ],
      "stateMutability": "view",
      "type": "function"
    },
    {
      "inputs": [
        {
          "internalType": "address[]",
          "name": "targets",
          "type": "address[]"
        },
        {
          "internalType": "uint256[]",
          "name": "values",
          "type": "uint256[]"
        },
        {
          "internalType": "bytes[]",
          "name": "calldatas",
          "type": "bytes[]"
        },
        {
          "internalType": "bytes32",
          "name": "descriptionHash",
          "type": "bytes32"
        }
      ],
      "name": "hashProposal",
      "outputs": [
        {
          "internalType": "uint256",
          "name": "",
          "type": "uint256"
        }
      ],
      "stateMutability": "pure",
      "type": "function"
    },
    {
      "inputs": [],
      "name": "manifesto",
      "outputs": [
        {
          "internalType": "string",
          "name": "",
          "type": "string"
        }
      ],
      "stateMutability": "view",
      "type": "function"
    },
    {
      "inputs": [],
      "name": "name",
      "outputs": [
        {
          "internalType": "string",
          "name": "",
          "type": "string"
        }
      ],
      "stateMutability": "view",
      "type": "function"
    },
    {
      "inputs": [
        {
          "internalType": "address",
          "name": "owner",
          "type": "address"
        }
      ],
      "name": "nonces",
      "outputs": [
        {
          "internalType": "uint256",
          "name": "",
          "type": "uint256"
        }
      ],
      "stateMutability": "view",
      "type": "function"
    },
    {
      "inputs": [
        {
          "internalType": "address",
          "name": "",
          "type": "address"
        },
        {
          "internalType": "address",
          "name": "",
          "type": "address"
        },
        {
          "internalType": "uint256[]",
          "name": "",
          "type": "uint256[]"
        },
        {
          "internalType": "uint256[]",
          "name": "",
          "type": "uint256[]"
        },
        {
          "internalType": "bytes",
          "name": "",
          "type": "bytes"
        }
      ],
      "name": "onERC1155BatchReceived",
      "outputs": [
        {
          "internalType": "bytes4",
          "name": "",
          "type": "bytes4"
        }
      ],
      "stateMutability": "nonpayable",
      "type": "function"
    },
    {
      "inputs": [
        {
          "internalType": "address",
          "name": "",
          "type": "address"
        },
        {
          "internalType": "address",
          "name": "",
          "type": "address"
        },
        {
          "internalType": "uint256",
          "name": "",
          "type": "uint256"
        },
        {
          "internalType": "uint256",
          "name": "",
          "type": "uint256"
        },
        {
          "internalType": "bytes",
          "name": "",
          "type": "bytes"
        }
      ],
      "name": "onERC1155Received",
      "outputs": [
        {
          "internalType": "bytes4",
          "name": "",
          "type": "bytes4"
        }
      ],
      "stateMutability": "nonpayable",
      "type": "function"
    },
    {
      "inputs": [
        {
          "internalType": "address",
          "name": "",
          "type": "address"
        },
        {
          "internalType": "address",
          "name": "",
          "type": "address"
        },
        {
          "internalType": "uint256",
          "name": "",
          "type": "uint256"
        },
        {
          "internalType": "bytes",
          "name": "",
          "type": "bytes"
        }
      ],
      "name": "onERC721Received",
      "outputs": [
        {
          "internalType": "bytes4",
          "name": "",
          "type": "bytes4"
        }
      ],
      "stateMutability": "nonpayable",
      "type": "function"
    },
    {
      "inputs": [
        {
          "internalType": "uint256",
          "name": "proposalId",
          "type": "uint256"
        }
      ],
      "name": "proposalDeadline",
      "outputs": [
        {
          "internalType": "uint256",
          "name": "",
          "type": "uint256"
        }
      ],
      "stateMutability": "view",
      "type": "function"
    },
    {
      "inputs": [
        {
          "internalType": "uint256",
          "name": "proposalId",
          "type": "uint256"
        }
      ],
      "name": "proposalEta",
      "outputs": [
        {
          "internalType": "uint256",
          "name": "",
          "type": "uint256"
        }
      ],
      "stateMutability": "view",
      "type": "function"
    },
    {
      "inputs": [
        {
          "internalType": "uint256",
          "name": "",
          "type": "uint256"
        }
      ],
      "name": "proposalNeedsQueuing",
      "outputs": [
        {
          "internalType": "bool",
          "name": "",
          "type": "bool"
        }
      ],
      "stateMutability": "view",
      "type": "function"
    },
    {
      "inputs": [
        {
          "internalType": "uint256",
          "name": "proposalId",
          "type": "uint256"
        }
      ],
      "name": "proposalProposer",
      "outputs": [
        {
          "internalType": "address",
          "name": "",
          "type": "address"
        }
      ],
      "stateMutability": "view",
      "type": "function"
    },
    {
      "inputs": [
        {
          "internalType": "uint256",
          "name": "proposalId",
          "type": "uint256"
        }
      ],
      "name": "proposalSnapshot",
      "outputs": [
        {
          "internalType": "uint256",
          "name": "",
          "type": "uint256"
        }
      ],
      "stateMutability": "view",
      "type": "function"
    },
    {
      "inputs": [],
      "name": "proposalThreshold",
      "outputs": [
        {
          "internalType": "uint256",
          "name": "",
          "type": "uint256"
        }
      ],
      "stateMutability": "view",
      "type": "function"
    },
    {
      "inputs": [
        {
          "internalType": "uint256",
          "name": "proposalId",
          "type": "uint256"
        }
      ],
      "name": "proposalVotes",
      "outputs": [
        {
          "internalType": "uint256",
          "name": "againstVotes",
          "type": "uint256"
        },
        {
          "internalType": "uint256",
          "name": "forVotes",
          "type": "uint256"
        },
        {
          "internalType": "uint256",
          "name": "abstainVotes",
          "type": "uint256"
        }
      ],
      "stateMutability": "view",
      "type": "function"
    },
    {
      "inputs": [
        {
          "internalType": "address[]",
          "name": "targets",
          "type": "address[]"
        },
        {
          "internalType": "uint256[]",
          "name": "values",
          "type": "uint256[]"
        },
        {
          "internalType": "bytes[]",
          "name": "calldatas",
          "type": "bytes[]"
        },
        {
          "internalType": "string",
          "name": "description",
          "type": "string"
        }
      ],
      "name": "propose",
      "outputs": [
        {
          "internalType": "uint256",
          "name": "",
          "type": "uint256"
        }
      ],
      "stateMutability": "nonpayable",
      "type": "function"
    },
    {
      "inputs": [
        {
          "internalType": "address[]",
          "name": "targets",
          "type": "address[]"
        },
        {
          "internalType": "uint256[]",
          "name": "values",
          "type": "uint256[]"
        },
        {
          "internalType": "bytes[]",
          "name": "calldatas",
          "type": "bytes[]"
        },
        {
          "internalType": "bytes32",
          "name": "descriptionHash",
          "type": "bytes32"
        }
      ],
      "name": "queue",
      "outputs": [
        {
          "internalType": "uint256",
          "name": "",
          "type": "uint256"
        }
      ],
      "stateMutability": "nonpayable",
      "type": "function"
    },
    {
      "inputs": [
        {
          "internalType": "uint256",
          "name": "blockNumber",
          "type": "uint256"
        }
      ],
      "name": "quorum",
      "outputs": [
        {
          "internalType": "uint256",
          "name": "",
          "type": "uint256"
        }
      ],
      "stateMutability": "view",
      "type": "function"
    },
    {
      "inputs": [],
      "name": "quorumDenominator",
      "outputs": [
        {
          "internalType": "uint256",
          "name": "",
          "type": "uint256"
        }
      ],
      "stateMutability": "view",
      "type": "function"
    },
    {
      "inputs": [
        {
          "internalType": "uint256",
          "name": "timepoint",
          "type": "uint256"
        }
      ],
      "name": "quorumNumerator",
      "outputs": [
        {
          "internalType": "uint256",
          "name": "",
          "type": "uint256"
        }
      ],
      "stateMutability": "view",
      "type": "function"
    },
    {
      "inputs": [],
      "name": "quorumNumerator",
      "outputs": [
        {
          "internalType": "uint256",
          "name": "",
          "type": "uint256"
        }
      ],
      "stateMutability": "view",
      "type": "function"
    },
    {
      "inputs": [
        {
          "internalType": "address",
          "name": "target",
          "type": "address"
        },
        {
          "internalType": "uint256",
          "name": "value",
          "type": "uint256"
        },
        {
          "internalType": "bytes",
          "name": "data",
          "type": "bytes"
        }
      ],
      "name": "relay",
      "outputs": [],
      "stateMutability": "payable",
      "type": "function"
    },
    {
      "inputs": [
        {
          "internalType": "string",
          "name": "cid",
          "type": "string"
        }
      ],
      "name": "setManifesto",
      "outputs": [],
      "stateMutability": "nonpayable",
      "type": "function"
    },
    {
      "inputs": [
        {
          "internalType": "uint256",
          "name": "newProposalThreshold",
          "type": "uint256"
        }
      ],
      "name": "setProposalThreshold",
      "outputs": [],
      "stateMutability": "nonpayable",
      "type": "function"
    },
    {
      "inputs": [
        {
          "internalType": "uint48",
          "name": "newVotingDelay",
          "type": "uint48"
        }
      ],
      "name": "setVotingDelay",
      "outputs": [],
      "stateMutability": "nonpayable",
      "type": "function"
    },
    {
      "inputs": [
        {
          "internalType": "uint32",
          "name": "newVotingPeriod",
          "type": "uint32"
        }
      ],
      "name": "setVotingPeriod",
      "outputs": [],
      "stateMutability": "nonpayable",
      "type": "function"
    },
    {
      "inputs": [
        {
          "internalType": "uint256",
          "name": "proposalId",
          "type": "uint256"
        }
      ],
      "name": "state",
      "outputs": [
        {
          "internalType": "enum IGovernor.ProposalState",
          "name": "",
          "type": "uint8"
        }
      ],
      "stateMutability": "view",
      "type": "function"
    },
    {
      "inputs": [
        {
          "internalType": "bytes4",
          "name": "interfaceId",
          "type": "bytes4"
        }
      ],
      "name": "supportsInterface",
      "outputs": [
        {
          "internalType": "bool",
          "name": "",
          "type": "bool"
        }
      ],
      "stateMutability": "view",
      "type": "function"
    },
    {
      "inputs": [],
      "name": "token",
      "outputs": [
        {
          "internalType": "contract IERC5805",
          "name": "",
          "type": "address"
        }
      ],
      "stateMutability": "view",
      "type": "function"
    },
    {
      "inputs": [
        {
          "internalType": "uint256",
          "name": "newQuorumNumerator",
          "type": "uint256"
        }
      ],
      "name": "updateQuorumNumerator",
      "outputs": [],
      "stateMutability": "nonpayable",
      "type": "function"
    },
    {
      "inputs": [],
      "name": "version",
      "outputs": [
        {
          "internalType": "string",
          "name": "",
          "type": "string"
        }
      ],
      "stateMutability": "view",
      "type": "function"
    },
    {
      "inputs": [],
      "name": "votingDelay",
      "outputs": [
        {
          "internalType": "uint256",
          "name": "",
          "type": "uint256"
        }
      ],
      "stateMutability": "view",
      "type": "function"
    },
    {
      "inputs": [],
      "name": "votingPeriod",
      "outputs": [
        {
          "internalType": "uint256",
          "name": "",
          "type": "uint256"
        }
      ],
      "stateMutability": "view",
      "type": "function"
    },
    {
      "stateMutability": "payable",
      "type": "receive"
    }
  ],
  "transactionHash": "0x31d99aa025ad09ae1848ebbe1021a40f72d0b05eddc2afcb6562982641419e78",
  "args": [
    "0xcd4e16B3d3b7f1f13124B650Fb633782009B249F",
    "https://bafkreifnnreoxxgkhty7v2w3qwiie6cfxpv3vcco2xldekfvbiem3nm6dm.ipfs.w3s.link/",
    "Test DAO",
    0,
    400,
    1,
    20
  ],
  "numDeployments": 1,
  "solcInputHash": "a336c876249e32c0d126e1e5005db802",
  "bytecode": "0x6101806040523480156200001257600080fd5b50604051620048e6380380620048e68339810160408190526200003591620007b8565b808785858589806200005b6040805180820190915260018152603160f81b602082015290565b620000688260006200017a565b61012052620000798160016200017a565b61014052815160208084019190912060e052815190820120610100524660a0526200010760e05161010051604080517f8b73c3c69bb8fe3d512ecc4cf759cc79239f7b179b0ffacaa9a75d522b39400f60208201529081019290925260608201524660808201523060a082015260009060c00160405160208183030381529060405280519060200120905090565b60805250503060c05260036200011e828262000916565b506200012c905083620001b3565b620001378262000219565b6200014281620002c0565b5050506001600160a01b0316610160526200015d8162000301565b50600b6200016c878262000916565b505050505050505062000a7c565b60006020835110156200019a576200019283620003a1565b9050620001ad565b81620001a7848262000916565b5060ff90505b92915050565b6008546040805165ffffffffffff928316815291831660208301527fc565b045403dc03c2eea82b81a0465edad9e2e7fc4d97e11421c209da93d7a93910160405180910390a16008805465ffffffffffff191665ffffffffffff92909216919091179055565b8063ffffffff16600003620002495760405163f1cfbf0560e01b8152600060048201526024015b60405180910390fd5b6008546040805163ffffffff66010000000000009093048316815291831660208301527f7e3f7f0708a84de9203036abaa450dccc85ad5ff52f78c170f3edb55cf5e8828910160405180910390a16008805463ffffffff90921666010000000000000263ffffffff60301b19909216919091179055565b60075460408051918252602082018390527fccb45da8d5717e6c4544694297c4ba5cf151d455c9bb0ed4fc7a38411bc05461910160405180910390a1600755565b606480821115620003305760405163243e544560e01b8152600481018390526024810182905260440162000240565b60006200033c620003e4565b9050620003616200034c62000400565b620003578562000482565b600a9190620004bc565b505060408051828152602081018590527f0553476bf02ef2726e8ce5ced78d63e26e602e4a2257b1f559418e24b4633997910160405180910390a1505050565b600080829050601f81511115620003cf578260405163305a27a960e01b8152600401620002409190620009e2565b8051620003dc8262000a17565b179392505050565b6000620003f2600a620004d9565b6001600160d01b0316905090565b60006200040d6101605190565b6001600160a01b03166391ddadf46040518163ffffffff1660e01b8152600401602060405180830381865afa92505050801562000469575060408051601f3d908101601f19168201909252620004669181019062000a3c565b60015b6200047d576200047862000529565b905090565b919050565b60006001600160d01b03821115620004b8576040516306dfcc6560e41b815260d060048201526024810183905260440162000240565b5090565b600080620004cc85858562000536565b915091505b935093915050565b805460009080156200051f576200050583620004f760018462000a5a565b600091825260209091200190565b54660100000000000090046001600160d01b031662000522565b60005b9392505050565b600062000478436200069f565b825460009081908015620006405760006200055887620004f760018562000a5a565b805490915065ffffffffffff80821691660100000000000090046001600160d01b03169088168211156200059f57604051632520601d60e01b815260040160405180910390fd5b8765ffffffffffff168265ffffffffffff1603620005dd57825465ffffffffffff1666010000000000006001600160d01b0389160217835562000631565b6040805180820190915265ffffffffffff808a1682526001600160d01b03808a1660208085019182528d54600181018f5560008f815291909120945191519092166601000000000000029216919091179101555b9450859350620004d192505050565b50506040805180820190915265ffffffffffff80851682526001600160d01b0380851660208085019182528854600181018a5560008a8152918220955192519093166601000000000000029190931617920191909155905081620004d1565b600065ffffffffffff821115620004b8576040516306dfcc6560e41b8152603060048201526024810183905260440162000240565b634e487b7160e01b600052604160045260246000fd5b60005b8381101562000707578181015183820152602001620006ed565b50506000910152565b600082601f8301126200072257600080fd5b81516001600160401b03808211156200073f576200073f620006d4565b604051601f8301601f19908116603f011681019082821181831017156200076a576200076a620006d4565b816040528381528660208588010111156200078457600080fd5b62000797846020830160208901620006ea565b9695505050505050565b805165ffffffffffff811681146200047d57600080fd5b600080600080600080600060e0888a031215620007d457600080fd5b87516001600160a01b0381168114620007ec57600080fd5b60208901519097506001600160401b03808211156200080a57600080fd5b620008188b838c0162000710565b975060408a01519150808211156200082f57600080fd5b506200083e8a828b0162000710565b9550506200084f60608901620007a1565b9350608088015163ffffffff811681146200086957600080fd5b8093505060a0880151915060c0880151905092959891949750929550565b600181811c908216806200089c57607f821691505b602082108103620008bd57634e487b7160e01b600052602260045260246000fd5b50919050565b601f8211156200091157600081815260208120601f850160051c81016020861015620008ec5750805b601f850160051c820191505b818110156200090d57828155600101620008f8565b5050505b505050565b81516001600160401b03811115620009325762000932620006d4565b6200094a8162000943845462000887565b84620008c3565b602080601f831160018114620009825760008415620009695750858301515b600019600386901b1c1916600185901b1785556200090d565b600085815260208120601f198616915b82811015620009b35788860151825594840194600190910190840162000992565b5085821015620009d25787850151600019600388901b60f8161c191681555b5050505050600190811b01905550565b602081526000825180602084015262000a03816040850160208701620006ea565b601f01601f19169190910160400192915050565b80516020808301519190811015620008bd5760001960209190910360031b1b16919050565b60006020828403121562000a4f57600080fd5b6200052282620007a1565b81810381811115620001ad57634e487b7160e01b600052601160045260246000fd5b60805160a05160c05160e05161010051610120516101405161016051613de862000afe600039600081816109cb01528181610e94015281816113eb0152818161205801526122490152600061202301526000611ff6015260006124720152600061244a015260006123a5015260006123cf015260006123f90152613de86000f3fe6080604052600436106102975760003560e01c80637d5e81e21161015a578063c01f9e37116100c1578063e540d01d1161007a578063e540d01d14610910578063eb9019d414610930578063ece40cc114610950578063f23a6e6114610970578063f8ce560a1461099c578063fc0c546a146109bc57600080fd5b8063c01f9e371461082e578063c28bc2fa1461084e578063c59057e414610861578063dd4e2ba514610881578063deaaa7cc146108c7578063e2f3dce0146108fb57600080fd5b80639a802a6d116101135780639a802a6d1461075f578063a7713a701461077f578063a9a9529414610794578063ab58fb8e146107b5578063b58131b0146107ed578063bc197c811461080257600080fd5b80637d5e81e2146106815780637ecebe00146106a157806384b0196e146106d75780638ff262e3146106ff57806391ddadf41461071f57806397c3d3341461074b57600080fd5b80633e4f49e6116101fe57806356781388116101b757806356781388146105c15780635b8d0e0d146105e15780635f398a141461060157806360c4247f1461062157806379051887146106415780637b3c71d31461066157600080fd5b80633e4f49e61461049657806343859632146104c3578063452115d61461050d5780634bf5d7e91461052d578063544ffc9c1461054257806354fd4d501461059757600080fd5b8063160cbed711610250578063160cbed7146103da5780631985ba76146103fa5780632656227d1461041a5780632d63f6931461042d5780632fe3e2611461044d5780633932abb11461048157600080fd5b806301ffc9a7146102a557806302a251a3146102da57806306f3f9e61461030657806306fdde0314610326578063143489d014610348578063150b7a021461039657600080fd5b366102a057005b005b600080fd5b3480156102b157600080fd5b506102c56102c0366004612ce5565b6109ef565b60405190151581526020015b60405180910390f35b3480156102e657600080fd5b50600854600160301b900463ffffffff165b6040519081526020016102d1565b34801561031257600080fd5b5061029e610321366004612d0f565b610a46565b34801561033257600080fd5b5061033b610a5a565b6040516102d19190612d78565b34801561035457600080fd5b5061037e610363366004612d0f565b6000908152600460205260409020546001600160a01b031690565b6040516001600160a01b0390911681526020016102d1565b3480156103a257600080fd5b506103c16103b1366004612e65565b630a85bd0160e11b949350505050565b6040516001600160e01b031990911681526020016102d1565b3480156103e657600080fd5b506102f86103f5366004613036565b610aec565b34801561040657600080fd5b5061029e6104153660046130c5565b610b2c565b6102f8610428366004613036565b610b7b565b34801561043957600080fd5b506102f8610448366004612d0f565b610cae565b34801561045957600080fd5b506102f87f3e83946653575f9a39005e1545185629e92736b7528ab20ca3816f315424a81181565b34801561048d57600080fd5b506102f8610ccf565b3480156104a257600080fd5b506104b66104b1366004612d0f565b610ce2565b6040516102d19190613131565b3480156104cf57600080fd5b506102c56104de36600461313f565b60008281526009602090815260408083206001600160a01b038516845260030190915290205460ff1692915050565b34801561051957600080fd5b506102f8610528366004613036565b610e21565b34801561053957600080fd5b5061033b610e90565b34801561054e57600080fd5b5061057c61055d366004612d0f565b6000908152600960205260409020805460018201546002909201549092565b604080519384526020840192909252908201526060016102d1565b3480156105a357600080fd5b506040805180820190915260018152603160f81b602082015261033b565b3480156105cd57600080fd5b506102f86105dc36600461317c565b610f52565b3480156105ed57600080fd5b506102f86105fc3660046131e7565b610f7b565b34801561060d57600080fd5b506102f861061c36600461329f565b6110da565b34801561062d57600080fd5b506102f861063c366004612d0f565b61112f565b34801561064d57600080fd5b5061029e61065c366004613336565b6111bd565b34801561066d57600080fd5b506102f861067c366004613353565b6111ce565b34801561068d57600080fd5b506102f861069c3660046133ac565b611216565b3480156106ad57600080fd5b506102f86106bc36600461344c565b6001600160a01b031660009081526002602052604090205490565b3480156106e357600080fd5b506106ec6112cf565b6040516102d197969594939291906134a2565b34801561070b57600080fd5b506102f861071a366004613512565b611315565b34801561072b57600080fd5b506107346113e7565b60405165ffffffffffff90911681526020016102d1565b34801561075757600080fd5b5060646102f8565b34801561076b57600080fd5b506102f861077a366004613561565b61146f565b34801561078b57600080fd5b506102f8611486565b3480156107a057600080fd5b506102c56107af366004612d0f565b50600090565b3480156107c157600080fd5b506102f86107d0366004612d0f565b60009081526004602052604090206001015465ffffffffffff1690565b3480156107f957600080fd5b506102f86114a0565b34801561080e57600080fd5b506103c161081d3660046135b7565b63bc197c8160e01b95945050505050565b34801561083a57600080fd5b506102f8610849366004612d0f565b6114ab565b61029e61085c366004613646565b6114ee565b34801561086d57600080fd5b506102f861087c366004613036565b61156e565b34801561088d57600080fd5b506040805180820190915260208082527f737570706f72743d627261766f2671756f72756d3d666f722c6162737461696e9082015261033b565b3480156108d357600080fd5b506102f87ff2aad550cf55f045cb27e9c559f9889fdfb6e6cdaa032301d6ea397784ae51d781565b34801561090757600080fd5b5061033b6115a8565b34801561091c57600080fd5b5061029e61092b366004613687565b611636565b34801561093c57600080fd5b506102f861094b3660046136ad565b611647565b34801561095c57600080fd5b5061029e61096b366004612d0f565b611668565b34801561097c57600080fd5b506103c161098b3660046136d7565b63f23a6e6160e01b95945050505050565b3480156109a857600080fd5b506102f86109b7366004612d0f565b611679565b3480156109c857600080fd5b507f000000000000000000000000000000000000000000000000000000000000000061037e565b60006001600160e01b031982166332a2ad4360e11b1480610a2057506001600160e01b03198216630271189760e51b145b80610a3b57506301ffc9a760e01b6001600160e01b03198316145b92915050565b905090565b610a4e611684565b610a57816116bb565b50565b606060038054610a699061373b565b80601f0160208091040260200160405190810160405280929190818152602001828054610a959061373b565b8015610ae25780601f10610ab757610100808354040283529160200191610ae2565b820191906000526020600020905b815481529060010190602001808311610ac557829003601f168201915b5050505050905090565b600080610afb8686868661156e565b9050610b1081610b0b6004611751565b611774565b506000604051634844252360e11b815260040160405180910390fd5b610b34611684565b600b610b4082826137c0565b507f224d2c7fdc536a5b2a879a07352ceed6752e43069abb2a8444725679666c372e81604051610b709190612d78565b60405180910390a150565b600080610b8a8686868661156e565b9050610baa81610b9a6005611751565b610ba46004611751565b17611774565b506000818152600460205260409020805460ff60f01b1916600160f01b17905530610bd23090565b6001600160a01b031614610c645760005b8651811015610c6257306001600160a01b0316878281518110610c0857610c0861387f565b60200260200101516001600160a01b031603610c5257610c52858281518110610c3357610c3361387f565b60200260200101518051906020012060056117b390919063ffffffff16565b610c5b816138ab565b9050610be3565b505b610c718187878787611815565b6040518181527f712ae1383f79ac853f8d882153778e0260ef8f03b504e2866e0593e04d2b291f906020015b60405180910390a195945050505050565b600090815260046020526040902054600160a01b900465ffffffffffff1690565b6000610a4160085465ffffffffffff1690565b6000818152600460205260408120805460ff600160f01b8204811691600160f81b9004168115610d1757506007949350505050565b8015610d2857506002949350505050565b6000610d3386610cae565b905080600003610d5e57604051636ad0607560e01b8152600481018790526024015b60405180910390fd5b6000610d686113e7565b65ffffffffffff169050808210610d86575060009695505050505050565b6000610d91886114ab565b9050818110610da857506001979650505050505050565b610db1886118f5565b1580610dd157506000888152600960205260409020805460019091015411155b15610de457506003979650505050505050565b60008881526004602052604090206001015465ffffffffffff16600003610e1357506004979650505050505050565b506005979650505050505050565b600080610e308686868661156e565b9050610e4081610b0b6000611751565b506000818152600460205260409020546001600160a01b03163314610e7a5760405163233d98e360e01b8152336004820152602401610d55565b610e868686868661192c565b9695505050505050565b60607f00000000000000000000000000000000000000000000000000000000000000006001600160a01b0316634bf5d7e96040518163ffffffff1660e01b8152600401600060405180830381865afa925050508015610f1157506040513d6000823e601f3d908101601f19168201604052610f0e91908101906138c4565b60015b610f4d575060408051808201909152601d81527f6d6f64653d626c6f636b6e756d6265722666726f6d3d64656661756c74000000602082015290565b919050565b600080339050610f73848285604051806020016040528060008152506119dd565b949350505050565b60008061105e876110587f3e83946653575f9a39005e1545185629e92736b7528ab20ca3816f315424a8118c8c8c610fd08e6001600160a01b0316600090815260026020526040902080546001810190915590565b8d8d604051610fe0929190613931565b60405180910390208c8051906020012060405160200161103d9796959493929190968752602087019590955260ff9390931660408601526001600160a01b03919091166060850152608084015260a083015260c082015260e00190565b60405160208183030381529060405280519060200120611a09565b85611a36565b905080611089576040516394ab6c0760e01b81526001600160a01b0388166004820152602401610d55565b6110cd89888a89898080601f0160208091040260200160405190810160405280939291908181526020018383808284376000920191909152508b9250611aaa915050565b9998505050505050505050565b60008033905061112487828888888080601f0160208091040260200160405190810160405280939291908181526020018383808284376000920191909152508a9250611aaa915050565b979650505050505050565b600a80546000918290611143600184613941565b815481106111535761115361387f565b6000918252602090912001805490915065ffffffffffff811690600160301b90046001600160d01b0316858211611196576001600160d01b031695945050505050565b6111aa6111a287611b8c565b600a90611bc3565b6001600160d01b03169695505050505050565b6111c5611684565b610a5781611c78565b600080339050610e8686828787878080601f0160208091040260200160405190810160405280939291908181526020018383808284376000920191909152506119dd92505050565b6000336112238184611cde565b61124b5760405163d9b3955760e01b81526001600160a01b0382166004820152602401610d55565b60006112556114a0565b905080156112c257600061128483600161126d6113e7565b6112779190613954565b65ffffffffffff16611647565b9050818110156112c057604051636121770b60e11b81526001600160a01b03841660048201526024810182905260448101839052606401610d55565b505b6111248787878786611dcf565b6000606080600080600060606112e3611fef565b6112eb61201c565b60408051600080825260208201909252600f60f81b9b939a50919850469750309650945092509050565b6000806113a1846110587ff2aad550cf55f045cb27e9c559f9889fdfb6e6cdaa032301d6ea397784ae51d789898961136a8b6001600160a01b0316600090815260026020526040902080546001810190915590565b60408051602081019690965285019390935260ff90911660608401526001600160a01b0316608083015260a082015260c00161103d565b9050806113cc576040516394ab6c0760e01b81526001600160a01b0385166004820152602401610d55565b610e86868587604051806020016040528060008152506119dd565b60007f00000000000000000000000000000000000000000000000000000000000000006001600160a01b03166391ddadf46040518163ffffffff1660e01b8152600401602060405180830381865afa925050508015611463575060408051601f3d908101601f191682019092526114609181019061397a565b60015b610f4d57610a41612049565b600061147c848484612054565b90505b9392505050565b6000611492600a6120ea565b6001600160d01b0316905090565b6000610a4160075490565b6000818152600460205260408120546114e090600160d01b810463ffffffff1690600160a01b900465ffffffffffff16613997565b65ffffffffffff1692915050565b6114f6611684565b600080856001600160a01b0316858585604051611514929190613931565b60006040518083038185875af1925050503d8060008114611551576040519150601f19603f3d011682016040523d82523d6000602084013e611556565b606091505b50915091506115658282612123565b50505050505050565b6000848484846040516020016115879493929190613a44565b60408051601f19818403018152919052805160209091012095945050505050565b600b80546115b59061373b565b80601f01602080910402602001604051908101604052809291908181526020018280546115e19061373b565b801561162e5780601f106116035761010080835404028352916020019161162e565b820191906000526020600020905b81548152906001019060200180831161161157829003601f168201915b505050505081565b61163e611684565b610a578161213f565b600061147f838361166360408051602081019091526000815290565b612054565b611670611684565b610a57816121dd565b6000610a3b8261221e565b3033146116a6576040516347096e4760e01b8152336004820152602401610d55565b565b806116b360056122c8565b036116a85750565b6064808211156116e85760405163243e544560e01b81526004810183905260248101829052604401610d55565b60006116f2611486565b90506117116116ff6113e7565b61170885612337565b600a919061236b565b505060408051828152602081018590527f0553476bf02ef2726e8ce5ced78d63e26e602e4a2257b1f559418e24b4633997910160405180910390a1505050565b6000816007811115611765576117656130f9565b600160ff919091161b92915050565b60008061178084610ce2565b905060008361178e83611751565b160361147f578381846040516331b75e4d60e01b8152600401610d5593929190613a8f565b81546001600160801b03600160801b8204811691811660018301909116036117df576117df6041612386565b6001600160801b03808216600090815260018086016020526040909120939093558354919092018216600160801b029116179055565b60005b84518110156118ed576000808683815181106118365761183661387f565b60200260200101516001600160a01b03168684815181106118595761185961387f565b60200260200101518685815181106118735761187361387f565b60200260200101516040516118889190613ab1565b60006040518083038185875af1925050503d80600081146118c5576040519150601f19603f3d011682016040523d82523d6000602084013e6118ca565b606091505b50915091506118d98282612123565b505050806118e6906138ab565b9050611818565b505050505050565b6000818152600960205260408120600281015460018201546119179190613acd565b6119236109b785610cae565b11159392505050565b60008061193b8686868661156e565b90506119898161194b6007611751565b6119556006611751565b61195f6002611751565b600161196c600782613ae0565b611977906002613bdd565b6119819190613941565b181818611774565b506000818152600460205260409081902080546001600160f81b0316600160f81b179055517f789cf55be980739dad1d0699b93b58e806b51c9d96619bfa8fe0a28abaa7b30c90610c9d9083815260200190565b6000611a00858585856119fb60408051602081019091526000815290565b611aaa565b95945050505050565b6000610a3b611a16612398565b8360405161190160f01b8152600281019290925260228201526042902090565b6000836001600160a01b03163b600003611a9857600080611a5785856124c3565b5090925090506000816003811115611a7157611a716130f9565b148015611a8f5750856001600160a01b0316826001600160a01b0316145b9250505061147f565b611aa3848484612510565b905061147f565b6000611aba86610b0b6001611751565b506000611ad086611aca89610cae565b85612054565b90506000611ae188888885886125eb565b90508351600003611b3857866001600160a01b03167fb8e138887d0aa13bab447e82de9d5c1777041ecd21ca36ba824ff1e6c07ddda489888489604051611b2b9493929190613bec565b60405180910390a2611124565b866001600160a01b03167fe2babfbac5889a709b63bb7f598b324e08bc5a4fb9ec647fb3cbc9ec07eb87128988848989604051611b79959493929190613c14565b60405180910390a2979650505050505050565b600065ffffffffffff821115611bbf576040516306dfcc6560e41b81526030600482015260248101839052604401610d55565b5090565b815460009081816005811115611c22576000611bde846126ee565b611be89085613941565b60008881526020902090915081015465ffffffffffff9081169087161015611c1257809150611c20565b611c1d816001613acd565b92505b505b6000611c3087878585612847565b90508015611c6b57611c5587611c47600184613941565b600091825260209091200190565b54600160301b90046001600160d01b0316611124565b6000979650505050505050565b6008546040805165ffffffffffff928316815291831660208301527fc565b045403dc03c2eea82b81a0465edad9e2e7fc4d97e11421c209da93d7a93910160405180910390a16008805465ffffffffffff191665ffffffffffff92909216919091179055565b80516000906034811015611cf6576001915050610a3b565b82810160131901516001600160a01b031981166b046e0e4dee0dee6cae47a60f60a31b14611d2957600192505050610a3b565b600080611d37602885613941565b90505b83811015611dae57600080611d6e888481518110611d5a57611d5a61387f565b01602001516001600160f81b0319166128a9565b9150915081611d865760019650505050505050610a3b565b8060ff166004856001600160a01b0316901b179350505080611da7906138ab565b9050611d3a565b50856001600160a01b0316816001600160a01b031614935050505092915050565b6000611de4868686868051906020012061156e565b905084518651141580611df957508351865114155b80611e0357508551155b15611e3857855184518651604051630447b05d60e41b8152600481019390935260248301919091526044820152606401610d55565b600081815260046020526040902054600160a01b900465ffffffffffff1615611e835780611e6582610ce2565b6040516331b75e4d60e01b8152610d55929190600090600401613a8f565b6000611e8d610ccf565b611e956113e7565b65ffffffffffff16611ea79190613acd565b90506000611ec260085463ffffffff600160301b9091041690565b600084815260046020526040902080546001600160a01b0319166001600160a01b038716178155909150611ef583611b8c565b815465ffffffffffff91909116600160a01b0265ffffffffffff60a01b19909116178155611f228261293b565b815463ffffffff91909116600160d01b0263ffffffff60d01b1990911617815588517f7d84a6263ae0d98d3329bd7b46bb4e8d6f98cd35a7adb45c274c8b7fd5ebd5e090859087908c908c906001600160401b03811115611f8557611f85612da2565b604051908082528060200260200182016040528015611fb857816020015b6060815260200190600190039081611fa35790505b508c89611fc58a82613acd565b8e604051611fdb99989796959493929190613c5a565b60405180910390a150505095945050505050565b6060610a417f0000000000000000000000000000000000000000000000000000000000000000600061296c565b6060610a417f0000000000000000000000000000000000000000000000000000000000000000600161296c565b6000610a4143611b8c565b60007f0000000000000000000000000000000000000000000000000000000000000000604051630748d63560e31b81526001600160a01b038681166004830152602482018690529190911690633a46b1a890604401602060405180830381865afa1580156120c6573d6000803e3d6000fd5b505050506040513d601f19601f8201168201806040525081019061147c9190613d31565b8054600090801561211a5761210483611c47600184613941565b54600160301b90046001600160d01b031661147f565b60009392505050565b6060826121385761213382612a17565b610a3b565b5080610a3b565b8063ffffffff166000036121695760405163f1cfbf0560e01b815260006004820152602401610d55565b6008546040805163ffffffff600160301b9093048316815291831660208301527f7e3f7f0708a84de9203036abaa450dccc85ad5ff52f78c170f3edb55cf5e8828910160405180910390a16008805463ffffffff909216600160301b0269ffffffff00000000000019909216919091179055565b60075460408051918252602082018390527fccb45da8d5717e6c4544694297c4ba5cf151d455c9bb0ed4fc7a38411bc05461910160405180910390a1600755565b6000606461222b8361112f565b604051632394e7a360e21b8152600481018590526001600160a01b037f00000000000000000000000000000000000000000000000000000000000000001690638e539e8c90602401602060405180830381865afa158015612290573d6000803e3d6000fd5b505050506040513d601f19601f820116820180604052508101906122b49190613d31565b6122be9190613d4a565b610a3b9190613d77565b80546000906001600160801b0380821691600160801b90041681036122f1576122f16031612386565b6001600160801b038181166000908152600185810160205260408220805492905585546fffffffffffffffffffffffffffffffff19169301909116919091179092555090565b60006001600160d01b03821115611bbf576040516306dfcc6560e41b815260d0600482015260248101839052604401610d55565b600080612379858585612a40565b915091505b935093915050565b634e487b71600052806020526024601cfd5b6000306001600160a01b037f0000000000000000000000000000000000000000000000000000000000000000161480156123f157507f000000000000000000000000000000000000000000000000000000000000000046145b1561241b57507f000000000000000000000000000000000000000000000000000000000000000090565b610a41604080517f8b73c3c69bb8fe3d512ecc4cf759cc79239f7b179b0ffacaa9a75d522b39400f60208201527f0000000000000000000000000000000000000000000000000000000000000000918101919091527f000000000000000000000000000000000000000000000000000000000000000060608201524660808201523060a082015260009060c00160405160208183030381529060405280519060200120905090565b600080600083516041036124fd5760208401516040850151606086015160001a6124ef88828585612b94565b955095509550505050612509565b50508151600091506002905b9250925092565b6000806000856001600160a01b03168585604051602401612532929190613d99565b60408051601f198184030181529181526020820180516001600160e01b0316630b135d3f60e11b179052516125679190613ab1565b600060405180830381855afa9150503d80600081146125a2576040519150601f19603f3d011682016040523d82523d6000602084013e6125a7565b606091505b50915091508180156125bb57506020815110155b8015610e8657508051630b135d3f60e11b906125e09083016020908101908401613d31565b149695505050505050565b60008581526009602090815260408083206001600160a01b03881684526003810190925282205460ff161561263e576040516371c6af4960e01b81526001600160a01b0387166004820152602401610d55565b6001600160a01b03861660009081526003820160205260409020805460ff1916600117905560ff851661268a578381600001600082825461267f9190613acd565b909155506126e39050565b60001960ff8616016126aa578381600101600082825461267f9190613acd565b60011960ff8616016126ca578381600201600082825461267f9190613acd565b6040516303599be160e11b815260040160405180910390fd5b509195945050505050565b6000600182116126fc575090565b816001600160801b82106127155760809190911c9060401b5b6801000000000000000082106127305760409190911c9060201b5b64010000000082106127475760209190911c9060101b5b62010000821061275c5760109190911c9060081b5b61010082106127705760089190911c9060041b5b601082106127835760049190911c9060021b5b6004821061278f5760011b5b600302600190811c908185816127a7576127a7613d61565b048201901c905060018185816127bf576127bf613d61565b048201901c905060018185816127d7576127d7613d61565b048201901c905060018185816127ef576127ef613d61565b048201901c9050600181858161280757612807613d61565b048201901c9050600181858161281f5761281f613d61565b048201901c905061283e81858161283857612838613d61565b04821190565b90039392505050565b60005b818310156128a157600061285e8484612c63565b60008781526020902090915065ffffffffffff86169082015465ffffffffffff16111561288d5780925061289b565b612898816001613acd565b93505b5061284a565b509392505050565b60008060f883901c602f811180156128c45750603a8160ff16105b156128d957600194602f199091019350915050565b8060ff1660401080156128ef575060478160ff16105b15612904576001946036199091019350915050565b8060ff16606010801561291a575060678160ff16105b1561292f576001946056199091019350915050565b50600093849350915050565b600063ffffffff821115611bbf576040516306dfcc6560e41b81526020600482015260248101839052604401610d55565b606060ff83146129865761297f83612c7e565b9050610a3b565b8180546129929061373b565b80601f01602080910402602001604051908101604052809291908181526020018280546129be9061373b565b8015612a0b5780601f106129e057610100808354040283529160200191612a0b565b820191906000526020600020905b8154815290600101906020018083116129ee57829003601f168201915b50505050509050610a3b565b805115612a275780518082602001fd5b60405163d6bda27560e01b815260040160405180910390fd5b825460009081908015612b39576000612a5e87611c47600185613941565b805490915065ffffffffffff80821691600160301b90046001600160d01b0316908816821115612aa157604051632520601d60e01b815260040160405180910390fd5b8765ffffffffffff168265ffffffffffff1603612ada57825465ffffffffffff16600160301b6001600160d01b03891602178355612b2b565b6040805180820190915265ffffffffffff808a1682526001600160d01b03808a1660208085019182528d54600181018f5560008f81529190912094519151909216600160301b029216919091179101555b945085935061237e92505050565b50506040805180820190915265ffffffffffff80851682526001600160d01b0380851660208085019182528854600181018a5560008a815291822095519251909316600160301b02919093161792019190915590508161237e565b600080807f7fffffffffffffffffffffffffffffff5d576e7357a4501ddfe92f46681b20a0841115612bcf5750600091506003905082612c59565b604080516000808252602082018084528a905260ff891692820192909252606081018790526080810186905260019060a0016020604051602081039080840390855afa158015612c23573d6000803e3d6000fd5b5050604051601f1901519150506001600160a01b038116612c4f57506000925060019150829050612c59565b9250600091508190505b9450945094915050565b6000612c726002848418613d77565b61147f90848416613acd565b60606000612c8b83612cbd565b604080516020808252818301909252919250600091906020820181803683375050509182525060208101929092525090565b600060ff8216601f811115610a3b57604051632cd44ac360e21b815260040160405180910390fd5b600060208284031215612cf757600080fd5b81356001600160e01b03198116811461147f57600080fd5b600060208284031215612d2157600080fd5b5035919050565b60005b83811015612d43578181015183820152602001612d2b565b50506000910152565b60008151808452612d64816020860160208601612d28565b601f01601f19169290920160200192915050565b60208152600061147f6020830184612d4c565b80356001600160a01b0381168114610f4d57600080fd5b634e487b7160e01b600052604160045260246000fd5b604051601f8201601f191681016001600160401b0381118282101715612de057612de0612da2565b604052919050565b60006001600160401b03821115612e0157612e01612da2565b50601f01601f191660200190565b600082601f830112612e2057600080fd5b8135612e33612e2e82612de8565b612db8565b818152846020838601011115612e4857600080fd5b816020850160208301376000918101602001919091529392505050565b60008060008060808587031215612e7b57600080fd5b612e8485612d8b565b9350612e9260208601612d8b565b92506040850135915060608501356001600160401b03811115612eb457600080fd5b612ec087828801612e0f565b91505092959194509250565b60006001600160401b03821115612ee557612ee5612da2565b5060051b60200190565b600082601f830112612f0057600080fd5b81356020612f10612e2e83612ecc565b82815260059290921b84018101918181019086841115612f2f57600080fd5b8286015b84811015612f5157612f4481612d8b565b8352918301918301612f33565b509695505050505050565b600082601f830112612f6d57600080fd5b81356020612f7d612e2e83612ecc565b82815260059290921b84018101918181019086841115612f9c57600080fd5b8286015b84811015612f515780358352918301918301612fa0565b600082601f830112612fc857600080fd5b81356020612fd8612e2e83612ecc565b82815260059290921b84018101918181019086841115612ff757600080fd5b8286015b84811015612f515780356001600160401b0381111561301a5760008081fd5b6130288986838b0101612e0f565b845250918301918301612ffb565b6000806000806080858703121561304c57600080fd5b84356001600160401b038082111561306357600080fd5b61306f88838901612eef565b9550602087013591508082111561308557600080fd5b61309188838901612f5c565b945060408701359150808211156130a757600080fd5b506130b487828801612fb7565b949793965093946060013593505050565b6000602082840312156130d757600080fd5b81356001600160401b038111156130ed57600080fd5b610f7384828501612e0f565b634e487b7160e01b600052602160045260246000fd5b6008811061312d57634e487b7160e01b600052602160045260246000fd5b9052565b60208101610a3b828461310f565b6000806040838503121561315257600080fd5b8235915061316260208401612d8b565b90509250929050565b803560ff81168114610f4d57600080fd5b6000806040838503121561318f57600080fd5b823591506131626020840161316b565b60008083601f8401126131b157600080fd5b5081356001600160401b038111156131c857600080fd5b6020830191508360208285010111156131e057600080fd5b9250929050565b600080600080600080600060c0888a03121561320257600080fd5b873596506132126020890161316b565b955061322060408901612d8b565b945060608801356001600160401b038082111561323c57600080fd5b6132488b838c0161319f565b909650945060808a013591508082111561326157600080fd5b61326d8b838c01612e0f565b935060a08a013591508082111561328357600080fd5b506132908a828b01612e0f565b91505092959891949750929550565b6000806000806000608086880312156132b757600080fd5b853594506132c76020870161316b565b935060408601356001600160401b03808211156132e357600080fd5b6132ef89838a0161319f565b9095509350606088013591508082111561330857600080fd5b5061331588828901612e0f565b9150509295509295909350565b65ffffffffffff81168114610a5757600080fd5b60006020828403121561334857600080fd5b813561147f81613322565b6000806000806060858703121561336957600080fd5b843593506133796020860161316b565b925060408501356001600160401b0381111561339457600080fd5b6133a08782880161319f565b95989497509550505050565b600080600080608085870312156133c257600080fd5b84356001600160401b03808211156133d957600080fd5b6133e588838901612eef565b955060208701359150808211156133fb57600080fd5b61340788838901612f5c565b9450604087013591508082111561341d57600080fd5b61342988838901612fb7565b9350606087013591508082111561343f57600080fd5b50612ec087828801612e0f565b60006020828403121561345e57600080fd5b61147f82612d8b565b600081518084526020808501945080840160005b838110156134975781518752958201959082019060010161347b565b509495945050505050565b60ff60f81b8816815260e0602082015260006134c160e0830189612d4c565b82810360408401526134d38189612d4c565b606084018890526001600160a01b038716608085015260a0840186905283810360c085015290506135048185613467565b9a9950505050505050505050565b6000806000806080858703121561352857600080fd5b843593506135386020860161316b565b925061354660408601612d8b565b915060608501356001600160401b03811115612eb457600080fd5b60008060006060848603121561357657600080fd5b61357f84612d8b565b92506020840135915060408401356001600160401b038111156135a157600080fd5b6135ad86828701612e0f565b9150509250925092565b600080600080600060a086880312156135cf57600080fd5b6135d886612d8b565b94506135e660208701612d8b565b935060408601356001600160401b038082111561360257600080fd5b61360e89838a01612f5c565b9450606088013591508082111561362457600080fd5b61363089838a01612f5c565b9350608088013591508082111561330857600080fd5b6000806000806060858703121561365c57600080fd5b61366585612d8b565b93506020850135925060408501356001600160401b0381111561339457600080fd5b60006020828403121561369957600080fd5b813563ffffffff8116811461147f57600080fd5b600080604083850312156136c057600080fd5b6136c983612d8b565b946020939093013593505050565b600080600080600060a086880312156136ef57600080fd5b6136f886612d8b565b945061370660208701612d8b565b9350604086013592506060860135915060808601356001600160401b0381111561372f57600080fd5b61331588828901612e0f565b600181811c9082168061374f57607f821691505b60208210810361376f57634e487b7160e01b600052602260045260246000fd5b50919050565b601f8211156137bb57600081815260208120601f850160051c8101602086101561379c5750805b601f850160051c820191505b818110156118ed578281556001016137a8565b505050565b81516001600160401b038111156137d9576137d9612da2565b6137ed816137e7845461373b565b84613775565b602080601f831160018114613822576000841561380a5750858301515b600019600386901b1c1916600185901b1785556118ed565b600085815260208120601f198616915b8281101561385157888601518255948401946001909101908401613832565b508582101561386f5787850151600019600388901b60f8161c191681555b5050505050600190811b01905550565b634e487b7160e01b600052603260045260246000fd5b634e487b7160e01b600052601160045260246000fd5b6000600182016138bd576138bd613895565b5060010190565b6000602082840312156138d657600080fd5b81516001600160401b038111156138ec57600080fd5b8201601f810184136138fd57600080fd5b805161390b612e2e82612de8565b81815285602083850101111561392057600080fd5b611a00826020830160208601612d28565b8183823760009101908152919050565b81810381811115610a3b57610a3b613895565b65ffffffffffff82811682821603908082111561397357613973613895565b5092915050565b60006020828403121561398c57600080fd5b815161147f81613322565b65ffffffffffff81811683821601908082111561397357613973613895565b600081518084526020808501945080840160005b838110156134975781516001600160a01b0316875295820195908201906001016139ca565b600081518084526020808501808196508360051b8101915082860160005b85811015613a37578284038952613a25848351612d4c565b98850198935090840190600101613a0d565b5091979650505050505050565b608081526000613a5760808301876139b6565b8281036020840152613a698187613467565b90508281036040840152613a7d81866139ef565b91505082606083015295945050505050565b83815260608101613aa3602083018561310f565b826040830152949350505050565b60008251613ac3818460208701612d28565b9190910192915050565b80820180821115610a3b57610a3b613895565b60ff8181168382160190811115610a3b57610a3b613895565b600181815b80851115613b34578160001904821115613b1a57613b1a613895565b80851615613b2757918102915b93841c9390800290613afe565b509250929050565b600082613b4b57506001610a3b565b81613b5857506000610a3b565b8160018114613b6e5760028114613b7857613b94565b6001915050610a3b565b60ff841115613b8957613b89613895565b50506001821b610a3b565b5060208310610133831016604e8410600b8410161715613bb7575081810a610a3b565b613bc18383613af9565b8060001904821115613bd557613bd5613895565b029392505050565b600061147f60ff841683613b3c565b84815260ff84166020820152826040820152608060608201526000610e866080830184612d4c565b85815260ff8516602082015283604082015260a060608201526000613c3c60a0830185612d4c565b8281036080840152613c4e8185612d4c565b98975050505050505050565b60006101208b8352602060018060a01b038c1681850152816040850152613c838285018c6139b6565b91508382036060850152613c97828b613467565b915083820360808501528189518084528284019150828160051b850101838c0160005b83811015613ce857601f19878403018552613cd6838351612d4c565b94860194925090850190600101613cba565b505086810360a0880152613cfc818c6139ef565b9450505050508560c08401528460e0840152828103610100840152613d218185612d4c565b9c9b505050505050505050505050565b600060208284031215613d4357600080fd5b5051919050565b8082028115828204841417610a3b57610a3b613895565b634e487b7160e01b600052601260045260246000fd5b600082613d9457634e487b7160e01b600052601260045260246000fd5b500490565b82815260406020820152600061147c6040830184612d4c56fea2646970667358221220ffea5320813b79471dedb5f354a90a3be6ef40c45132dc21af56c7341565b82864736f6c63430008140033",
  "devdoc": {
    "errors": {
      "CheckpointUnorderedInsertion()": [
        {
          "details": "A value was attempted to be inserted on a past checkpoint."
        }
      ],
      "FailedCall()": [
        {
          "details": "A call to an address target failed. The target may have reverted."
        }
      ],
      "GovernorAlreadyCastVote(address)": [
        {
          "details": "The vote was already cast."
        }
      ],
      "GovernorAlreadyQueuedProposal(uint256)": [
        {
          "details": "The proposal has already been queued."
        }
      ],
      "GovernorDisabledDeposit()": [
        {
          "details": "Token deposits are disabled in this contract."
        }
      ],
      "GovernorInsufficientProposerVotes(address,uint256,uint256)": [
        {
          "details": "The `proposer` does not have the required votes to create a proposal."
        }
      ],
      "GovernorInvalidProposalLength(uint256,uint256,uint256)": [
        {
          "details": "Empty proposal or a mismatch between the parameters length for a proposal call."
        }
      ],
      "GovernorInvalidQuorumFraction(uint256,uint256)": [
        {
          "details": "The quorum set is not a valid fraction."
        }
      ],
      "GovernorInvalidSignature(address)": [
        {
          "details": "The provided signature is not valid for the expected `voter`. If the `voter` is a contract, the signature is not valid using {IERC1271-isValidSignature}."
        }
      ],
      "GovernorInvalidVoteParams()": [
        {
          "details": "The provided params buffer is not supported by the counting module."
        }
      ],
      "GovernorInvalidVoteType()": [
        {
          "details": "The vote type used is not valid for the corresponding counting module."
        }
      ],
      "GovernorInvalidVotingPeriod(uint256)": [
        {
          "details": "The voting period set is not a valid period."
        }
      ],
      "GovernorNonexistentProposal(uint256)": [
        {
          "details": "The `proposalId` doesn't exist."
        }
      ],
      "GovernorNotQueuedProposal(uint256)": [
        {
          "details": "The proposal hasn't been queued yet."
        }
      ],
      "GovernorOnlyExecutor(address)": [
        {
          "details": "The `account` is not the governance executor."
        }
      ],
      "GovernorOnlyProposer(address)": [
        {
          "details": "The `account` is not a proposer."
        }
      ],
      "GovernorQueueNotImplemented()": [
        {
          "details": "Queue operation is not implemented for this governor. Execute should be called directly."
        }
      ],
      "GovernorRestrictedProposer(address)": [
        {
          "details": "The `proposer` is not allowed to create a proposal."
        }
      ],
      "GovernorUnexpectedProposalState(uint256,uint8,bytes32)": [
        {
          "details": "The current state of a proposal is not the required for performing an operation. The `expectedStates` is a bitmap with the bits enabled for each ProposalState enum position counting from right to left. NOTE: If `expectedState` is `bytes32(0)`, the proposal is expected to not be in any state (i.e. not exist). This is the case when a proposal that is expected to be unset is already initiated (the proposal is duplicated). See {Governor-_encodeStateBitmap}."
        }
      ],
      "InvalidAccountNonce(address,uint256)": [
        {
          "details": "The nonce used for an `account` is not the expected current nonce."
        }
      ],
      "SafeCastOverflowedUintDowncast(uint8,uint256)": [
        {
          "details": "Value doesn't fit in an uint of `bits` size."
        }
      ]
    },
    "events": {
      "EIP712DomainChanged()": {
        "details": "MAY be emitted to signal that the domain could have changed."
      },
      "ProposalCanceled(uint256)": {
        "details": "Emitted when a proposal is canceled."
      },
      "ProposalCreated(uint256,address,address[],uint256[],string[],bytes[],uint256,uint256,string)": {
        "details": "Emitted when a proposal is created."
      },
      "ProposalExecuted(uint256)": {
        "details": "Emitted when a proposal is executed."
      },
      "ProposalQueued(uint256,uint256)": {
        "details": "Emitted when a proposal is queued."
      },
      "VoteCast(address,uint256,uint8,uint256,string)": {
        "details": "Emitted when a vote is cast without params. Note: `support` values should be seen as buckets. Their interpretation depends on the voting module used."
      },
      "VoteCastWithParams(address,uint256,uint8,uint256,string,bytes)": {
        "details": "Emitted when a vote is cast with params. Note: `support` values should be seen as buckets. Their interpretation depends on the voting module used. `params` are additional encoded parameters. Their interpretation  also depends on the voting module used."
      }
    },
    "kind": "dev",
    "methods": {
      "CLOCK_MODE()": {
        "details": "Machine-readable description of the clock as specified in ERC-6372."
      },
      "COUNTING_MODE()": {
        "details": "See {IGovernor-COUNTING_MODE}."
      },
      "cancel(address[],uint256[],bytes[],bytes32)": {
        "details": "See {IGovernor-cancel}."
      },
      "castVote(uint256,uint8)": {
        "details": "See {IGovernor-castVote}."
      },
      "castVoteBySig(uint256,uint8,address,bytes)": {
        "details": "See {IGovernor-castVoteBySig}."
      },
      "castVoteWithReason(uint256,uint8,string)": {
        "details": "See {IGovernor-castVoteWithReason}."
      },
      "castVoteWithReasonAndParams(uint256,uint8,string,bytes)": {
        "details": "See {IGovernor-castVoteWithReasonAndParams}."
      },
      "castVoteWithReasonAndParamsBySig(uint256,uint8,address,string,bytes,bytes)": {
        "details": "See {IGovernor-castVoteWithReasonAndParamsBySig}."
      },
      "clock()": {
        "details": "Clock (as specified in ERC-6372) is set to match the token's clock. Fallback to block numbers if the token does not implement ERC-6372."
      },
      "constructor": {
        "params": {
          "_manifesto": "The initial CID of the manifesto",
          "_name": "The name of the governance contract",
          "_quorum": "The percentage of total supply that must participate for a vote to succeed",
          "_token": "The address of the token used for voting",
          "_votingDelay": "The delay before voting starts",
          "_votingPeriod": "The duration of the voting period",
          "_votingThreshold": "The minimum number of votes required to create a proposal"
        }
      },
      "eip712Domain()": {
        "details": "See {IERC-5267}."
      },
      "execute(address[],uint256[],bytes[],bytes32)": {
        "details": "See {IGovernor-execute}."
      },
      "getVotes(address,uint256)": {
        "details": "See {IGovernor-getVotes}."
      },
      "getVotesWithParams(address,uint256,bytes)": {
        "details": "See {IGovernor-getVotesWithParams}."
      },
      "hasVoted(uint256,address)": {
        "details": "See {IGovernor-hasVoted}."
      },
      "hashProposal(address[],uint256[],bytes[],bytes32)": {
        "details": "See {IGovernor-hashProposal}. The proposal id is produced by hashing the ABI encoded `targets` array, the `values` array, the `calldatas` array and the descriptionHash (bytes32 which itself is the keccak256 hash of the description string). This proposal id can be produced from the proposal data which is part of the {ProposalCreated} event. It can even be computed in advance, before the proposal is submitted. Note that the chainId and the governor address are not part of the proposal id computation. Consequently, the same proposal (with same operation and same description) will have the same id if submitted on multiple governors across multiple networks. This also means that in order to execute the same operation twice (on the same governor) the proposer will have to change the description in order to avoid proposal id conflicts."
      },
      "name()": {
        "details": "See {IGovernor-name}."
      },
      "nonces(address)": {
        "details": "Returns the next unused nonce for an address."
      },
      "onERC1155BatchReceived(address,address,uint256[],uint256[],bytes)": {
        "details": "See {IERC1155Receiver-onERC1155BatchReceived}. Receiving tokens is disabled if the governance executor is other than the governor itself (eg. when using with a timelock)."
      },
      "onERC1155Received(address,address,uint256,uint256,bytes)": {
        "details": "See {IERC1155Receiver-onERC1155Received}. Receiving tokens is disabled if the governance executor is other than the governor itself (eg. when using with a timelock)."
      },
      "onERC721Received(address,address,uint256,bytes)": {
        "details": "See {IERC721Receiver-onERC721Received}. Receiving tokens is disabled if the governance executor is other than the governor itself (eg. when using with a timelock)."
      },
      "proposalDeadline(uint256)": {
        "details": "See {IGovernor-proposalDeadline}."
      },
      "proposalEta(uint256)": {
        "details": "See {IGovernor-proposalEta}."
      },
      "proposalNeedsQueuing(uint256)": {
        "details": "See {IGovernor-proposalNeedsQueuing}."
      },
      "proposalProposer(uint256)": {
        "details": "See {IGovernor-proposalProposer}."
      },
      "proposalSnapshot(uint256)": {
        "details": "See {IGovernor-proposalSnapshot}."
      },
      "proposalThreshold()": {
        "returns": {
          "_0": "The minimum number of votes required to create a proposal"
        }
      },
      "proposalVotes(uint256)": {
        "details": "Accessor to the internal vote counts."
      },
      "propose(address[],uint256[],bytes[],string)": {
        "details": "See {IGovernor-propose}. This function has opt-in frontrunning protection, described in {_isValidDescriptionForProposer}."
      },
      "queue(address[],uint256[],bytes[],bytes32)": {
        "details": "See {IGovernor-queue}."
      },
      "quorum(uint256)": {
        "params": {
          "blockNumber": "The block number to check the quorum for"
        },
        "returns": {
          "_0": "The number of votes required for a quorum"
        }
      },
      "quorumDenominator()": {
        "details": "Returns the quorum denominator. Defaults to 100, but may be overridden."
      },
      "quorumNumerator()": {
        "details": "Returns the current quorum numerator. See {quorumDenominator}."
      },
      "quorumNumerator(uint256)": {
        "details": "Returns the quorum numerator at a specific timepoint. See {quorumDenominator}."
      },
      "relay(address,uint256,bytes)": {
        "details": "Relays a transaction or function call to an arbitrary target. In cases where the governance executor is some contract other than the governor itself, like when using a timelock, this function can be invoked in a governance proposal to recover tokens or Ether that was sent to the governor contract by mistake. Note that if the executor is simply the governor itself, use of `relay` is redundant."
      },
      "setManifesto(string)": {
        "details": "Must include the DAO mission statement",
        "params": {
          "cid": "The CID of the new manifesto"
        }
      },
      "setProposalThreshold(uint256)": {
        "details": "Update the proposal threshold. This operation can only be performed through a governance proposal. Emits a {ProposalThresholdSet} event."
      },
      "setVotingDelay(uint48)": {
        "details": "Update the voting delay. This operation can only be performed through a governance proposal. Emits a {VotingDelaySet} event."
      },
      "setVotingPeriod(uint32)": {
        "details": "Update the voting period. This operation can only be performed through a governance proposal. Emits a {VotingPeriodSet} event."
      },
      "state(uint256)": {
        "details": "See {IGovernor-state}."
      },
      "supportsInterface(bytes4)": {
        "details": "See {IERC165-supportsInterface}."
      },
      "token()": {
        "details": "The token that voting power is sourced from."
      },
      "updateQuorumNumerator(uint256)": {
        "details": "Changes the quorum numerator. Emits a {QuorumNumeratorUpdated} event. Requirements: - Must be called through a governance proposal. - New numerator must be smaller or equal to the denominator."
      },
      "version()": {
        "details": "See {IGovernor-version}."
      }
    },
    "version": 1
  },
  "userdoc": {
    "kind": "user",
    "methods": {
      "constructor": {
        "notice": "Initializes the governance contract"
      },
      "proposalThreshold()": {
        "notice": "Returns the proposal threshold"
      },
      "quorum(uint256)": {
        "notice": "Returns the quorum for a specific block number"
      },
      "setManifesto(string)": {
        "notice": "Replaces the CID of the manifesto"
      },
      "votingDelay()": {
        "notice": "Returns the delay before voting on a proposal may take place"
      },
      "votingPeriod()": {
        "notice": "Returns the duration of the voting period"
      }
    },
    "version": 1
  },
  "storageLayout": {
    "storage": [
      {
        "astId": 7382,
        "contract": "contracts/variants/crosschain/Gov.sol:Gov",
        "label": "_nameFallback",
        "offset": 0,
        "slot": "0",
        "type": "t_string_storage"
      },
      {
        "astId": 7384,
        "contract": "contracts/variants/crosschain/Gov.sol:Gov",
        "label": "_versionFallback",
        "offset": 0,
        "slot": "1",
        "type": "t_string_storage"
      },
      {
        "astId": 6230,
        "contract": "contracts/variants/crosschain/Gov.sol:Gov",
        "label": "_nonces",
        "offset": 0,
        "slot": "2",
        "type": "t_mapping(t_address,t_uint256)"
      },
      {
        "astId": 237,
        "contract": "contracts/variants/crosschain/Gov.sol:Gov",
        "label": "_name",
        "offset": 0,
        "slot": "3",
        "type": "t_string_storage"
      },
      {
        "astId": 242,
        "contract": "contracts/variants/crosschain/Gov.sol:Gov",
        "label": "_proposals",
        "offset": 0,
        "slot": "4",
        "type": "t_mapping(t_uint256,t_struct(ProposalCore)215_storage)"
      },
      {
        "astId": 245,
        "contract": "contracts/variants/crosschain/Gov.sol:Gov",
        "label": "_governanceCall",
        "offset": 0,
        "slot": "5",
        "type": "t_struct(Bytes32Deque)12901_storage"
      },
      {
        "astId": 2663,
        "contract": "contracts/variants/crosschain/Gov.sol:Gov",
        "label": "_proposalThreshold",
        "offset": 0,
        "slot": "7",
        "type": "t_uint256"
      },
      {
        "astId": 2665,
        "contract": "contracts/variants/crosschain/Gov.sol:Gov",
        "label": "_votingDelay",
        "offset": 0,
        "slot": "8",
        "type": "t_uint48"
      },
      {
        "astId": 2667,
        "contract": "contracts/variants/crosschain/Gov.sol:Gov",
        "label": "_votingPeriod",
        "offset": 6,
        "slot": "8",
        "type": "t_uint32"
      },
      {
        "astId": 2450,
        "contract": "contracts/variants/crosschain/Gov.sol:Gov",
        "label": "_proposalVotes",
        "offset": 0,
        "slot": "9",
        "type": "t_mapping(t_uint256,t_struct(ProposalVote)2445_storage)"
      },
      {
        "astId": 2969,
        "contract": "contracts/variants/crosschain/Gov.sol:Gov",
        "label": "_quorumNumeratorHistory",
        "offset": 0,
        "slot": "10",
        "type": "t_struct(Trace208)11842_storage"
      },
      {
        "astId": 13920,
        "contract": "contracts/variants/crosschain/Gov.sol:Gov",
        "label": "manifesto",
        "offset": 0,
        "slot": "11",
        "type": "t_string_storage"
      }
    ],
    "types": {
      "t_address": {
        "encoding": "inplace",
        "label": "address",
        "numberOfBytes": "20"
      },
      "t_array(t_struct(Checkpoint208)11847_storage)dyn_storage": {
        "base": "t_struct(Checkpoint208)11847_storage",
        "encoding": "dynamic_array",
        "label": "struct Checkpoints.Checkpoint208[]",
        "numberOfBytes": "32"
      },
      "t_bool": {
        "encoding": "inplace",
        "label": "bool",
        "numberOfBytes": "1"
      },
      "t_bytes32": {
        "encoding": "inplace",
        "label": "bytes32",
        "numberOfBytes": "32"
      },
      "t_mapping(t_address,t_bool)": {
        "encoding": "mapping",
        "key": "t_address",
        "label": "mapping(address => bool)",
        "numberOfBytes": "32",
        "value": "t_bool"
      },
      "t_mapping(t_address,t_uint256)": {
        "encoding": "mapping",
        "key": "t_address",
        "label": "mapping(address => uint256)",
        "numberOfBytes": "32",
        "value": "t_uint256"
      },
      "t_mapping(t_uint128,t_bytes32)": {
        "encoding": "mapping",
        "key": "t_uint128",
        "label": "mapping(uint128 => bytes32)",
        "numberOfBytes": "32",
        "value": "t_bytes32"
      },
      "t_mapping(t_uint256,t_struct(ProposalCore)215_storage)": {
        "encoding": "mapping",
        "key": "t_uint256",
        "label": "mapping(uint256 => struct Governor.ProposalCore)",
        "numberOfBytes": "32",
        "value": "t_struct(ProposalCore)215_storage"
      },
      "t_mapping(t_uint256,t_struct(ProposalVote)2445_storage)": {
        "encoding": "mapping",
        "key": "t_uint256",
        "label": "mapping(uint256 => struct GovernorCountingSimple.ProposalVote)",
        "numberOfBytes": "32",
        "value": "t_struct(ProposalVote)2445_storage"
      },
      "t_string_storage": {
        "encoding": "bytes",
        "label": "string",
        "numberOfBytes": "32"
      },
      "t_struct(Bytes32Deque)12901_storage": {
        "encoding": "inplace",
        "label": "struct DoubleEndedQueue.Bytes32Deque",
        "members": [
          {
            "astId": 12894,
            "contract": "contracts/variants/crosschain/Gov.sol:Gov",
            "label": "_begin",
            "offset": 0,
            "slot": "0",
            "type": "t_uint128"
          },
          {
            "astId": 12896,
            "contract": "contracts/variants/crosschain/Gov.sol:Gov",
            "label": "_end",
            "offset": 16,
            "slot": "0",
            "type": "t_uint128"
          },
          {
            "astId": 12900,
            "contract": "contracts/variants/crosschain/Gov.sol:Gov",
            "label": "_data",
            "offset": 0,
            "slot": "1",
            "type": "t_mapping(t_uint128,t_bytes32)"
          }
        ],
        "numberOfBytes": "64"
      },
      "t_struct(Checkpoint208)11847_storage": {
        "encoding": "inplace",
        "label": "struct Checkpoints.Checkpoint208",
        "members": [
          {
            "astId": 11844,
            "contract": "contracts/variants/crosschain/Gov.sol:Gov",
            "label": "_key",
            "offset": 0,
            "slot": "0",
            "type": "t_uint48"
          },
          {
            "astId": 11846,
            "contract": "contracts/variants/crosschain/Gov.sol:Gov",
            "label": "_value",
            "offset": 6,
            "slot": "0",
            "type": "t_uint208"
          }
        ],
        "numberOfBytes": "32"
      },
      "t_struct(ProposalCore)215_storage": {
        "encoding": "inplace",
        "label": "struct Governor.ProposalCore",
        "members": [
          {
            "astId": 204,
            "contract": "contracts/variants/crosschain/Gov.sol:Gov",
            "label": "proposer",
            "offset": 0,
            "slot": "0",
            "type": "t_address"
          },
          {
            "astId": 206,
            "contract": "contracts/variants/crosschain/Gov.sol:Gov",
            "label": "voteStart",
            "offset": 20,
            "slot": "0",
            "type": "t_uint48"
          },
          {
            "astId": 208,
            "contract": "contracts/variants/crosschain/Gov.sol:Gov",
            "label": "voteDuration",
            "offset": 26,
            "slot": "0",
            "type": "t_uint32"
          },
          {
            "astId": 210,
            "contract": "contracts/variants/crosschain/Gov.sol:Gov",
            "label": "executed",
            "offset": 30,
            "slot": "0",
            "type": "t_bool"
          },
          {
            "astId": 212,
            "contract": "contracts/variants/crosschain/Gov.sol:Gov",
            "label": "canceled",
            "offset": 31,
            "slot": "0",
            "type": "t_bool"
          },
          {
            "astId": 214,
            "contract": "contracts/variants/crosschain/Gov.sol:Gov",
            "label": "etaSeconds",
            "offset": 0,
            "slot": "1",
            "type": "t_uint48"
          }
        ],
        "numberOfBytes": "64"
      },
      "t_struct(ProposalVote)2445_storage": {
        "encoding": "inplace",
        "label": "struct GovernorCountingSimple.ProposalVote",
        "members": [
          {
            "astId": 2436,
            "contract": "contracts/variants/crosschain/Gov.sol:Gov",
            "label": "againstVotes",
            "offset": 0,
            "slot": "0",
            "type": "t_uint256"
          },
          {
            "astId": 2438,
            "contract": "contracts/variants/crosschain/Gov.sol:Gov",
            "label": "forVotes",
            "offset": 0,
            "slot": "1",
            "type": "t_uint256"
          },
          {
            "astId": 2440,
            "contract": "contracts/variants/crosschain/Gov.sol:Gov",
            "label": "abstainVotes",
            "offset": 0,
            "slot": "2",
            "type": "t_uint256"
          },
          {
            "astId": 2444,
            "contract": "contracts/variants/crosschain/Gov.sol:Gov",
            "label": "hasVoted",
            "offset": 0,
            "slot": "3",
            "type": "t_mapping(t_address,t_bool)"
          }
        ],
        "numberOfBytes": "128"
      },
      "t_struct(Trace208)11842_storage": {
        "encoding": "inplace",
        "label": "struct Checkpoints.Trace208",
        "members": [
          {
            "astId": 11841,
            "contract": "contracts/variants/crosschain/Gov.sol:Gov",
            "label": "_checkpoints",
            "offset": 0,
            "slot": "0",
            "type": "t_array(t_struct(Checkpoint208)11847_storage)dyn_storage"
          }
        ],
        "numberOfBytes": "32"
      },
      "t_uint128": {
        "encoding": "inplace",
        "label": "uint128",
        "numberOfBytes": "16"
      },
      "t_uint208": {
        "encoding": "inplace",
        "label": "uint208",
        "numberOfBytes": "26"
      },
      "t_uint256": {
        "encoding": "inplace",
        "label": "uint256",
        "numberOfBytes": "32"
      },
      "t_uint32": {
        "encoding": "inplace",
        "label": "uint32",
        "numberOfBytes": "4"
      },
      "t_uint48": {
        "encoding": "inplace",
        "label": "uint48",
        "numberOfBytes": "6"
      }
    }
  }
}