{
  "address": "0xfA66500Fd2a237a5cA7751078aC5629534065440",
  "abi": [
    {
      "inputs": [
        {
          "internalType": "contract IVotes",
          "name": "_token",
          "type": "address"
        },
        {
          "internalType": "string",
          "name": "_manifesto",
          "type": "string"
        },
        {
          "internalType": "string",
          "name": "_name",
          "type": "string"
        },
        {
          "internalType": "uint48",
          "name": "_votingDelay",
          "type": "uint48"
        },
        {
          "internalType": "uint32",
          "name": "_votingPeriod",
          "type": "uint32"
        },
        {
          "internalType": "uint256",
          "name": "_votingThreshold",
          "type": "uint256"
        },
        {
          "internalType": "uint256",
          "name": "_quorum",
          "type": "uint256"
        }
      ],
      "stateMutability": "nonpayable",
      "type": "constructor"
    },
    {
      "inputs": [],
      "name": "CheckpointUnorderedInsertion",
      "type": "error"
    },
    {
      "inputs": [],
      "name": "FailedInnerCall",
      "type": "error"
    },
    {
      "inputs": [
        {
          "internalType": "address",
          "name": "voter",
          "type": "address"
        }
      ],
      "name": "GovernorAlreadyCastVote",
      "type": "error"
    },
    {
      "inputs": [
        {
          "internalType": "uint256",
          "name": "proposalId",
          "type": "uint256"
        }
      ],
      "name": "GovernorAlreadyQueuedProposal",
      "type": "error"
    },
    {
      "inputs": [],
      "name": "GovernorDisabledDeposit",
      "type": "error"
    },
    {
      "inputs": [
        {
          "internalType": "address",
          "name": "proposer",
          "type": "address"
        },
        {
          "internalType": "uint256",
          "name": "votes",
          "type": "uint256"
        },
        {
          "internalType": "uint256",
          "name": "threshold",
          "type": "uint256"
        }
      ],
      "name": "GovernorInsufficientProposerVotes",
      "type": "error"
    },
    {
      "inputs": [
        {
          "internalType": "uint256",
          "name": "targets",
          "type": "uint256"
        },
        {
          "internalType": "uint256",
          "name": "calldatas",
          "type": "uint256"
        },
        {
          "internalType": "uint256",
          "name": "values",
          "type": "uint256"
        }
      ],
      "name": "GovernorInvalidProposalLength",
      "type": "error"
    },
    {
      "inputs": [
        {
          "internalType": "uint256",
          "name": "quorumNumerator",
          "type": "uint256"
        },
        {
          "internalType": "uint256",
          "name": "quorumDenominator",
          "type": "uint256"
        }
      ],
      "name": "GovernorInvalidQuorumFraction",
      "type": "error"
    },
    {
      "inputs": [
        {
          "internalType": "address",
          "name": "voter",
          "type": "address"
        }
      ],
      "name": "GovernorInvalidSignature",
      "type": "error"
    },
    {
      "inputs": [],
      "name": "GovernorInvalidVoteType",
      "type": "error"
    },
    {
      "inputs": [
        {
          "internalType": "uint256",
          "name": "votingPeriod",
          "type": "uint256"
        }
      ],
      "name": "GovernorInvalidVotingPeriod",
      "type": "error"
    },
    {
      "inputs": [
        {
          "internalType": "uint256",
          "name": "proposalId",
          "type": "uint256"
        }
      ],
      "name": "GovernorNonexistentProposal",
      "type": "error"
    },
    {
      "inputs": [
        {
          "internalType": "uint256",
          "name": "proposalId",
          "type": "uint256"
        }
      ],
      "name": "GovernorNotQueuedProposal",
      "type": "error"
    },
    {
      "inputs": [
        {
          "internalType": "address",
          "name": "account",
          "type": "address"
        }
      ],
      "name": "GovernorOnlyExecutor",
      "type": "error"
    },
    {
      "inputs": [
        {
          "internalType": "address",
          "name": "account",
          "type": "address"
        }
      ],
      "name": "GovernorOnlyProposer",
      "type": "error"
    },
    {
      "inputs": [],
      "name": "GovernorQueueNotImplemented",
      "type": "error"
    },
    {
      "inputs": [
        {
          "internalType": "address",
          "name": "proposer",
          "type": "address"
        }
      ],
      "name": "GovernorRestrictedProposer",
      "type": "error"
    },
    {
      "inputs": [
        {
          "internalType": "uint256",
          "name": "proposalId",
          "type": "uint256"
        },
        {
          "internalType": "enum IGovernor.ProposalState",
          "name": "current",
          "type": "uint8"
        },
        {
          "internalType": "bytes32",
          "name": "expectedStates",
          "type": "bytes32"
        }
      ],
      "name": "GovernorUnexpectedProposalState",
      "type": "error"
    },
    {
      "inputs": [
        {
          "internalType": "address",
          "name": "account",
          "type": "address"
        },
        {
          "internalType": "uint256",
          "name": "currentNonce",
          "type": "uint256"
        }
      ],
      "name": "InvalidAccountNonce",
      "type": "error"
    },
    {
      "inputs": [],
      "name": "InvalidShortString",
      "type": "error"
    },
    {
      "inputs": [],
      "name": "QueueEmpty",
      "type": "error"
    },
    {
      "inputs": [],
      "name": "QueueFull",
      "type": "error"
    },
    {
      "inputs": [
        {
          "internalType": "uint8",
          "name": "bits",
          "type": "uint8"
        },
        {
          "internalType": "uint256",
          "name": "value",
          "type": "uint256"
        }
      ],
      "name": "SafeCastOverflowedUintDowncast",
      "type": "error"
    },
    {
      "inputs": [
        {
          "internalType": "string",
          "name": "str",
          "type": "string"
        }
      ],
      "name": "StringTooLong",
      "type": "error"
    },
    {
      "anonymous": false,
      "inputs": [],
      "name": "EIP712DomainChanged",
      "type": "event"
    },
    {
      "anonymous": false,
      "inputs": [
        {
          "indexed": false,
          "internalType": "string",
          "name": "cid",
          "type": "string"
        }
      ],
      "name": "ManifestoUpdated",
      "type": "event"
    },
    {
      "anonymous": false,
      "inputs": [
        {
          "indexed": false,
          "internalType": "uint256",
          "name": "proposalId",
          "type": "uint256"
        }
      ],
      "name": "ProposalCanceled",
      "type": "event"
    },
    {
      "anonymous": false,
      "inputs": [
        {
          "indexed": false,
          "internalType": "uint256",
          "name": "proposalId",
          "type": "uint256"
        },
        {
          "indexed": false,
          "internalType": "address",
          "name": "proposer",
          "type": "address"
        },
        {
          "indexed": false,
          "internalType": "address[]",
          "name": "targets",
          "type": "address[]"
        },
        {
          "indexed": false,
          "internalType": "uint256[]",
          "name": "values",
          "type": "uint256[]"
        },
        {
          "indexed": false,
          "internalType": "string[]",
          "name": "signatures",
          "type": "string[]"
        },
        {
          "indexed": false,
          "internalType": "bytes[]",
          "name": "calldatas",
          "type": "bytes[]"
        },
        {
          "indexed": false,
          "internalType": "uint256",
          "name": "voteStart",
          "type": "uint256"
        },
        {
          "indexed": false,
          "internalType": "uint256",
          "name": "voteEnd",
          "type": "uint256"
        },
        {
          "indexed": false,
          "internalType": "string",
          "name": "description",
          "type": "string"
        }
      ],
      "name": "ProposalCreated",
      "type": "event"
    },
    {
      "anonymous": false,
      "inputs": [
        {
          "indexed": false,
          "internalType": "uint256",
          "name": "proposalId",
          "type": "uint256"
        }
      ],
      "name": "ProposalExecuted",
      "type": "event"
    },
    {
      "anonymous": false,
      "inputs": [
        {
          "indexed": false,
          "internalType": "uint256",
          "name": "proposalId",
          "type": "uint256"
        },
        {
          "indexed": false,
          "internalType": "uint256",
          "name": "etaSeconds",
          "type": "uint256"
        }
      ],
      "name": "ProposalQueued",
      "type": "event"
    },
    {
      "anonymous": false,
      "inputs": [
        {
          "indexed": false,
          "internalType": "uint256",
          "name": "oldProposalThreshold",
          "type": "uint256"
        },
        {
          "indexed": false,
          "internalType": "uint256",
          "name": "newProposalThreshold",
          "type": "uint256"
        }
      ],
      "name": "ProposalThresholdSet",
      "type": "event"
    },
    {
      "anonymous": false,
      "inputs": [
        {
          "indexed": false,
          "internalType": "uint256",
          "name": "oldQuorumNumerator",
          "type": "uint256"
        },
        {
          "indexed": false,
          "internalType": "uint256",
          "name": "newQuorumNumerator",
          "type": "uint256"
        }
      ],
      "name": "QuorumNumeratorUpdated",
      "type": "event"
    },
    {
      "anonymous": false,
      "inputs": [
        {
          "indexed": true,
          "internalType": "address",
          "name": "voter",
          "type": "address"
        },
        {
          "indexed": false,
          "internalType": "uint256",
          "name": "proposalId",
          "type": "uint256"
        },
        {
          "indexed": false,
          "internalType": "uint8",
          "name": "support",
          "type": "uint8"
        },
        {
          "indexed": false,
          "internalType": "uint256",
          "name": "weight",
          "type": "uint256"
        },
        {
          "indexed": false,
          "internalType": "string",
          "name": "reason",
          "type": "string"
        }
      ],
      "name": "VoteCast",
      "type": "event"
    },
    {
      "anonymous": false,
      "inputs": [
        {
          "indexed": true,
          "internalType": "address",
          "name": "voter",
          "type": "address"
        },
        {
          "indexed": false,
          "internalType": "uint256",
          "name": "proposalId",
          "type": "uint256"
        },
        {
          "indexed": false,
          "internalType": "uint8",
          "name": "support",
          "type": "uint8"
        },
        {
          "indexed": false,
          "internalType": "uint256",
          "name": "weight",
          "type": "uint256"
        },
        {
          "indexed": false,
          "internalType": "string",
          "name": "reason",
          "type": "string"
        },
        {
          "indexed": false,
          "internalType": "bytes",
          "name": "params",
          "type": "bytes"
        }
      ],
      "name": "VoteCastWithParams",
      "type": "event"
    },
    {
      "anonymous": false,
      "inputs": [
        {
          "indexed": false,
          "internalType": "uint256",
          "name": "oldVotingDelay",
          "type": "uint256"
        },
        {
          "indexed": false,
          "internalType": "uint256",
          "name": "newVotingDelay",
          "type": "uint256"
        }
      ],
      "name": "VotingDelaySet",
      "type": "event"
    },
    {
      "anonymous": false,
      "inputs": [
        {
          "indexed": false,
          "internalType": "uint256",
          "name": "oldVotingPeriod",
          "type": "uint256"
        },
        {
          "indexed": false,
          "internalType": "uint256",
          "name": "newVotingPeriod",
          "type": "uint256"
        }
      ],
      "name": "VotingPeriodSet",
      "type": "event"
    },
    {
      "inputs": [],
      "name": "BALLOT_TYPEHASH",
      "outputs": [
        {
          "internalType": "bytes32",
          "name": "",
          "type": "bytes32"
        }
      ],
      "stateMutability": "view",
      "type": "function"
    },
    {
      "inputs": [],
      "name": "CLOCK_MODE",
      "outputs": [
        {
          "internalType": "string",
          "name": "",
          "type": "string"
        }
      ],
      "stateMutability": "view",
      "type": "function"
    },
    {
      "inputs": [],
      "name": "COUNTING_MODE",
      "outputs": [
        {
          "internalType": "string",
          "name": "",
          "type": "string"
        }
      ],
      "stateMutability": "pure",
      "type": "function"
    },
    {
      "inputs": [],
      "name": "EXTENDED_BALLOT_TYPEHASH",
      "outputs": [
        {
          "internalType": "bytes32",
          "name": "",
          "type": "bytes32"
        }
      ],
      "stateMutability": "view",
      "type": "function"
    },
    {
      "inputs": [
        {
          "internalType": "address[]",
          "name": "targets",
          "type": "address[]"
        },
        {
          "internalType": "uint256[]",
          "name": "values",
          "type": "uint256[]"
        },
        {
          "internalType": "bytes[]",
          "name": "calldatas",
          "type": "bytes[]"
        },
        {
          "internalType": "bytes32",
          "name": "descriptionHash",
          "type": "bytes32"
        }
      ],
      "name": "cancel",
      "outputs": [
        {
          "internalType": "uint256",
          "name": "",
          "type": "uint256"
        }
      ],
      "stateMutability": "nonpayable",
      "type": "function"
    },
    {
      "inputs": [
        {
          "internalType": "uint256",
          "name": "proposalId",
          "type": "uint256"
        },
        {
          "internalType": "uint8",
          "name": "support",
          "type": "uint8"
        }
      ],
      "name": "castVote",
      "outputs": [
        {
          "internalType": "uint256",
          "name": "",
          "type": "uint256"
        }
      ],
      "stateMutability": "nonpayable",
      "type": "function"
    },
    {
      "inputs": [
        {
          "internalType": "uint256",
          "name": "proposalId",
          "type": "uint256"
        },
        {
          "internalType": "uint8",
          "name": "support",
          "type": "uint8"
        },
        {
          "internalType": "address",
          "name": "voter",
          "type": "address"
        },
        {
          "internalType": "bytes",
          "name": "signature",
          "type": "bytes"
        }
      ],
      "name": "castVoteBySig",
      "outputs": [
        {
          "internalType": "uint256",
          "name": "",
          "type": "uint256"
        }
      ],
      "stateMutability": "nonpayable",
      "type": "function"
    },
    {
      "inputs": [
        {
          "internalType": "uint256",
          "name": "proposalId",
          "type": "uint256"
        },
        {
          "internalType": "uint8",
          "name": "support",
          "type": "uint8"
        },
        {
          "internalType": "string",
          "name": "reason",
          "type": "string"
        }
      ],
      "name": "castVoteWithReason",
      "outputs": [
        {
          "internalType": "uint256",
          "name": "",
          "type": "uint256"
        }
      ],
      "stateMutability": "nonpayable",
      "type": "function"
    },
    {
      "inputs": [
        {
          "internalType": "uint256",
          "name": "proposalId",
          "type": "uint256"
        },
        {
          "internalType": "uint8",
          "name": "support",
          "type": "uint8"
        },
        {
          "internalType": "string",
          "name": "reason",
          "type": "string"
        },
        {
          "internalType": "bytes",
          "name": "params",
          "type": "bytes"
        }
      ],
      "name": "castVoteWithReasonAndParams",
      "outputs": [
        {
          "internalType": "uint256",
          "name": "",
          "type": "uint256"
        }
      ],
      "stateMutability": "nonpayable",
      "type": "function"
    },
    {
      "inputs": [
        {
          "internalType": "uint256",
          "name": "proposalId",
          "type": "uint256"
        },
        {
          "internalType": "uint8",
          "name": "support",
          "type": "uint8"
        },
        {
          "internalType": "address",
          "name": "voter",
          "type": "address"
        },
        {
          "internalType": "string",
          "name": "reason",
          "type": "string"
        },
        {
          "internalType": "bytes",
          "name": "params",
          "type": "bytes"
        },
        {
          "internalType": "bytes",
          "name": "signature",
          "type": "bytes"
        }
      ],
      "name": "castVoteWithReasonAndParamsBySig",
      "outputs": [
        {
          "internalType": "uint256",
          "name": "",
          "type": "uint256"
        }
      ],
      "stateMutability": "nonpayable",
      "type": "function"
    },
    {
      "inputs": [],
      "name": "clock",
      "outputs": [
        {
          "internalType": "uint48",
          "name": "",
          "type": "uint48"
        }
      ],
      "stateMutability": "view",
      "type": "function"
    },
    {
      "inputs": [],
      "name": "eip712Domain",
      "outputs": [
        {
          "internalType": "bytes1",
          "name": "fields",
          "type": "bytes1"
        },
        {
          "internalType": "string",
          "name": "name",
          "type": "string"
        },
        {
          "internalType": "string",
          "name": "version",
          "type": "string"
        },
        {
          "internalType": "uint256",
          "name": "chainId",
          "type": "uint256"
        },
        {
          "internalType": "address",
          "name": "verifyingContract",
          "type": "address"
        },
        {
          "internalType": "bytes32",
          "name": "salt",
          "type": "bytes32"
        },
        {
          "internalType": "uint256[]",
          "name": "extensions",
          "type": "uint256[]"
        }
      ],
      "stateMutability": "view",
      "type": "function"
    },
    {
      "inputs": [
        {
          "internalType": "address[]",
          "name": "targets",
          "type": "address[]"
        },
        {
          "internalType": "uint256[]",
          "name": "values",
          "type": "uint256[]"
        },
        {
          "internalType": "bytes[]",
          "name": "calldatas",
          "type": "bytes[]"
        },
        {
          "internalType": "bytes32",
          "name": "descriptionHash",
          "type": "bytes32"
        }
      ],
      "name": "execute",
      "outputs": [
        {
          "internalType": "uint256",
          "name": "",
          "type": "uint256"
        }
      ],
      "stateMutability": "payable",
      "type": "function"
    },
    {
      "inputs": [
        {
          "internalType": "address",
          "name": "account",
          "type": "address"
        },
        {
          "internalType": "uint256",
          "name": "timepoint",
          "type": "uint256"
        }
      ],
      "name": "getVotes",
      "outputs": [
        {
          "internalType": "uint256",
          "name": "",
          "type": "uint256"
        }
      ],
      "stateMutability": "view",
      "type": "function"
    },
    {
      "inputs": [
        {
          "internalType": "address",
          "name": "account",
          "type": "address"
        },
        {
          "internalType": "uint256",
          "name": "timepoint",
          "type": "uint256"
        },
        {
          "internalType": "bytes",
          "name": "params",
          "type": "bytes"
        }
      ],
      "name": "getVotesWithParams",
      "outputs": [
        {
          "internalType": "uint256",
          "name": "",
          "type": "uint256"
        }
      ],
      "stateMutability": "view",
      "type": "function"
    },
    {
      "inputs": [
        {
          "internalType": "uint256",
          "name": "proposalId",
          "type": "uint256"
        },
        {
          "internalType": "address",
          "name": "account",
          "type": "address"
        }
      ],
      "name": "hasVoted",
      "outputs": [
        {
          "internalType": "bool",
          "name": "",
          "type": "bool"
        }
      ],
      "stateMutability": "view",
      "type": "function"
    },
    {
      "inputs": [
        {
          "internalType": "address[]",
          "name": "targets",
          "type": "address[]"
        },
        {
          "internalType": "uint256[]",
          "name": "values",
          "type": "uint256[]"
        },
        {
          "internalType": "bytes[]",
          "name": "calldatas",
          "type": "bytes[]"
        },
        {
          "internalType": "bytes32",
          "name": "descriptionHash",
          "type": "bytes32"
        }
      ],
      "name": "hashProposal",
      "outputs": [
        {
          "internalType": "uint256",
          "name": "",
          "type": "uint256"
        }
      ],
      "stateMutability": "pure",
      "type": "function"
    },
    {
      "inputs": [],
      "name": "manifesto",
      "outputs": [
        {
          "internalType": "string",
          "name": "",
          "type": "string"
        }
      ],
      "stateMutability": "view",
      "type": "function"
    },
    {
      "inputs": [],
      "name": "name",
      "outputs": [
        {
          "internalType": "string",
          "name": "",
          "type": "string"
        }
      ],
      "stateMutability": "view",
      "type": "function"
    },
    {
      "inputs": [
        {
          "internalType": "address",
          "name": "owner",
          "type": "address"
        }
      ],
      "name": "nonces",
      "outputs": [
        {
          "internalType": "uint256",
          "name": "",
          "type": "uint256"
        }
      ],
      "stateMutability": "view",
      "type": "function"
    },
    {
      "inputs": [
        {
          "internalType": "address",
          "name": "",
          "type": "address"
        },
        {
          "internalType": "address",
          "name": "",
          "type": "address"
        },
        {
          "internalType": "uint256[]",
          "name": "",
          "type": "uint256[]"
        },
        {
          "internalType": "uint256[]",
          "name": "",
          "type": "uint256[]"
        },
        {
          "internalType": "bytes",
          "name": "",
          "type": "bytes"
        }
      ],
      "name": "onERC1155BatchReceived",
      "outputs": [
        {
          "internalType": "bytes4",
          "name": "",
          "type": "bytes4"
        }
      ],
      "stateMutability": "nonpayable",
      "type": "function"
    },
    {
      "inputs": [
        {
          "internalType": "address",
          "name": "",
          "type": "address"
        },
        {
          "internalType": "address",
          "name": "",
          "type": "address"
        },
        {
          "internalType": "uint256",
          "name": "",
          "type": "uint256"
        },
        {
          "internalType": "uint256",
          "name": "",
          "type": "uint256"
        },
        {
          "internalType": "bytes",
          "name": "",
          "type": "bytes"
        }
      ],
      "name": "onERC1155Received",
      "outputs": [
        {
          "internalType": "bytes4",
          "name": "",
          "type": "bytes4"
        }
      ],
      "stateMutability": "nonpayable",
      "type": "function"
    },
    {
      "inputs": [
        {
          "internalType": "address",
          "name": "",
          "type": "address"
        },
        {
          "internalType": "address",
          "name": "",
          "type": "address"
        },
        {
          "internalType": "uint256",
          "name": "",
          "type": "uint256"
        },
        {
          "internalType": "bytes",
          "name": "",
          "type": "bytes"
        }
      ],
      "name": "onERC721Received",
      "outputs": [
        {
          "internalType": "bytes4",
          "name": "",
          "type": "bytes4"
        }
      ],
      "stateMutability": "nonpayable",
      "type": "function"
    },
    {
      "inputs": [
        {
          "internalType": "uint256",
          "name": "proposalId",
          "type": "uint256"
        }
      ],
      "name": "proposalDeadline",
      "outputs": [
        {
          "internalType": "uint256",
          "name": "",
          "type": "uint256"
        }
      ],
      "stateMutability": "view",
      "type": "function"
    },
    {
      "inputs": [
        {
          "internalType": "uint256",
          "name": "proposalId",
          "type": "uint256"
        }
      ],
      "name": "proposalEta",
      "outputs": [
        {
          "internalType": "uint256",
          "name": "",
          "type": "uint256"
        }
      ],
      "stateMutability": "view",
      "type": "function"
    },
    {
      "inputs": [
        {
          "internalType": "uint256",
          "name": "",
          "type": "uint256"
        }
      ],
      "name": "proposalNeedsQueuing",
      "outputs": [
        {
          "internalType": "bool",
          "name": "",
          "type": "bool"
        }
      ],
      "stateMutability": "view",
      "type": "function"
    },
    {
      "inputs": [
        {
          "internalType": "uint256",
          "name": "proposalId",
          "type": "uint256"
        }
      ],
      "name": "proposalProposer",
      "outputs": [
        {
          "internalType": "address",
          "name": "",
          "type": "address"
        }
      ],
      "stateMutability": "view",
      "type": "function"
    },
    {
      "inputs": [
        {
          "internalType": "uint256",
          "name": "proposalId",
          "type": "uint256"
        }
      ],
      "name": "proposalSnapshot",
      "outputs": [
        {
          "internalType": "uint256",
          "name": "",
          "type": "uint256"
        }
      ],
      "stateMutability": "view",
      "type": "function"
    },
    {
      "inputs": [],
      "name": "proposalThreshold",
      "outputs": [
        {
          "internalType": "uint256",
          "name": "",
          "type": "uint256"
        }
      ],
      "stateMutability": "view",
      "type": "function"
    },
    {
      "inputs": [
        {
          "internalType": "uint256",
          "name": "proposalId",
          "type": "uint256"
        }
      ],
      "name": "proposalVotes",
      "outputs": [
        {
          "internalType": "uint256",
          "name": "againstVotes",
          "type": "uint256"
        },
        {
          "internalType": "uint256",
          "name": "forVotes",
          "type": "uint256"
        },
        {
          "internalType": "uint256",
          "name": "abstainVotes",
          "type": "uint256"
        }
      ],
      "stateMutability": "view",
      "type": "function"
    },
    {
      "inputs": [
        {
          "internalType": "address[]",
          "name": "targets",
          "type": "address[]"
        },
        {
          "internalType": "uint256[]",
          "name": "values",
          "type": "uint256[]"
        },
        {
          "internalType": "bytes[]",
          "name": "calldatas",
          "type": "bytes[]"
        },
        {
          "internalType": "string",
          "name": "description",
          "type": "string"
        }
      ],
      "name": "propose",
      "outputs": [
        {
          "internalType": "uint256",
          "name": "",
          "type": "uint256"
        }
      ],
      "stateMutability": "nonpayable",
      "type": "function"
    },
    {
      "inputs": [
        {
          "internalType": "address[]",
          "name": "targets",
          "type": "address[]"
        },
        {
          "internalType": "uint256[]",
          "name": "values",
          "type": "uint256[]"
        },
        {
          "internalType": "bytes[]",
          "name": "calldatas",
          "type": "bytes[]"
        },
        {
          "internalType": "bytes32",
          "name": "descriptionHash",
          "type": "bytes32"
        }
      ],
      "name": "queue",
      "outputs": [
        {
          "internalType": "uint256",
          "name": "",
          "type": "uint256"
        }
      ],
      "stateMutability": "nonpayable",
      "type": "function"
    },
    {
      "inputs": [
        {
          "internalType": "uint256",
          "name": "blockNumber",
          "type": "uint256"
        }
      ],
      "name": "quorum",
      "outputs": [
        {
          "internalType": "uint256",
          "name": "",
          "type": "uint256"
        }
      ],
      "stateMutability": "view",
      "type": "function"
    },
    {
      "inputs": [],
      "name": "quorumDenominator",
      "outputs": [
        {
          "internalType": "uint256",
          "name": "",
          "type": "uint256"
        }
      ],
      "stateMutability": "view",
      "type": "function"
    },
    {
      "inputs": [
        {
          "internalType": "uint256",
          "name": "timepoint",
          "type": "uint256"
        }
      ],
      "name": "quorumNumerator",
      "outputs": [
        {
          "internalType": "uint256",
          "name": "",
          "type": "uint256"
        }
      ],
      "stateMutability": "view",
      "type": "function"
    },
    {
      "inputs": [],
      "name": "quorumNumerator",
      "outputs": [
        {
          "internalType": "uint256",
          "name": "",
          "type": "uint256"
        }
      ],
      "stateMutability": "view",
      "type": "function"
    },
    {
      "inputs": [
        {
          "internalType": "address",
          "name": "target",
          "type": "address"
        },
        {
          "internalType": "uint256",
          "name": "value",
          "type": "uint256"
        },
        {
          "internalType": "bytes",
          "name": "data",
          "type": "bytes"
        }
      ],
      "name": "relay",
      "outputs": [],
      "stateMutability": "payable",
      "type": "function"
    },
    {
      "inputs": [
        {
          "internalType": "string",
          "name": "cid",
          "type": "string"
        }
      ],
      "name": "setManifesto",
      "outputs": [],
      "stateMutability": "nonpayable",
      "type": "function"
    },
    {
      "inputs": [
        {
          "internalType": "uint256",
          "name": "newProposalThreshold",
          "type": "uint256"
        }
      ],
      "name": "setProposalThreshold",
      "outputs": [],
      "stateMutability": "nonpayable",
      "type": "function"
    },
    {
      "inputs": [
        {
          "internalType": "uint48",
          "name": "newVotingDelay",
          "type": "uint48"
        }
      ],
      "name": "setVotingDelay",
      "outputs": [],
      "stateMutability": "nonpayable",
      "type": "function"
    },
    {
      "inputs": [
        {
          "internalType": "uint32",
          "name": "newVotingPeriod",
          "type": "uint32"
        }
      ],
      "name": "setVotingPeriod",
      "outputs": [],
      "stateMutability": "nonpayable",
      "type": "function"
    },
    {
      "inputs": [
        {
          "internalType": "uint256",
          "name": "proposalId",
          "type": "uint256"
        }
      ],
      "name": "state",
      "outputs": [
        {
          "internalType": "enum IGovernor.ProposalState",
          "name": "",
          "type": "uint8"
        }
      ],
      "stateMutability": "view",
      "type": "function"
    },
    {
      "inputs": [
        {
          "internalType": "bytes4",
          "name": "interfaceId",
          "type": "bytes4"
        }
      ],
      "name": "supportsInterface",
      "outputs": [
        {
          "internalType": "bool",
          "name": "",
          "type": "bool"
        }
      ],
      "stateMutability": "view",
      "type": "function"
    },
    {
      "inputs": [],
      "name": "token",
      "outputs": [
        {
          "internalType": "contract IERC5805",
          "name": "",
          "type": "address"
        }
      ],
      "stateMutability": "view",
      "type": "function"
    },
    {
      "inputs": [
        {
          "internalType": "uint256",
          "name": "newQuorumNumerator",
          "type": "uint256"
        }
      ],
      "name": "updateQuorumNumerator",
      "outputs": [],
      "stateMutability": "nonpayable",
      "type": "function"
    },
    {
      "inputs": [],
      "name": "version",
      "outputs": [
        {
          "internalType": "string",
          "name": "",
          "type": "string"
        }
      ],
      "stateMutability": "view",
      "type": "function"
    },
    {
      "inputs": [],
      "name": "votingDelay",
      "outputs": [
        {
          "internalType": "uint256",
          "name": "",
          "type": "uint256"
        }
      ],
      "stateMutability": "view",
      "type": "function"
    },
    {
      "inputs": [],
      "name": "votingPeriod",
      "outputs": [
        {
          "internalType": "uint256",
          "name": "",
          "type": "uint256"
        }
      ],
      "stateMutability": "view",
      "type": "function"
    },
    {
      "stateMutability": "payable",
      "type": "receive"
    }
  ],
  "transactionHash": "0x215b87c4d6b67668d1c4310e3fd28b114753c29e63f6a1d91091a68ef5f8b32e",
  "args": [
    "0xF2995855c111b6688Dd5A093b92Ac53aC6046074",
    "https://bafkreifnnreoxxgkhty7v2w3qwiie6cfxpv3vcco2xldekfvbiem3nm6dm.ipfs.w3s.link/",
    "Test DAO",
    1,
    300,
    1,
    20
  ],
  "numDeployments": 1,
  "solcInputHash": "43414d466d76d4c40f0372c917beeb72",
  "bytecode": "0x610180604052348015610010575f80fd5b506040516146ec3803806146ec83398101604081905261002f91610767565b808785858589806100546040805180820190915260018152603160f81b602082015290565b61005e825f61015f565b6101205261006d81600161015f565b61014052815160208084019190912060e052815190820120610100524660a0526100f960e05161010051604080517f8b73c3c69bb8fe3d512ecc4cf759cc79239f7b179b0ffacaa9a75d522b39400f60208201529081019290925260608201524660808201523060a08201525f9060c00160405160208183030381529060405280519060200120905090565b60805250503060c052600361010e82826108a6565b5061011a905083610191565b610123826101f7565b61012c8161029b565b5050506001600160a01b031661016052610145816102dc565b50600b61015287826108a6565b50505050505050506109f2565b5f60208351101561017a5761017383610371565b905061018b565b8161018584826108a6565b5060ff90505b92915050565b6008546040805165ffffffffffff928316815291831660208301527fc565b045403dc03c2eea82b81a0465edad9e2e7fc4d97e11421c209da93d7a93910160405180910390a16008805465ffffffffffff191665ffffffffffff92909216919091179055565b8063ffffffff165f036102245760405163f1cfbf0560e01b81525f60048201526024015b60405180910390fd5b6008546040805163ffffffff66010000000000009093048316815291831660208301527f7e3f7f0708a84de9203036abaa450dccc85ad5ff52f78c170f3edb55cf5e8828910160405180910390a16008805463ffffffff90921666010000000000000263ffffffff60301b19909216919091179055565b60075460408051918252602082018390527fccb45da8d5717e6c4544694297c4ba5cf151d455c9bb0ed4fc7a38411bc05461910160405180910390a1600755565b6064808211156103095760405163243e544560e01b8152600481018390526024810182905260440161021b565b5f6103126103ae565b905061033161031f6103c7565b61032885610441565b600a9190610478565b505060408051828152602081018590527f0553476bf02ef2726e8ce5ced78d63e26e602e4a2257b1f559418e24b4633997910160405180910390a1505050565b5f80829050601f8151111561039b578260405163305a27a960e01b815260040161021b9190610965565b80516103a682610997565b179392505050565b5f6103b9600a610492565b6001600160d01b0316905090565b5f6103d26101605190565b6001600160a01b03166391ddadf46040518163ffffffff1660e01b8152600401602060405180830381865afa92505050801561042b575060408051601f3d908101601f19168201909252610428918101906109ba565b60015b61043c576104376104da565b905090565b919050565b5f6001600160d01b03821115610474576040516306dfcc6560e41b815260d060048201526024810183905260440161021b565b5090565b5f806104858585856104e4565b915091505b935093915050565b80545f9080156104d1576104b8836104ab6001846109d3565b5f91825260209091200190565b54660100000000000090046001600160d01b03166104d3565b5f5b9392505050565b5f61043743610666565b82545f9081908015610609575f610500876104ab6001856109d3565b60408051808201909152905465ffffffffffff80821680845266010000000000009092046001600160d01b03166020840152919250908716101561055757604051632520601d60e01b815260040160405180910390fd5b805165ffffffffffff8088169116036105a6578461057a886104ab6001866109d3565b80546001600160d01b039290921666010000000000000265ffffffffffff9092169190911790556105f9565b6040805180820190915265ffffffffffff80881682526001600160d01b0380881660208085019182528b54600181018d555f8d815291909120945191519092166601000000000000029216919091179101555b60200151925083915061048a9050565b50506040805180820190915265ffffffffffff80851682526001600160d01b0380851660208085019182528854600181018a555f8a815291822095519251909316660100000000000002919093161792019190915590508161048a565b5f65ffffffffffff821115610474576040516306dfcc6560e41b8152603060048201526024810183905260440161021b565b634e487b7160e01b5f52604160045260245ffd5b5f5b838110156106c65781810151838201526020016106ae565b50505f910152565b5f82601f8301126106dd575f80fd5b81516001600160401b03808211156106f7576106f7610698565b604051601f8301601f19908116603f0116810190828211818310171561071f5761071f610698565b81604052838152866020858801011115610737575f80fd5b6107488460208301602089016106ac565b9695505050505050565b805165ffffffffffff8116811461043c575f80fd5b5f805f805f805f60e0888a03121561077d575f80fd5b87516001600160a01b0381168114610793575f80fd5b60208901519097506001600160401b03808211156107af575f80fd5b6107bb8b838c016106ce565b975060408a01519150808211156107d0575f80fd5b506107dd8a828b016106ce565b9550506107ec60608901610752565b9350608088015163ffffffff81168114610804575f80fd5b8093505060a0880151915060c0880151905092959891949750929550565b600181811c9082168061083657607f821691505b60208210810361085457634e487b7160e01b5f52602260045260245ffd5b50919050565b601f8211156108a157805f5260205f20601f840160051c8101602085101561087f5750805b601f840160051c820191505b8181101561089e575f815560010161088b565b50505b505050565b81516001600160401b038111156108bf576108bf610698565b6108d3816108cd8454610822565b8461085a565b602080601f831160018114610906575f84156108ef5750858301515b5f19600386901b1c1916600185901b17855561095d565b5f85815260208120601f198616915b8281101561093457888601518255948401946001909101908401610915565b508582101561095157878501515f19600388901b60f8161c191681555b505060018460011b0185555b505050505050565b602081525f82518060208401526109838160408501602087016106ac565b601f01601f19169190910160400192915050565b80516020808301519190811015610854575f1960209190910360031b1b16919050565b5f602082840312156109ca575f80fd5b6104d382610752565b8181038181111561018b57634e487b7160e01b5f52601160045260245ffd5b60805160a05160c05160e05161010051610120516101405161016051613c83610a695f395f818161098d01528181610e380152818161137b01528181611f90015261217a01525f611f5d01525f611f3101525f61239901525f61237101525f6122cc01525f6122f601525f6123200152613c835ff3fe60806040526004361061028e575f3560e01c80637d5e81e211610155578063c01f9e37116100be578063e540d01d11610078578063e540d01d146108d8578063eb9019d4146108f7578063ece40cc114610916578063f23a6e6114610935578063f8ce560a14610960578063fc0c546a1461097f575f80fd5b8063c01f9e37146107fb578063c28bc2fa1461081a578063c59057e41461082d578063dd4e2ba51461084c578063deaaa7cc14610891578063e2f3dce0146108c4575f80fd5b80639a802a6d1161010f5780639a802a6d14610734578063a7713a7014610753578063a9a9529414610767578063ab58fb8e14610786578063b58131b0146107bc578063bc197c81146107d0575f80fd5b80637d5e81e21461065d5780637ecebe001461067c57806384b0196e146106b05780638ff262e3146106d757806391ddadf4146106f657806397c3d33414610721575f80fd5b80633e4f49e6116101f757806356781388116101b157806356781388146105a35780635b8d0e0d146105c25780635f398a14146105e157806360c4247f14610600578063790518871461061f5780637b3c71d31461063e575f80fd5b80633e4f49e61461048057806343859632146104ac578063452115d6146104f45780634bf5d7e914610513578063544ffc9c1461052757806354fd4d501461057a575f80fd5b8063160cbed711610248578063160cbed7146103c95780631985ba76146103e85780632656227d146104075780632d63f6931461041a5780632fe3e261146104395780633932abb11461046c575f80fd5b806301ffc9a71461029b57806302a251a3146102cf57806306f3f9e6146102fa57806306fdde0314610319578063143489d01461033a578063150b7a0214610386575f80fd5b3661029757005b005b5f80fd5b3480156102a6575f80fd5b506102ba6102b5366004612c33565b6109b1565b60405190151581526020015b60405180910390f35b3480156102da575f80fd5b50600854600160301b900463ffffffff165b6040519081526020016102c6565b348015610305575f80fd5b50610295610314366004612c5a565b610a07565b348015610324575f80fd5b5061032d610a1b565b6040516102c69190612cbe565b348015610345575f80fd5b5061036e610354366004612c5a565b5f908152600460205260409020546001600160a01b031690565b6040516001600160a01b0390911681526020016102c6565b348015610391575f80fd5b506103b06103a0366004612da2565b630a85bd0160e11b949350505050565b6040516001600160e01b031990911681526020016102c6565b3480156103d4575f80fd5b506102ec6103e3366004612f6b565b610aab565b3480156103f3575f80fd5b50610295610402366004612ff4565b610ae9565b6102ec610415366004612f6b565b610b38565b348015610425575f80fd5b506102ec610434366004612c5a565b610c60565b348015610444575f80fd5b506102ec7f3e83946653575f9a39005e1545185629e92736b7528ab20ca3816f315424a81181565b348015610477575f80fd5b506102ec610c80565b34801561048b575f80fd5b5061049f61049a366004612c5a565b610c92565b6040516102c69190613059565b3480156104b7575f80fd5b506102ba6104c6366004613067565b5f8281526009602090815260408083206001600160a01b038516845260030190915290205460ff1692915050565b3480156104ff575f80fd5b506102ec61050e366004612f6b565b610dc8565b34801561051e575f80fd5b5061032d610e34565b348015610532575f80fd5b5061055f610541366004612c5a565b5f908152600960205260409020805460018201546002909201549092565b604080519384526020840192909252908201526060016102c6565b348015610585575f80fd5b506040805180820190915260018152603160f81b602082015261032d565b3480156105ae575f80fd5b506102ec6105bd3660046130a1565b610ef4565b3480156105cd575f80fd5b506102ec6105dc366004613106565b610f1b565b3480156105ec575f80fd5b506102ec6105fb3660046131b6565b611077565b34801561060b575f80fd5b506102ec61061a366004612c5a565b6110ca565b34801561062a575f80fd5b50610295610639366004613246565b611156565b348015610649575f80fd5b506102ec610658366004613261565b611167565b348015610668575f80fd5b506102ec6106773660046132b6565b6111ad565b348015610687575f80fd5b506102ec61069636600461334f565b6001600160a01b03165f9081526002602052604090205490565b3480156106bb575f80fd5b506106c4611267565b6040516102c697969594939291906133a2565b3480156106e2575f80fd5b506102ec6106f1366004613411565b6112a9565b348015610701575f80fd5b5061070a611378565b60405165ffffffffffff90911681526020016102c6565b34801561072c575f80fd5b5060646102ec565b34801561073f575f80fd5b506102ec61074e36600461345c565b6113ff565b34801561075e575f80fd5b506102ec61140b565b348015610772575f80fd5b506102ba610781366004612c5a565b505f90565b348015610791575f80fd5b506102ec6107a0366004612c5a565b5f9081526004602052604090206001015465ffffffffffff1690565b3480156107c7575f80fd5b506102ec611424565b3480156107db575f80fd5b506103b06107ea3660046134ae565b63bc197c8160e01b95945050505050565b348015610806575f80fd5b506102ec610815366004612c5a565b61142e565b610295610828366004613536565b611470565b348015610838575f80fd5b506102ec610847366004612f6b565b6114ec565b348015610857575f80fd5b506040805180820190915260208082527f737570706f72743d627261766f2671756f72756d3d666f722c6162737461696e9082015261032d565b34801561089c575f80fd5b506102ec7ff2aad550cf55f045cb27e9c559f9889fdfb6e6cdaa032301d6ea397784ae51d781565b3480156108cf575f80fd5b5061032d611525565b3480156108e3575f80fd5b506102956108f2366004613573565b6115b1565b348015610902575f80fd5b506102ec610911366004613596565b6115c2565b348015610921575f80fd5b50610295610930366004612c5a565b6115e8565b348015610940575f80fd5b506103b061094f3660046135be565b63f23a6e6160e01b95945050505050565b34801561096b575f80fd5b506102ec61097a366004612c5a565b6115f9565b34801561098a575f80fd5b507f000000000000000000000000000000000000000000000000000000000000000061036e565b5f6001600160e01b031982166332a2ad4360e11b14806109e157506001600160e01b03198216630271189760e51b145b806109fc57506301ffc9a760e01b6001600160e01b03198316145b92915050565b905090565b610a0f611603565b610a188161163a565b50565b606060038054610a2a9061361d565b80601f0160208091040260200160405190810160405280929190818152602001828054610a569061361d565b8015610aa15780601f10610a7857610100808354040283529160200191610aa1565b820191905f5260205f20905b815481529060010190602001808311610a8457829003601f168201915b5050505050905090565b5f80610ab9868686866114ec565b9050610ace81610ac960046116cf565b6116f1565b505f604051634844252360e11b815260040160405180910390fd5b610af1611603565b600b610afd82826136a1565b507f224d2c7fdc536a5b2a879a07352ceed6752e43069abb2a8444725679666c372e81604051610b2d9190612cbe565b60405180910390a150565b5f80610b46868686866114ec565b9050610b6681610b5660056116cf565b610b6060046116cf565b176116f1565b505f818152600460205260409020805460ff60f01b1916600160f01b17905530610b8d3090565b6001600160a01b031614610c16575f5b8651811015610c1457306001600160a01b0316878281518110610bc257610bc261375c565b60200260200101516001600160a01b031603610c0c57610c0c858281518110610bed57610bed61375c565b602002602001015180519060200120600561172e90919063ffffffff16565b600101610b9d565b505b610c23818787878761179e565b6040518181527f712ae1383f79ac853f8d882153778e0260ef8f03b504e2866e0593e04d2b291f906020015b60405180910390a195945050505050565b5f90815260046020526040902054600160a01b900465ffffffffffff1690565b5f610a0260085465ffffffffffff1690565b5f818152600460205260408120805460ff600160f01b8204811691600160f81b9004168115610cc657506007949350505050565b8015610cd757506002949350505050565b5f610ce186610c60565b9050805f03610d0b57604051636ad0607560e01b8152600481018790526024015b60405180910390fd5b5f610d14611378565b65ffffffffffff169050808210610d3157505f9695505050505050565b5f610d3b8861142e565b9050818110610d5257506001979650505050505050565b610d5b88611873565b1580610d7a57505f888152600960205260409020805460019091015411155b15610d8d57506003979650505050505050565b5f8881526004602052604090206001015465ffffffffffff165f03610dba57506004979650505050505050565b506005979650505050505050565b5f80610dd6868686866114ec565b9050610de581610ac95f6116cf565b505f818152600460205260409020546001600160a01b03163314610e1e5760405163233d98e360e01b8152336004820152602401610d02565b610e2a868686866118a9565b9695505050505050565b60607f00000000000000000000000000000000000000000000000000000000000000006001600160a01b0316634bf5d7e96040518163ffffffff1660e01b81526004015f60405180830381865afa925050508015610eb357506040513d5f823e601f3d908101601f19168201604052610eb09190810190613770565b60015b610eef575060408051808201909152601d81527f6d6f64653d626c6f636b6e756d6265722666726f6d3d64656661756c74000000602082015290565b919050565b5f80339050610f1384828560405180602001604052805f815250611958565b949350505050565b5f80610ffc87610ff67f3e83946653575f9a39005e1545185629e92736b7528ab20ca3816f315424a8118c8c8c610f6e8e6001600160a01b03165f90815260026020526040902080546001810190915590565b8d8d604051610f7e9291906137d8565b60405180910390208c80519060200120604051602001610fdb9796959493929190968752602087019590955260ff9390931660408601526001600160a01b03919091166060850152608084015260a083015260c082015260e00190565b60405160208183030381529060405280519060200120611982565b856119ae565b905080611027576040516394ab6c0760e01b81526001600160a01b0388166004820152602401610d02565b61106a89888a89898080601f0160208091040260200160405190810160405280939291908181526020018383808284375f920191909152508b9250611a03915050565b9998505050505050505050565b5f803390506110bf87828888888080601f0160208091040260200160405190810160405280939291908181526020018383808284375f920191909152508a9250611a03915050565b979650505050505050565b600a80545f9182906110dd6001846137fb565b815481106110ed576110ed61375c565b5f918252602090912001805490915065ffffffffffff811690600160301b90046001600160d01b031685821161112f576001600160d01b031695945050505050565b61114361113b87611add565b600a90611b13565b6001600160d01b03169695505050505050565b61115e611603565b610a1881611bc2565b5f80339050610e2a86828787878080601f0160208091040260200160405190810160405280939291908181526020018383808284375f9201919091525061195892505050565b5f336111b98184611c28565b6111e15760405163d9b3955760e01b81526001600160a01b0382166004820152602401610d02565b5f6112078260016111f0611378565b6111fa919061380e565b65ffffffffffff166115c2565b90505f611212611424565b90508082101561124e57604051636121770b60e11b81526001600160a01b03841660048201526024810183905260448101829052606401610d02565b61125b8888888887611d10565b98975050505050505050565b5f6060805f805f6060611278611f2a565b611280611f56565b604080515f80825260208201909252600f60f81b9b939a50919850469750309650945092509050565b5f8061133384610ff67ff2aad550cf55f045cb27e9c559f9889fdfb6e6cdaa032301d6ea397784ae51d78989896112fc8b6001600160a01b03165f90815260026020526040902080546001810190915590565b60408051602081019690965285019390935260ff90911660608401526001600160a01b0316608083015260a082015260c001610fdb565b90508061135e576040516394ab6c0760e01b81526001600160a01b0385166004820152602401610d02565b610e2a86858760405180602001604052805f815250611958565b5f7f00000000000000000000000000000000000000000000000000000000000000006001600160a01b03166391ddadf46040518163ffffffff1660e01b8152600401602060405180830381865afa9250505080156113f3575060408051601f3d908101601f191682019092526113f091810190613834565b60015b610eef57610a02611f83565b5f610f13848484611f8d565b5f611416600a612020565b6001600160d01b0316905090565b5f610a0260075490565b5f8181526004602052604081205461146290600160d01b810463ffffffff1690600160a01b900465ffffffffffff1661384f565b65ffffffffffff1692915050565b611478611603565b5f80856001600160a01b03168585856040516114959291906137d8565b5f6040518083038185875af1925050503d805f81146114cf576040519150601f19603f3d011682016040523d82523d5f602084013e6114d4565b606091505b50915091506114e38282612057565b50505050505050565b5f8484848460405160200161150494939291906138fe565b60408051601f19818403018152919052805160209091012095945050505050565b600b80546115329061361d565b80601f016020809104026020016040519081016040528092919081815260200182805461155e9061361d565b80156115a95780601f10611580576101008083540402835291602001916115a9565b820191905f5260205f20905b81548152906001019060200180831161158c57829003601f168201915b505050505081565b6115b9611603565b610a1881612073565b5f6115e183836115dc60408051602081019091525f815290565b611f8d565b9392505050565b6115f0611603565b610a188161210f565b5f6109fc82612150565b303314611625576040516347096e4760e01b8152336004820152602401610d02565b565b8061163260056121f7565b036116275750565b6064808211156116675760405163243e544560e01b81526004810183905260248101829052604401610d02565b5f61167061140b565b905061168f61167d611378565b61168685612273565b600a91906122a6565b505060408051828152602081018590527f0553476bf02ef2726e8ce5ced78d63e26e602e4a2257b1f559418e24b4633997910160405180910390a1505050565b5f8160078111156116e2576116e2613025565b600160ff919091161b92915050565b5f806116fc84610c92565b90505f83611709836116cf565b16036115e1578381846040516331b75e4d60e01b8152600401610d0293929190613948565b81546001600160801b03600160801b82048116918116600183019091160361176957604051638acb5f2760e01b815260040160405180910390fd5b6001600160801b038082165f90815260018086016020526040909120939093558354919092018216600160801b029116179055565b5f5b845181101561186b575f808683815181106117bd576117bd61375c565b60200260200101516001600160a01b03168684815181106117e0576117e061375c565b60200260200101518685815181106117fa576117fa61375c565b602002602001015160405161180f919061396a565b5f6040518083038185875af1925050503d805f8114611849576040519150601f19603f3d011682016040523d82523d5f602084013e61184e565b606091505b509150915061185d8282612057565b5050508060010190506117a0565b505050505050565b5f818152600960205260408120600281015460018201546118949190613985565b6118a061097a85610c60565b11159392505050565b5f806118b7868686866114ec565b9050611905816118c760076116cf565b6118d160066116cf565b6118db60026116cf565b60016118e8600782613998565b6118f3906002613a91565b6118fd91906137fb565b1818186116f1565b505f818152600460205260409081902080546001600160f81b0316600160f81b179055517f789cf55be980739dad1d0699b93b58e806b51c9d96619bfa8fe0a28abaa7b30c90610c4f9083815260200190565b5f6119798585858561197460408051602081019091525f815290565b611a03565b95945050505050565b5f6109fc61198e6122c0565b8360405161190160f01b8152600281019290925260228201526042902090565b5f805f6119bb85856123e9565b5090925090505f8160038111156119d4576119d4613025565b1480156119f25750856001600160a01b0316826001600160a01b0316145b80610e2a5750610e2a868686612432565b5f611a1286610ac960016116cf565b505f611a2786611a2189610c60565b85611f8d565b9050611a368787878487612508565b82515f03611a8a57856001600160a01b03167fb8e138887d0aa13bab447e82de9d5c1777041ecd21ca36ba824ff1e6c07ddda488878488604051611a7d9493929190613a9f565b60405180910390a2610e2a565b856001600160a01b03167fe2babfbac5889a709b63bb7f598b324e08bc5a4fb9ec647fb3cbc9ec07eb87128887848888604051611acb959493929190613ac6565b60405180910390a29695505050505050565b5f65ffffffffffff821115611b0f576040516306dfcc6560e41b81526030600482015260248101839052604401610d02565b5090565b81545f9081816005811115611b6f575f611b2c846125fa565b611b3690856137fb565b5f8881526020902090915081015465ffffffffffff9081169087161015611b5f57809150611b6d565b611b6a816001613985565b92505b505b5f611b7c878785856126de565b90508015611bb657611ba087611b936001846137fb565b5f91825260209091200190565b54600160301b90046001600160d01b03166110bf565b5f979650505050505050565b6008546040805165ffffffffffff928316815291831660208301527fc565b045403dc03c2eea82b81a0465edad9e2e7fc4d97e11421c209da93d7a93910160405180910390a16008805465ffffffffffff191665ffffffffffff92909216919091179055565b80515f906034811015611c3f5760019150506109fc565b82810160131901516001600160a01b031981166b046e0e4dee0dee6cae47a60f60a31b14611c72576001925050506109fc565b5f80611c7f6028856137fb565b90505b83811015611cef575f80611cb5888481518110611ca157611ca161375c565b01602001516001600160f81b03191661273d565b9150915081611ccd57600196505050505050506109fc565b8060ff166004856001600160a01b0316901b1793505050806001019050611c82565b50856001600160a01b0316816001600160a01b031614935050505092915050565b5f611d2486868686805190602001206114ec565b905084518651141580611d3957508351865114155b80611d4357508551155b15611d7857855184518651604051630447b05d60e41b8152600481019390935260248301919091526044820152606401610d02565b5f81815260046020526040902054600160a01b900465ffffffffffff1615611dc15780611da482610c92565b6040516331b75e4d60e01b8152610d029291905f90600401613948565b5f611dca610c80565b611dd2611378565b65ffffffffffff16611de49190613985565b90505f611dfe60085463ffffffff600160301b9091041690565b5f84815260046020526040902080546001600160a01b0319166001600160a01b038716178155909150611e3083611add565b815465ffffffffffff91909116600160a01b0265ffffffffffff60a01b19909116178155611e5d826127cd565b815463ffffffff91909116600160d01b0263ffffffff60d01b1990911617815588517f7d84a6263ae0d98d3329bd7b46bb4e8d6f98cd35a7adb45c274c8b7fd5ebd5e090859087908c908c906001600160401b03811115611ec057611ec0612ce6565b604051908082528060200260200182016040528015611ef357816020015b6060815260200190600190039081611ede5790505b508c89611f008a82613985565b8e604051611f1699989796959493929190613aff565b60405180910390a150505095945050505050565b6060610a027f00000000000000000000000000000000000000000000000000000000000000005f6127fd565b6060610a027f000000000000000000000000000000000000000000000000000000000000000060016127fd565b5f610a0243611add565b5f7f0000000000000000000000000000000000000000000000000000000000000000604051630748d63560e31b81526001600160a01b038681166004830152602482018690529190911690633a46b1a890604401602060405180830381865afa158015611ffc573d5f803e3d5ffd5b505050506040513d601f19601f82011682018060405250810190610f139190613bd4565b80545f90801561204f5761203983611b936001846137fb565b54600160301b90046001600160d01b03166115e1565b5f9392505050565b60608261206c57612067826128a6565b6109fc565b50806109fc565b8063ffffffff165f0361209b5760405163f1cfbf0560e01b81525f6004820152602401610d02565b6008546040805163ffffffff600160301b9093048316815291831660208301527f7e3f7f0708a84de9203036abaa450dccc85ad5ff52f78c170f3edb55cf5e8828910160405180910390a16008805463ffffffff909216600160301b0269ffffffff00000000000019909216919091179055565b60075460408051918252602082018390527fccb45da8d5717e6c4544694297c4ba5cf151d455c9bb0ed4fc7a38411bc05461910160405180910390a1600755565b5f606461215c836110ca565b604051632394e7a360e21b8152600481018590526001600160a01b037f00000000000000000000000000000000000000000000000000000000000000001690638e539e8c90602401602060405180830381865afa1580156121bf573d5f803e3d5ffd5b505050506040513d601f19601f820116820180604052508101906121e39190613bd4565b6121ed9190613beb565b6109fc9190613c16565b80545f906001600160801b0380821691600160801b900416810361222e576040516375e52f4f60e01b815260040160405180910390fd5b6001600160801b038181165f908152600185810160205260408220805492905585546fffffffffffffffffffffffffffffffff19169301909116919091179092555090565b5f6001600160d01b03821115611b0f576040516306dfcc6560e41b815260d0600482015260248101839052604401610d02565b5f806122b38585856128cf565b915091505b935093915050565b5f306001600160a01b037f00000000000000000000000000000000000000000000000000000000000000001614801561231857507f000000000000000000000000000000000000000000000000000000000000000046145b1561234257507f000000000000000000000000000000000000000000000000000000000000000090565b610a02604080517f8b73c3c69bb8fe3d512ecc4cf759cc79239f7b179b0ffacaa9a75d522b39400f60208201527f0000000000000000000000000000000000000000000000000000000000000000918101919091527f000000000000000000000000000000000000000000000000000000000000000060608201524660808201523060a08201525f9060c00160405160208183030381529060405280519060200120905090565b5f805f8351604103612420576020840151604085015160608601515f1a61241288828585612a45565b95509550955050505061242b565b505081515f91506002905b9250925092565b5f805f856001600160a01b03168585604051602401612452929190613c35565b60408051601f198184030181529181526020820180516001600160e01b0316630b135d3f60e11b17905251612487919061396a565b5f60405180830381855afa9150503d805f81146124bf576040519150601f19603f3d011682016040523d82523d5f602084013e6124c4565b606091505b50915091508180156124d857506020815110155b8015610e2a57508051630b135d3f60e11b906124fd9083016020908101908401613bd4565b149695505050505050565b5f8581526009602090815260408083206001600160a01b0388168452600381019092529091205460ff161561255b576040516371c6af4960e01b81526001600160a01b0386166004820152602401610d02565b6001600160a01b0385165f9081526003820160205260409020805460ff1916600117905560ff84166125a45782815f015f8282546125999190613985565b9091555061186b9050565b5f1960ff8516016125c25782816001015f8282546125999190613985565b60011960ff8516016125e15782816002015f8282546125999190613985565b6040516303599be160e11b815260040160405180910390fd5b5f815f0361260957505f919050565b5f600161261584612b0d565b901c6001901b9050600181848161262e5761262e613c02565b048201901c9050600181848161264657612646613c02565b048201901c9050600181848161265e5761265e613c02565b048201901c9050600181848161267657612676613c02565b048201901c9050600181848161268e5761268e613c02565b048201901c905060018184816126a6576126a6613c02565b048201901c905060018184816126be576126be613c02565b048201901c90506115e1818285816126d8576126d8613c02565b04612ba0565b5f5b81831015612735575f6126f38484612bb5565b5f8781526020902090915065ffffffffffff86169082015465ffffffffffff1611156127215780925061272f565b61272c816001613985565b93505b506126e0565b509392505050565b5f8060f883901c602f811180156127575750603a8160ff16105b1561276c57600194602f199091019350915050565b8060ff166040108015612782575060478160ff16105b15612797576001946036199091019350915050565b8060ff1660601080156127ad575060678160ff16105b156127c2576001946056199091019350915050565b505f93849350915050565b5f63ffffffff821115611b0f576040516306dfcc6560e41b81526020600482015260248101839052604401610d02565b606060ff83146128175761281083612bcf565b90506109fc565b8180546128239061361d565b80601f016020809104026020016040519081016040528092919081815260200182805461284f9061361d565b801561289a5780601f106128715761010080835404028352916020019161289a565b820191905f5260205f20905b81548152906001019060200180831161287d57829003601f168201915b505050505090506109fc565b8051156128b65780518082602001fd5b604051630a12f52160e11b815260040160405180910390fd5b82545f90819080156129eb575f6128eb87611b936001856137fb565b60408051808201909152905465ffffffffffff808216808452600160301b9092046001600160d01b03166020840152919250908716101561293f57604051632520601d60e01b815260040160405180910390fd5b805165ffffffffffff80881691160361298b578461296288611b936001866137fb565b80546001600160d01b0392909216600160301b0265ffffffffffff9092169190911790556129db565b6040805180820190915265ffffffffffff80881682526001600160d01b0380881660208085019182528b54600181018d555f8d81529190912094519151909216600160301b029216919091179101555b6020015192508391506122b89050565b50506040805180820190915265ffffffffffff80851682526001600160d01b0380851660208085019182528854600181018a555f8a815291822095519251909316600160301b0291909316179201919091559050816122b8565b5f80807f7fffffffffffffffffffffffffffffff5d576e7357a4501ddfe92f46681b20a0841115612a7e57505f91506003905082612b03565b604080515f808252602082018084528a905260ff891692820192909252606081018790526080810186905260019060a0016020604051602081039080840390855afa158015612acf573d5f803e3d5ffd5b5050604051601f1901519150506001600160a01b038116612afa57505f925060019150829050612b03565b92505f91508190505b9450945094915050565b5f80608083901c15612b2157608092831c92015b604083901c15612b3357604092831c92015b602083901c15612b4557602092831c92015b601083901c15612b5757601092831c92015b600883901c15612b6957600892831c92015b600483901c15612b7b57600492831c92015b600283901c15612b8d57600292831c92015b600183901c156109fc5760010192915050565b5f818310612bae57816115e1565b5090919050565b5f612bc36002848418613c16565b6115e190848416613985565b60605f612bdb83612c0c565b6040805160208082528183019092529192505f91906020820181803683375050509182525060208101929092525090565b5f60ff8216601f8111156109fc57604051632cd44ac360e21b815260040160405180910390fd5b5f60208284031215612c43575f80fd5b81356001600160e01b0319811681146115e1575f80fd5b5f60208284031215612c6a575f80fd5b5035919050565b5f5b83811015612c8b578181015183820152602001612c73565b50505f910152565b5f8151808452612caa816020860160208601612c71565b601f01601f19169290920160200192915050565b602081525f6115e16020830184612c93565b80356001600160a01b0381168114610eef575f80fd5b634e487b7160e01b5f52604160045260245ffd5b604051601f8201601f191681016001600160401b0381118282101715612d2257612d22612ce6565b604052919050565b5f6001600160401b03821115612d4257612d42612ce6565b50601f01601f191660200190565b5f82601f830112612d5f575f80fd5b8135612d72612d6d82612d2a565b612cfa565b818152846020838601011115612d86575f80fd5b816020850160208301375f918101602001919091529392505050565b5f805f8060808587031215612db5575f80fd5b612dbe85612cd0565b9350612dcc60208601612cd0565b92506040850135915060608501356001600160401b03811115612ded575f80fd5b612df987828801612d50565b91505092959194509250565b5f6001600160401b03821115612e1d57612e1d612ce6565b5060051b60200190565b5f82601f830112612e36575f80fd5b81356020612e46612d6d83612e05565b8083825260208201915060208460051b870101935086841115612e67575f80fd5b602086015b84811015612e8a57612e7d81612cd0565b8352918301918301612e6c565b509695505050505050565b5f82601f830112612ea4575f80fd5b81356020612eb4612d6d83612e05565b8083825260208201915060208460051b870101935086841115612ed5575f80fd5b602086015b84811015612e8a5780358352918301918301612eda565b5f82601f830112612f00575f80fd5b81356020612f10612d6d83612e05565b82815260059290921b84018101918181019086841115612f2e575f80fd5b8286015b84811015612e8a5780356001600160401b03811115612f4f575f80fd5b612f5d8986838b0101612d50565b845250918301918301612f32565b5f805f8060808587031215612f7e575f80fd5b84356001600160401b0380821115612f94575f80fd5b612fa088838901612e27565b95506020870135915080821115612fb5575f80fd5b612fc188838901612e95565b94506040870135915080821115612fd6575f80fd5b50612fe387828801612ef1565b949793965093946060013593505050565b5f60208284031215613004575f80fd5b81356001600160401b03811115613019575f80fd5b610f1384828501612d50565b634e487b7160e01b5f52602160045260245ffd5b6008811061305557634e487b7160e01b5f52602160045260245ffd5b9052565b602081016109fc8284613039565b5f8060408385031215613078575f80fd5b8235915061308860208401612cd0565b90509250929050565b803560ff81168114610eef575f80fd5b5f80604083850312156130b2575f80fd5b8235915061308860208401613091565b5f8083601f8401126130d2575f80fd5b5081356001600160401b038111156130e8575f80fd5b6020830191508360208285010111156130ff575f80fd5b9250929050565b5f805f805f805f60c0888a03121561311c575f80fd5b8735965061312c60208901613091565b955061313a60408901612cd0565b945060608801356001600160401b0380821115613155575f80fd5b6131618b838c016130c2565b909650945060808a0135915080821115613179575f80fd5b6131858b838c01612d50565b935060a08a013591508082111561319a575f80fd5b506131a78a828b01612d50565b91505092959891949750929550565b5f805f805f608086880312156131ca575f80fd5b853594506131da60208701613091565b935060408601356001600160401b03808211156131f5575f80fd5b61320189838a016130c2565b90955093506060880135915080821115613219575f80fd5b5061322688828901612d50565b9150509295509295909350565b65ffffffffffff81168114610a18575f80fd5b5f60208284031215613256575f80fd5b81356115e181613233565b5f805f8060608587031215613274575f80fd5b8435935061328460208601613091565b925060408501356001600160401b0381111561329e575f80fd5b6132aa878288016130c2565b95989497509550505050565b5f805f80608085870312156132c9575f80fd5b84356001600160401b03808211156132df575f80fd5b6132eb88838901612e27565b95506020870135915080821115613300575f80fd5b61330c88838901612e95565b94506040870135915080821115613321575f80fd5b61332d88838901612ef1565b93506060870135915080821115613342575f80fd5b50612df987828801612d50565b5f6020828403121561335f575f80fd5b6115e182612cd0565b5f815180845260208085019450602084015f5b838110156133975781518752958201959082019060010161337b565b509495945050505050565b60ff60f81b8816815260e060208201525f6133c060e0830189612c93565b82810360408401526133d28189612c93565b606084018890526001600160a01b038716608085015260a0840186905283810360c085015290506134038185613368565b9a9950505050505050505050565b5f805f8060808587031215613424575f80fd5b8435935061343460208601613091565b925061344260408601612cd0565b915060608501356001600160401b03811115612ded575f80fd5b5f805f6060848603121561346e575f80fd5b61347784612cd0565b92506020840135915060408401356001600160401b03811115613498575f80fd5b6134a486828701612d50565b9150509250925092565b5f805f805f60a086880312156134c2575f80fd5b6134cb86612cd0565b94506134d960208701612cd0565b935060408601356001600160401b03808211156134f4575f80fd5b61350089838a01612e95565b94506060880135915080821115613515575f80fd5b61352189838a01612e95565b93506080880135915080821115613219575f80fd5b5f805f8060608587031215613549575f80fd5b61355285612cd0565b93506020850135925060408501356001600160401b0381111561329e575f80fd5b5f60208284031215613583575f80fd5b813563ffffffff811681146115e1575f80fd5b5f80604083850312156135a7575f80fd5b6135b083612cd0565b946020939093013593505050565b5f805f805f60a086880312156135d2575f80fd5b6135db86612cd0565b94506135e960208701612cd0565b9350604086013592506060860135915060808601356001600160401b03811115613611575f80fd5b61322688828901612d50565b600181811c9082168061363157607f821691505b60208210810361364f57634e487b7160e01b5f52602260045260245ffd5b50919050565b601f82111561369c57805f5260205f20601f840160051c8101602085101561367a5750805b601f840160051c820191505b81811015613699575f8155600101613686565b50505b505050565b81516001600160401b038111156136ba576136ba612ce6565b6136ce816136c8845461361d565b84613655565b602080601f831160018114613701575f84156136ea5750858301515b5f19600386901b1c1916600185901b17855561186b565b5f85815260208120601f198616915b8281101561372f57888601518255948401946001909101908401613710565b508582101561374c57878501515f19600388901b60f8161c191681555b5050505050600190811b01905550565b634e487b7160e01b5f52603260045260245ffd5b5f60208284031215613780575f80fd5b81516001600160401b03811115613795575f80fd5b8201601f810184136137a5575f80fd5b80516137b3612d6d82612d2a565b8181528560208385010111156137c7575f80fd5b611979826020830160208601612c71565b818382375f9101908152919050565b634e487b7160e01b5f52601160045260245ffd5b818103818111156109fc576109fc6137e7565b65ffffffffffff82811682821603908082111561382d5761382d6137e7565b5092915050565b5f60208284031215613844575f80fd5b81516115e181613233565b65ffffffffffff81811683821601908082111561382d5761382d6137e7565b5f815180845260208085019450602084015f5b838110156133975781516001600160a01b031687529582019590820190600101613881565b5f8282518085526020808601955060208260051b840101602086015f5b848110156138f157601f198684030189526138df838351612c93565b988401989250908301906001016138c3565b5090979650505050505050565b608081525f613910608083018761386e565b82810360208401526139228187613368565b9050828103604084015261393681866138a6565b91505082606083015295945050505050565b8381526060810161395c6020830185613039565b826040830152949350505050565b5f825161397b818460208701612c71565b9190910192915050565b808201808211156109fc576109fc6137e7565b60ff81811683821601908111156109fc576109fc6137e7565b600181815b808511156139eb57815f19048211156139d1576139d16137e7565b808516156139de57918102915b93841c93908002906139b6565b509250929050565b5f82613a01575060016109fc565b81613a0d57505f6109fc565b8160018114613a235760028114613a2d57613a49565b60019150506109fc565b60ff841115613a3e57613a3e6137e7565b50506001821b6109fc565b5060208310610133831016604e8410600b8410161715613a6c575081810a6109fc565b613a7683836139b1565b805f1904821115613a8957613a896137e7565b029392505050565b5f6115e160ff8416836139f3565b84815260ff84166020820152826040820152608060608201525f610e2a6080830184612c93565b85815260ff8516602082015283604082015260a060608201525f613aed60a0830185612c93565b828103608084015261125b8185612c93565b5f6101208b8352602060018060a01b038c1681850152816040850152613b278285018c61386e565b91508382036060850152613b3b828b613368565b915083820360808501528189518084528284019150828160051b850101838c015f5b83811015613b8b57601f19878403018552613b79838351612c93565b94860194925090850190600101613b5d565b505086810360a0880152613b9f818c6138a6565b9450505050508560c08401528460e0840152828103610100840152613bc48185612c93565b9c9b505050505050505050505050565b5f60208284031215613be4575f80fd5b5051919050565b80820281158282048414176109fc576109fc6137e7565b634e487b7160e01b5f52601260045260245ffd5b5f82613c3057634e487b7160e01b5f52601260045260245ffd5b500490565b828152604060208201525f610f136040830184612c9356fea26469706673582212205ded00c8465301ee0d707abb9f0771c05352b6c06c00afb8e8b6e2f6b16f257b64736f6c63430008190033",
  "devdoc": {
    "errors": {
      "CheckpointUnorderedInsertion()": [
        {
          "details": "A value was attempted to be inserted on a past checkpoint."
        }
      ],
      "FailedInnerCall()": [
        {
          "details": "A call to an address target failed. The target may have reverted."
        }
      ],
      "GovernorAlreadyCastVote(address)": [
        {
          "details": "The vote was already cast."
        }
      ],
      "GovernorAlreadyQueuedProposal(uint256)": [
        {
          "details": "The proposal has already been queued."
        }
      ],
      "GovernorDisabledDeposit()": [
        {
          "details": "Token deposits are disabled in this contract."
        }
      ],
      "GovernorInsufficientProposerVotes(address,uint256,uint256)": [
        {
          "details": "The `proposer` does not have the required votes to create a proposal."
        }
      ],
      "GovernorInvalidProposalLength(uint256,uint256,uint256)": [
        {
          "details": "Empty proposal or a mismatch between the parameters length for a proposal call."
        }
      ],
      "GovernorInvalidQuorumFraction(uint256,uint256)": [
        {
          "details": "The quorum set is not a valid fraction."
        }
      ],
      "GovernorInvalidSignature(address)": [
        {
          "details": "The provided signature is not valid for the expected `voter`. If the `voter` is a contract, the signature is not valid using {IERC1271-isValidSignature}."
        }
      ],
      "GovernorInvalidVoteType()": [
        {
          "details": "The vote type used is not valid for the corresponding counting module."
        }
      ],
      "GovernorInvalidVotingPeriod(uint256)": [
        {
          "details": "The voting period set is not a valid period."
        }
      ],
      "GovernorNonexistentProposal(uint256)": [
        {
          "details": "The `proposalId` doesn't exist."
        }
      ],
      "GovernorNotQueuedProposal(uint256)": [
        {
          "details": "The proposal hasn't been queued yet."
        }
      ],
      "GovernorOnlyExecutor(address)": [
        {
          "details": "The `account` is not the governance executor."
        }
      ],
      "GovernorOnlyProposer(address)": [
        {
          "details": "The `account` is not a proposer."
        }
      ],
      "GovernorQueueNotImplemented()": [
        {
          "details": "Queue operation is not implemented for this governor. Execute should be called directly."
        }
      ],
      "GovernorRestrictedProposer(address)": [
        {
          "details": "The `proposer` is not allowed to create a proposal."
        }
      ],
      "GovernorUnexpectedProposalState(uint256,uint8,bytes32)": [
        {
          "details": "The current state of a proposal is not the required for performing an operation. The `expectedStates` is a bitmap with the bits enabled for each ProposalState enum position counting from right to left. NOTE: If `expectedState` is `bytes32(0)`, the proposal is expected to not be in any state (i.e. not exist). This is the case when a proposal that is expected to be unset is already initiated (the proposal is duplicated). See {Governor-_encodeStateBitmap}."
        }
      ],
      "InvalidAccountNonce(address,uint256)": [
        {
          "details": "The nonce used for an `account` is not the expected current nonce."
        }
      ],
      "QueueEmpty()": [
        {
          "details": "An operation (e.g. {front}) couldn't be completed due to the queue being empty."
        }
      ],
      "QueueFull()": [
        {
          "details": "A push operation couldn't be completed due to the queue being full."
        }
      ],
      "SafeCastOverflowedUintDowncast(uint8,uint256)": [
        {
          "details": "Value doesn't fit in an uint of `bits` size."
        }
      ]
    },
    "events": {
      "EIP712DomainChanged()": {
        "details": "MAY be emitted to signal that the domain could have changed."
      },
      "ProposalCanceled(uint256)": {
        "details": "Emitted when a proposal is canceled."
      },
      "ProposalCreated(uint256,address,address[],uint256[],string[],bytes[],uint256,uint256,string)": {
        "details": "Emitted when a proposal is created."
      },
      "ProposalExecuted(uint256)": {
        "details": "Emitted when a proposal is executed."
      },
      "ProposalQueued(uint256,uint256)": {
        "details": "Emitted when a proposal is queued."
      },
      "VoteCast(address,uint256,uint8,uint256,string)": {
        "details": "Emitted when a vote is cast without params. Note: `support` values should be seen as buckets. Their interpretation depends on the voting module used."
      },
      "VoteCastWithParams(address,uint256,uint8,uint256,string,bytes)": {
        "details": "Emitted when a vote is cast with params. Note: `support` values should be seen as buckets. Their interpretation depends on the voting module used. `params` are additional encoded parameters. Their interpepretation also depends on the voting module used."
      }
    },
    "kind": "dev",
    "methods": {
      "CLOCK_MODE()": {
        "details": "Machine-readable description of the clock as specified in EIP-6372."
      },
      "COUNTING_MODE()": {
        "details": "See {IGovernor-COUNTING_MODE}."
      },
      "cancel(address[],uint256[],bytes[],bytes32)": {
        "details": "See {IGovernor-cancel}."
      },
      "castVote(uint256,uint8)": {
        "details": "See {IGovernor-castVote}."
      },
      "castVoteBySig(uint256,uint8,address,bytes)": {
        "details": "See {IGovernor-castVoteBySig}."
      },
      "castVoteWithReason(uint256,uint8,string)": {
        "details": "See {IGovernor-castVoteWithReason}."
      },
      "castVoteWithReasonAndParams(uint256,uint8,string,bytes)": {
        "details": "See {IGovernor-castVoteWithReasonAndParams}."
      },
      "castVoteWithReasonAndParamsBySig(uint256,uint8,address,string,bytes,bytes)": {
        "details": "See {IGovernor-castVoteWithReasonAndParamsBySig}."
      },
      "clock()": {
        "details": "Clock (as specified in EIP-6372) is set to match the token's clock. Fallback to block numbers if the token does not implement EIP-6372."
      },
      "eip712Domain()": {
        "details": "See {IERC-5267}."
      },
      "execute(address[],uint256[],bytes[],bytes32)": {
        "details": "See {IGovernor-execute}."
      },
      "getVotes(address,uint256)": {
        "details": "See {IGovernor-getVotes}."
      },
      "getVotesWithParams(address,uint256,bytes)": {
        "details": "See {IGovernor-getVotesWithParams}."
      },
      "hasVoted(uint256,address)": {
        "details": "See {IGovernor-hasVoted}."
      },
      "hashProposal(address[],uint256[],bytes[],bytes32)": {
        "details": "See {IGovernor-hashProposal}. The proposal id is produced by hashing the ABI encoded `targets` array, the `values` array, the `calldatas` array and the descriptionHash (bytes32 which itself is the keccak256 hash of the description string). This proposal id can be produced from the proposal data which is part of the {ProposalCreated} event. It can even be computed in advance, before the proposal is submitted. Note that the chainId and the governor address are not part of the proposal id computation. Consequently, the same proposal (with same operation and same description) will have the same id if submitted on multiple governors across multiple networks. This also means that in order to execute the same operation twice (on the same governor) the proposer will have to change the description in order to avoid proposal id conflicts."
      },
      "name()": {
        "details": "See {IGovernor-name}."
      },
      "nonces(address)": {
        "details": "Returns the next unused nonce for an address."
      },
      "onERC1155BatchReceived(address,address,uint256[],uint256[],bytes)": {
        "details": "See {IERC1155Receiver-onERC1155BatchReceived}. Receiving tokens is disabled if the governance executor is other than the governor itself (eg. when using with a timelock)."
      },
      "onERC1155Received(address,address,uint256,uint256,bytes)": {
        "details": "See {IERC1155Receiver-onERC1155Received}. Receiving tokens is disabled if the governance executor is other than the governor itself (eg. when using with a timelock)."
      },
      "onERC721Received(address,address,uint256,bytes)": {
        "details": "See {IERC721Receiver-onERC721Received}. Receiving tokens is disabled if the governance executor is other than the governor itself (eg. when using with a timelock)."
      },
      "proposalDeadline(uint256)": {
        "details": "See {IGovernor-proposalDeadline}."
      },
      "proposalEta(uint256)": {
        "details": "See {IGovernor-proposalEta}."
      },
      "proposalNeedsQueuing(uint256)": {
        "details": "See {IGovernor-proposalNeedsQueuing}."
      },
      "proposalProposer(uint256)": {
        "details": "See {IGovernor-proposalProposer}."
      },
      "proposalSnapshot(uint256)": {
        "details": "See {IGovernor-proposalSnapshot}."
      },
      "proposalVotes(uint256)": {
        "details": "Accessor to the internal vote counts."
      },
      "propose(address[],uint256[],bytes[],string)": {
        "details": "See {IGovernor-propose}. This function has opt-in frontrunning protection, described in {_isValidDescriptionForProposer}."
      },
      "queue(address[],uint256[],bytes[],bytes32)": {
        "details": "See {IGovernor-queue}."
      },
      "quorumDenominator()": {
        "details": "Returns the quorum denominator. Defaults to 100, but may be overridden."
      },
      "quorumNumerator()": {
        "details": "Returns the current quorum numerator. See {quorumDenominator}."
      },
      "quorumNumerator(uint256)": {
        "details": "Returns the quorum numerator at a specific timepoint. See {quorumDenominator}."
      },
      "relay(address,uint256,bytes)": {
        "details": "Relays a transaction or function call to an arbitrary target. In cases where the governance executor is some contract other than the governor itself, like when using a timelock, this function can be invoked in a governance proposal to recover tokens or Ether that was sent to the governor contract by mistake. Note that if the executor is simply the governor itself, use of `relay` is redundant."
      },
      "setManifesto(string)": {
        "details": "Must include the DAO mission statement",
        "params": {
          "cid": "The CID of the new manifesto"
        }
      },
      "setProposalThreshold(uint256)": {
        "details": "Update the proposal threshold. This operation can only be performed through a governance proposal. Emits a {ProposalThresholdSet} event."
      },
      "setVotingDelay(uint48)": {
        "details": "Update the voting delay. This operation can only be performed through a governance proposal. Emits a {VotingDelaySet} event."
      },
      "setVotingPeriod(uint32)": {
        "details": "Update the voting period. This operation can only be performed through a governance proposal. Emits a {VotingPeriodSet} event."
      },
      "state(uint256)": {
        "details": "See {IGovernor-state}."
      },
      "supportsInterface(bytes4)": {
        "details": "See {IERC165-supportsInterface}."
      },
      "token()": {
        "details": "The token that voting power is sourced from."
      },
      "updateQuorumNumerator(uint256)": {
        "details": "Changes the quorum numerator. Emits a {QuorumNumeratorUpdated} event. Requirements: - Must be called through a governance proposal. - New numerator must be smaller or equal to the denominator."
      },
      "version()": {
        "details": "See {IGovernor-version}."
      }
    },
    "version": 1
  },
  "userdoc": {
    "kind": "user",
    "methods": {
      "setManifesto(string)": {
        "notice": "Replaces the CID of the manifesto"
      }
    },
    "version": 1
  },
  "storageLayout": {
    "storage": [
      {
        "astId": 7180,
        "contract": "contracts/Gov.sol:Gov",
        "label": "_nameFallback",
        "offset": 0,
        "slot": "0",
        "type": "t_string_storage"
      },
      {
        "astId": 7182,
        "contract": "contracts/Gov.sol:Gov",
        "label": "_versionFallback",
        "offset": 0,
        "slot": "1",
        "type": "t_string_storage"
      },
      {
        "astId": 6159,
        "contract": "contracts/Gov.sol:Gov",
        "label": "_nonces",
        "offset": 0,
        "slot": "2",
        "type": "t_mapping(t_address,t_uint256)"
      },
      {
        "astId": 237,
        "contract": "contracts/Gov.sol:Gov",
        "label": "_name",
        "offset": 0,
        "slot": "3",
        "type": "t_string_storage"
      },
      {
        "astId": 242,
        "contract": "contracts/Gov.sol:Gov",
        "label": "_proposals",
        "offset": 0,
        "slot": "4",
        "type": "t_mapping(t_uint256,t_struct(ProposalCore)215_storage)"
      },
      {
        "astId": 245,
        "contract": "contracts/Gov.sol:Gov",
        "label": "_governanceCall",
        "offset": 0,
        "slot": "5",
        "type": "t_struct(Bytes32Deque)12089_storage"
      },
      {
        "astId": 2647,
        "contract": "contracts/Gov.sol:Gov",
        "label": "_proposalThreshold",
        "offset": 0,
        "slot": "7",
        "type": "t_uint256"
      },
      {
        "astId": 2649,
        "contract": "contracts/Gov.sol:Gov",
        "label": "_votingDelay",
        "offset": 0,
        "slot": "8",
        "type": "t_uint48"
      },
      {
        "astId": 2651,
        "contract": "contracts/Gov.sol:Gov",
        "label": "_votingPeriod",
        "offset": 6,
        "slot": "8",
        "type": "t_uint32"
      },
      {
        "astId": 2438,
        "contract": "contracts/Gov.sol:Gov",
        "label": "_proposalVotes",
        "offset": 0,
        "slot": "9",
        "type": "t_mapping(t_uint256,t_struct(ProposalVote)2433_storage)"
      },
      {
        "astId": 2953,
        "contract": "contracts/Gov.sol:Gov",
        "label": "_quorumNumeratorHistory",
        "offset": 0,
        "slot": "10",
        "type": "t_struct(Trace208)11029_storage"
      },
      {
        "astId": 12695,
        "contract": "contracts/Gov.sol:Gov",
        "label": "manifesto",
        "offset": 0,
        "slot": "11",
        "type": "t_string_storage"
      }
    ],
    "types": {
      "t_address": {
        "encoding": "inplace",
        "label": "address",
        "numberOfBytes": "20"
      },
      "t_array(t_struct(Checkpoint208)11034_storage)dyn_storage": {
        "base": "t_struct(Checkpoint208)11034_storage",
        "encoding": "dynamic_array",
        "label": "struct Checkpoints.Checkpoint208[]",
        "numberOfBytes": "32"
      },
      "t_bool": {
        "encoding": "inplace",
        "label": "bool",
        "numberOfBytes": "1"
      },
      "t_bytes32": {
        "encoding": "inplace",
        "label": "bytes32",
        "numberOfBytes": "32"
      },
      "t_mapping(t_address,t_bool)": {
        "encoding": "mapping",
        "key": "t_address",
        "label": "mapping(address => bool)",
        "numberOfBytes": "32",
        "value": "t_bool"
      },
      "t_mapping(t_address,t_uint256)": {
        "encoding": "mapping",
        "key": "t_address",
        "label": "mapping(address => uint256)",
        "numberOfBytes": "32",
        "value": "t_uint256"
      },
      "t_mapping(t_uint128,t_bytes32)": {
        "encoding": "mapping",
        "key": "t_uint128",
        "label": "mapping(uint128 => bytes32)",
        "numberOfBytes": "32",
        "value": "t_bytes32"
      },
      "t_mapping(t_uint256,t_struct(ProposalCore)215_storage)": {
        "encoding": "mapping",
        "key": "t_uint256",
        "label": "mapping(uint256 => struct Governor.ProposalCore)",
        "numberOfBytes": "32",
        "value": "t_struct(ProposalCore)215_storage"
      },
      "t_mapping(t_uint256,t_struct(ProposalVote)2433_storage)": {
        "encoding": "mapping",
        "key": "t_uint256",
        "label": "mapping(uint256 => struct GovernorCountingSimple.ProposalVote)",
        "numberOfBytes": "32",
        "value": "t_struct(ProposalVote)2433_storage"
      },
      "t_string_storage": {
        "encoding": "bytes",
        "label": "string",
        "numberOfBytes": "32"
      },
      "t_struct(Bytes32Deque)12089_storage": {
        "encoding": "inplace",
        "label": "struct DoubleEndedQueue.Bytes32Deque",
        "members": [
          {
            "astId": 12082,
            "contract": "contracts/Gov.sol:Gov",
            "label": "_begin",
            "offset": 0,
            "slot": "0",
            "type": "t_uint128"
          },
          {
            "astId": 12084,
            "contract": "contracts/Gov.sol:Gov",
            "label": "_end",
            "offset": 16,
            "slot": "0",
            "type": "t_uint128"
          },
          {
            "astId": 12088,
            "contract": "contracts/Gov.sol:Gov",
            "label": "_data",
            "offset": 0,
            "slot": "1",
            "type": "t_mapping(t_uint128,t_bytes32)"
          }
        ],
        "numberOfBytes": "64"
      },
      "t_struct(Checkpoint208)11034_storage": {
        "encoding": "inplace",
        "label": "struct Checkpoints.Checkpoint208",
        "members": [
          {
            "astId": 11031,
            "contract": "contracts/Gov.sol:Gov",
            "label": "_key",
            "offset": 0,
            "slot": "0",
            "type": "t_uint48"
          },
          {
            "astId": 11033,
            "contract": "contracts/Gov.sol:Gov",
            "label": "_value",
            "offset": 6,
            "slot": "0",
            "type": "t_uint208"
          }
        ],
        "numberOfBytes": "32"
      },
      "t_struct(ProposalCore)215_storage": {
        "encoding": "inplace",
        "label": "struct Governor.ProposalCore",
        "members": [
          {
            "astId": 204,
            "contract": "contracts/Gov.sol:Gov",
            "label": "proposer",
            "offset": 0,
            "slot": "0",
            "type": "t_address"
          },
          {
            "astId": 206,
            "contract": "contracts/Gov.sol:Gov",
            "label": "voteStart",
            "offset": 20,
            "slot": "0",
            "type": "t_uint48"
          },
          {
            "astId": 208,
            "contract": "contracts/Gov.sol:Gov",
            "label": "voteDuration",
            "offset": 26,
            "slot": "0",
            "type": "t_uint32"
          },
          {
            "astId": 210,
            "contract": "contracts/Gov.sol:Gov",
            "label": "executed",
            "offset": 30,
            "slot": "0",
            "type": "t_bool"
          },
          {
            "astId": 212,
            "contract": "contracts/Gov.sol:Gov",
            "label": "canceled",
            "offset": 31,
            "slot": "0",
            "type": "t_bool"
          },
          {
            "astId": 214,
            "contract": "contracts/Gov.sol:Gov",
            "label": "etaSeconds",
            "offset": 0,
            "slot": "1",
            "type": "t_uint48"
          }
        ],
        "numberOfBytes": "64"
      },
      "t_struct(ProposalVote)2433_storage": {
        "encoding": "inplace",
        "label": "struct GovernorCountingSimple.ProposalVote",
        "members": [
          {
            "astId": 2424,
            "contract": "contracts/Gov.sol:Gov",
            "label": "againstVotes",
            "offset": 0,
            "slot": "0",
            "type": "t_uint256"
          },
          {
            "astId": 2426,
            "contract": "contracts/Gov.sol:Gov",
            "label": "forVotes",
            "offset": 0,
            "slot": "1",
            "type": "t_uint256"
          },
          {
            "astId": 2428,
            "contract": "contracts/Gov.sol:Gov",
            "label": "abstainVotes",
            "offset": 0,
            "slot": "2",
            "type": "t_uint256"
          },
          {
            "astId": 2432,
            "contract": "contracts/Gov.sol:Gov",
            "label": "hasVoted",
            "offset": 0,
            "slot": "3",
            "type": "t_mapping(t_address,t_bool)"
          }
        ],
        "numberOfBytes": "128"
      },
      "t_struct(Trace208)11029_storage": {
        "encoding": "inplace",
        "label": "struct Checkpoints.Trace208",
        "members": [
          {
            "astId": 11028,
            "contract": "contracts/Gov.sol:Gov",
            "label": "_checkpoints",
            "offset": 0,
            "slot": "0",
            "type": "t_array(t_struct(Checkpoint208)11034_storage)dyn_storage"
          }
        ],
        "numberOfBytes": "32"
      },
      "t_uint128": {
        "encoding": "inplace",
        "label": "uint128",
        "numberOfBytes": "16"
      },
      "t_uint208": {
        "encoding": "inplace",
        "label": "uint208",
        "numberOfBytes": "26"
      },
      "t_uint256": {
        "encoding": "inplace",
        "label": "uint256",
        "numberOfBytes": "32"
      },
      "t_uint32": {
        "encoding": "inplace",
        "label": "uint32",
        "numberOfBytes": "4"
      },
      "t_uint48": {
        "encoding": "inplace",
        "label": "uint48",
        "numberOfBytes": "6"
      }
    }
  }
}