{
  "address": "0xF2995855c111b6688Dd5A093b92Ac53aC6046074",
  "abi": [
    {
      "inputs": [
        {
          "internalType": "address",
          "name": "initialOwner",
          "type": "address"
        },
        {
          "internalType": "address[]",
          "name": "_firstMembers",
          "type": "address[]"
        },
        {
          "internalType": "string",
          "name": "_uri",
          "type": "string"
        },
        {
          "internalType": "string",
          "name": "_name",
          "type": "string"
        },
        {
          "internalType": "string",
          "name": "_symbol",
          "type": "string"
        }
      ],
      "stateMutability": "nonpayable",
      "type": "constructor"
    },
    {
      "inputs": [],
      "name": "CheckpointUnorderedInsertion",
      "type": "error"
    },
    {
      "inputs": [],
      "name": "ECDSAInvalidSignature",
      "type": "error"
    },
    {
      "inputs": [
        {
          "internalType": "uint256",
          "name": "length",
          "type": "uint256"
        }
      ],
      "name": "ECDSAInvalidSignatureLength",
      "type": "error"
    },
    {
      "inputs": [
        {
          "internalType": "bytes32",
          "name": "s",
          "type": "bytes32"
        }
      ],
      "name": "ECDSAInvalidSignatureS",
      "type": "error"
    },
    {
      "inputs": [
        {
          "internalType": "uint256",
          "name": "timepoint",
          "type": "uint256"
        },
        {
          "internalType": "uint48",
          "name": "clock",
          "type": "uint48"
        }
      ],
      "name": "ERC5805FutureLookup",
      "type": "error"
    },
    {
      "inputs": [],
      "name": "ERC6372InconsistentClock",
      "type": "error"
    },
    {
      "inputs": [],
      "name": "ERC721EnumerableForbiddenBatchMint",
      "type": "error"
    },
    {
      "inputs": [
        {
          "internalType": "address",
          "name": "sender",
          "type": "address"
        },
        {
          "internalType": "uint256",
          "name": "tokenId",
          "type": "uint256"
        },
        {
          "internalType": "address",
          "name": "owner",
          "type": "address"
        }
      ],
      "name": "ERC721IncorrectOwner",
      "type": "error"
    },
    {
      "inputs": [
        {
          "internalType": "address",
          "name": "operator",
          "type": "address"
        },
        {
          "internalType": "uint256",
          "name": "tokenId",
          "type": "uint256"
        }
      ],
      "name": "ERC721InsufficientApproval",
      "type": "error"
    },
    {
      "inputs": [
        {
          "internalType": "address",
          "name": "approver",
          "type": "address"
        }
      ],
      "name": "ERC721InvalidApprover",
      "type": "error"
    },
    {
      "inputs": [
        {
          "internalType": "address",
          "name": "operator",
          "type": "address"
        }
      ],
      "name": "ERC721InvalidOperator",
      "type": "error"
    },
    {
      "inputs": [
        {
          "internalType": "address",
          "name": "owner",
          "type": "address"
        }
      ],
      "name": "ERC721InvalidOwner",
      "type": "error"
    },
    {
      "inputs": [
        {
          "internalType": "address",
          "name": "receiver",
          "type": "address"
        }
      ],
      "name": "ERC721InvalidReceiver",
      "type": "error"
    },
    {
      "inputs": [
        {
          "internalType": "address",
          "name": "sender",
          "type": "address"
        }
      ],
      "name": "ERC721InvalidSender",
      "type": "error"
    },
    {
      "inputs": [
        {
          "internalType": "uint256",
          "name": "tokenId",
          "type": "uint256"
        }
      ],
      "name": "ERC721NonexistentToken",
      "type": "error"
    },
    {
      "inputs": [
        {
          "internalType": "address",
          "name": "owner",
          "type": "address"
        },
        {
          "internalType": "uint256",
          "name": "index",
          "type": "uint256"
        }
      ],
      "name": "ERC721OutOfBoundsIndex",
      "type": "error"
    },
    {
      "inputs": [
        {
          "internalType": "address",
          "name": "account",
          "type": "address"
        },
        {
          "internalType": "uint256",
          "name": "currentNonce",
          "type": "uint256"
        }
      ],
      "name": "InvalidAccountNonce",
      "type": "error"
    },
    {
      "inputs": [],
      "name": "InvalidShortString",
      "type": "error"
    },
    {
      "inputs": [
        {
          "internalType": "address",
          "name": "owner",
          "type": "address"
        }
      ],
      "name": "OwnableInvalidOwner",
      "type": "error"
    },
    {
      "inputs": [
        {
          "internalType": "address",
          "name": "account",
          "type": "address"
        }
      ],
      "name": "OwnableUnauthorizedAccount",
      "type": "error"
    },
    {
      "inputs": [
        {
          "internalType": "uint8",
          "name": "bits",
          "type": "uint8"
        },
        {
          "internalType": "uint256",
          "name": "value",
          "type": "uint256"
        }
      ],
      "name": "SafeCastOverflowedUintDowncast",
      "type": "error"
    },
    {
      "inputs": [
        {
          "internalType": "string",
          "name": "str",
          "type": "string"
        }
      ],
      "name": "StringTooLong",
      "type": "error"
    },
    {
      "inputs": [
        {
          "internalType": "uint256",
          "name": "expiry",
          "type": "uint256"
        }
      ],
      "name": "VotesExpiredSignature",
      "type": "error"
    },
    {
      "anonymous": false,
      "inputs": [
        {
          "indexed": true,
          "internalType": "address",
          "name": "owner",
          "type": "address"
        },
        {
          "indexed": true,
          "internalType": "address",
          "name": "approved",
          "type": "address"
        },
        {
          "indexed": true,
          "internalType": "uint256",
          "name": "tokenId",
          "type": "uint256"
        }
      ],
      "name": "Approval",
      "type": "event"
    },
    {
      "anonymous": false,
      "inputs": [
        {
          "indexed": true,
          "internalType": "address",
          "name": "owner",
          "type": "address"
        },
        {
          "indexed": true,
          "internalType": "address",
          "name": "operator",
          "type": "address"
        },
        {
          "indexed": false,
          "internalType": "bool",
          "name": "approved",
          "type": "bool"
        }
      ],
      "name": "ApprovalForAll",
      "type": "event"
    },
    {
      "anonymous": false,
      "inputs": [
        {
          "indexed": false,
          "internalType": "uint256",
          "name": "_fromTokenId",
          "type": "uint256"
        },
        {
          "indexed": false,
          "internalType": "uint256",
          "name": "_toTokenId",
          "type": "uint256"
        }
      ],
      "name": "BatchMetadataUpdate",
      "type": "event"
    },
    {
      "anonymous": false,
      "inputs": [
        {
          "indexed": true,
          "internalType": "address",
          "name": "delegator",
          "type": "address"
        },
        {
          "indexed": true,
          "internalType": "address",
          "name": "fromDelegate",
          "type": "address"
        },
        {
          "indexed": true,
          "internalType": "address",
          "name": "toDelegate",
          "type": "address"
        }
      ],
      "name": "DelegateChanged",
      "type": "event"
    },
    {
      "anonymous": false,
      "inputs": [
        {
          "indexed": true,
          "internalType": "address",
          "name": "delegate",
          "type": "address"
        },
        {
          "indexed": false,
          "internalType": "uint256",
          "name": "previousVotes",
          "type": "uint256"
        },
        {
          "indexed": false,
          "internalType": "uint256",
          "name": "newVotes",
          "type": "uint256"
        }
      ],
      "name": "DelegateVotesChanged",
      "type": "event"
    },
    {
      "anonymous": false,
      "inputs": [],
      "name": "EIP712DomainChanged",
      "type": "event"
    },
    {
      "anonymous": false,
      "inputs": [
        {
          "indexed": false,
          "internalType": "uint256",
          "name": "_tokenId",
          "type": "uint256"
        }
      ],
      "name": "MetadataUpdate",
      "type": "event"
    },
    {
      "anonymous": false,
      "inputs": [
        {
          "indexed": true,
          "internalType": "address",
          "name": "previousOwner",
          "type": "address"
        },
        {
          "indexed": true,
          "internalType": "address",
          "name": "newOwner",
          "type": "address"
        }
      ],
      "name": "OwnershipTransferred",
      "type": "event"
    },
    {
      "anonymous": false,
      "inputs": [
        {
          "indexed": true,
          "internalType": "address",
          "name": "from",
          "type": "address"
        },
        {
          "indexed": true,
          "internalType": "address",
          "name": "to",
          "type": "address"
        },
        {
          "indexed": true,
          "internalType": "uint256",
          "name": "tokenId",
          "type": "uint256"
        }
      ],
      "name": "Transfer",
      "type": "event"
    },
    {
      "inputs": [],
      "name": "CLOCK_MODE",
      "outputs": [
        {
          "internalType": "string",
          "name": "",
          "type": "string"
        }
      ],
      "stateMutability": "pure",
      "type": "function"
    },
    {
      "inputs": [
        {
          "internalType": "address",
          "name": "to",
          "type": "address"
        },
        {
          "internalType": "uint256",
          "name": "tokenId",
          "type": "uint256"
        }
      ],
      "name": "approve",
      "outputs": [],
      "stateMutability": "nonpayable",
      "type": "function"
    },
    {
      "inputs": [
        {
          "internalType": "address",
          "name": "owner",
          "type": "address"
        }
      ],
      "name": "balanceOf",
      "outputs": [
        {
          "internalType": "uint256",
          "name": "",
          "type": "uint256"
        }
      ],
      "stateMutability": "view",
      "type": "function"
    },
    {
      "inputs": [
        {
          "internalType": "uint256",
          "name": "tokenId",
          "type": "uint256"
        }
      ],
      "name": "burn",
      "outputs": [],
      "stateMutability": "nonpayable",
      "type": "function"
    },
    {
      "inputs": [],
      "name": "clock",
      "outputs": [
        {
          "internalType": "uint48",
          "name": "",
          "type": "uint48"
        }
      ],
      "stateMutability": "view",
      "type": "function"
    },
    {
      "inputs": [
        {
          "internalType": "address",
          "name": "delegatee",
          "type": "address"
        }
      ],
      "name": "delegate",
      "outputs": [],
      "stateMutability": "nonpayable",
      "type": "function"
    },
    {
      "inputs": [
        {
          "internalType": "address",
          "name": "delegatee",
          "type": "address"
        },
        {
          "internalType": "uint256",
          "name": "nonce",
          "type": "uint256"
        },
        {
          "internalType": "uint256",
          "name": "expiry",
          "type": "uint256"
        },
        {
          "internalType": "uint8",
          "name": "v",
          "type": "uint8"
        },
        {
          "internalType": "bytes32",
          "name": "r",
          "type": "bytes32"
        },
        {
          "internalType": "bytes32",
          "name": "s",
          "type": "bytes32"
        }
      ],
      "name": "delegateBySig",
      "outputs": [],
      "stateMutability": "nonpayable",
      "type": "function"
    },
    {
      "inputs": [
        {
          "internalType": "address",
          "name": "account",
          "type": "address"
        }
      ],
      "name": "delegates",
      "outputs": [
        {
          "internalType": "address",
          "name": "",
          "type": "address"
        }
      ],
      "stateMutability": "view",
      "type": "function"
    },
    {
      "inputs": [],
      "name": "eip712Domain",
      "outputs": [
        {
          "internalType": "bytes1",
          "name": "fields",
          "type": "bytes1"
        },
        {
          "internalType": "string",
          "name": "name",
          "type": "string"
        },
        {
          "internalType": "string",
          "name": "version",
          "type": "string"
        },
        {
          "internalType": "uint256",
          "name": "chainId",
          "type": "uint256"
        },
        {
          "internalType": "address",
          "name": "verifyingContract",
          "type": "address"
        },
        {
          "internalType": "bytes32",
          "name": "salt",
          "type": "bytes32"
        },
        {
          "internalType": "uint256[]",
          "name": "extensions",
          "type": "uint256[]"
        }
      ],
      "stateMutability": "view",
      "type": "function"
    },
    {
      "inputs": [
        {
          "internalType": "uint256",
          "name": "tokenId",
          "type": "uint256"
        }
      ],
      "name": "getApproved",
      "outputs": [
        {
          "internalType": "address",
          "name": "",
          "type": "address"
        }
      ],
      "stateMutability": "view",
      "type": "function"
    },
    {
      "inputs": [
        {
          "internalType": "uint256",
          "name": "timepoint",
          "type": "uint256"
        }
      ],
      "name": "getPastTotalSupply",
      "outputs": [
        {
          "internalType": "uint256",
          "name": "",
          "type": "uint256"
        }
      ],
      "stateMutability": "view",
      "type": "function"
    },
    {
      "inputs": [
        {
          "internalType": "address",
          "name": "account",
          "type": "address"
        },
        {
          "internalType": "uint256",
          "name": "timepoint",
          "type": "uint256"
        }
      ],
      "name": "getPastVotes",
      "outputs": [
        {
          "internalType": "uint256",
          "name": "",
          "type": "uint256"
        }
      ],
      "stateMutability": "view",
      "type": "function"
    },
    {
      "inputs": [
        {
          "internalType": "address",
          "name": "account",
          "type": "address"
        }
      ],
      "name": "getVotes",
      "outputs": [
        {
          "internalType": "uint256",
          "name": "",
          "type": "uint256"
        }
      ],
      "stateMutability": "view",
      "type": "function"
    },
    {
      "inputs": [
        {
          "internalType": "uint256",
          "name": "tokenId",
          "type": "uint256"
        }
      ],
      "name": "govBurn",
      "outputs": [],
      "stateMutability": "nonpayable",
      "type": "function"
    },
    {
      "inputs": [
        {
          "internalType": "address",
          "name": "owner",
          "type": "address"
        },
        {
          "internalType": "address",
          "name": "operator",
          "type": "address"
        }
      ],
      "name": "isApprovedForAll",
      "outputs": [
        {
          "internalType": "bool",
          "name": "",
          "type": "bool"
        }
      ],
      "stateMutability": "view",
      "type": "function"
    },
    {
      "inputs": [],
      "name": "name",
      "outputs": [
        {
          "internalType": "string",
          "name": "",
          "type": "string"
        }
      ],
      "stateMutability": "view",
      "type": "function"
    },
    {
      "inputs": [
        {
          "internalType": "address",
          "name": "owner",
          "type": "address"
        }
      ],
      "name": "nonces",
      "outputs": [
        {
          "internalType": "uint256",
          "name": "",
          "type": "uint256"
        }
      ],
      "stateMutability": "view",
      "type": "function"
    },
    {
      "inputs": [],
      "name": "owner",
      "outputs": [
        {
          "internalType": "address",
          "name": "",
          "type": "address"
        }
      ],
      "stateMutability": "view",
      "type": "function"
    },
    {
      "inputs": [
        {
          "internalType": "uint256",
          "name": "tokenId",
          "type": "uint256"
        }
      ],
      "name": "ownerOf",
      "outputs": [
        {
          "internalType": "address",
          "name": "",
          "type": "address"
        }
      ],
      "stateMutability": "view",
      "type": "function"
    },
    {
      "inputs": [],
      "name": "renounceOwnership",
      "outputs": [],
      "stateMutability": "nonpayable",
      "type": "function"
    },
    {
      "inputs": [
        {
          "internalType": "address",
          "name": "to",
          "type": "address"
        },
        {
          "internalType": "string",
          "name": "uri",
          "type": "string"
        }
      ],
      "name": "safeMint",
      "outputs": [],
      "stateMutability": "nonpayable",
      "type": "function"
    },
    {
      "inputs": [
        {
          "internalType": "address",
          "name": "from",
          "type": "address"
        },
        {
          "internalType": "address",
          "name": "to",
          "type": "address"
        },
        {
          "internalType": "uint256",
          "name": "tokenId",
          "type": "uint256"
        }
      ],
      "name": "safeTransferFrom",
      "outputs": [],
      "stateMutability": "nonpayable",
      "type": "function"
    },
    {
      "inputs": [
        {
          "internalType": "address",
          "name": "from",
          "type": "address"
        },
        {
          "internalType": "address",
          "name": "to",
          "type": "address"
        },
        {
          "internalType": "uint256",
          "name": "tokenId",
          "type": "uint256"
        },
        {
          "internalType": "bytes",
          "name": "data",
          "type": "bytes"
        }
      ],
      "name": "safeTransferFrom",
      "outputs": [],
      "stateMutability": "nonpayable",
      "type": "function"
    },
    {
      "inputs": [
        {
          "internalType": "address",
          "name": "operator",
          "type": "address"
        },
        {
          "internalType": "bool",
          "name": "approved",
          "type": "bool"
        }
      ],
      "name": "setApprovalForAll",
      "outputs": [],
      "stateMutability": "nonpayable",
      "type": "function"
    },
    {
      "inputs": [
        {
          "internalType": "uint256",
          "name": "tokenId",
          "type": "uint256"
        },
        {
          "internalType": "string",
          "name": "uri",
          "type": "string"
        }
      ],
      "name": "setMetadata",
      "outputs": [],
      "stateMutability": "nonpayable",
      "type": "function"
    },
    {
      "inputs": [
        {
          "internalType": "bytes4",
          "name": "interfaceId",
          "type": "bytes4"
        }
      ],
      "name": "supportsInterface",
      "outputs": [
        {
          "internalType": "bool",
          "name": "",
          "type": "bool"
        }
      ],
      "stateMutability": "view",
      "type": "function"
    },
    {
      "inputs": [],
      "name": "symbol",
      "outputs": [
        {
          "internalType": "string",
          "name": "",
          "type": "string"
        }
      ],
      "stateMutability": "view",
      "type": "function"
    },
    {
      "inputs": [
        {
          "internalType": "uint256",
          "name": "index",
          "type": "uint256"
        }
      ],
      "name": "tokenByIndex",
      "outputs": [
        {
          "internalType": "uint256",
          "name": "",
          "type": "uint256"
        }
      ],
      "stateMutability": "view",
      "type": "function"
    },
    {
      "inputs": [
        {
          "internalType": "address",
          "name": "owner",
          "type": "address"
        },
        {
          "internalType": "uint256",
          "name": "index",
          "type": "uint256"
        }
      ],
      "name": "tokenOfOwnerByIndex",
      "outputs": [
        {
          "internalType": "uint256",
          "name": "",
          "type": "uint256"
        }
      ],
      "stateMutability": "view",
      "type": "function"
    },
    {
      "inputs": [
        {
          "internalType": "uint256",
          "name": "tokenId",
          "type": "uint256"
        }
      ],
      "name": "tokenURI",
      "outputs": [
        {
          "internalType": "string",
          "name": "",
          "type": "string"
        }
      ],
      "stateMutability": "view",
      "type": "function"
    },
    {
      "inputs": [],
      "name": "totalSupply",
      "outputs": [
        {
          "internalType": "uint256",
          "name": "",
          "type": "uint256"
        }
      ],
      "stateMutability": "view",
      "type": "function"
    },
    {
      "inputs": [
        {
          "internalType": "address",
          "name": "from",
          "type": "address"
        },
        {
          "internalType": "address",
          "name": "to",
          "type": "address"
        },
        {
          "internalType": "uint256",
          "name": "tokenId",
          "type": "uint256"
        }
      ],
      "name": "transferFrom",
      "outputs": [],
      "stateMutability": "nonpayable",
      "type": "function"
    },
    {
      "inputs": [
        {
          "internalType": "address",
          "name": "newOwner",
          "type": "address"
        }
      ],
      "name": "transferOwnership",
      "outputs": [],
      "stateMutability": "nonpayable",
      "type": "function"
    }
  ],
  "transactionHash": "0xfd942e4dfc505e39e356d50f140b258d1f8117ebcb215067e8e25c76b6410ceb",
  "args": [
    "0xD8a394e7d7894bDF2C57139fF17e5CBAa29Dd977",
    [
      "0xD8a394e7d7894bDF2C57139fF17e5CBAa29Dd977",
      "0xe61A1a5278290B6520f0CEf3F2c71Ba70CF5cf4C"
    ],
    "https://bafkreicj62l5xu6pk2xx7x7n6b7rpunxb4ehlh7fevyjapid3556smuz4y.ipfs.w3s.link/",
    "Membership NFT",
    "MEMBER"
  ],
  "numDeployments": 1,
  "solcInputHash": "43414d466d76d4c40f0372c917beeb72",
  "bytecode": "0x610160604052348015610010575f80fd5b50604051613f0c380380613f0c83398101604081905261002f91611036565b6040805180820190915260018152603160f81b602082015282908682845f61005783826111d5565b50600161006482826111d5565b5050506001600160a01b03811661009557604051631e4fbdf760e01b81525f60048201526024015b60405180910390fd5b61009e81610195565b506100aa82600c6101e6565b610120526100b981600d6101e6565b61014052815160208084019190912060e052815190820120610100524660a05261014560e05161010051604080517f8b73c3c69bb8fe3d512ecc4cf759cc79239f7b179b0ffacaa9a75d522b39400f60208201529081019290925260608201524660808201523060a08201525f9060c00160405160208183030381529060405280519060200120905090565b60805250503060c0525f5b845181101561018a5761018285828151811061016e5761016e611294565b60200260200101518561021860201b60201c565b600101610150565b505050505050611405565b600b80546001600160a01b038381166001600160a01b0319831681179093556040519116919082907f8be0079c531659141344cd1fd0a4f28419497f9722a3daafe3b4186f6b6457e0905f90a35050565b5f602083511015610201576101fa8361024f565b9050610212565b8161020c84826111d5565b5060ff90505b92915050565b61022061028c565b601280545f9182610230836112bc565b90915550905061024083826102bb565b61024a81836102de565b505050565b5f80829050601f81511115610279578260405163305a27a960e01b815260040161008c91906112ff565b805161028482611311565b179392505050565b600b546001600160a01b031633146102b95760405163118cdaa760e01b815233600482015260240161008c565b565b6102da828260405180602001604052805f81525061032d60201b60201c565b5050565b5f828152600a602052604090206102f582826111d5565b506040518281527ff8e1a15aba9398e019f0b49df1a4fde98ee17ae345cb5f6b5e2c27f5033e8ce79060200160405180910390a15050565b6103378383610343565b61024a5f8484846103a4565b6001600160a01b03821661036c57604051633250574960e11b81525f600482015260240161008c565b5f6103788383836104cb565b90506001600160a01b0381161561024a576040516339e3563760e11b81525f600482015260240161008c565b6001600160a01b0383163b156104c557604051630a85bd0160e11b81526001600160a01b0384169063150b7a02906103e6903390889087908790600401611334565b6020604051808303815f875af1925050508015610420575060408051601f3d908101601f1916820190925261041d91810190611370565b60015b610487573d80801561044d576040519150601f19603f3d011682016040523d82523d5f602084013e610452565b606091505b5080515f0361047f57604051633250574960e11b81526001600160a01b038516600482015260240161008c565b805181602001fd5b6001600160e01b03198116630a85bd0160e11b146104c357604051633250574960e11b81526001600160a01b038516600482015260240161008c565b505b50505050565b5f6001600160a01b03821615806104e957506001600160a01b038416155b6105355760405162461bcd60e51b815260206004820152601c60248201527f54686973204e4654206973206e6f74207472616e7366657261626c6500000000604482015260640161008c565b610540848484610548565b949350505050565b5f80610555858585610563565b90506105408186600161062e565b5f806105708585856106b6565b90506001600160a01b0381166105cc576105c784600880545f838152600960205260408120829055600182018355919091527ff3f7a9fe364faab93b216da50a3214154f22a0a2b415b23a84c8169e8b636ee30155565b6105ef565b846001600160a01b0316816001600160a01b0316146105ef576105ef81856107a8565b6001600160a01b03851661060b5761060684610835565b610540565b846001600160a01b0316816001600160a01b0316146105405761054085856108dc565b6001600160a01b03831661065c576106596011610a7e61092a60201b176106548461093c565b610973565b50505b6001600160a01b038216610685576106826011610a906109a160201b176106548461093c565b50505b6001600160a01b038381165f908152600f602052604080822054858416835291205461024a929182169116836109ac565b5f828152600260205260408120546001600160a01b03908116908316156106e2576106e2818486610afc565b6001600160a01b0381161561071c576106fd5f858180610b60565b6001600160a01b0381165f90815260036020526040902080545f190190555b6001600160a01b0385161561074a576001600160a01b0385165f908152600360205260409020805460010190555b5f8481526002602052604080822080546001600160a01b0319166001600160a01b0389811691821790925591518793918516917fddf252ad1be2c89b69c2b068fc378daa952ba7f163c4a11628f55a4df523b3ef91a4949350505050565b5f6107b283610c82565b5f83815260076020526040902054909150808214610803576001600160a01b0384165f9081526006602090815260408083208584528252808320548484528184208190558352600790915290208190555b505f9182526007602090815260408084208490556001600160a01b039094168352600681528383209183525290812055565b6008545f9061084690600190611397565b5f838152600960205260408120546008805493945090928490811061086d5761086d611294565b905f5260205f2001549050806008838154811061088c5761088c611294565b5f9182526020808320909101929092558281526009909152604080822084905585825281205560088054806108c3576108c36113aa565b600190038181905f5260205f20015f9055905550505050565b5f60016108e884610c82565b6108f29190611397565b6001600160a01b039093165f908152600660209081526040808320868452825280832085905593825260079052919091209190915550565b5f61093582846113be565b9392505050565b5f6001600160d01b0382111561096f576040516306dfcc6560e41b815260d060048201526024810183905260440161008c565b5090565b5f806109944261098c61098588610cc7565b868860201c565b879190610d0e565b915091505b935093915050565b5f61093582846113e5565b816001600160a01b0316836001600160a01b0316141580156109cd57505f81115b1561024a576001600160a01b03831615610a65576001600160a01b0383165f90815260106020908152604082208291610a1391906109a1901b610a90176106548661093c565b6001600160d01b031691506001600160d01b03169150846001600160a01b03165f80516020613eec8339815191528383604051610a5a929190918252602082015260400190565b60405180910390a250505b6001600160a01b0382161561024a576001600160a01b0382165f90815260106020908152604082208291610aa6919061092a901b610a7e176106548661093c565b6001600160d01b031691506001600160d01b03169150836001600160a01b03165f80516020613eec8339815191528383604051610aed929190918252602082015260400190565b60405180910390a25050505050565b610b07838383610d1b565b61024a576001600160a01b038316610b3557604051637e27328960e01b81526004810182905260240161008c565b60405163177e802f60e01b81526001600160a01b03831660048201526024810182905260440161008c565b8080610b7457506001600160a01b03821615155b15610c53575f610b8384610d9b565b90506001600160a01b03831615801590610baf5750826001600160a01b0316816001600160a01b031614155b8015610be057506001600160a01b038082165f9081526005602090815260408083209387168352929052205460ff16155b15610c095760405163a9fbf51f60e01b81526001600160a01b038416600482015260240161008c565b8115610c515783856001600160a01b0316826001600160a01b03167f8c5be1e5ebec7d5bd14f71427d1e84f3dd0314c0f7b2291e5b200ac8c7c3b92560405160405180910390a45b505b50505f90815260046020526040902080546001600160a01b0319166001600160a01b0392909216919091179055565b5f6001600160a01b038216610cac576040516322718ad960e21b81525f600482015260240161008c565b506001600160a01b03165f9081526003602052604090205490565b80545f908015610d0657610ced83610ce0600184611397565b5f91825260209091200190565b54660100000000000090046001600160d01b0316610935565b5f9392505050565b5f80610994858585610dd3565b5f6001600160a01b038316158015906105405750826001600160a01b0316846001600160a01b03161480610d7357506001600160a01b038085165f9081526005602090815260408083209387168352929052205460ff165b806105405750505f908152600460205260409020546001600160a01b03908116911614919050565b5f818152600260205260408120546001600160a01b03168061021257604051637e27328960e01b81526004810184905260240161008c565b82545f9081908015610ef8575f610def87610ce0600185611397565b60408051808201909152905465ffffffffffff80821680845266010000000000009092046001600160d01b031660208401529192509087161015610e4657604051632520601d60e01b815260040160405180910390fd5b805165ffffffffffff808816911603610e955784610e6988610ce0600186611397565b80546001600160d01b039290921666010000000000000265ffffffffffff909216919091179055610ee8565b6040805180820190915265ffffffffffff80881682526001600160d01b0380881660208085019182528b54600181018d555f8d815291909120945191519092166601000000000000029216919091179101555b6020015192508391506109999050565b50506040805180820190915265ffffffffffff80851682526001600160d01b0380851660208085019182528854600181018a555f8a8152918220955192519093166601000000000000029190931617920191909155905081610999565b80516001600160a01b0381168114610f6b575f80fd5b919050565b634e487b7160e01b5f52604160045260245ffd5b604051601f8201601f191681016001600160401b0381118282101715610fac57610fac610f70565b604052919050565b5f5b83811015610fce578181015183820152602001610fb6565b50505f910152565b5f82601f830112610fe5575f80fd5b81516001600160401b03811115610ffe57610ffe610f70565b611011601f8201601f1916602001610f84565b818152846020838601011115611025575f80fd5b610540826020830160208701610fb4565b5f805f805f60a0868803121561104a575f80fd5b61105386610f55565b602087810151919650906001600160401b0380821115611071575f80fd5b818901915089601f830112611084575f80fd5b81518181111561109657611096610f70565b8060051b6110a5858201610f84565b918252838101850191858101908d8411156110be575f80fd5b948601945b838610156110e3576110d486610f55565b825294860194908601906110c3565b60408d0151909a509550505050808311156110fc575f80fd5b6111088a848b01610fd6565b9550606089015192508083111561111d575f80fd5b6111298a848b01610fd6565b9450608089015192508083111561113e575f80fd5b505061114c88828901610fd6565b9150509295509295909350565b600181811c9082168061116d57607f821691505b60208210810361118b57634e487b7160e01b5f52602260045260245ffd5b50919050565b601f82111561024a57805f5260205f20601f840160051c810160208510156111b65750805b601f840160051c820191505b818110156104c3575f81556001016111c2565b81516001600160401b038111156111ee576111ee610f70565b611202816111fc8454611159565b84611191565b602080601f831160018114611235575f841561121e5750858301515b5f19600386901b1c1916600185901b17855561128c565b5f85815260208120601f198616915b8281101561126357888601518255948401946001909101908401611244565b508582101561128057878501515f19600388901b60f8161c191681555b505060018460011b0185555b505050505050565b634e487b7160e01b5f52603260045260245ffd5b634e487b7160e01b5f52601160045260245ffd5b5f600182016112cd576112cd6112a8565b5060010190565b5f81518084526112eb816020860160208601610fb4565b601f01601f19169290920160200192915050565b602081525f61093560208301846112d4565b8051602080830151919081101561118b575f1960209190910360031b1b16919050565b6001600160a01b03858116825284166020820152604081018390526080606082018190525f90611366908301846112d4565b9695505050505050565b5f60208284031215611380575f80fd5b81516001600160e01b031981168114610935575f80fd5b81810381811115610212576102126112a8565b634e487b7160e01b5f52603160045260245ffd5b6001600160d01b038181168382160190808211156113de576113de6112a8565b5092915050565b6001600160d01b038281168282160390808211156113de576113de6112a8565b60805160a05160c05160e051610100516101205161014051612a966114565f395f610e1601525f610de401525f61177801525f61175001525f6116ab01525f6116d501525f6116ff0152612a965ff3fe608060405234801561000f575f80fd5b50600436106101f2575f3560e01c80636352211e1161011457806395d89b41116100a9578063c3cda52011610079578063c3cda52014610471578063c87b56dd14610484578063d204c45e14610497578063e985e9c5146104aa578063f2fde38b146104bd575f80fd5b806395d89b41146104305780639ab24eb014610438578063a22cb4651461044b578063b88d4fde1461045e575f80fd5b806384b0196e116100e457806384b0196e146103db5780638da5cb5b146103f65780638e539e8c1461040757806391ddadf41461041a575f80fd5b80636352211e1461038557806370a0823114610398578063715018a6146103ab5780637ecebe00146103b3575f80fd5b80633a46b1a81161018a5780634f6ccce71161015a5780634f6ccce714610321578063587cde1e14610334578063593aa2831461035f5780635c19a95c14610372575f80fd5b80633a46b1a8146102be57806342842e0e146102d157806342966c68146102e45780634bf5d7e9146102f7575f80fd5b806318160ddd116101c557806318160ddd1461027357806323b872dd1461028557806326926d46146102985780632f745c59146102ab575f80fd5b806301ffc9a7146101f657806306fdde031461021e578063081812fc14610233578063095ea7b31461025e575b5f80fd5b610209610204366004612380565b6104d0565b60405190151581526020015b60405180910390f35b6102266104e0565b60405161021591906123e8565b6102466102413660046123fa565b61056f565b6040516001600160a01b039091168152602001610215565b61027161026c36600461242c565b610596565b005b6008545b604051908152602001610215565b610271610293366004612454565b6105a5565b6102716102a63660046123fa565b610633565b6102776102b936600461242c565b610647565b6102776102cc36600461242c565b6106aa565b6102716102df366004612454565b61071f565b6102716102f23660046123fa565b61073e565b60408051808201909152600e81526d06d6f64653d74696d657374616d760941b6020820152610226565b61027761032f3660046123fa565b610749565b61024661034236600461248d565b6001600160a01b039081165f908152600f60205260409020541690565b61027161036d36600461254b565b61079e565b61027161038036600461248d565b6107b0565b6102466103933660046123fa565b6107bb565b6102776103a636600461248d565b6107c5565b61027161080a565b6102776103c136600461248d565b6001600160a01b03165f908152600e602052604090205490565b6103e361081d565b604051610215979695949392919061258f565b600b546001600160a01b0316610246565b6102776104153660046123fa565b61085f565b60405165ffffffffffff42168152602001610215565b6102266108be565b61027761044636600461248d565b6108cd565b610271610459366004612626565b6108fc565b61027161046c36600461265f565b610907565b61027161047f3660046126d6565b61091e565b6102266104923660046123fa565b6109da565b6102716104a5366004612731565b6109e5565b6102096104b8366004612766565b610a17565b6102716104cb36600461248d565b610a44565b5f6104da82610a9b565b92915050565b60605f80546104ee90612797565b80601f016020809104026020016040519081016040528092919081815260200182805461051a90612797565b80156105655780601f1061053c57610100808354040283529160200191610565565b820191905f5260205f20905b81548152906001019060200180831161054857829003601f168201915b5050505050905090565b5f61057982610abf565b505f828152600460205260409020546001600160a01b03166104da565b6105a1828233610af7565b5050565b6001600160a01b0382166105d357604051633250574960e11b81525f60048201526024015b60405180910390fd5b5f6105df838333610b04565b9050836001600160a01b0316816001600160a01b03161461062d576040516364283d7b60e01b81526001600160a01b03808616600483015260248201849052821660448201526064016105ca565b50505050565b61063b610b81565b61064481610bae565b50565b5f610651836107c5565b82106106825760405163295f44f760e21b81526001600160a01b0384166004820152602481018390526044016105ca565b506001600160a01b03919091165f908152600660209081526040808320938352929052205490565b5f4265ffffffffffff811683106106e557604051637669fc0f60e11b81526004810184905265ffffffffffff821660248201526044016105ca565b61070e6106f184610be6565b6001600160a01b0386165f90815260106020526040902090610c1c565b6001600160d01b0316949350505050565b61073983838360405180602001604052805f815250610907565b505050565b6105a15f8233610b04565b5f61075360085490565b821061077b5760405163295f44f760e21b81525f6004820152602481018390526044016105ca565b6008828154811061078e5761078e6127cf565b905f5260205f2001549050919050565b6107a6610b81565b6105a18282610ccc565b336105a18183610d1b565b5f6104da82610abf565b5f6001600160a01b0382166107ef576040516322718ad960e21b81525f60048201526024016105ca565b506001600160a01b03165f9081526003602052604090205490565b610812610b81565b61081b5f610d8c565b565b5f6060805f805f606061082e610ddd565b610836610e0f565b604080515f80825260208201909252600f60f81b9b939a50919850469750309650945092509050565b5f4265ffffffffffff8116831061089a57604051637669fc0f60e11b81526004810184905265ffffffffffff821660248201526044016105ca565b6108ae6108a684610be6565b601190610c1c565b6001600160d01b03169392505050565b6060600180546104ee90612797565b6001600160a01b0381165f9081526010602052604081206108ed90610e3c565b6001600160d01b031692915050565b6105a1338383610e73565b6109128484846105a5565b61062d84848484610f11565b8342111561094257604051632341d78760e11b8152600481018590526024016105ca565b604080517fe48329057bfd03d55e49b547132e39cffd9c1820ad7b9d4c5307691425d15adf60208201526001600160a01b0388169181019190915260608101869052608081018590525f906109bb906109b39060a00160405160208183030381529060405280519060200120611037565b858585611063565b90506109c7818761108f565b6109d18188610d1b565b50505050505050565b60606104da826110e1565b6109ed610b81565b601280545f91826109fd836127f7565b919050559050610a0d83826111e4565b6107398183610ccc565b6001600160a01b039182165f90815260056020908152604080832093909416825291909152205460ff1690565b610a4c610b81565b6001600160a01b038116610a7557604051631e4fbdf760e01b81525f60048201526024016105ca565b61064481610d8c565b5f610a89828461280f565b9392505050565b5f610a898284612836565b5f6001600160e01b03198216632483248360e11b14806104da57506104da826111fd565b5f818152600260205260408120546001600160a01b0316806104da57604051637e27328960e01b8152600481018490526024016105ca565b6107398383836001611221565b5f6001600160a01b0382161580610b2257506001600160a01b038416155b610b6e5760405162461bcd60e51b815260206004820152601c60248201527f54686973204e4654206973206e6f74207472616e7366657261626c650000000060448201526064016105ca565b610b79848484611325565b949350505050565b600b546001600160a01b0316331461081b5760405163118cdaa760e01b81523360048201526024016105ca565b5f610bba5f835f610b04565b90506001600160a01b0381166105a157604051637e27328960e01b8152600481018390526024016105ca565b5f65ffffffffffff821115610c18576040516306dfcc6560e41b815260306004820152602481018390526044016105ca565b5090565b81545f9081816005811115610c78575f610c3584611340565b610c3f9085612856565b5f8881526020902090915081015465ffffffffffff9081169087161015610c6857809150610c76565b610c73816001612869565b92505b505b5f610c8587878585611424565b90508015610cbf57610ca987610c9c600184612856565b5f91825260209091200190565b54600160301b90046001600160d01b0316610cc1565b5f5b979650505050505050565b5f828152600a60205260409020610ce382826128c0565b506040518281527ff8e1a15aba9398e019f0b49df1a4fde98ee17ae345cb5f6b5e2c27f5033e8ce79060200160405180910390a15050565b6001600160a01b038281165f818152600f602052604080822080548686166001600160a01b0319821681179092559151919094169392849290917f3134e8a2e6d97e929a7e54011ea5485d7d196dd5f0ba4d4ef95803e8e3fc257f9190a46107398183610d8786611483565b61148d565b600b80546001600160a01b038381166001600160a01b0319831681179093556040519116919082907f8be0079c531659141344cd1fd0a4f28419497f9722a3daafe3b4186f6b6457e0905f90a35050565b6060610e0a7f0000000000000000000000000000000000000000000000000000000000000000600c6115f6565b905090565b6060610e0a7f0000000000000000000000000000000000000000000000000000000000000000600d6115f6565b80545f908015610e6b57610e5583610c9c600184612856565b54600160301b90046001600160d01b0316610a89565b5f9392505050565b6001600160a01b038216610ea557604051630b61174360e31b81526001600160a01b03831660048201526024016105ca565b6001600160a01b038381165f81815260056020908152604080832094871680845294825291829020805460ff191686151590811790915591519182527f17307eab39ab6107e8899845ad3d59bd9653f200f220920489ca2b5937696c31910160405180910390a3505050565b6001600160a01b0383163b1561062d57604051630a85bd0160e11b81526001600160a01b0384169063150b7a0290610f53903390889087908790600401612980565b6020604051808303815f875af1925050508015610f8d575060408051601f3d908101601f19168201909252610f8a918101906129bc565b60015b610ff4573d808015610fba576040519150601f19603f3d011682016040523d82523d5f602084013e610fbf565b606091505b5080515f03610fec57604051633250574960e11b81526001600160a01b03851660048201526024016105ca565b805181602001fd5b6001600160e01b03198116630a85bd0160e11b1461103057604051633250574960e11b81526001600160a01b03851660048201526024016105ca565b5050505050565b5f6104da61104361169f565b8360405161190160f01b8152600281019290925260228201526042902090565b5f805f80611073888888886117c8565b9250925092506110838282611890565b50909695505050505050565b6001600160a01b0382165f908152600e60205260409020805460018101909155818114610739576040516301d4b62360e61b81526001600160a01b0384166004820152602481018290526044016105ca565b60606110ec82610abf565b505f828152600a60205260408120805461110590612797565b80601f016020809104026020016040519081016040528092919081815260200182805461113190612797565b801561117c5780601f106111535761010080835404028352916020019161117c565b820191905f5260205f20905b81548152906001019060200180831161115f57829003601f168201915b505050505090505f61119860408051602081019091525f815290565b905080515f036111a9575092915050565b8151156111db5780826040516020016111c39291906129d7565b60405160208183030381529060405292505050919050565b610b7984611948565b6105a1828260405180602001604052805f8152506119b8565b5f6001600160e01b0319821663780e9d6360e01b14806104da57506104da826119ce565b808061123557506001600160a01b03821615155b156112f6575f61124484610abf565b90506001600160a01b038316158015906112705750826001600160a01b0316816001600160a01b031614155b801561128357506112818184610a17565b155b156112ac5760405163a9fbf51f60e01b81526001600160a01b03841660048201526024016105ca565b81156112f45783856001600160a01b0316826001600160a01b03167f8c5be1e5ebec7d5bd14f71427d1e84f3dd0314c0f7b2291e5b200ac8c7c3b92560405160405180910390a45b505b50505f90815260046020526040902080546001600160a01b0319166001600160a01b0392909216919091179055565b5f80611332858585611a1d565b9050610b7981866001611ae8565b5f815f0361134f57505f919050565b5f600161135b84611b5d565b901c6001901b9050600181848161137457611374612a05565b048201901c9050600181848161138c5761138c612a05565b048201901c905060018184816113a4576113a4612a05565b048201901c905060018184816113bc576113bc612a05565b048201901c905060018184816113d4576113d4612a05565b048201901c905060018184816113ec576113ec612a05565b048201901c9050600181848161140457611404612a05565b048201901c9050610a898182858161141e5761141e612a05565b04611bf0565b5f5b8183101561147b575f6114398484611c05565b5f8781526020902090915065ffffffffffff86169082015465ffffffffffff16111561146757809250611475565b611472816001612869565b93505b50611426565b509392505050565b5f6104da826107c5565b816001600160a01b0316836001600160a01b0316141580156114ae57505f81115b15610739576001600160a01b03831615611555576001600160a01b0383165f90815260106020526040812081906114f090610a906114eb86611c1f565b611c52565b6001600160d01b031691506001600160d01b03169150846001600160a01b03167fdec2bacdd2f05b59de34da9b523dff8be42e5e38e818c82fdb0bae774387a724838360405161154a929190918252602082015260400190565b60405180910390a250505b6001600160a01b03821615610739576001600160a01b0382165f908152601060205260408120819061158d90610a7e6114eb86611c1f565b6001600160d01b031691506001600160d01b03169150836001600160a01b03167fdec2bacdd2f05b59de34da9b523dff8be42e5e38e818c82fdb0bae774387a72483836040516115e7929190918252602082015260400190565b60405180910390a25050505050565b606060ff83146116105761160983611c83565b90506104da565b81805461161c90612797565b80601f016020809104026020016040519081016040528092919081815260200182805461164890612797565b80156116935780601f1061166a57610100808354040283529160200191611693565b820191905f5260205f20905b81548152906001019060200180831161167657829003601f168201915b505050505090506104da565b5f306001600160a01b037f0000000000000000000000000000000000000000000000000000000000000000161480156116f757507f000000000000000000000000000000000000000000000000000000000000000046145b1561172157507f000000000000000000000000000000000000000000000000000000000000000090565b610e0a604080517f8b73c3c69bb8fe3d512ecc4cf759cc79239f7b179b0ffacaa9a75d522b39400f60208201527f0000000000000000000000000000000000000000000000000000000000000000918101919091527f000000000000000000000000000000000000000000000000000000000000000060608201524660808201523060a08201525f9060c00160405160208183030381529060405280519060200120905090565b5f80807f7fffffffffffffffffffffffffffffff5d576e7357a4501ddfe92f46681b20a084111561180157505f91506003905082611886565b604080515f808252602082018084528a905260ff891692820192909252606081018790526080810186905260019060a0016020604051602081039080840390855afa158015611852573d5f803e3d5ffd5b5050604051601f1901519150506001600160a01b03811661187d57505f925060019150829050611886565b92505f91508190505b9450945094915050565b5f8260038111156118a3576118a3612a19565b036118ac575050565b60018260038111156118c0576118c0612a19565b036118de5760405163f645eedf60e01b815260040160405180910390fd5b60028260038111156118f2576118f2612a19565b036119135760405163fce698f760e01b8152600481018290526024016105ca565b600382600381111561192757611927612a19565b036105a1576040516335e2f38360e21b8152600481018290526024016105ca565b606061195382610abf565b505f61196960408051602081019091525f815290565b90505f8151116119875760405180602001604052805f815250610a89565b8061199184611cc0565b6040516020016119a29291906129d7565b6040516020818303038152906040529392505050565b6119c28383611d50565b6107395f848484610f11565b5f6001600160e01b031982166380ac58cd60e01b14806119fe57506001600160e01b03198216635b5e139f60e01b145b806104da57506301ffc9a760e01b6001600160e01b03198316146104da565b5f80611a2a858585611db1565b90506001600160a01b038116611a8657611a8184600880545f838152600960205260408120829055600182018355919091527ff3f7a9fe364faab93b216da50a3214154f22a0a2b415b23a84c8169e8b636ee30155565b611aa9565b846001600160a01b0316816001600160a01b031614611aa957611aa98185611ea3565b6001600160a01b038516611ac557611ac084611f30565b610b79565b846001600160a01b0316816001600160a01b031614610b7957610b798585611fd7565b6001600160a01b038316611b0a57611b076011610a7e6114eb84611c1f565b50505b6001600160a01b038216611b2c57611b296011610a906114eb84611c1f565b50505b6001600160a01b038381165f908152600f60205260408082205485841683529120546107399291821691168361148d565b5f80608083901c15611b7157608092831c92015b604083901c15611b8357604092831c92015b602083901c15611b9557602092831c92015b601083901c15611ba757601092831c92015b600883901c15611bb957600892831c92015b600483901c15611bcb57600492831c92015b600283901c15611bdd57600292831c92015b600183901c156104da5760010192915050565b5f818310611bfe5781610a89565b5090919050565b5f611c136002848418612a2d565b610a8990848416612869565b5f6001600160d01b03821115610c18576040516306dfcc6560e41b815260d06004820152602481018390526044016105ca565b5f80611c7642611c6e611c6488610e3c565b868863ffffffff16565b879190612025565b915091505b935093915050565b60605f611c8f83612032565b6040805160208082528183019092529192505f91906020820181803683375050509182525060208101929092525090565b60605f611ccc83612059565b60010190505f8167ffffffffffffffff811115611ceb57611ceb6124a6565b6040519080825280601f01601f191660200182016040528015611d15576020820181803683370190505b5090508181016020015b5f19016f181899199a1a9b1b9c1cb0b131b232b360811b600a86061a8153600a8504945084611d1f57509392505050565b6001600160a01b038216611d7957604051633250574960e11b81525f60048201526024016105ca565b5f611d8583835f610b04565b90506001600160a01b03811615610739576040516339e3563760e11b81525f60048201526024016105ca565b5f828152600260205260408120546001600160a01b0390811690831615611ddd57611ddd818486612130565b6001600160a01b03811615611e1757611df85f855f80611221565b6001600160a01b0381165f90815260036020526040902080545f190190555b6001600160a01b03851615611e45576001600160a01b0385165f908152600360205260409020805460010190555b5f8481526002602052604080822080546001600160a01b0319166001600160a01b0389811691821790925591518793918516917fddf252ad1be2c89b69c2b068fc378daa952ba7f163c4a11628f55a4df523b3ef91a4949350505050565b5f611ead836107c5565b5f83815260076020526040902054909150808214611efe576001600160a01b0384165f9081526006602090815260408083208584528252808320548484528184208190558352600790915290208190555b505f9182526007602090815260408084208490556001600160a01b039094168352600681528383209183525290812055565b6008545f90611f4190600190612856565b5f8381526009602052604081205460088054939450909284908110611f6857611f686127cf565b905f5260205f20015490508060088381548110611f8757611f876127cf565b5f918252602080832090910192909255828152600990915260408082208490558582528120556008805480611fbe57611fbe612a4c565b600190038181905f5260205f20015f9055905550505050565b5f6001611fe3846107c5565b611fed9190612856565b6001600160a01b039093165f908152600660209081526040808320868452825280832085905593825260079052919091209190915550565b5f80611c76858585612194565b5f60ff8216601f8111156104da57604051632cd44ac360e21b815260040160405180910390fd5b5f8072184f03e93ff9f4daa797ed6e38ed64bf6a1f0160401b83106120975772184f03e93ff9f4daa797ed6e38ed64bf6a1f0160401b830492506040015b6d04ee2d6d415b85acef810000000083106120c3576d04ee2d6d415b85acef8100000000830492506020015b662386f26fc1000083106120e157662386f26fc10000830492506010015b6305f5e10083106120f9576305f5e100830492506008015b612710831061210d57612710830492506004015b6064831061211f576064830492506002015b600a83106104da5760010192915050565b61213b83838361230a565b610739576001600160a01b03831661216957604051637e27328960e01b8152600481018290526024016105ca565b60405163177e802f60e01b81526001600160a01b0383166004820152602481018290526044016105ca565b82545f90819080156122b0575f6121b087610c9c600185612856565b60408051808201909152905465ffffffffffff808216808452600160301b9092046001600160d01b03166020840152919250908716101561220457604051632520601d60e01b815260040160405180910390fd5b805165ffffffffffff808816911603612250578461222788610c9c600186612856565b80546001600160d01b0392909216600160301b0265ffffffffffff9092169190911790556122a0565b6040805180820190915265ffffffffffff80881682526001600160d01b0380881660208085019182528b54600181018d555f8d81529190912094519151909216600160301b029216919091179101555b602001519250839150611c7b9050565b50506040805180820190915265ffffffffffff80851682526001600160d01b0380851660208085019182528854600181018a555f8a815291822095519251909316600160301b029190931617920191909155905081611c7b565b5f6001600160a01b03831615801590610b795750826001600160a01b0316846001600160a01b0316148061234357506123438484610a17565b80610b795750505f908152600460205260409020546001600160a01b03908116911614919050565b6001600160e01b031981168114610644575f80fd5b5f60208284031215612390575f80fd5b8135610a898161236b565b5f5b838110156123b557818101518382015260200161239d565b50505f910152565b5f81518084526123d481602086016020860161239b565b601f01601f19169290920160200192915050565b602081525f610a8960208301846123bd565b5f6020828403121561240a575f80fd5b5035919050565b80356001600160a01b0381168114612427575f80fd5b919050565b5f806040838503121561243d575f80fd5b61244683612411565b946020939093013593505050565b5f805f60608486031215612466575f80fd5b61246f84612411565b925061247d60208501612411565b9150604084013590509250925092565b5f6020828403121561249d575f80fd5b610a8982612411565b634e487b7160e01b5f52604160045260245ffd5b5f67ffffffffffffffff808411156124d4576124d46124a6565b604051601f8501601f19908116603f011681019082821181831017156124fc576124fc6124a6565b81604052809350858152868686011115612514575f80fd5b858560208301375f602087830101525050509392505050565b5f82601f83011261253c575f80fd5b610a89838335602085016124ba565b5f806040838503121561255c575f80fd5b82359150602083013567ffffffffffffffff811115612579575f80fd5b6125858582860161252d565b9150509250929050565b60ff60f81b881681525f602060e060208401526125af60e084018a6123bd565b83810360408501526125c1818a6123bd565b606085018990526001600160a01b038816608086015260a0850187905284810360c0860152855180825260208088019350909101905f5b81811015612614578351835292840192918401916001016125f8565b50909c9b505050505050505050505050565b5f8060408385031215612637575f80fd5b61264083612411565b915060208301358015158114612654575f80fd5b809150509250929050565b5f805f8060808587031215612672575f80fd5b61267b85612411565b935061268960208601612411565b925060408501359150606085013567ffffffffffffffff8111156126ab575f80fd5b8501601f810187136126bb575f80fd5b6126ca878235602084016124ba565b91505092959194509250565b5f805f805f8060c087890312156126eb575f80fd5b6126f487612411565b95506020870135945060408701359350606087013560ff81168114612717575f80fd5b9598949750929560808101359460a0909101359350915050565b5f8060408385031215612742575f80fd5b61274b83612411565b9150602083013567ffffffffffffffff811115612579575f80fd5b5f8060408385031215612777575f80fd5b61278083612411565b915061278e60208401612411565b90509250929050565b600181811c908216806127ab57607f821691505b6020821081036127c957634e487b7160e01b5f52602260045260245ffd5b50919050565b634e487b7160e01b5f52603260045260245ffd5b634e487b7160e01b5f52601160045260245ffd5b5f60018201612808576128086127e3565b5060010190565b6001600160d01b0381811683821601908082111561282f5761282f6127e3565b5092915050565b6001600160d01b0382811682821603908082111561282f5761282f6127e3565b818103818111156104da576104da6127e3565b808201808211156104da576104da6127e3565b601f82111561073957805f5260205f20601f840160051c810160208510156128a15750805b601f840160051c820191505b81811015611030575f81556001016128ad565b815167ffffffffffffffff8111156128da576128da6124a6565b6128ee816128e88454612797565b8461287c565b602080601f831160018114612921575f841561290a5750858301515b5f19600386901b1c1916600185901b178555612978565b5f85815260208120601f198616915b8281101561294f57888601518255948401946001909101908401612930565b508582101561296c57878501515f19600388901b60f8161c191681555b505060018460011b0185555b505050505050565b6001600160a01b03858116825284166020820152604081018390526080606082018190525f906129b2908301846123bd565b9695505050505050565b5f602082840312156129cc575f80fd5b8151610a898161236b565b5f83516129e881846020880161239b565b8351908301906129fc81836020880161239b565b01949350505050565b634e487b7160e01b5f52601260045260245ffd5b634e487b7160e01b5f52602160045260245ffd5b5f82612a4757634e487b7160e01b5f52601260045260245ffd5b500490565b634e487b7160e01b5f52603160045260245ffdfea2646970667358221220ff23196085def8c6ce3ca93f44acac72ccd447f2da25feeb5320a8f240b74b0364736f6c63430008190033dec2bacdd2f05b59de34da9b523dff8be42e5e38e818c82fdb0bae774387a724",
  "devdoc": {
    "errors": {
      "CheckpointUnorderedInsertion()": [
        {
          "details": "A value was attempted to be inserted on a past checkpoint."
        }
      ],
      "ECDSAInvalidSignature()": [
        {
          "details": "The signature derives the `address(0)`."
        }
      ],
      "ECDSAInvalidSignatureLength(uint256)": [
        {
          "details": "The signature has an invalid length."
        }
      ],
      "ECDSAInvalidSignatureS(bytes32)": [
        {
          "details": "The signature has an S value that is in the upper half order."
        }
      ],
      "ERC5805FutureLookup(uint256,uint48)": [
        {
          "details": "Lookup to future votes is not available."
        }
      ],
      "ERC6372InconsistentClock()": [
        {
          "details": "The clock was incorrectly modified."
        }
      ],
      "ERC721EnumerableForbiddenBatchMint()": [
        {
          "details": "Batch mint is not allowed."
        }
      ],
      "ERC721IncorrectOwner(address,uint256,address)": [
        {
          "details": "Indicates an error related to the ownership over a particular token. Used in transfers.",
          "params": {
            "owner": "Address of the current owner of a token.",
            "sender": "Address whose tokens are being transferred.",
            "tokenId": "Identifier number of a token."
          }
        }
      ],
      "ERC721InsufficientApproval(address,uint256)": [
        {
          "details": "Indicates a failure with the `operator`s approval. Used in transfers.",
          "params": {
            "operator": "Address that may be allowed to operate on tokens without being their owner.",
            "tokenId": "Identifier number of a token."
          }
        }
      ],
      "ERC721InvalidApprover(address)": [
        {
          "details": "Indicates a failure with the `approver` of a token to be approved. Used in approvals.",
          "params": {
            "approver": "Address initiating an approval operation."
          }
        }
      ],
      "ERC721InvalidOperator(address)": [
        {
          "details": "Indicates a failure with the `operator` to be approved. Used in approvals.",
          "params": {
            "operator": "Address that may be allowed to operate on tokens without being their owner."
          }
        }
      ],
      "ERC721InvalidOwner(address)": [
        {
          "details": "Indicates that an address can't be an owner. For example, `address(0)` is a forbidden owner in EIP-20. Used in balance queries.",
          "params": {
            "owner": "Address of the current owner of a token."
          }
        }
      ],
      "ERC721InvalidReceiver(address)": [
        {
          "details": "Indicates a failure with the token `receiver`. Used in transfers.",
          "params": {
            "receiver": "Address to which tokens are being transferred."
          }
        }
      ],
      "ERC721InvalidSender(address)": [
        {
          "details": "Indicates a failure with the token `sender`. Used in transfers.",
          "params": {
            "sender": "Address whose tokens are being transferred."
          }
        }
      ],
      "ERC721NonexistentToken(uint256)": [
        {
          "details": "Indicates a `tokenId` whose `owner` is the zero address.",
          "params": {
            "tokenId": "Identifier number of a token."
          }
        }
      ],
      "ERC721OutOfBoundsIndex(address,uint256)": [
        {
          "details": "An `owner`'s token query was out of bounds for `index`. NOTE: The owner being `address(0)` indicates a global out of bounds index."
        }
      ],
      "InvalidAccountNonce(address,uint256)": [
        {
          "details": "The nonce used for an `account` is not the expected current nonce."
        }
      ],
      "OwnableInvalidOwner(address)": [
        {
          "details": "The owner is not a valid owner account. (eg. `address(0)`)"
        }
      ],
      "OwnableUnauthorizedAccount(address)": [
        {
          "details": "The caller account is not authorized to perform an operation."
        }
      ],
      "SafeCastOverflowedUintDowncast(uint8,uint256)": [
        {
          "details": "Value doesn't fit in an uint of `bits` size."
        }
      ],
      "VotesExpiredSignature(uint256)": [
        {
          "details": "The signature used has expired."
        }
      ]
    },
    "events": {
      "Approval(address,address,uint256)": {
        "details": "Emitted when `owner` enables `approved` to manage the `tokenId` token."
      },
      "ApprovalForAll(address,address,bool)": {
        "details": "Emitted when `owner` enables or disables (`approved`) `operator` to manage all of its assets."
      },
      "BatchMetadataUpdate(uint256,uint256)": {
        "details": "This event emits when the metadata of a range of tokens is changed. So that the third-party platforms such as NFT market could timely update the images and related attributes of the NFTs."
      },
      "DelegateChanged(address,address,address)": {
        "details": "Emitted when an account changes their delegate."
      },
      "DelegateVotesChanged(address,uint256,uint256)": {
        "details": "Emitted when a token transfer or delegate change results in changes to a delegate's number of voting units."
      },
      "EIP712DomainChanged()": {
        "details": "MAY be emitted to signal that the domain could have changed."
      },
      "MetadataUpdate(uint256)": {
        "details": "This event emits when the metadata of a token is changed. So that the third-party platforms such as NFT market could timely update the images and related attributes of the NFT."
      },
      "Transfer(address,address,uint256)": {
        "details": "Emitted when `tokenId` token is transferred from `from` to `to`."
      }
    },
    "kind": "dev",
    "methods": {
      "CLOCK_MODE()": {
        "details": "Machine-readable description of the clock as specified in EIP-6372."
      },
      "approve(address,uint256)": {
        "details": "See {IERC721-approve}."
      },
      "balanceOf(address)": {
        "details": "See {IERC721-balanceOf}."
      },
      "burn(uint256)": {
        "details": "Burns `tokenId`. See {ERC721-_burn}. Requirements: - The caller must own `tokenId` or be an approved operator."
      },
      "clock()": {
        "details": "Clock used for flagging checkpoints. Can be overridden to implement timestamp based checkpoints (and voting), in which case {CLOCK_MODE} should be overridden as well to match."
      },
      "delegate(address)": {
        "details": "Delegates votes from the sender to `delegatee`."
      },
      "delegateBySig(address,uint256,uint256,uint8,bytes32,bytes32)": {
        "details": "Delegates votes from signer to `delegatee`."
      },
      "delegates(address)": {
        "details": "Returns the delegate that `account` has chosen."
      },
      "eip712Domain()": {
        "details": "See {IERC-5267}."
      },
      "getApproved(uint256)": {
        "details": "See {IERC721-getApproved}."
      },
      "getPastTotalSupply(uint256)": {
        "details": "Returns the total supply of votes available at a specific moment in the past. If the `clock()` is configured to use block numbers, this will return the value at the end of the corresponding block. NOTE: This value is the sum of all available votes, which is not necessarily the sum of all delegated votes. Votes that have not been delegated are still part of total supply, even though they would not participate in a vote. Requirements: - `timepoint` must be in the past. If operating using block numbers, the block must be already mined."
      },
      "getPastVotes(address,uint256)": {
        "details": "Returns the amount of votes that `account` had at a specific moment in the past. If the `clock()` is configured to use block numbers, this will return the value at the end of the corresponding block. Requirements: - `timepoint` must be in the past. If operating using block numbers, the block must be already mined."
      },
      "getVotes(address)": {
        "details": "Returns the current amount of votes that `account` has."
      },
      "govBurn(uint256)": {
        "details": "Marked `onlyOwner`: only the Gov contract can access this function",
        "params": {
          "tokenId": "The id of the NFT"
        }
      },
      "isApprovedForAll(address,address)": {
        "details": "See {IERC721-isApprovedForAll}."
      },
      "name()": {
        "details": "See {IERC721Metadata-name}."
      },
      "nonces(address)": {
        "details": "Returns the next unused nonce for an address."
      },
      "owner()": {
        "details": "Returns the address of the current owner."
      },
      "ownerOf(uint256)": {
        "details": "See {IERC721-ownerOf}."
      },
      "renounceOwnership()": {
        "details": "Leaves the contract without owner. It will not be possible to call `onlyOwner` functions. Can only be called by the current owner. NOTE: Renouncing ownership will leave the contract without an owner, thereby disabling any functionality that is only available to the owner."
      },
      "safeMint(address,string)": {
        "details": "Marked `onlyOwner`: only the Gov contract can access this function",
        "params": {
          "to": "The address of the recipient",
          "uri": "The `tokenURI` of the new member's NFT metadata (should be \"ipfs://<CID>\")"
        }
      },
      "safeTransferFrom(address,address,uint256)": {
        "details": "See {IERC721-safeTransferFrom}."
      },
      "safeTransferFrom(address,address,uint256,bytes)": {
        "details": "See {IERC721-safeTransferFrom}."
      },
      "setApprovalForAll(address,bool)": {
        "details": "See {IERC721-setApprovalForAll}."
      },
      "setMetadata(uint256,string)": {
        "details": "Marked `onlyOwner`: only the Gov contract can access this function",
        "params": {
          "tokenId": "The id of the NFT",
          "uri": "The new `tokenURI` for this ID (should be \"ipfs://<CID>\")"
        }
      },
      "symbol()": {
        "details": "See {IERC721Metadata-symbol}."
      },
      "tokenByIndex(uint256)": {
        "details": "See {IERC721Enumerable-tokenByIndex}."
      },
      "tokenOfOwnerByIndex(address,uint256)": {
        "details": "See {IERC721Enumerable-tokenOfOwnerByIndex}."
      },
      "totalSupply()": {
        "details": "See {IERC721Enumerable-totalSupply}."
      },
      "transferFrom(address,address,uint256)": {
        "details": "See {IERC721-transferFrom}."
      },
      "transferOwnership(address)": {
        "details": "Transfers ownership of the contract to a new account (`newOwner`). Can only be called by the current owner."
      }
    },
    "version": 1
  },
  "userdoc": {
    "kind": "user",
    "methods": {
      "govBurn(uint256)": {
        "notice": "Bans a member"
      },
      "safeMint(address,string)": {
        "notice": "Adds a member"
      },
      "setMetadata(uint256,string)": {
        "notice": "Replaces the tokenId of a given NFT"
      }
    },
    "version": 1
  },
  "storageLayout": {
    "storage": [
      {
        "astId": 4069,
        "contract": "contracts/NFT.sol:NFT",
        "label": "_name",
        "offset": 0,
        "slot": "0",
        "type": "t_string_storage"
      },
      {
        "astId": 4071,
        "contract": "contracts/NFT.sol:NFT",
        "label": "_symbol",
        "offset": 0,
        "slot": "1",
        "type": "t_string_storage"
      },
      {
        "astId": 4075,
        "contract": "contracts/NFT.sol:NFT",
        "label": "_owners",
        "offset": 0,
        "slot": "2",
        "type": "t_mapping(t_uint256,t_address)"
      },
      {
        "astId": 4079,
        "contract": "contracts/NFT.sol:NFT",
        "label": "_balances",
        "offset": 0,
        "slot": "3",
        "type": "t_mapping(t_address,t_uint256)"
      },
      {
        "astId": 4083,
        "contract": "contracts/NFT.sol:NFT",
        "label": "_tokenApprovals",
        "offset": 0,
        "slot": "4",
        "type": "t_mapping(t_uint256,t_address)"
      },
      {
        "astId": 4089,
        "contract": "contracts/NFT.sol:NFT",
        "label": "_operatorApprovals",
        "offset": 0,
        "slot": "5",
        "type": "t_mapping(t_address,t_mapping(t_address,t_bool))"
      },
      {
        "astId": 5228,
        "contract": "contracts/NFT.sol:NFT",
        "label": "_ownedTokens",
        "offset": 0,
        "slot": "6",
        "type": "t_mapping(t_address,t_mapping(t_uint256,t_uint256))"
      },
      {
        "astId": 5232,
        "contract": "contracts/NFT.sol:NFT",
        "label": "_ownedTokensIndex",
        "offset": 0,
        "slot": "7",
        "type": "t_mapping(t_uint256,t_uint256)"
      },
      {
        "astId": 5235,
        "contract": "contracts/NFT.sol:NFT",
        "label": "_allTokens",
        "offset": 0,
        "slot": "8",
        "type": "t_array(t_uint256)dyn_storage"
      },
      {
        "astId": 5239,
        "contract": "contracts/NFT.sol:NFT",
        "label": "_allTokensIndex",
        "offset": 0,
        "slot": "9",
        "type": "t_mapping(t_uint256,t_uint256)"
      },
      {
        "astId": 5621,
        "contract": "contracts/NFT.sol:NFT",
        "label": "_tokenURIs",
        "offset": 0,
        "slot": "10",
        "type": "t_mapping(t_uint256,t_string_storage)"
      },
      {
        "astId": 8,
        "contract": "contracts/NFT.sol:NFT",
        "label": "_owner",
        "offset": 0,
        "slot": "11",
        "type": "t_address"
      },
      {
        "astId": 7180,
        "contract": "contracts/NFT.sol:NFT",
        "label": "_nameFallback",
        "offset": 0,
        "slot": "12",
        "type": "t_string_storage"
      },
      {
        "astId": 7182,
        "contract": "contracts/NFT.sol:NFT",
        "label": "_versionFallback",
        "offset": 0,
        "slot": "13",
        "type": "t_string_storage"
      },
      {
        "astId": 6159,
        "contract": "contracts/NFT.sol:NFT",
        "label": "_nonces",
        "offset": 0,
        "slot": "14",
        "type": "t_mapping(t_address,t_uint256)"
      },
      {
        "astId": 3253,
        "contract": "contracts/NFT.sol:NFT",
        "label": "_delegatee",
        "offset": 0,
        "slot": "15",
        "type": "t_mapping(t_address,t_address)"
      },
      {
        "astId": 3258,
        "contract": "contracts/NFT.sol:NFT",
        "label": "_delegateCheckpoints",
        "offset": 0,
        "slot": "16",
        "type": "t_mapping(t_address,t_struct(Trace208)11029_storage)"
      },
      {
        "astId": 3261,
        "contract": "contracts/NFT.sol:NFT",
        "label": "_totalCheckpoints",
        "offset": 0,
        "slot": "17",
        "type": "t_struct(Trace208)11029_storage"
      },
      {
        "astId": 12834,
        "contract": "contracts/NFT.sol:NFT",
        "label": "_nextTokenId",
        "offset": 0,
        "slot": "18",
        "type": "t_uint256"
      }
    ],
    "types": {
      "t_address": {
        "encoding": "inplace",
        "label": "address",
        "numberOfBytes": "20"
      },
      "t_array(t_struct(Checkpoint208)11034_storage)dyn_storage": {
        "base": "t_struct(Checkpoint208)11034_storage",
        "encoding": "dynamic_array",
        "label": "struct Checkpoints.Checkpoint208[]",
        "numberOfBytes": "32"
      },
      "t_array(t_uint256)dyn_storage": {
        "base": "t_uint256",
        "encoding": "dynamic_array",
        "label": "uint256[]",
        "numberOfBytes": "32"
      },
      "t_bool": {
        "encoding": "inplace",
        "label": "bool",
        "numberOfBytes": "1"
      },
      "t_mapping(t_address,t_address)": {
        "encoding": "mapping",
        "key": "t_address",
        "label": "mapping(address => address)",
        "numberOfBytes": "32",
        "value": "t_address"
      },
      "t_mapping(t_address,t_bool)": {
        "encoding": "mapping",
        "key": "t_address",
        "label": "mapping(address => bool)",
        "numberOfBytes": "32",
        "value": "t_bool"
      },
      "t_mapping(t_address,t_mapping(t_address,t_bool))": {
        "encoding": "mapping",
        "key": "t_address",
        "label": "mapping(address => mapping(address => bool))",
        "numberOfBytes": "32",
        "value": "t_mapping(t_address,t_bool)"
      },
      "t_mapping(t_address,t_mapping(t_uint256,t_uint256))": {
        "encoding": "mapping",
        "key": "t_address",
        "label": "mapping(address => mapping(uint256 => uint256))",
        "numberOfBytes": "32",
        "value": "t_mapping(t_uint256,t_uint256)"
      },
      "t_mapping(t_address,t_struct(Trace208)11029_storage)": {
        "encoding": "mapping",
        "key": "t_address",
        "label": "mapping(address => struct Checkpoints.Trace208)",
        "numberOfBytes": "32",
        "value": "t_struct(Trace208)11029_storage"
      },
      "t_mapping(t_address,t_uint256)": {
        "encoding": "mapping",
        "key": "t_address",
        "label": "mapping(address => uint256)",
        "numberOfBytes": "32",
        "value": "t_uint256"
      },
      "t_mapping(t_uint256,t_address)": {
        "encoding": "mapping",
        "key": "t_uint256",
        "label": "mapping(uint256 => address)",
        "numberOfBytes": "32",
        "value": "t_address"
      },
      "t_mapping(t_uint256,t_string_storage)": {
        "encoding": "mapping",
        "key": "t_uint256",
        "label": "mapping(uint256 => string)",
        "numberOfBytes": "32",
        "value": "t_string_storage"
      },
      "t_mapping(t_uint256,t_uint256)": {
        "encoding": "mapping",
        "key": "t_uint256",
        "label": "mapping(uint256 => uint256)",
        "numberOfBytes": "32",
        "value": "t_uint256"
      },
      "t_string_storage": {
        "encoding": "bytes",
        "label": "string",
        "numberOfBytes": "32"
      },
      "t_struct(Checkpoint208)11034_storage": {
        "encoding": "inplace",
        "label": "struct Checkpoints.Checkpoint208",
        "members": [
          {
            "astId": 11031,
            "contract": "contracts/NFT.sol:NFT",
            "label": "_key",
            "offset": 0,
            "slot": "0",
            "type": "t_uint48"
          },
          {
            "astId": 11033,
            "contract": "contracts/NFT.sol:NFT",
            "label": "_value",
            "offset": 6,
            "slot": "0",
            "type": "t_uint208"
          }
        ],
        "numberOfBytes": "32"
      },
      "t_struct(Trace208)11029_storage": {
        "encoding": "inplace",
        "label": "struct Checkpoints.Trace208",
        "members": [
          {
            "astId": 11028,
            "contract": "contracts/NFT.sol:NFT",
            "label": "_checkpoints",
            "offset": 0,
            "slot": "0",
            "type": "t_array(t_struct(Checkpoint208)11034_storage)dyn_storage"
          }
        ],
        "numberOfBytes": "32"
      },
      "t_uint208": {
        "encoding": "inplace",
        "label": "uint208",
        "numberOfBytes": "26"
      },
      "t_uint256": {
        "encoding": "inplace",
        "label": "uint256",
        "numberOfBytes": "32"
      },
      "t_uint48": {
        "encoding": "inplace",
        "label": "uint48",
        "numberOfBytes": "6"
      }
    }
  }
}